{
	"contracts/Loop__Array.sol": {
		"structWithMap": {
			"abi": [
				{
					"inputs": [
						{
							"internalType": "uint256",
							"name": "",
							"type": "uint256"
						}
					],
					"name": "data",
					"outputs": [
						{
							"internalType": "string",
							"name": "name",
							"type": "string"
						},
						{
							"internalType": "uint256",
							"name": "class",
							"type": "uint256"
						}
					],
					"stateMutability": "view",
					"type": "function"
				},
				{
					"inputs": [
						{
							"internalType": "uint256",
							"name": "_roll",
							"type": "uint256"
						},
						{
							"internalType": "string",
							"name": "_name",
							"type": "string"
						},
						{
							"internalType": "uint256",
							"name": "_class",
							"type": "uint256"
						}
					],
					"name": "setter",
					"outputs": [],
					"stateMutability": "nonpayable",
					"type": "function"
				}
			],
			"devdoc": {
				"kind": "dev",
				"methods": {},
				"version": 1
			},
			"evm": {
				"assembly": "    /* \"contracts/Loop__Array.sol\":759:1034  contract structWithMap{... */\n  mstore(0x40, 0x80)\n  callvalue\n  dup1\n  iszero\n  tag_1\n  jumpi\n  0x00\n  dup1\n  revert\ntag_1:\n  pop\n  dataSize(sub_0)\n  dup1\n  dataOffset(sub_0)\n  0x00\n  codecopy\n  0x00\n  return\nstop\n\nsub_0: assembly {\n        /* \"contracts/Loop__Array.sol\":759:1034  contract structWithMap{... */\n      mstore(0x40, 0x80)\n      callvalue\n      dup1\n      iszero\n      tag_1\n      jumpi\n      0x00\n      dup1\n      revert\n    tag_1:\n      pop\n      jumpi(tag_2, lt(calldatasize, 0x04))\n      shr(0xe0, calldataload(0x00))\n      dup1\n      0x0c22cf41\n      eq\n      tag_3\n      jumpi\n      dup1\n      0xf0ba8440\n      eq\n      tag_4\n      jumpi\n    tag_2:\n      0x00\n      dup1\n      revert\n        /* \"contracts/Loop__Array.sol\":906:1031  function setter(uint _roll  ,string memory _name,uint _class)public... */\n    tag_3:\n      tag_5\n      0x04\n      dup1\n      calldatasize\n      sub\n      dup2\n      add\n      swap1\n      tag_6\n      swap2\n      swap1\n      tag_7\n      jump\t// in\n    tag_6:\n      tag_8\n      jump\t// in\n    tag_5:\n      stop\n        /* \"contracts/Loop__Array.sol\":864:897  mapping(uint=>Student)public data */\n    tag_4:\n      tag_9\n      0x04\n      dup1\n      calldatasize\n      sub\n      dup2\n      add\n      swap1\n      tag_10\n      swap2\n      swap1\n      tag_11\n      jump\t// in\n    tag_10:\n      tag_12\n      jump\t// in\n    tag_9:\n      mload(0x40)\n      tag_13\n      swap3\n      swap2\n      swap1\n      tag_14\n      jump\t// in\n    tag_13:\n      mload(0x40)\n      dup1\n      swap2\n      sub\n      swap1\n      return\n        /* \"contracts/Loop__Array.sol\":906:1031  function setter(uint _roll  ,string memory _name,uint _class)public... */\n    tag_8:\n        /* \"contracts/Loop__Array.sol\":1002:1023  Student(_name,_class) */\n      mload(0x40)\n      dup1\n      0x40\n      add\n      0x40\n      mstore\n      dup1\n        /* \"contracts/Loop__Array.sol\":1010:1015  _name */\n      dup4\n        /* \"contracts/Loop__Array.sol\":1002:1023  Student(_name,_class) */\n      dup2\n      mstore\n      0x20\n      add\n        /* \"contracts/Loop__Array.sol\":1016:1022  _class */\n      dup3\n        /* \"contracts/Loop__Array.sol\":1002:1023  Student(_name,_class) */\n      dup2\n      mstore\n      pop\n        /* \"contracts/Loop__Array.sol\":990:994  data */\n      0x00\n        /* \"contracts/Loop__Array.sol\":990:1001  data[_roll] */\n      dup1\n        /* \"contracts/Loop__Array.sol\":995:1000  _roll */\n      dup6\n        /* \"contracts/Loop__Array.sol\":990:1001  data[_roll] */\n      dup2\n      mstore\n      0x20\n      add\n      swap1\n      dup2\n      mstore\n      0x20\n      add\n      0x00\n      keccak256\n        /* \"contracts/Loop__Array.sol\":990:1023  data[_roll]=Student(_name,_class) */\n      0x00\n      dup3\n      add\n      mload\n      dup2\n      0x00\n      add\n      swap1\n      dup2\n      tag_16\n      swap2\n      swap1\n      tag_17\n      jump\t// in\n    tag_16:\n      pop\n      0x20\n      dup3\n      add\n      mload\n      dup2\n      0x01\n      add\n      sstore\n      swap1\n      pop\n      pop\n        /* \"contracts/Loop__Array.sol\":906:1031  function setter(uint _roll  ,string memory _name,uint _class)public... */\n      pop\n      pop\n      pop\n      jump\t// out\n        /* \"contracts/Loop__Array.sol\":864:897  mapping(uint=>Student)public data */\n    tag_12:\n      mstore(0x20, 0x00)\n      dup1\n      0x00\n      mstore\n      keccak256(0x00, 0x40)\n      0x00\n      swap2\n      pop\n      swap1\n      pop\n      dup1\n      0x00\n      add\n      dup1\n      sload\n      tag_18\n      swap1\n      tag_19\n      jump\t// in\n    tag_18:\n      dup1\n      0x1f\n      add\n      0x20\n      dup1\n      swap2\n      div\n      mul\n      0x20\n      add\n      mload(0x40)\n      swap1\n      dup2\n      add\n      0x40\n      mstore\n      dup1\n      swap3\n      swap2\n      swap1\n      dup2\n      dup2\n      mstore\n      0x20\n      add\n      dup3\n      dup1\n      sload\n      tag_20\n      swap1\n      tag_19\n      jump\t// in\n    tag_20:\n      dup1\n      iszero\n      tag_21\n      jumpi\n      dup1\n      0x1f\n      lt\n      tag_22\n      jumpi\n      0x0100\n      dup1\n      dup4\n      sload\n      div\n      mul\n      dup4\n      mstore\n      swap2\n      0x20\n      add\n      swap2\n      jump(tag_21)\n    tag_22:\n      dup3\n      add\n      swap2\n      swap1\n      0x00\n      mstore\n      keccak256(0x00, 0x20)\n      swap1\n    tag_23:\n      dup2\n      sload\n      dup2\n      mstore\n      swap1\n      0x01\n      add\n      swap1\n      0x20\n      add\n      dup1\n      dup4\n      gt\n      tag_23\n      jumpi\n      dup3\n      swap1\n      sub\n      0x1f\n      and\n      dup3\n      add\n      swap2\n    tag_21:\n      pop\n      pop\n      pop\n      pop\n      pop\n      swap1\n      dup1\n      0x01\n      add\n      sload\n      swap1\n      pop\n      dup3\n      jump\t// out\n        /* \"#utility.yul\":7:82   */\n    tag_24:\n        /* \"#utility.yul\":40:46   */\n      0x00\n        /* \"#utility.yul\":73:75   */\n      0x40\n        /* \"#utility.yul\":67:76   */\n      mload\n        /* \"#utility.yul\":57:76   */\n      swap1\n      pop\n        /* \"#utility.yul\":7:82   */\n      swap1\n      jump\t// out\n        /* \"#utility.yul\":88:205   */\n    tag_25:\n        /* \"#utility.yul\":197:198   */\n      0x00\n        /* \"#utility.yul\":194:195   */\n      dup1\n        /* \"#utility.yul\":187:199   */\n      revert\n        /* \"#utility.yul\":211:328   */\n    tag_26:\n        /* \"#utility.yul\":320:321   */\n      0x00\n        /* \"#utility.yul\":317:318   */\n      dup1\n        /* \"#utility.yul\":310:322   */\n      revert\n        /* \"#utility.yul\":334:411   */\n    tag_27:\n        /* \"#utility.yul\":371:378   */\n      0x00\n        /* \"#utility.yul\":400:405   */\n      dup2\n        /* \"#utility.yul\":389:405   */\n      swap1\n      pop\n        /* \"#utility.yul\":334:411   */\n      swap2\n      swap1\n      pop\n      jump\t// out\n        /* \"#utility.yul\":417:539   */\n    tag_28:\n        /* \"#utility.yul\":490:514   */\n      tag_67\n        /* \"#utility.yul\":508:513   */\n      dup2\n        /* \"#utility.yul\":490:514   */\n      tag_27\n      jump\t// in\n    tag_67:\n        /* \"#utility.yul\":483:488   */\n      dup2\n        /* \"#utility.yul\":480:515   */\n      eq\n        /* \"#utility.yul\":470:533   */\n      tag_68\n      jumpi\n        /* \"#utility.yul\":529:530   */\n      0x00\n        /* \"#utility.yul\":526:527   */\n      dup1\n        /* \"#utility.yul\":519:531   */\n      revert\n        /* \"#utility.yul\":470:533   */\n    tag_68:\n        /* \"#utility.yul\":417:539   */\n      pop\n      jump\t// out\n        /* \"#utility.yul\":545:684   */\n    tag_29:\n        /* \"#utility.yul\":591:596   */\n      0x00\n        /* \"#utility.yul\":629:635   */\n      dup2\n        /* \"#utility.yul\":616:636   */\n      calldataload\n        /* \"#utility.yul\":607:636   */\n      swap1\n      pop\n        /* \"#utility.yul\":645:678   */\n      tag_70\n        /* \"#utility.yul\":672:677   */\n      dup2\n        /* \"#utility.yul\":645:678   */\n      tag_28\n      jump\t// in\n    tag_70:\n        /* \"#utility.yul\":545:684   */\n      swap3\n      swap2\n      pop\n      pop\n      jump\t// out\n        /* \"#utility.yul\":690:807   */\n    tag_30:\n        /* \"#utility.yul\":799:800   */\n      0x00\n        /* \"#utility.yul\":796:797   */\n      dup1\n        /* \"#utility.yul\":789:801   */\n      revert\n        /* \"#utility.yul\":813:930   */\n    tag_31:\n        /* \"#utility.yul\":922:923   */\n      0x00\n        /* \"#utility.yul\":919:920   */\n      dup1\n        /* \"#utility.yul\":912:924   */\n      revert\n        /* \"#utility.yul\":936:1038   */\n    tag_32:\n        /* \"#utility.yul\":977:983   */\n      0x00\n        /* \"#utility.yul\":1028:1030   */\n      0x1f\n        /* \"#utility.yul\":1024:1031   */\n      not\n        /* \"#utility.yul\":1019:1021   */\n      0x1f\n        /* \"#utility.yul\":1012:1017   */\n      dup4\n        /* \"#utility.yul\":1008:1022   */\n      add\n        /* \"#utility.yul\":1004:1032   */\n      and\n        /* \"#utility.yul\":994:1032   */\n      swap1\n      pop\n        /* \"#utility.yul\":936:1038   */\n      swap2\n      swap1\n      pop\n      jump\t// out\n        /* \"#utility.yul\":1044:1224   */\n    tag_33:\n        /* \"#utility.yul\":1092:1169   */\n      0x4e487b7100000000000000000000000000000000000000000000000000000000\n        /* \"#utility.yul\":1089:1090   */\n      0x00\n        /* \"#utility.yul\":1082:1170   */\n      mstore\n        /* \"#utility.yul\":1189:1193   */\n      0x41\n        /* \"#utility.yul\":1186:1187   */\n      0x04\n        /* \"#utility.yul\":1179:1194   */\n      mstore\n        /* \"#utility.yul\":1213:1217   */\n      0x24\n        /* \"#utility.yul\":1210:1211   */\n      0x00\n        /* \"#utility.yul\":1203:1218   */\n      revert\n        /* \"#utility.yul\":1230:1511   */\n    tag_34:\n        /* \"#utility.yul\":1313:1340   */\n      tag_76\n        /* \"#utility.yul\":1335:1339   */\n      dup3\n        /* \"#utility.yul\":1313:1340   */\n      tag_32\n      jump\t// in\n    tag_76:\n        /* \"#utility.yul\":1305:1311   */\n      dup2\n        /* \"#utility.yul\":1301:1341   */\n      add\n        /* \"#utility.yul\":1443:1449   */\n      dup2\n        /* \"#utility.yul\":1431:1441   */\n      dup2\n        /* \"#utility.yul\":1428:1450   */\n      lt\n        /* \"#utility.yul\":1407:1425   */\n      0xffffffffffffffff\n        /* \"#utility.yul\":1395:1405   */\n      dup3\n        /* \"#utility.yul\":1392:1426   */\n      gt\n        /* \"#utility.yul\":1389:1451   */\n      or\n        /* \"#utility.yul\":1386:1474   */\n      iszero\n      tag_77\n      jumpi\n        /* \"#utility.yul\":1454:1472   */\n      tag_78\n      tag_33\n      jump\t// in\n    tag_78:\n        /* \"#utility.yul\":1386:1474   */\n    tag_77:\n        /* \"#utility.yul\":1494:1504   */\n      dup1\n        /* \"#utility.yul\":1490:1492   */\n      0x40\n        /* \"#utility.yul\":1483:1505   */\n      mstore\n        /* \"#utility.yul\":1273:1511   */\n      pop\n        /* \"#utility.yul\":1230:1511   */\n      pop\n      pop\n      jump\t// out\n        /* \"#utility.yul\":1517:1646   */\n    tag_35:\n        /* \"#utility.yul\":1551:1557   */\n      0x00\n        /* \"#utility.yul\":1578:1598   */\n      tag_80\n      tag_24\n      jump\t// in\n    tag_80:\n        /* \"#utility.yul\":1568:1598   */\n      swap1\n      pop\n        /* \"#utility.yul\":1607:1640   */\n      tag_81\n        /* \"#utility.yul\":1635:1639   */\n      dup3\n        /* \"#utility.yul\":1627:1633   */\n      dup3\n        /* \"#utility.yul\":1607:1640   */\n      tag_34\n      jump\t// in\n    tag_81:\n        /* \"#utility.yul\":1517:1646   */\n      swap2\n      swap1\n      pop\n      jump\t// out\n        /* \"#utility.yul\":1652:1960   */\n    tag_36:\n        /* \"#utility.yul\":1714:1718   */\n      0x00\n        /* \"#utility.yul\":1804:1822   */\n      0xffffffffffffffff\n        /* \"#utility.yul\":1796:1802   */\n      dup3\n        /* \"#utility.yul\":1793:1823   */\n      gt\n        /* \"#utility.yul\":1790:1846   */\n      iszero\n      tag_83\n      jumpi\n        /* \"#utility.yul\":1826:1844   */\n      tag_84\n      tag_33\n      jump\t// in\n    tag_84:\n        /* \"#utility.yul\":1790:1846   */\n    tag_83:\n        /* \"#utility.yul\":1864:1893   */\n      tag_85\n        /* \"#utility.yul\":1886:1892   */\n      dup3\n        /* \"#utility.yul\":1864:1893   */\n      tag_32\n      jump\t// in\n    tag_85:\n        /* \"#utility.yul\":1856:1893   */\n      swap1\n      pop\n        /* \"#utility.yul\":1948:1952   */\n      0x20\n        /* \"#utility.yul\":1942:1946   */\n      dup2\n        /* \"#utility.yul\":1938:1953   */\n      add\n        /* \"#utility.yul\":1930:1953   */\n      swap1\n      pop\n        /* \"#utility.yul\":1652:1960   */\n      swap2\n      swap1\n      pop\n      jump\t// out\n        /* \"#utility.yul\":1966:2112   */\n    tag_37:\n        /* \"#utility.yul\":2063:2069   */\n      dup3\n        /* \"#utility.yul\":2058:2061   */\n      dup2\n        /* \"#utility.yul\":2053:2056   */\n      dup4\n        /* \"#utility.yul\":2040:2070   */\n      calldatacopy\n        /* \"#utility.yul\":2104:2105   */\n      0x00\n        /* \"#utility.yul\":2095:2101   */\n      dup4\n        /* \"#utility.yul\":2090:2093   */\n      dup4\n        /* \"#utility.yul\":2086:2102   */\n      add\n        /* \"#utility.yul\":2079:2106   */\n      mstore\n        /* \"#utility.yul\":1966:2112   */\n      pop\n      pop\n      pop\n      jump\t// out\n        /* \"#utility.yul\":2118:2543   */\n    tag_38:\n        /* \"#utility.yul\":2196:2201   */\n      0x00\n        /* \"#utility.yul\":2221:2287   */\n      tag_88\n        /* \"#utility.yul\":2237:2286   */\n      tag_89\n        /* \"#utility.yul\":2279:2285   */\n      dup5\n        /* \"#utility.yul\":2237:2286   */\n      tag_36\n      jump\t// in\n    tag_89:\n        /* \"#utility.yul\":2221:2287   */\n      tag_35\n      jump\t// in\n    tag_88:\n        /* \"#utility.yul\":2212:2287   */\n      swap1\n      pop\n        /* \"#utility.yul\":2310:2316   */\n      dup3\n        /* \"#utility.yul\":2303:2308   */\n      dup2\n        /* \"#utility.yul\":2296:2317   */\n      mstore\n        /* \"#utility.yul\":2348:2352   */\n      0x20\n        /* \"#utility.yul\":2341:2346   */\n      dup2\n        /* \"#utility.yul\":2337:2353   */\n      add\n        /* \"#utility.yul\":2386:2389   */\n      dup5\n        /* \"#utility.yul\":2377:2383   */\n      dup5\n        /* \"#utility.yul\":2372:2375   */\n      dup5\n        /* \"#utility.yul\":2368:2384   */\n      add\n        /* \"#utility.yul\":2365:2390   */\n      gt\n        /* \"#utility.yul\":2362:2474   */\n      iszero\n      tag_90\n      jumpi\n        /* \"#utility.yul\":2393:2472   */\n      tag_91\n      tag_31\n      jump\t// in\n    tag_91:\n        /* \"#utility.yul\":2362:2474   */\n    tag_90:\n        /* \"#utility.yul\":2483:2537   */\n      tag_92\n        /* \"#utility.yul\":2530:2536   */\n      dup5\n        /* \"#utility.yul\":2525:2528   */\n      dup3\n        /* \"#utility.yul\":2520:2523   */\n      dup6\n        /* \"#utility.yul\":2483:2537   */\n      tag_37\n      jump\t// in\n    tag_92:\n        /* \"#utility.yul\":2202:2543   */\n      pop\n        /* \"#utility.yul\":2118:2543   */\n      swap4\n      swap3\n      pop\n      pop\n      pop\n      jump\t// out\n        /* \"#utility.yul\":2563:2903   */\n    tag_39:\n        /* \"#utility.yul\":2619:2624   */\n      0x00\n        /* \"#utility.yul\":2668:2671   */\n      dup3\n        /* \"#utility.yul\":2661:2665   */\n      0x1f\n        /* \"#utility.yul\":2653:2659   */\n      dup4\n        /* \"#utility.yul\":2649:2666   */\n      add\n        /* \"#utility.yul\":2645:2672   */\n      slt\n        /* \"#utility.yul\":2635:2757   */\n      tag_94\n      jumpi\n        /* \"#utility.yul\":2676:2755   */\n      tag_95\n      tag_30\n      jump\t// in\n    tag_95:\n        /* \"#utility.yul\":2635:2757   */\n    tag_94:\n        /* \"#utility.yul\":2793:2799   */\n      dup2\n        /* \"#utility.yul\":2780:2800   */\n      calldataload\n        /* \"#utility.yul\":2818:2897   */\n      tag_96\n        /* \"#utility.yul\":2893:2896   */\n      dup5\n        /* \"#utility.yul\":2885:2891   */\n      dup3\n        /* \"#utility.yul\":2878:2882   */\n      0x20\n        /* \"#utility.yul\":2870:2876   */\n      dup7\n        /* \"#utility.yul\":2866:2883   */\n      add\n        /* \"#utility.yul\":2818:2897   */\n      tag_38\n      jump\t// in\n    tag_96:\n        /* \"#utility.yul\":2809:2897   */\n      swap2\n      pop\n        /* \"#utility.yul\":2625:2903   */\n      pop\n        /* \"#utility.yul\":2563:2903   */\n      swap3\n      swap2\n      pop\n      pop\n      jump\t// out\n        /* \"#utility.yul\":2909:3708   */\n    tag_7:\n        /* \"#utility.yul\":2996:3002   */\n      0x00\n        /* \"#utility.yul\":3004:3010   */\n      dup1\n        /* \"#utility.yul\":3012:3018   */\n      0x00\n        /* \"#utility.yul\":3061:3063   */\n      0x60\n        /* \"#utility.yul\":3049:3058   */\n      dup5\n        /* \"#utility.yul\":3040:3047   */\n      dup7\n        /* \"#utility.yul\":3036:3059   */\n      sub\n        /* \"#utility.yul\":3032:3064   */\n      slt\n        /* \"#utility.yul\":3029:3148   */\n      iszero\n      tag_98\n      jumpi\n        /* \"#utility.yul\":3067:3146   */\n      tag_99\n      tag_25\n      jump\t// in\n    tag_99:\n        /* \"#utility.yul\":3029:3148   */\n    tag_98:\n        /* \"#utility.yul\":3187:3188   */\n      0x00\n        /* \"#utility.yul\":3212:3265   */\n      tag_100\n        /* \"#utility.yul\":3257:3264   */\n      dup7\n        /* \"#utility.yul\":3248:3254   */\n      dup3\n        /* \"#utility.yul\":3237:3246   */\n      dup8\n        /* \"#utility.yul\":3233:3255   */\n      add\n        /* \"#utility.yul\":3212:3265   */\n      tag_29\n      jump\t// in\n    tag_100:\n        /* \"#utility.yul\":3202:3265   */\n      swap4\n      pop\n        /* \"#utility.yul\":3158:3275   */\n      pop\n        /* \"#utility.yul\":3342:3344   */\n      0x20\n        /* \"#utility.yul\":3331:3340   */\n      dup5\n        /* \"#utility.yul\":3327:3345   */\n      add\n        /* \"#utility.yul\":3314:3346   */\n      calldataload\n        /* \"#utility.yul\":3373:3391   */\n      0xffffffffffffffff\n        /* \"#utility.yul\":3365:3371   */\n      dup2\n        /* \"#utility.yul\":3362:3392   */\n      gt\n        /* \"#utility.yul\":3359:3476   */\n      iszero\n      tag_101\n      jumpi\n        /* \"#utility.yul\":3395:3474   */\n      tag_102\n      tag_26\n      jump\t// in\n    tag_102:\n        /* \"#utility.yul\":3359:3476   */\n    tag_101:\n        /* \"#utility.yul\":3500:3563   */\n      tag_103\n        /* \"#utility.yul\":3555:3562   */\n      dup7\n        /* \"#utility.yul\":3546:3552   */\n      dup3\n        /* \"#utility.yul\":3535:3544   */\n      dup8\n        /* \"#utility.yul\":3531:3553   */\n      add\n        /* \"#utility.yul\":3500:3563   */\n      tag_39\n      jump\t// in\n    tag_103:\n        /* \"#utility.yul\":3490:3563   */\n      swap3\n      pop\n        /* \"#utility.yul\":3285:3573   */\n      pop\n        /* \"#utility.yul\":3612:3614   */\n      0x40\n        /* \"#utility.yul\":3638:3691   */\n      tag_104\n        /* \"#utility.yul\":3683:3690   */\n      dup7\n        /* \"#utility.yul\":3674:3680   */\n      dup3\n        /* \"#utility.yul\":3663:3672   */\n      dup8\n        /* \"#utility.yul\":3659:3681   */\n      add\n        /* \"#utility.yul\":3638:3691   */\n      tag_29\n      jump\t// in\n    tag_104:\n        /* \"#utility.yul\":3628:3691   */\n      swap2\n      pop\n        /* \"#utility.yul\":3583:3701   */\n      pop\n        /* \"#utility.yul\":2909:3708   */\n      swap3\n      pop\n      swap3\n      pop\n      swap3\n      jump\t// out\n        /* \"#utility.yul\":3714:4043   */\n    tag_11:\n        /* \"#utility.yul\":3773:3779   */\n      0x00\n        /* \"#utility.yul\":3822:3824   */\n      0x20\n        /* \"#utility.yul\":3810:3819   */\n      dup3\n        /* \"#utility.yul\":3801:3808   */\n      dup5\n        /* \"#utility.yul\":3797:3820   */\n      sub\n        /* \"#utility.yul\":3793:3825   */\n      slt\n        /* \"#utility.yul\":3790:3909   */\n      iszero\n      tag_106\n      jumpi\n        /* \"#utility.yul\":3828:3907   */\n      tag_107\n      tag_25\n      jump\t// in\n    tag_107:\n        /* \"#utility.yul\":3790:3909   */\n    tag_106:\n        /* \"#utility.yul\":3948:3949   */\n      0x00\n        /* \"#utility.yul\":3973:4026   */\n      tag_108\n        /* \"#utility.yul\":4018:4025   */\n      dup5\n        /* \"#utility.yul\":4009:4015   */\n      dup3\n        /* \"#utility.yul\":3998:4007   */\n      dup6\n        /* \"#utility.yul\":3994:4016   */\n      add\n        /* \"#utility.yul\":3973:4026   */\n      tag_29\n      jump\t// in\n    tag_108:\n        /* \"#utility.yul\":3963:4026   */\n      swap2\n      pop\n        /* \"#utility.yul\":3919:4036   */\n      pop\n        /* \"#utility.yul\":3714:4043   */\n      swap3\n      swap2\n      pop\n      pop\n      jump\t// out\n        /* \"#utility.yul\":4049:4148   */\n    tag_40:\n        /* \"#utility.yul\":4101:4107   */\n      0x00\n        /* \"#utility.yul\":4135:4140   */\n      dup2\n        /* \"#utility.yul\":4129:4141   */\n      mload\n        /* \"#utility.yul\":4119:4141   */\n      swap1\n      pop\n        /* \"#utility.yul\":4049:4148   */\n      swap2\n      swap1\n      pop\n      jump\t// out\n        /* \"#utility.yul\":4154:4323   */\n    tag_41:\n        /* \"#utility.yul\":4238:4249   */\n      0x00\n        /* \"#utility.yul\":4272:4278   */\n      dup3\n        /* \"#utility.yul\":4267:4270   */\n      dup3\n        /* \"#utility.yul\":4260:4279   */\n      mstore\n        /* \"#utility.yul\":4312:4316   */\n      0x20\n        /* \"#utility.yul\":4307:4310   */\n      dup3\n        /* \"#utility.yul\":4303:4317   */\n      add\n        /* \"#utility.yul\":4288:4317   */\n      swap1\n      pop\n        /* \"#utility.yul\":4154:4323   */\n      swap3\n      swap2\n      pop\n      pop\n      jump\t// out\n        /* \"#utility.yul\":4329:4575   */\n    tag_42:\n        /* \"#utility.yul\":4410:4411   */\n      0x00\n        /* \"#utility.yul\":4420:4533   */\n    tag_112:\n        /* \"#utility.yul\":4434:4440   */\n      dup4\n        /* \"#utility.yul\":4431:4432   */\n      dup2\n        /* \"#utility.yul\":4428:4441   */\n      lt\n        /* \"#utility.yul\":4420:4533   */\n      iszero\n      tag_114\n      jumpi\n        /* \"#utility.yul\":4519:4520   */\n      dup1\n        /* \"#utility.yul\":4514:4517   */\n      dup3\n        /* \"#utility.yul\":4510:4521   */\n      add\n        /* \"#utility.yul\":4504:4522   */\n      mload\n        /* \"#utility.yul\":4500:4501   */\n      dup2\n        /* \"#utility.yul\":4495:4498   */\n      dup5\n        /* \"#utility.yul\":4491:4502   */\n      add\n        /* \"#utility.yul\":4484:4523   */\n      mstore\n        /* \"#utility.yul\":4456:4458   */\n      0x20\n        /* \"#utility.yul\":4453:4454   */\n      dup2\n        /* \"#utility.yul\":4449:4459   */\n      add\n        /* \"#utility.yul\":4444:4459   */\n      swap1\n      pop\n        /* \"#utility.yul\":4420:4533   */\n      jump(tag_112)\n    tag_114:\n        /* \"#utility.yul\":4567:4568   */\n      0x00\n        /* \"#utility.yul\":4558:4564   */\n      dup5\n        /* \"#utility.yul\":4553:4556   */\n      dup5\n        /* \"#utility.yul\":4549:4565   */\n      add\n        /* \"#utility.yul\":4542:4569   */\n      mstore\n        /* \"#utility.yul\":4391:4575   */\n      pop\n        /* \"#utility.yul\":4329:4575   */\n      pop\n      pop\n      pop\n      jump\t// out\n        /* \"#utility.yul\":4581:4958   */\n    tag_43:\n        /* \"#utility.yul\":4669:4672   */\n      0x00\n        /* \"#utility.yul\":4697:4736   */\n      tag_116\n        /* \"#utility.yul\":4730:4735   */\n      dup3\n        /* \"#utility.yul\":4697:4736   */\n      tag_40\n      jump\t// in\n    tag_116:\n        /* \"#utility.yul\":4752:4823   */\n      tag_117\n        /* \"#utility.yul\":4816:4822   */\n      dup2\n        /* \"#utility.yul\":4811:4814   */\n      dup6\n        /* \"#utility.yul\":4752:4823   */\n      tag_41\n      jump\t// in\n    tag_117:\n        /* \"#utility.yul\":4745:4823   */\n      swap4\n      pop\n        /* \"#utility.yul\":4832:4897   */\n      tag_118\n        /* \"#utility.yul\":4890:4896   */\n      dup2\n        /* \"#utility.yul\":4885:4888   */\n      dup6\n        /* \"#utility.yul\":4878:4882   */\n      0x20\n        /* \"#utility.yul\":4871:4876   */\n      dup7\n        /* \"#utility.yul\":4867:4883   */\n      add\n        /* \"#utility.yul\":4832:4897   */\n      tag_42\n      jump\t// in\n    tag_118:\n        /* \"#utility.yul\":4922:4951   */\n      tag_119\n        /* \"#utility.yul\":4944:4950   */\n      dup2\n        /* \"#utility.yul\":4922:4951   */\n      tag_32\n      jump\t// in\n    tag_119:\n        /* \"#utility.yul\":4917:4920   */\n      dup5\n        /* \"#utility.yul\":4913:4952   */\n      add\n        /* \"#utility.yul\":4906:4952   */\n      swap2\n      pop\n        /* \"#utility.yul\":4673:4958   */\n      pop\n        /* \"#utility.yul\":4581:4958   */\n      swap3\n      swap2\n      pop\n      pop\n      jump\t// out\n        /* \"#utility.yul\":4964:5082   */\n    tag_44:\n        /* \"#utility.yul\":5051:5075   */\n      tag_121\n        /* \"#utility.yul\":5069:5074   */\n      dup2\n        /* \"#utility.yul\":5051:5075   */\n      tag_27\n      jump\t// in\n    tag_121:\n        /* \"#utility.yul\":5046:5049   */\n      dup3\n        /* \"#utility.yul\":5039:5076   */\n      mstore\n        /* \"#utility.yul\":4964:5082   */\n      pop\n      pop\n      jump\t// out\n        /* \"#utility.yul\":5088:5511   */\n    tag_14:\n        /* \"#utility.yul\":5229:5233   */\n      0x00\n        /* \"#utility.yul\":5267:5269   */\n      0x40\n        /* \"#utility.yul\":5256:5265   */\n      dup3\n        /* \"#utility.yul\":5252:5270   */\n      add\n        /* \"#utility.yul\":5244:5270   */\n      swap1\n      pop\n        /* \"#utility.yul\":5316:5325   */\n      dup2\n        /* \"#utility.yul\":5310:5314   */\n      dup2\n        /* \"#utility.yul\":5306:5326   */\n      sub\n        /* \"#utility.yul\":5302:5303   */\n      0x00\n        /* \"#utility.yul\":5291:5300   */\n      dup4\n        /* \"#utility.yul\":5287:5304   */\n      add\n        /* \"#utility.yul\":5280:5327   */\n      mstore\n        /* \"#utility.yul\":5344:5422   */\n      tag_123\n        /* \"#utility.yul\":5417:5421   */\n      dup2\n        /* \"#utility.yul\":5408:5414   */\n      dup6\n        /* \"#utility.yul\":5344:5422   */\n      tag_43\n      jump\t// in\n    tag_123:\n        /* \"#utility.yul\":5336:5422   */\n      swap1\n      pop\n        /* \"#utility.yul\":5432:5504   */\n      tag_124\n        /* \"#utility.yul\":5500:5502   */\n      0x20\n        /* \"#utility.yul\":5489:5498   */\n      dup4\n        /* \"#utility.yul\":5485:5503   */\n      add\n        /* \"#utility.yul\":5476:5482   */\n      dup5\n        /* \"#utility.yul\":5432:5504   */\n      tag_44\n      jump\t// in\n    tag_124:\n        /* \"#utility.yul\":5088:5511   */\n      swap4\n      swap3\n      pop\n      pop\n      pop\n      jump\t// out\n        /* \"#utility.yul\":5517:5697   */\n    tag_45:\n        /* \"#utility.yul\":5565:5642   */\n      0x4e487b7100000000000000000000000000000000000000000000000000000000\n        /* \"#utility.yul\":5562:5563   */\n      0x00\n        /* \"#utility.yul\":5555:5643   */\n      mstore\n        /* \"#utility.yul\":5662:5666   */\n      0x22\n        /* \"#utility.yul\":5659:5660   */\n      0x04\n        /* \"#utility.yul\":5652:5667   */\n      mstore\n        /* \"#utility.yul\":5686:5690   */\n      0x24\n        /* \"#utility.yul\":5683:5684   */\n      0x00\n        /* \"#utility.yul\":5676:5691   */\n      revert\n        /* \"#utility.yul\":5703:6023   */\n    tag_19:\n        /* \"#utility.yul\":5747:5753   */\n      0x00\n        /* \"#utility.yul\":5784:5785   */\n      0x02\n        /* \"#utility.yul\":5778:5782   */\n      dup3\n        /* \"#utility.yul\":5774:5786   */\n      div\n        /* \"#utility.yul\":5764:5786   */\n      swap1\n      pop\n        /* \"#utility.yul\":5831:5832   */\n      0x01\n        /* \"#utility.yul\":5825:5829   */\n      dup3\n        /* \"#utility.yul\":5821:5833   */\n      and\n        /* \"#utility.yul\":5852:5870   */\n      dup1\n        /* \"#utility.yul\":5842:5923   */\n      tag_127\n      jumpi\n        /* \"#utility.yul\":5908:5912   */\n      0x7f\n        /* \"#utility.yul\":5900:5906   */\n      dup3\n        /* \"#utility.yul\":5896:5913   */\n      and\n        /* \"#utility.yul\":5886:5913   */\n      swap2\n      pop\n        /* \"#utility.yul\":5842:5923   */\n    tag_127:\n        /* \"#utility.yul\":5970:5972   */\n      0x20\n        /* \"#utility.yul\":5962:5968   */\n      dup3\n        /* \"#utility.yul\":5959:5973   */\n      lt\n        /* \"#utility.yul\":5939:5957   */\n      dup2\n        /* \"#utility.yul\":5936:5974   */\n      sub\n        /* \"#utility.yul\":5933:6017   */\n      tag_128\n      jumpi\n        /* \"#utility.yul\":5989:6007   */\n      tag_129\n      tag_45\n      jump\t// in\n    tag_129:\n        /* \"#utility.yul\":5933:6017   */\n    tag_128:\n        /* \"#utility.yul\":5754:6023   */\n      pop\n        /* \"#utility.yul\":5703:6023   */\n      swap2\n      swap1\n      pop\n      jump\t// out\n        /* \"#utility.yul\":6029:6170   */\n    tag_46:\n        /* \"#utility.yul\":6078:6082   */\n      0x00\n        /* \"#utility.yul\":6101:6104   */\n      dup2\n        /* \"#utility.yul\":6093:6104   */\n      swap1\n      pop\n        /* \"#utility.yul\":6124:6127   */\n      dup2\n        /* \"#utility.yul\":6121:6122   */\n      0x00\n        /* \"#utility.yul\":6114:6128   */\n      mstore\n        /* \"#utility.yul\":6158:6162   */\n      0x20\n        /* \"#utility.yul\":6155:6156   */\n      0x00\n        /* \"#utility.yul\":6145:6163   */\n      keccak256\n        /* \"#utility.yul\":6137:6163   */\n      swap1\n      pop\n        /* \"#utility.yul\":6029:6170   */\n      swap2\n      swap1\n      pop\n      jump\t// out\n        /* \"#utility.yul\":6176:6269   */\n    tag_47:\n        /* \"#utility.yul\":6213:6219   */\n      0x00\n        /* \"#utility.yul\":6260:6262   */\n      0x20\n        /* \"#utility.yul\":6255:6257   */\n      0x1f\n        /* \"#utility.yul\":6248:6253   */\n      dup4\n        /* \"#utility.yul\":6244:6258   */\n      add\n        /* \"#utility.yul\":6240:6263   */\n      div\n        /* \"#utility.yul\":6230:6263   */\n      swap1\n      pop\n        /* \"#utility.yul\":6176:6269   */\n      swap2\n      swap1\n      pop\n      jump\t// out\n        /* \"#utility.yul\":6275:6382   */\n    tag_48:\n        /* \"#utility.yul\":6319:6327   */\n      0x00\n        /* \"#utility.yul\":6369:6374   */\n      dup3\n        /* \"#utility.yul\":6363:6367   */\n      dup3\n        /* \"#utility.yul\":6359:6375   */\n      shl\n        /* \"#utility.yul\":6338:6375   */\n      swap1\n      pop\n        /* \"#utility.yul\":6275:6382   */\n      swap3\n      swap2\n      pop\n      pop\n      jump\t// out\n        /* \"#utility.yul\":6388:6781   */\n    tag_49:\n        /* \"#utility.yul\":6457:6463   */\n      0x00\n        /* \"#utility.yul\":6507:6508   */\n      0x08\n        /* \"#utility.yul\":6495:6505   */\n      dup4\n        /* \"#utility.yul\":6491:6509   */\n      mul\n        /* \"#utility.yul\":6530:6627   */\n      tag_134\n        /* \"#utility.yul\":6560:6626   */\n      0xffffffffffffffffffffffffffffffffffffffffffffffffffffffffffffffff\n        /* \"#utility.yul\":6549:6558   */\n      dup3\n        /* \"#utility.yul\":6530:6627   */\n      tag_48\n      jump\t// in\n    tag_134:\n        /* \"#utility.yul\":6648:6687   */\n      tag_135\n        /* \"#utility.yul\":6678:6686   */\n      dup7\n        /* \"#utility.yul\":6667:6676   */\n      dup4\n        /* \"#utility.yul\":6648:6687   */\n      tag_48\n      jump\t// in\n    tag_135:\n        /* \"#utility.yul\":6636:6687   */\n      swap6\n      pop\n        /* \"#utility.yul\":6720:6724   */\n      dup1\n        /* \"#utility.yul\":6716:6725   */\n      not\n        /* \"#utility.yul\":6709:6714   */\n      dup5\n        /* \"#utility.yul\":6705:6726   */\n      and\n        /* \"#utility.yul\":6696:6726   */\n      swap4\n      pop\n        /* \"#utility.yul\":6769:6773   */\n      dup1\n        /* \"#utility.yul\":6759:6767   */\n      dup7\n        /* \"#utility.yul\":6755:6774   */\n      and\n        /* \"#utility.yul\":6748:6753   */\n      dup5\n        /* \"#utility.yul\":6745:6775   */\n      or\n        /* \"#utility.yul\":6735:6775   */\n      swap3\n      pop\n        /* \"#utility.yul\":6464:6781   */\n      pop\n      pop\n        /* \"#utility.yul\":6388:6781   */\n      swap4\n      swap3\n      pop\n      pop\n      pop\n      jump\t// out\n        /* \"#utility.yul\":6787:6847   */\n    tag_50:\n        /* \"#utility.yul\":6815:6818   */\n      0x00\n        /* \"#utility.yul\":6836:6841   */\n      dup2\n        /* \"#utility.yul\":6829:6841   */\n      swap1\n      pop\n        /* \"#utility.yul\":6787:6847   */\n      swap2\n      swap1\n      pop\n      jump\t// out\n        /* \"#utility.yul\":6853:6995   */\n    tag_51:\n        /* \"#utility.yul\":6903:6912   */\n      0x00\n        /* \"#utility.yul\":6936:6989   */\n      tag_138\n        /* \"#utility.yul\":6954:6988   */\n      tag_139\n        /* \"#utility.yul\":6963:6987   */\n      tag_140\n        /* \"#utility.yul\":6981:6986   */\n      dup5\n        /* \"#utility.yul\":6963:6987   */\n      tag_27\n      jump\t// in\n    tag_140:\n        /* \"#utility.yul\":6954:6988   */\n      tag_50\n      jump\t// in\n    tag_139:\n        /* \"#utility.yul\":6936:6989   */\n      tag_27\n      jump\t// in\n    tag_138:\n        /* \"#utility.yul\":6923:6989   */\n      swap1\n      pop\n        /* \"#utility.yul\":6853:6995   */\n      swap2\n      swap1\n      pop\n      jump\t// out\n        /* \"#utility.yul\":7001:7076   */\n    tag_52:\n        /* \"#utility.yul\":7044:7047   */\n      0x00\n        /* \"#utility.yul\":7065:7070   */\n      dup2\n        /* \"#utility.yul\":7058:7070   */\n      swap1\n      pop\n        /* \"#utility.yul\":7001:7076   */\n      swap2\n      swap1\n      pop\n      jump\t// out\n        /* \"#utility.yul\":7082:7351   */\n    tag_53:\n        /* \"#utility.yul\":7192:7231   */\n      tag_143\n        /* \"#utility.yul\":7223:7230   */\n      dup4\n        /* \"#utility.yul\":7192:7231   */\n      tag_51\n      jump\t// in\n    tag_143:\n        /* \"#utility.yul\":7253:7344   */\n      tag_144\n        /* \"#utility.yul\":7302:7343   */\n      tag_145\n        /* \"#utility.yul\":7326:7342   */\n      dup3\n        /* \"#utility.yul\":7302:7343   */\n      tag_52\n      jump\t// in\n    tag_145:\n        /* \"#utility.yul\":7294:7300   */\n      dup5\n        /* \"#utility.yul\":7287:7291   */\n      dup5\n        /* \"#utility.yul\":7281:7292   */\n      sload\n        /* \"#utility.yul\":7253:7344   */\n      tag_49\n      jump\t// in\n    tag_144:\n        /* \"#utility.yul\":7247:7251   */\n      dup3\n        /* \"#utility.yul\":7240:7345   */\n      sstore\n        /* \"#utility.yul\":7158:7351   */\n      pop\n        /* \"#utility.yul\":7082:7351   */\n      pop\n      pop\n      pop\n      jump\t// out\n        /* \"#utility.yul\":7357:7430   */\n    tag_54:\n        /* \"#utility.yul\":7402:7405   */\n      0x00\n        /* \"#utility.yul\":7357:7430   */\n      swap1\n      jump\t// out\n        /* \"#utility.yul\":7436:7625   */\n    tag_55:\n        /* \"#utility.yul\":7513:7545   */\n      tag_148\n      tag_54\n      jump\t// in\n    tag_148:\n        /* \"#utility.yul\":7554:7619   */\n      tag_149\n        /* \"#utility.yul\":7612:7618   */\n      dup2\n        /* \"#utility.yul\":7604:7610   */\n      dup5\n        /* \"#utility.yul\":7598:7602   */\n      dup5\n        /* \"#utility.yul\":7554:7619   */\n      tag_53\n      jump\t// in\n    tag_149:\n        /* \"#utility.yul\":7489:7625   */\n      pop\n        /* \"#utility.yul\":7436:7625   */\n      pop\n      pop\n      jump\t// out\n        /* \"#utility.yul\":7631:7817   */\n    tag_56:\n        /* \"#utility.yul\":7691:7811   */\n    tag_151:\n        /* \"#utility.yul\":7708:7711   */\n      dup2\n        /* \"#utility.yul\":7701:7706   */\n      dup2\n        /* \"#utility.yul\":7698:7712   */\n      lt\n        /* \"#utility.yul\":7691:7811   */\n      iszero\n      tag_153\n      jumpi\n        /* \"#utility.yul\":7762:7801   */\n      tag_154\n        /* \"#utility.yul\":7799:7800   */\n      0x00\n        /* \"#utility.yul\":7792:7797   */\n      dup3\n        /* \"#utility.yul\":7762:7801   */\n      tag_55\n      jump\t// in\n    tag_154:\n        /* \"#utility.yul\":7735:7736   */\n      0x01\n        /* \"#utility.yul\":7728:7733   */\n      dup2\n        /* \"#utility.yul\":7724:7737   */\n      add\n        /* \"#utility.yul\":7715:7737   */\n      swap1\n      pop\n        /* \"#utility.yul\":7691:7811   */\n      jump(tag_151)\n    tag_153:\n        /* \"#utility.yul\":7631:7817   */\n      pop\n      pop\n      jump\t// out\n        /* \"#utility.yul\":7823:8366   */\n    tag_57:\n        /* \"#utility.yul\":7924:7926   */\n      0x1f\n        /* \"#utility.yul\":7919:7922   */\n      dup3\n        /* \"#utility.yul\":7916:7927   */\n      gt\n        /* \"#utility.yul\":7913:8359   */\n      iszero\n      tag_156\n      jumpi\n        /* \"#utility.yul\":7958:7996   */\n      tag_157\n        /* \"#utility.yul\":7990:7995   */\n      dup2\n        /* \"#utility.yul\":7958:7996   */\n      tag_46\n      jump\t// in\n    tag_157:\n        /* \"#utility.yul\":8042:8071   */\n      tag_158\n        /* \"#utility.yul\":8060:8070   */\n      dup5\n        /* \"#utility.yul\":8042:8071   */\n      tag_47\n      jump\t// in\n    tag_158:\n        /* \"#utility.yul\":8032:8040   */\n      dup2\n        /* \"#utility.yul\":8028:8072   */\n      add\n        /* \"#utility.yul\":8225:8227   */\n      0x20\n        /* \"#utility.yul\":8213:8223   */\n      dup6\n        /* \"#utility.yul\":8210:8228   */\n      lt\n        /* \"#utility.yul\":8207:8256   */\n      iszero\n      tag_159\n      jumpi\n        /* \"#utility.yul\":8246:8254   */\n      dup2\n        /* \"#utility.yul\":8231:8254   */\n      swap1\n      pop\n        /* \"#utility.yul\":8207:8256   */\n    tag_159:\n        /* \"#utility.yul\":8269:8349   */\n      tag_160\n        /* \"#utility.yul\":8325:8347   */\n      tag_161\n        /* \"#utility.yul\":8343:8346   */\n      dup6\n        /* \"#utility.yul\":8325:8347   */\n      tag_47\n      jump\t// in\n    tag_161:\n        /* \"#utility.yul\":8315:8323   */\n      dup4\n        /* \"#utility.yul\":8311:8348   */\n      add\n        /* \"#utility.yul\":8298:8309   */\n      dup3\n        /* \"#utility.yul\":8269:8349   */\n      tag_56\n      jump\t// in\n    tag_160:\n        /* \"#utility.yul\":7928:8359   */\n      pop\n      pop\n        /* \"#utility.yul\":7913:8359   */\n    tag_156:\n        /* \"#utility.yul\":7823:8366   */\n      pop\n      pop\n      pop\n      jump\t// out\n        /* \"#utility.yul\":8372:8489   */\n    tag_58:\n        /* \"#utility.yul\":8426:8434   */\n      0x00\n        /* \"#utility.yul\":8476:8481   */\n      dup3\n        /* \"#utility.yul\":8470:8474   */\n      dup3\n        /* \"#utility.yul\":8466:8482   */\n      shr\n        /* \"#utility.yul\":8445:8482   */\n      swap1\n      pop\n        /* \"#utility.yul\":8372:8489   */\n      swap3\n      swap2\n      pop\n      pop\n      jump\t// out\n        /* \"#utility.yul\":8495:8664   */\n    tag_59:\n        /* \"#utility.yul\":8539:8545   */\n      0x00\n        /* \"#utility.yul\":8572:8623   */\n      tag_164\n        /* \"#utility.yul\":8620:8621   */\n      0x00\n        /* \"#utility.yul\":8616:8622   */\n      not\n        /* \"#utility.yul\":8608:8613   */\n      dup5\n        /* \"#utility.yul\":8605:8606   */\n      0x08\n        /* \"#utility.yul\":8601:8614   */\n      mul\n        /* \"#utility.yul\":8572:8623   */\n      tag_58\n      jump\t// in\n    tag_164:\n        /* \"#utility.yul\":8568:8624   */\n      not\n        /* \"#utility.yul\":8653:8657   */\n      dup1\n        /* \"#utility.yul\":8647:8651   */\n      dup4\n        /* \"#utility.yul\":8643:8658   */\n      and\n        /* \"#utility.yul\":8633:8658   */\n      swap2\n      pop\n        /* \"#utility.yul\":8546:8664   */\n      pop\n        /* \"#utility.yul\":8495:8664   */\n      swap3\n      swap2\n      pop\n      pop\n      jump\t// out\n        /* \"#utility.yul\":8669:8964   */\n    tag_60:\n        /* \"#utility.yul\":8745:8749   */\n      0x00\n        /* \"#utility.yul\":8891:8920   */\n      tag_166\n        /* \"#utility.yul\":8916:8919   */\n      dup4\n        /* \"#utility.yul\":8910:8914   */\n      dup4\n        /* \"#utility.yul\":8891:8920   */\n      tag_59\n      jump\t// in\n    tag_166:\n        /* \"#utility.yul\":8883:8920   */\n      swap2\n      pop\n        /* \"#utility.yul\":8953:8956   */\n      dup3\n        /* \"#utility.yul\":8950:8951   */\n      0x02\n        /* \"#utility.yul\":8946:8957   */\n      mul\n        /* \"#utility.yul\":8940:8944   */\n      dup3\n        /* \"#utility.yul\":8937:8958   */\n      or\n        /* \"#utility.yul\":8929:8958   */\n      swap1\n      pop\n        /* \"#utility.yul\":8669:8964   */\n      swap3\n      swap2\n      pop\n      pop\n      jump\t// out\n        /* \"#utility.yul\":8969:10364   */\n    tag_17:\n        /* \"#utility.yul\":9086:9123   */\n      tag_168\n        /* \"#utility.yul\":9119:9122   */\n      dup3\n        /* \"#utility.yul\":9086:9123   */\n      tag_40\n      jump\t// in\n    tag_168:\n        /* \"#utility.yul\":9188:9206   */\n      0xffffffffffffffff\n        /* \"#utility.yul\":9180:9186   */\n      dup2\n        /* \"#utility.yul\":9177:9207   */\n      gt\n        /* \"#utility.yul\":9174:9230   */\n      iszero\n      tag_169\n      jumpi\n        /* \"#utility.yul\":9210:9228   */\n      tag_170\n      tag_33\n      jump\t// in\n    tag_170:\n        /* \"#utility.yul\":9174:9230   */\n    tag_169:\n        /* \"#utility.yul\":9254:9292   */\n      tag_171\n        /* \"#utility.yul\":9286:9290   */\n      dup3\n        /* \"#utility.yul\":9280:9291   */\n      sload\n        /* \"#utility.yul\":9254:9292   */\n      tag_19\n      jump\t// in\n    tag_171:\n        /* \"#utility.yul\":9339:9406   */\n      tag_172\n        /* \"#utility.yul\":9399:9405   */\n      dup3\n        /* \"#utility.yul\":9391:9397   */\n      dup3\n        /* \"#utility.yul\":9385:9389   */\n      dup6\n        /* \"#utility.yul\":9339:9406   */\n      tag_57\n      jump\t// in\n    tag_172:\n        /* \"#utility.yul\":9433:9434   */\n      0x00\n        /* \"#utility.yul\":9457:9461   */\n      0x20\n        /* \"#utility.yul\":9444:9461   */\n      swap1\n      pop\n        /* \"#utility.yul\":9489:9491   */\n      0x1f\n        /* \"#utility.yul\":9481:9487   */\n      dup4\n        /* \"#utility.yul\":9478:9492   */\n      gt\n        /* \"#utility.yul\":9506:9507   */\n      0x01\n        /* \"#utility.yul\":9501:10119   */\n      dup2\n      eq\n      tag_174\n      jumpi\n        /* \"#utility.yul\":10163:10164   */\n      0x00\n        /* \"#utility.yul\":10180:10186   */\n      dup5\n        /* \"#utility.yul\":10177:10254   */\n      iszero\n      tag_175\n      jumpi\n        /* \"#utility.yul\":10229:10238   */\n      dup3\n        /* \"#utility.yul\":10224:10227   */\n      dup8\n        /* \"#utility.yul\":10220:10239   */\n      add\n        /* \"#utility.yul\":10214:10240   */\n      mload\n        /* \"#utility.yul\":10205:10240   */\n      swap1\n      pop\n        /* \"#utility.yul\":10177:10254   */\n    tag_175:\n        /* \"#utility.yul\":10280:10347   */\n      tag_176\n        /* \"#utility.yul\":10340:10346   */\n      dup6\n        /* \"#utility.yul\":10333:10338   */\n      dup3\n        /* \"#utility.yul\":10280:10347   */\n      tag_60\n      jump\t// in\n    tag_176:\n        /* \"#utility.yul\":10274:10278   */\n      dup7\n        /* \"#utility.yul\":10267:10348   */\n      sstore\n        /* \"#utility.yul\":10136:10358   */\n      pop\n        /* \"#utility.yul\":9471:10358   */\n      jump(tag_173)\n        /* \"#utility.yul\":9501:10119   */\n    tag_174:\n        /* \"#utility.yul\":9553:9557   */\n      0x1f\n        /* \"#utility.yul\":9549:9558   */\n      not\n        /* \"#utility.yul\":9541:9547   */\n      dup5\n        /* \"#utility.yul\":9537:9559   */\n      and\n        /* \"#utility.yul\":9587:9624   */\n      tag_177\n        /* \"#utility.yul\":9619:9623   */\n      dup7\n        /* \"#utility.yul\":9587:9624   */\n      tag_46\n      jump\t// in\n    tag_177:\n        /* \"#utility.yul\":9646:9647   */\n      0x00\n        /* \"#utility.yul\":9660:9868   */\n    tag_178:\n        /* \"#utility.yul\":9674:9681   */\n      dup3\n        /* \"#utility.yul\":9671:9672   */\n      dup2\n        /* \"#utility.yul\":9668:9682   */\n      lt\n        /* \"#utility.yul\":9660:9868   */\n      iszero\n      tag_180\n      jumpi\n        /* \"#utility.yul\":9753:9762   */\n      dup5\n        /* \"#utility.yul\":9748:9751   */\n      dup10\n        /* \"#utility.yul\":9744:9763   */\n      add\n        /* \"#utility.yul\":9738:9764   */\n      mload\n        /* \"#utility.yul\":9730:9736   */\n      dup3\n        /* \"#utility.yul\":9723:9765   */\n      sstore\n        /* \"#utility.yul\":9804:9805   */\n      0x01\n        /* \"#utility.yul\":9796:9802   */\n      dup3\n        /* \"#utility.yul\":9792:9806   */\n      add\n        /* \"#utility.yul\":9782:9806   */\n      swap2\n      pop\n        /* \"#utility.yul\":9851:9853   */\n      0x20\n        /* \"#utility.yul\":9840:9849   */\n      dup6\n        /* \"#utility.yul\":9836:9854   */\n      add\n        /* \"#utility.yul\":9823:9854   */\n      swap5\n      pop\n        /* \"#utility.yul\":9697:9701   */\n      0x20\n        /* \"#utility.yul\":9694:9695   */\n      dup2\n        /* \"#utility.yul\":9690:9702   */\n      add\n        /* \"#utility.yul\":9685:9702   */\n      swap1\n      pop\n        /* \"#utility.yul\":9660:9868   */\n      jump(tag_178)\n    tag_180:\n        /* \"#utility.yul\":9896:9902   */\n      dup7\n        /* \"#utility.yul\":9887:9894   */\n      dup4\n        /* \"#utility.yul\":9884:9903   */\n      lt\n        /* \"#utility.yul\":9881:10060   */\n      iszero\n      tag_181\n      jumpi\n        /* \"#utility.yul\":9954:9963   */\n      dup5\n        /* \"#utility.yul\":9949:9952   */\n      dup10\n        /* \"#utility.yul\":9945:9964   */\n      add\n        /* \"#utility.yul\":9939:9965   */\n      mload\n        /* \"#utility.yul\":9997:10045   */\n      tag_182\n        /* \"#utility.yul\":10039:10043   */\n      0x1f\n        /* \"#utility.yul\":10031:10037   */\n      dup10\n        /* \"#utility.yul\":10027:10044   */\n      and\n        /* \"#utility.yul\":10016:10025   */\n      dup3\n        /* \"#utility.yul\":9997:10045   */\n      tag_59\n      jump\t// in\n    tag_182:\n        /* \"#utility.yul\":9989:9995   */\n      dup4\n        /* \"#utility.yul\":9982:10046   */\n      sstore\n        /* \"#utility.yul\":9904:10060   */\n      pop\n        /* \"#utility.yul\":9881:10060   */\n    tag_181:\n        /* \"#utility.yul\":10106:10107   */\n      0x01\n        /* \"#utility.yul\":10102:10103   */\n      0x02\n        /* \"#utility.yul\":10094:10100   */\n      dup9\n        /* \"#utility.yul\":10090:10104   */\n      mul\n        /* \"#utility.yul\":10086:10108   */\n      add\n        /* \"#utility.yul\":10080:10084   */\n      dup9\n        /* \"#utility.yul\":10073:10109   */\n      sstore\n        /* \"#utility.yul\":9508:10119   */\n      pop\n      pop\n      pop\n        /* \"#utility.yul\":9471:10358   */\n    tag_173:\n      pop\n        /* \"#utility.yul\":9061:10364   */\n      pop\n      pop\n      pop\n        /* \"#utility.yul\":8969:10364   */\n      pop\n      pop\n      jump\t// out\n\n    auxdata: 0xa26469706673582212209aa754363d317c83f2e56376d2db6fab61e54528b73e179bae6026b41cdc48a864736f6c63430008130033\n}\n",
				"bytecode": {
					"linkReferences": {},
					"object": "608060405234801561001057600080fd5b50610781806100206000396000f3fe608060405234801561001057600080fd5b50600436106100365760003560e01c80630c22cf411461003b578063f0ba844014610057575b600080fd5b61005560048036038101906100509190610313565b610088565b005b610071600480360381019061006c9190610382565b6100d7565b60405161007f92919061043d565b60405180910390f35b60405180604001604052808381526020018281525060008085815260200190815260200160002060008201518160000190816100c49190610679565b5060208201518160010155905050505050565b60006020528060005260406000206000915090508060000180546100fa9061049c565b80601f01602080910402602001604051908101604052809291908181526020018280546101269061049c565b80156101735780601f1061014857610100808354040283529160200191610173565b820191906000526020600020905b81548152906001019060200180831161015657829003601f168201915b5050505050908060010154905082565b6000604051905090565b600080fd5b600080fd5b6000819050919050565b6101aa81610197565b81146101b557600080fd5b50565b6000813590506101c7816101a1565b92915050565b600080fd5b600080fd5b6000601f19601f8301169050919050565b7f4e487b7100000000000000000000000000000000000000000000000000000000600052604160045260246000fd5b610220826101d7565b810181811067ffffffffffffffff8211171561023f5761023e6101e8565b5b80604052505050565b6000610252610183565b905061025e8282610217565b919050565b600067ffffffffffffffff82111561027e5761027d6101e8565b5b610287826101d7565b9050602081019050919050565b82818337600083830152505050565b60006102b66102b184610263565b610248565b9050828152602081018484840111156102d2576102d16101d2565b5b6102dd848285610294565b509392505050565b600082601f8301126102fa576102f96101cd565b5b813561030a8482602086016102a3565b91505092915050565b60008060006060848603121561032c5761032b61018d565b5b600061033a868287016101b8565b935050602084013567ffffffffffffffff81111561035b5761035a610192565b5b610367868287016102e5565b9250506040610378868287016101b8565b9150509250925092565b6000602082840312156103985761039761018d565b5b60006103a6848285016101b8565b91505092915050565b600081519050919050565b600082825260208201905092915050565b60005b838110156103e95780820151818401526020810190506103ce565b60008484015250505050565b6000610400826103af565b61040a81856103ba565b935061041a8185602086016103cb565b610423816101d7565b840191505092915050565b61043781610197565b82525050565b6000604082019050818103600083015261045781856103f5565b9050610466602083018461042e565b9392505050565b7f4e487b7100000000000000000000000000000000000000000000000000000000600052602260045260246000fd5b600060028204905060018216806104b457607f821691505b6020821081036104c7576104c661046d565b5b50919050565b60008190508160005260206000209050919050565b60006020601f8301049050919050565b600082821b905092915050565b60006008830261052f7fffffffffffffffffffffffffffffffffffffffffffffffffffffffffffffffff826104f2565b61053986836104f2565b95508019841693508086168417925050509392505050565b6000819050919050565b600061057661057161056c84610197565b610551565b610197565b9050919050565b6000819050919050565b6105908361055b565b6105a461059c8261057d565b8484546104ff565b825550505050565b600090565b6105b96105ac565b6105c4818484610587565b505050565b5b818110156105e8576105dd6000826105b1565b6001810190506105ca565b5050565b601f82111561062d576105fe816104cd565b610607846104e2565b81016020851015610616578190505b61062a610622856104e2565b8301826105c9565b50505b505050565b600082821c905092915050565b600061065060001984600802610632565b1980831691505092915050565b6000610669838361063f565b9150826002028217905092915050565b610682826103af565b67ffffffffffffffff81111561069b5761069a6101e8565b5b6106a5825461049c565b6106b08282856105ec565b600060209050601f8311600181146106e357600084156106d1578287015190505b6106db858261065d565b865550610743565b601f1984166106f1866104cd565b60005b82811015610719578489015182556001820191506020850194506020810190506106f4565b868310156107365784890151610732601f89168261063f565b8355505b6001600288020188555050505b50505050505056fea26469706673582212209aa754363d317c83f2e56376d2db6fab61e54528b73e179bae6026b41cdc48a864736f6c63430008130033",
					"opcodes": "PUSH1 0x80 PUSH1 0x40 MSTORE CALLVALUE DUP1 ISZERO PUSH2 0x10 JUMPI PUSH1 0x0 DUP1 REVERT JUMPDEST POP PUSH2 0x781 DUP1 PUSH2 0x20 PUSH1 0x0 CODECOPY PUSH1 0x0 RETURN INVALID PUSH1 0x80 PUSH1 0x40 MSTORE CALLVALUE DUP1 ISZERO PUSH2 0x10 JUMPI PUSH1 0x0 DUP1 REVERT JUMPDEST POP PUSH1 0x4 CALLDATASIZE LT PUSH2 0x36 JUMPI PUSH1 0x0 CALLDATALOAD PUSH1 0xE0 SHR DUP1 PUSH4 0xC22CF41 EQ PUSH2 0x3B JUMPI DUP1 PUSH4 0xF0BA8440 EQ PUSH2 0x57 JUMPI JUMPDEST PUSH1 0x0 DUP1 REVERT JUMPDEST PUSH2 0x55 PUSH1 0x4 DUP1 CALLDATASIZE SUB DUP2 ADD SWAP1 PUSH2 0x50 SWAP2 SWAP1 PUSH2 0x313 JUMP JUMPDEST PUSH2 0x88 JUMP JUMPDEST STOP JUMPDEST PUSH2 0x71 PUSH1 0x4 DUP1 CALLDATASIZE SUB DUP2 ADD SWAP1 PUSH2 0x6C SWAP2 SWAP1 PUSH2 0x382 JUMP JUMPDEST PUSH2 0xD7 JUMP JUMPDEST PUSH1 0x40 MLOAD PUSH2 0x7F SWAP3 SWAP2 SWAP1 PUSH2 0x43D JUMP JUMPDEST PUSH1 0x40 MLOAD DUP1 SWAP2 SUB SWAP1 RETURN JUMPDEST PUSH1 0x40 MLOAD DUP1 PUSH1 0x40 ADD PUSH1 0x40 MSTORE DUP1 DUP4 DUP2 MSTORE PUSH1 0x20 ADD DUP3 DUP2 MSTORE POP PUSH1 0x0 DUP1 DUP6 DUP2 MSTORE PUSH1 0x20 ADD SWAP1 DUP2 MSTORE PUSH1 0x20 ADD PUSH1 0x0 KECCAK256 PUSH1 0x0 DUP3 ADD MLOAD DUP2 PUSH1 0x0 ADD SWAP1 DUP2 PUSH2 0xC4 SWAP2 SWAP1 PUSH2 0x679 JUMP JUMPDEST POP PUSH1 0x20 DUP3 ADD MLOAD DUP2 PUSH1 0x1 ADD SSTORE SWAP1 POP POP POP POP POP JUMP JUMPDEST PUSH1 0x0 PUSH1 0x20 MSTORE DUP1 PUSH1 0x0 MSTORE PUSH1 0x40 PUSH1 0x0 KECCAK256 PUSH1 0x0 SWAP2 POP SWAP1 POP DUP1 PUSH1 0x0 ADD DUP1 SLOAD PUSH2 0xFA SWAP1 PUSH2 0x49C JUMP JUMPDEST DUP1 PUSH1 0x1F ADD PUSH1 0x20 DUP1 SWAP2 DIV MUL PUSH1 0x20 ADD PUSH1 0x40 MLOAD SWAP1 DUP2 ADD PUSH1 0x40 MSTORE DUP1 SWAP3 SWAP2 SWAP1 DUP2 DUP2 MSTORE PUSH1 0x20 ADD DUP3 DUP1 SLOAD PUSH2 0x126 SWAP1 PUSH2 0x49C JUMP JUMPDEST DUP1 ISZERO PUSH2 0x173 JUMPI DUP1 PUSH1 0x1F LT PUSH2 0x148 JUMPI PUSH2 0x100 DUP1 DUP4 SLOAD DIV MUL DUP4 MSTORE SWAP2 PUSH1 0x20 ADD SWAP2 PUSH2 0x173 JUMP JUMPDEST DUP3 ADD SWAP2 SWAP1 PUSH1 0x0 MSTORE PUSH1 0x20 PUSH1 0x0 KECCAK256 SWAP1 JUMPDEST DUP2 SLOAD DUP2 MSTORE SWAP1 PUSH1 0x1 ADD SWAP1 PUSH1 0x20 ADD DUP1 DUP4 GT PUSH2 0x156 JUMPI DUP3 SWAP1 SUB PUSH1 0x1F AND DUP3 ADD SWAP2 JUMPDEST POP POP POP POP POP SWAP1 DUP1 PUSH1 0x1 ADD SLOAD SWAP1 POP DUP3 JUMP JUMPDEST PUSH1 0x0 PUSH1 0x40 MLOAD SWAP1 POP SWAP1 JUMP JUMPDEST PUSH1 0x0 DUP1 REVERT JUMPDEST PUSH1 0x0 DUP1 REVERT JUMPDEST PUSH1 0x0 DUP2 SWAP1 POP SWAP2 SWAP1 POP JUMP JUMPDEST PUSH2 0x1AA DUP2 PUSH2 0x197 JUMP JUMPDEST DUP2 EQ PUSH2 0x1B5 JUMPI PUSH1 0x0 DUP1 REVERT JUMPDEST POP JUMP JUMPDEST PUSH1 0x0 DUP2 CALLDATALOAD SWAP1 POP PUSH2 0x1C7 DUP2 PUSH2 0x1A1 JUMP JUMPDEST SWAP3 SWAP2 POP POP JUMP JUMPDEST PUSH1 0x0 DUP1 REVERT JUMPDEST PUSH1 0x0 DUP1 REVERT JUMPDEST PUSH1 0x0 PUSH1 0x1F NOT PUSH1 0x1F DUP4 ADD AND SWAP1 POP SWAP2 SWAP1 POP JUMP JUMPDEST PUSH32 0x4E487B7100000000000000000000000000000000000000000000000000000000 PUSH1 0x0 MSTORE PUSH1 0x41 PUSH1 0x4 MSTORE PUSH1 0x24 PUSH1 0x0 REVERT JUMPDEST PUSH2 0x220 DUP3 PUSH2 0x1D7 JUMP JUMPDEST DUP2 ADD DUP2 DUP2 LT PUSH8 0xFFFFFFFFFFFFFFFF DUP3 GT OR ISZERO PUSH2 0x23F JUMPI PUSH2 0x23E PUSH2 0x1E8 JUMP JUMPDEST JUMPDEST DUP1 PUSH1 0x40 MSTORE POP POP POP JUMP JUMPDEST PUSH1 0x0 PUSH2 0x252 PUSH2 0x183 JUMP JUMPDEST SWAP1 POP PUSH2 0x25E DUP3 DUP3 PUSH2 0x217 JUMP JUMPDEST SWAP2 SWAP1 POP JUMP JUMPDEST PUSH1 0x0 PUSH8 0xFFFFFFFFFFFFFFFF DUP3 GT ISZERO PUSH2 0x27E JUMPI PUSH2 0x27D PUSH2 0x1E8 JUMP JUMPDEST JUMPDEST PUSH2 0x287 DUP3 PUSH2 0x1D7 JUMP JUMPDEST SWAP1 POP PUSH1 0x20 DUP2 ADD SWAP1 POP SWAP2 SWAP1 POP JUMP JUMPDEST DUP3 DUP2 DUP4 CALLDATACOPY PUSH1 0x0 DUP4 DUP4 ADD MSTORE POP POP POP JUMP JUMPDEST PUSH1 0x0 PUSH2 0x2B6 PUSH2 0x2B1 DUP5 PUSH2 0x263 JUMP JUMPDEST PUSH2 0x248 JUMP JUMPDEST SWAP1 POP DUP3 DUP2 MSTORE PUSH1 0x20 DUP2 ADD DUP5 DUP5 DUP5 ADD GT ISZERO PUSH2 0x2D2 JUMPI PUSH2 0x2D1 PUSH2 0x1D2 JUMP JUMPDEST JUMPDEST PUSH2 0x2DD DUP5 DUP3 DUP6 PUSH2 0x294 JUMP JUMPDEST POP SWAP4 SWAP3 POP POP POP JUMP JUMPDEST PUSH1 0x0 DUP3 PUSH1 0x1F DUP4 ADD SLT PUSH2 0x2FA JUMPI PUSH2 0x2F9 PUSH2 0x1CD JUMP JUMPDEST JUMPDEST DUP2 CALLDATALOAD PUSH2 0x30A DUP5 DUP3 PUSH1 0x20 DUP7 ADD PUSH2 0x2A3 JUMP JUMPDEST SWAP2 POP POP SWAP3 SWAP2 POP POP JUMP JUMPDEST PUSH1 0x0 DUP1 PUSH1 0x0 PUSH1 0x60 DUP5 DUP7 SUB SLT ISZERO PUSH2 0x32C JUMPI PUSH2 0x32B PUSH2 0x18D JUMP JUMPDEST JUMPDEST PUSH1 0x0 PUSH2 0x33A DUP7 DUP3 DUP8 ADD PUSH2 0x1B8 JUMP JUMPDEST SWAP4 POP POP PUSH1 0x20 DUP5 ADD CALLDATALOAD PUSH8 0xFFFFFFFFFFFFFFFF DUP2 GT ISZERO PUSH2 0x35B JUMPI PUSH2 0x35A PUSH2 0x192 JUMP JUMPDEST JUMPDEST PUSH2 0x367 DUP7 DUP3 DUP8 ADD PUSH2 0x2E5 JUMP JUMPDEST SWAP3 POP POP PUSH1 0x40 PUSH2 0x378 DUP7 DUP3 DUP8 ADD PUSH2 0x1B8 JUMP JUMPDEST SWAP2 POP POP SWAP3 POP SWAP3 POP SWAP3 JUMP JUMPDEST PUSH1 0x0 PUSH1 0x20 DUP3 DUP5 SUB SLT ISZERO PUSH2 0x398 JUMPI PUSH2 0x397 PUSH2 0x18D JUMP JUMPDEST JUMPDEST PUSH1 0x0 PUSH2 0x3A6 DUP5 DUP3 DUP6 ADD PUSH2 0x1B8 JUMP JUMPDEST SWAP2 POP POP SWAP3 SWAP2 POP POP JUMP JUMPDEST PUSH1 0x0 DUP2 MLOAD SWAP1 POP SWAP2 SWAP1 POP JUMP JUMPDEST PUSH1 0x0 DUP3 DUP3 MSTORE PUSH1 0x20 DUP3 ADD SWAP1 POP SWAP3 SWAP2 POP POP JUMP JUMPDEST PUSH1 0x0 JUMPDEST DUP4 DUP2 LT ISZERO PUSH2 0x3E9 JUMPI DUP1 DUP3 ADD MLOAD DUP2 DUP5 ADD MSTORE PUSH1 0x20 DUP2 ADD SWAP1 POP PUSH2 0x3CE JUMP JUMPDEST PUSH1 0x0 DUP5 DUP5 ADD MSTORE POP POP POP POP JUMP JUMPDEST PUSH1 0x0 PUSH2 0x400 DUP3 PUSH2 0x3AF JUMP JUMPDEST PUSH2 0x40A DUP2 DUP6 PUSH2 0x3BA JUMP JUMPDEST SWAP4 POP PUSH2 0x41A DUP2 DUP6 PUSH1 0x20 DUP7 ADD PUSH2 0x3CB JUMP JUMPDEST PUSH2 0x423 DUP2 PUSH2 0x1D7 JUMP JUMPDEST DUP5 ADD SWAP2 POP POP SWAP3 SWAP2 POP POP JUMP JUMPDEST PUSH2 0x437 DUP2 PUSH2 0x197 JUMP JUMPDEST DUP3 MSTORE POP POP JUMP JUMPDEST PUSH1 0x0 PUSH1 0x40 DUP3 ADD SWAP1 POP DUP2 DUP2 SUB PUSH1 0x0 DUP4 ADD MSTORE PUSH2 0x457 DUP2 DUP6 PUSH2 0x3F5 JUMP JUMPDEST SWAP1 POP PUSH2 0x466 PUSH1 0x20 DUP4 ADD DUP5 PUSH2 0x42E JUMP JUMPDEST SWAP4 SWAP3 POP POP POP JUMP JUMPDEST PUSH32 0x4E487B7100000000000000000000000000000000000000000000000000000000 PUSH1 0x0 MSTORE PUSH1 0x22 PUSH1 0x4 MSTORE PUSH1 0x24 PUSH1 0x0 REVERT JUMPDEST PUSH1 0x0 PUSH1 0x2 DUP3 DIV SWAP1 POP PUSH1 0x1 DUP3 AND DUP1 PUSH2 0x4B4 JUMPI PUSH1 0x7F DUP3 AND SWAP2 POP JUMPDEST PUSH1 0x20 DUP3 LT DUP2 SUB PUSH2 0x4C7 JUMPI PUSH2 0x4C6 PUSH2 0x46D JUMP JUMPDEST JUMPDEST POP SWAP2 SWAP1 POP JUMP JUMPDEST PUSH1 0x0 DUP2 SWAP1 POP DUP2 PUSH1 0x0 MSTORE PUSH1 0x20 PUSH1 0x0 KECCAK256 SWAP1 POP SWAP2 SWAP1 POP JUMP JUMPDEST PUSH1 0x0 PUSH1 0x20 PUSH1 0x1F DUP4 ADD DIV SWAP1 POP SWAP2 SWAP1 POP JUMP JUMPDEST PUSH1 0x0 DUP3 DUP3 SHL SWAP1 POP SWAP3 SWAP2 POP POP JUMP JUMPDEST PUSH1 0x0 PUSH1 0x8 DUP4 MUL PUSH2 0x52F PUSH32 0xFFFFFFFFFFFFFFFFFFFFFFFFFFFFFFFFFFFFFFFFFFFFFFFFFFFFFFFFFFFFFFFF DUP3 PUSH2 0x4F2 JUMP JUMPDEST PUSH2 0x539 DUP7 DUP4 PUSH2 0x4F2 JUMP JUMPDEST SWAP6 POP DUP1 NOT DUP5 AND SWAP4 POP DUP1 DUP7 AND DUP5 OR SWAP3 POP POP POP SWAP4 SWAP3 POP POP POP JUMP JUMPDEST PUSH1 0x0 DUP2 SWAP1 POP SWAP2 SWAP1 POP JUMP JUMPDEST PUSH1 0x0 PUSH2 0x576 PUSH2 0x571 PUSH2 0x56C DUP5 PUSH2 0x197 JUMP JUMPDEST PUSH2 0x551 JUMP JUMPDEST PUSH2 0x197 JUMP JUMPDEST SWAP1 POP SWAP2 SWAP1 POP JUMP JUMPDEST PUSH1 0x0 DUP2 SWAP1 POP SWAP2 SWAP1 POP JUMP JUMPDEST PUSH2 0x590 DUP4 PUSH2 0x55B JUMP JUMPDEST PUSH2 0x5A4 PUSH2 0x59C DUP3 PUSH2 0x57D JUMP JUMPDEST DUP5 DUP5 SLOAD PUSH2 0x4FF JUMP JUMPDEST DUP3 SSTORE POP POP POP POP JUMP JUMPDEST PUSH1 0x0 SWAP1 JUMP JUMPDEST PUSH2 0x5B9 PUSH2 0x5AC JUMP JUMPDEST PUSH2 0x5C4 DUP2 DUP5 DUP5 PUSH2 0x587 JUMP JUMPDEST POP POP POP JUMP JUMPDEST JUMPDEST DUP2 DUP2 LT ISZERO PUSH2 0x5E8 JUMPI PUSH2 0x5DD PUSH1 0x0 DUP3 PUSH2 0x5B1 JUMP JUMPDEST PUSH1 0x1 DUP2 ADD SWAP1 POP PUSH2 0x5CA JUMP JUMPDEST POP POP JUMP JUMPDEST PUSH1 0x1F DUP3 GT ISZERO PUSH2 0x62D JUMPI PUSH2 0x5FE DUP2 PUSH2 0x4CD JUMP JUMPDEST PUSH2 0x607 DUP5 PUSH2 0x4E2 JUMP JUMPDEST DUP2 ADD PUSH1 0x20 DUP6 LT ISZERO PUSH2 0x616 JUMPI DUP2 SWAP1 POP JUMPDEST PUSH2 0x62A PUSH2 0x622 DUP6 PUSH2 0x4E2 JUMP JUMPDEST DUP4 ADD DUP3 PUSH2 0x5C9 JUMP JUMPDEST POP POP JUMPDEST POP POP POP JUMP JUMPDEST PUSH1 0x0 DUP3 DUP3 SHR SWAP1 POP SWAP3 SWAP2 POP POP JUMP JUMPDEST PUSH1 0x0 PUSH2 0x650 PUSH1 0x0 NOT DUP5 PUSH1 0x8 MUL PUSH2 0x632 JUMP JUMPDEST NOT DUP1 DUP4 AND SWAP2 POP POP SWAP3 SWAP2 POP POP JUMP JUMPDEST PUSH1 0x0 PUSH2 0x669 DUP4 DUP4 PUSH2 0x63F JUMP JUMPDEST SWAP2 POP DUP3 PUSH1 0x2 MUL DUP3 OR SWAP1 POP SWAP3 SWAP2 POP POP JUMP JUMPDEST PUSH2 0x682 DUP3 PUSH2 0x3AF JUMP JUMPDEST PUSH8 0xFFFFFFFFFFFFFFFF DUP2 GT ISZERO PUSH2 0x69B JUMPI PUSH2 0x69A PUSH2 0x1E8 JUMP JUMPDEST JUMPDEST PUSH2 0x6A5 DUP3 SLOAD PUSH2 0x49C JUMP JUMPDEST PUSH2 0x6B0 DUP3 DUP3 DUP6 PUSH2 0x5EC JUMP JUMPDEST PUSH1 0x0 PUSH1 0x20 SWAP1 POP PUSH1 0x1F DUP4 GT PUSH1 0x1 DUP2 EQ PUSH2 0x6E3 JUMPI PUSH1 0x0 DUP5 ISZERO PUSH2 0x6D1 JUMPI DUP3 DUP8 ADD MLOAD SWAP1 POP JUMPDEST PUSH2 0x6DB DUP6 DUP3 PUSH2 0x65D JUMP JUMPDEST DUP7 SSTORE POP PUSH2 0x743 JUMP JUMPDEST PUSH1 0x1F NOT DUP5 AND PUSH2 0x6F1 DUP7 PUSH2 0x4CD JUMP JUMPDEST PUSH1 0x0 JUMPDEST DUP3 DUP2 LT ISZERO PUSH2 0x719 JUMPI DUP5 DUP10 ADD MLOAD DUP3 SSTORE PUSH1 0x1 DUP3 ADD SWAP2 POP PUSH1 0x20 DUP6 ADD SWAP5 POP PUSH1 0x20 DUP2 ADD SWAP1 POP PUSH2 0x6F4 JUMP JUMPDEST DUP7 DUP4 LT ISZERO PUSH2 0x736 JUMPI DUP5 DUP10 ADD MLOAD PUSH2 0x732 PUSH1 0x1F DUP10 AND DUP3 PUSH2 0x63F JUMP JUMPDEST DUP4 SSTORE POP JUMPDEST PUSH1 0x1 PUSH1 0x2 DUP9 MUL ADD DUP9 SSTORE POP POP POP JUMPDEST POP POP POP POP POP POP JUMP INVALID LOG2 PUSH5 0x6970667358 0x22 SLT KECCAK256 SWAP11 0xA7 SLOAD CALLDATASIZE RETURNDATASIZE BALANCE PUSH29 0x83F2E56376D2DB6FAB61E54528B73E179BAE6026B41CDC48A864736F6C PUSH4 0x43000813 STOP CALLER "
				},
				"gasEstimates": {
					"creation": {
						"codeDepositCost": "384200",
						"executionCost": "424",
						"totalCost": "384624"
					},
					"external": {
						"data(uint256)": "infinite",
						"setter(uint256,string,uint256)": "infinite"
					}
				},
				"methodIdentifiers": {
					"data(uint256)": "f0ba8440",
					"setter(uint256,string,uint256)": "0c22cf41"
				}
			},
			"storageLayout": {
				"storage": [
					{
						"astId": 90,
						"contract": "contracts/Loop__Array.sol:structWithMap",
						"label": "data",
						"offset": 0,
						"slot": "0",
						"type": "t_mapping(t_uint256,t_struct(Student)85_storage)"
					}
				],
				"types": {
					"t_mapping(t_uint256,t_struct(Student)85_storage)": {
						"encoding": "mapping",
						"key": "t_uint256",
						"label": "mapping(uint256 => struct structWithMap.Student)",
						"numberOfBytes": "32",
						"value": "t_struct(Student)85_storage"
					},
					"t_string_storage": {
						"encoding": "bytes",
						"label": "string",
						"numberOfBytes": "32"
					},
					"t_struct(Student)85_storage": {
						"encoding": "inplace",
						"label": "struct structWithMap.Student",
						"members": [
							{
								"astId": 82,
								"contract": "contracts/Loop__Array.sol:structWithMap",
								"label": "name",
								"offset": 0,
								"slot": "0",
								"type": "t_string_storage"
							},
							{
								"astId": 84,
								"contract": "contracts/Loop__Array.sol:structWithMap",
								"label": "class",
								"offset": 0,
								"slot": "1",
								"type": "t_uint256"
							}
						],
						"numberOfBytes": "64"
					},
					"t_uint256": {
						"encoding": "inplace",
						"label": "uint256",
						"numberOfBytes": "32"
					}
				}
			},
			"userdoc": {
				"kind": "user",
				"methods": {},
				"version": 1
			}
		}
	}
}