{
	"contracts/Loop__Array.sol": {
		"Mapping": {
			"abi": [
				{
					"inputs": [
						{
							"internalType": "uint256",
							"name": "",
							"type": "uint256"
						}
					],
					"name": "roll_no",
					"outputs": [
						{
							"internalType": "string",
							"name": "",
							"type": "string"
						}
					],
					"stateMutability": "view",
					"type": "function"
				},
				{
					"inputs": [
						{
							"internalType": "uint256",
							"name": "keys",
							"type": "uint256"
						},
						{
							"internalType": "string",
							"name": "value",
							"type": "string"
						}
					],
					"name": "setter",
					"outputs": [],
					"stateMutability": "nonpayable",
					"type": "function"
				}
			],
			"devdoc": {
				"kind": "dev",
				"methods": {},
				"version": 1
			},
			"evm": {
				"assembly": "    /* \"contracts/Loop__Array.sol\":565:731  contract Mapping{... */\n  mstore(0x40, 0x80)\n  callvalue\n  dup1\n  iszero\n  tag_1\n  jumpi\n  0x00\n  dup1\n  revert\ntag_1:\n  pop\n  dataSize(sub_0)\n  dup1\n  dataOffset(sub_0)\n  0x00\n  codecopy\n  0x00\n  return\nstop\n\nsub_0: assembly {\n        /* \"contracts/Loop__Array.sol\":565:731  contract Mapping{... */\n      mstore(0x40, 0x80)\n      callvalue\n      dup1\n      iszero\n      tag_1\n      jumpi\n      0x00\n      dup1\n      revert\n    tag_1:\n      pop\n      jumpi(tag_2, lt(calldatasize, 0x04))\n      shr(0xe0, calldataload(0x00))\n      dup1\n      0x898786ac\n      eq\n      tag_3\n      jumpi\n      dup1\n      0xbcb131c9\n      eq\n      tag_4\n      jumpi\n    tag_2:\n      0x00\n      dup1\n      revert\n        /* \"contracts/Loop__Array.sol\":590:626  mapping(uint=>string) public roll_no */\n    tag_3:\n      tag_5\n      0x04\n      dup1\n      calldatasize\n      sub\n      dup2\n      add\n      swap1\n      tag_6\n      swap2\n      swap1\n      tag_7\n      jump\t// in\n    tag_6:\n      tag_8\n      jump\t// in\n    tag_5:\n      mload(0x40)\n      tag_9\n      swap2\n      swap1\n      tag_10\n      jump\t// in\n    tag_9:\n      mload(0x40)\n      dup1\n      swap2\n      sub\n      swap1\n      return\n        /* \"contracts/Loop__Array.sol\":635:728  function setter(uint keys,string memory value) public{... */\n    tag_4:\n      tag_11\n      0x04\n      dup1\n      calldatasize\n      sub\n      dup2\n      add\n      swap1\n      tag_12\n      swap2\n      swap1\n      tag_13\n      jump\t// in\n    tag_12:\n      tag_14\n      jump\t// in\n    tag_11:\n      stop\n        /* \"contracts/Loop__Array.sol\":590:626  mapping(uint=>string) public roll_no */\n    tag_8:\n      mstore(0x20, 0x00)\n      dup1\n      0x00\n      mstore\n      keccak256(0x00, 0x40)\n      0x00\n      swap2\n      pop\n      swap1\n      pop\n      dup1\n      sload\n      tag_15\n      swap1\n      tag_16\n      jump\t// in\n    tag_15:\n      dup1\n      0x1f\n      add\n      0x20\n      dup1\n      swap2\n      div\n      mul\n      0x20\n      add\n      mload(0x40)\n      swap1\n      dup2\n      add\n      0x40\n      mstore\n      dup1\n      swap3\n      swap2\n      swap1\n      dup2\n      dup2\n      mstore\n      0x20\n      add\n      dup3\n      dup1\n      sload\n      tag_17\n      swap1\n      tag_16\n      jump\t// in\n    tag_17:\n      dup1\n      iszero\n      tag_18\n      jumpi\n      dup1\n      0x1f\n      lt\n      tag_19\n      jumpi\n      0x0100\n      dup1\n      dup4\n      sload\n      div\n      mul\n      dup4\n      mstore\n      swap2\n      0x20\n      add\n      swap2\n      jump(tag_18)\n    tag_19:\n      dup3\n      add\n      swap2\n      swap1\n      0x00\n      mstore\n      keccak256(0x00, 0x20)\n      swap1\n    tag_20:\n      dup2\n      sload\n      dup2\n      mstore\n      swap1\n      0x01\n      add\n      swap1\n      0x20\n      add\n      dup1\n      dup4\n      gt\n      tag_20\n      jumpi\n      dup3\n      swap1\n      sub\n      0x1f\n      and\n      dup3\n      add\n      swap2\n    tag_18:\n      pop\n      pop\n      pop\n      pop\n      pop\n      dup2\n      jump\t// out\n        /* \"contracts/Loop__Array.sol\":635:728  function setter(uint keys,string memory value) public{... */\n    tag_14:\n        /* \"contracts/Loop__Array.sol\":715:720  value */\n      dup1\n        /* \"contracts/Loop__Array.sol\":701:708  roll_no */\n      0x00\n        /* \"contracts/Loop__Array.sol\":701:714  roll_no[keys] */\n      dup1\n        /* \"contracts/Loop__Array.sol\":709:713  keys */\n      dup5\n        /* \"contracts/Loop__Array.sol\":701:714  roll_no[keys] */\n      dup2\n      mstore\n      0x20\n      add\n      swap1\n      dup2\n      mstore\n      0x20\n      add\n      0x00\n      keccak256\n        /* \"contracts/Loop__Array.sol\":701:720  roll_no[keys]=value */\n      swap1\n      dup2\n      tag_22\n      swap2\n      swap1\n      tag_23\n      jump\t// in\n    tag_22:\n      pop\n        /* \"contracts/Loop__Array.sol\":635:728  function setter(uint keys,string memory value) public{... */\n      pop\n      pop\n      jump\t// out\n        /* \"#utility.yul\":7:82   */\n    tag_24:\n        /* \"#utility.yul\":40:46   */\n      0x00\n        /* \"#utility.yul\":73:75   */\n      0x40\n        /* \"#utility.yul\":67:76   */\n      mload\n        /* \"#utility.yul\":57:76   */\n      swap1\n      pop\n        /* \"#utility.yul\":7:82   */\n      swap1\n      jump\t// out\n        /* \"#utility.yul\":88:205   */\n    tag_25:\n        /* \"#utility.yul\":197:198   */\n      0x00\n        /* \"#utility.yul\":194:195   */\n      dup1\n        /* \"#utility.yul\":187:199   */\n      revert\n        /* \"#utility.yul\":211:328   */\n    tag_26:\n        /* \"#utility.yul\":320:321   */\n      0x00\n        /* \"#utility.yul\":317:318   */\n      dup1\n        /* \"#utility.yul\":310:322   */\n      revert\n        /* \"#utility.yul\":334:411   */\n    tag_27:\n        /* \"#utility.yul\":371:378   */\n      0x00\n        /* \"#utility.yul\":400:405   */\n      dup2\n        /* \"#utility.yul\":389:405   */\n      swap1\n      pop\n        /* \"#utility.yul\":334:411   */\n      swap2\n      swap1\n      pop\n      jump\t// out\n        /* \"#utility.yul\":417:539   */\n    tag_28:\n        /* \"#utility.yul\":490:514   */\n      tag_66\n        /* \"#utility.yul\":508:513   */\n      dup2\n        /* \"#utility.yul\":490:514   */\n      tag_27\n      jump\t// in\n    tag_66:\n        /* \"#utility.yul\":483:488   */\n      dup2\n        /* \"#utility.yul\":480:515   */\n      eq\n        /* \"#utility.yul\":470:533   */\n      tag_67\n      jumpi\n        /* \"#utility.yul\":529:530   */\n      0x00\n        /* \"#utility.yul\":526:527   */\n      dup1\n        /* \"#utility.yul\":519:531   */\n      revert\n        /* \"#utility.yul\":470:533   */\n    tag_67:\n        /* \"#utility.yul\":417:539   */\n      pop\n      jump\t// out\n        /* \"#utility.yul\":545:684   */\n    tag_29:\n        /* \"#utility.yul\":591:596   */\n      0x00\n        /* \"#utility.yul\":629:635   */\n      dup2\n        /* \"#utility.yul\":616:636   */\n      calldataload\n        /* \"#utility.yul\":607:636   */\n      swap1\n      pop\n        /* \"#utility.yul\":645:678   */\n      tag_69\n        /* \"#utility.yul\":672:677   */\n      dup2\n        /* \"#utility.yul\":645:678   */\n      tag_28\n      jump\t// in\n    tag_69:\n        /* \"#utility.yul\":545:684   */\n      swap3\n      swap2\n      pop\n      pop\n      jump\t// out\n        /* \"#utility.yul\":690:1019   */\n    tag_7:\n        /* \"#utility.yul\":749:755   */\n      0x00\n        /* \"#utility.yul\":798:800   */\n      0x20\n        /* \"#utility.yul\":786:795   */\n      dup3\n        /* \"#utility.yul\":777:784   */\n      dup5\n        /* \"#utility.yul\":773:796   */\n      sub\n        /* \"#utility.yul\":769:801   */\n      slt\n        /* \"#utility.yul\":766:885   */\n      iszero\n      tag_71\n      jumpi\n        /* \"#utility.yul\":804:883   */\n      tag_72\n      tag_25\n      jump\t// in\n    tag_72:\n        /* \"#utility.yul\":766:885   */\n    tag_71:\n        /* \"#utility.yul\":924:925   */\n      0x00\n        /* \"#utility.yul\":949:1002   */\n      tag_73\n        /* \"#utility.yul\":994:1001   */\n      dup5\n        /* \"#utility.yul\":985:991   */\n      dup3\n        /* \"#utility.yul\":974:983   */\n      dup6\n        /* \"#utility.yul\":970:992   */\n      add\n        /* \"#utility.yul\":949:1002   */\n      tag_29\n      jump\t// in\n    tag_73:\n        /* \"#utility.yul\":939:1002   */\n      swap2\n      pop\n        /* \"#utility.yul\":895:1012   */\n      pop\n        /* \"#utility.yul\":690:1019   */\n      swap3\n      swap2\n      pop\n      pop\n      jump\t// out\n        /* \"#utility.yul\":1025:1124   */\n    tag_30:\n        /* \"#utility.yul\":1077:1083   */\n      0x00\n        /* \"#utility.yul\":1111:1116   */\n      dup2\n        /* \"#utility.yul\":1105:1117   */\n      mload\n        /* \"#utility.yul\":1095:1117   */\n      swap1\n      pop\n        /* \"#utility.yul\":1025:1124   */\n      swap2\n      swap1\n      pop\n      jump\t// out\n        /* \"#utility.yul\":1130:1299   */\n    tag_31:\n        /* \"#utility.yul\":1214:1225   */\n      0x00\n        /* \"#utility.yul\":1248:1254   */\n      dup3\n        /* \"#utility.yul\":1243:1246   */\n      dup3\n        /* \"#utility.yul\":1236:1255   */\n      mstore\n        /* \"#utility.yul\":1288:1292   */\n      0x20\n        /* \"#utility.yul\":1283:1286   */\n      dup3\n        /* \"#utility.yul\":1279:1293   */\n      add\n        /* \"#utility.yul\":1264:1293   */\n      swap1\n      pop\n        /* \"#utility.yul\":1130:1299   */\n      swap3\n      swap2\n      pop\n      pop\n      jump\t// out\n        /* \"#utility.yul\":1305:1551   */\n    tag_32:\n        /* \"#utility.yul\":1386:1387   */\n      0x00\n        /* \"#utility.yul\":1396:1509   */\n    tag_77:\n        /* \"#utility.yul\":1410:1416   */\n      dup4\n        /* \"#utility.yul\":1407:1408   */\n      dup2\n        /* \"#utility.yul\":1404:1417   */\n      lt\n        /* \"#utility.yul\":1396:1509   */\n      iszero\n      tag_79\n      jumpi\n        /* \"#utility.yul\":1495:1496   */\n      dup1\n        /* \"#utility.yul\":1490:1493   */\n      dup3\n        /* \"#utility.yul\":1486:1497   */\n      add\n        /* \"#utility.yul\":1480:1498   */\n      mload\n        /* \"#utility.yul\":1476:1477   */\n      dup2\n        /* \"#utility.yul\":1471:1474   */\n      dup5\n        /* \"#utility.yul\":1467:1478   */\n      add\n        /* \"#utility.yul\":1460:1499   */\n      mstore\n        /* \"#utility.yul\":1432:1434   */\n      0x20\n        /* \"#utility.yul\":1429:1430   */\n      dup2\n        /* \"#utility.yul\":1425:1435   */\n      add\n        /* \"#utility.yul\":1420:1435   */\n      swap1\n      pop\n        /* \"#utility.yul\":1396:1509   */\n      jump(tag_77)\n    tag_79:\n        /* \"#utility.yul\":1543:1544   */\n      0x00\n        /* \"#utility.yul\":1534:1540   */\n      dup5\n        /* \"#utility.yul\":1529:1532   */\n      dup5\n        /* \"#utility.yul\":1525:1541   */\n      add\n        /* \"#utility.yul\":1518:1545   */\n      mstore\n        /* \"#utility.yul\":1367:1551   */\n      pop\n        /* \"#utility.yul\":1305:1551   */\n      pop\n      pop\n      pop\n      jump\t// out\n        /* \"#utility.yul\":1557:1659   */\n    tag_33:\n        /* \"#utility.yul\":1598:1604   */\n      0x00\n        /* \"#utility.yul\":1649:1651   */\n      0x1f\n        /* \"#utility.yul\":1645:1652   */\n      not\n        /* \"#utility.yul\":1640:1642   */\n      0x1f\n        /* \"#utility.yul\":1633:1638   */\n      dup4\n        /* \"#utility.yul\":1629:1643   */\n      add\n        /* \"#utility.yul\":1625:1653   */\n      and\n        /* \"#utility.yul\":1615:1653   */\n      swap1\n      pop\n        /* \"#utility.yul\":1557:1659   */\n      swap2\n      swap1\n      pop\n      jump\t// out\n        /* \"#utility.yul\":1665:2042   */\n    tag_34:\n        /* \"#utility.yul\":1753:1756   */\n      0x00\n        /* \"#utility.yul\":1781:1820   */\n      tag_82\n        /* \"#utility.yul\":1814:1819   */\n      dup3\n        /* \"#utility.yul\":1781:1820   */\n      tag_30\n      jump\t// in\n    tag_82:\n        /* \"#utility.yul\":1836:1907   */\n      tag_83\n        /* \"#utility.yul\":1900:1906   */\n      dup2\n        /* \"#utility.yul\":1895:1898   */\n      dup6\n        /* \"#utility.yul\":1836:1907   */\n      tag_31\n      jump\t// in\n    tag_83:\n        /* \"#utility.yul\":1829:1907   */\n      swap4\n      pop\n        /* \"#utility.yul\":1916:1981   */\n      tag_84\n        /* \"#utility.yul\":1974:1980   */\n      dup2\n        /* \"#utility.yul\":1969:1972   */\n      dup6\n        /* \"#utility.yul\":1962:1966   */\n      0x20\n        /* \"#utility.yul\":1955:1960   */\n      dup7\n        /* \"#utility.yul\":1951:1967   */\n      add\n        /* \"#utility.yul\":1916:1981   */\n      tag_32\n      jump\t// in\n    tag_84:\n        /* \"#utility.yul\":2006:2035   */\n      tag_85\n        /* \"#utility.yul\":2028:2034   */\n      dup2\n        /* \"#utility.yul\":2006:2035   */\n      tag_33\n      jump\t// in\n    tag_85:\n        /* \"#utility.yul\":2001:2004   */\n      dup5\n        /* \"#utility.yul\":1997:2036   */\n      add\n        /* \"#utility.yul\":1990:2036   */\n      swap2\n      pop\n        /* \"#utility.yul\":1757:2042   */\n      pop\n        /* \"#utility.yul\":1665:2042   */\n      swap3\n      swap2\n      pop\n      pop\n      jump\t// out\n        /* \"#utility.yul\":2048:2361   */\n    tag_10:\n        /* \"#utility.yul\":2161:2165   */\n      0x00\n        /* \"#utility.yul\":2199:2201   */\n      0x20\n        /* \"#utility.yul\":2188:2197   */\n      dup3\n        /* \"#utility.yul\":2184:2202   */\n      add\n        /* \"#utility.yul\":2176:2202   */\n      swap1\n      pop\n        /* \"#utility.yul\":2248:2257   */\n      dup2\n        /* \"#utility.yul\":2242:2246   */\n      dup2\n        /* \"#utility.yul\":2238:2258   */\n      sub\n        /* \"#utility.yul\":2234:2235   */\n      0x00\n        /* \"#utility.yul\":2223:2232   */\n      dup4\n        /* \"#utility.yul\":2219:2236   */\n      add\n        /* \"#utility.yul\":2212:2259   */\n      mstore\n        /* \"#utility.yul\":2276:2354   */\n      tag_87\n        /* \"#utility.yul\":2349:2353   */\n      dup2\n        /* \"#utility.yul\":2340:2346   */\n      dup5\n        /* \"#utility.yul\":2276:2354   */\n      tag_34\n      jump\t// in\n    tag_87:\n        /* \"#utility.yul\":2268:2354   */\n      swap1\n      pop\n        /* \"#utility.yul\":2048:2361   */\n      swap3\n      swap2\n      pop\n      pop\n      jump\t// out\n        /* \"#utility.yul\":2367:2484   */\n    tag_35:\n        /* \"#utility.yul\":2476:2477   */\n      0x00\n        /* \"#utility.yul\":2473:2474   */\n      dup1\n        /* \"#utility.yul\":2466:2478   */\n      revert\n        /* \"#utility.yul\":2490:2607   */\n    tag_36:\n        /* \"#utility.yul\":2599:2600   */\n      0x00\n        /* \"#utility.yul\":2596:2597   */\n      dup1\n        /* \"#utility.yul\":2589:2601   */\n      revert\n        /* \"#utility.yul\":2613:2793   */\n    tag_37:\n        /* \"#utility.yul\":2661:2738   */\n      0x4e487b7100000000000000000000000000000000000000000000000000000000\n        /* \"#utility.yul\":2658:2659   */\n      0x00\n        /* \"#utility.yul\":2651:2739   */\n      mstore\n        /* \"#utility.yul\":2758:2762   */\n      0x41\n        /* \"#utility.yul\":2755:2756   */\n      0x04\n        /* \"#utility.yul\":2748:2763   */\n      mstore\n        /* \"#utility.yul\":2782:2786   */\n      0x24\n        /* \"#utility.yul\":2779:2780   */\n      0x00\n        /* \"#utility.yul\":2772:2787   */\n      revert\n        /* \"#utility.yul\":2799:3080   */\n    tag_38:\n        /* \"#utility.yul\":2882:2909   */\n      tag_92\n        /* \"#utility.yul\":2904:2908   */\n      dup3\n        /* \"#utility.yul\":2882:2909   */\n      tag_33\n      jump\t// in\n    tag_92:\n        /* \"#utility.yul\":2874:2880   */\n      dup2\n        /* \"#utility.yul\":2870:2910   */\n      add\n        /* \"#utility.yul\":3012:3018   */\n      dup2\n        /* \"#utility.yul\":3000:3010   */\n      dup2\n        /* \"#utility.yul\":2997:3019   */\n      lt\n        /* \"#utility.yul\":2976:2994   */\n      0xffffffffffffffff\n        /* \"#utility.yul\":2964:2974   */\n      dup3\n        /* \"#utility.yul\":2961:2995   */\n      gt\n        /* \"#utility.yul\":2958:3020   */\n      or\n        /* \"#utility.yul\":2955:3043   */\n      iszero\n      tag_93\n      jumpi\n        /* \"#utility.yul\":3023:3041   */\n      tag_94\n      tag_37\n      jump\t// in\n    tag_94:\n        /* \"#utility.yul\":2955:3043   */\n    tag_93:\n        /* \"#utility.yul\":3063:3073   */\n      dup1\n        /* \"#utility.yul\":3059:3061   */\n      0x40\n        /* \"#utility.yul\":3052:3074   */\n      mstore\n        /* \"#utility.yul\":2842:3080   */\n      pop\n        /* \"#utility.yul\":2799:3080   */\n      pop\n      pop\n      jump\t// out\n        /* \"#utility.yul\":3086:3215   */\n    tag_39:\n        /* \"#utility.yul\":3120:3126   */\n      0x00\n        /* \"#utility.yul\":3147:3167   */\n      tag_96\n      tag_24\n      jump\t// in\n    tag_96:\n        /* \"#utility.yul\":3137:3167   */\n      swap1\n      pop\n        /* \"#utility.yul\":3176:3209   */\n      tag_97\n        /* \"#utility.yul\":3204:3208   */\n      dup3\n        /* \"#utility.yul\":3196:3202   */\n      dup3\n        /* \"#utility.yul\":3176:3209   */\n      tag_38\n      jump\t// in\n    tag_97:\n        /* \"#utility.yul\":3086:3215   */\n      swap2\n      swap1\n      pop\n      jump\t// out\n        /* \"#utility.yul\":3221:3529   */\n    tag_40:\n        /* \"#utility.yul\":3283:3287   */\n      0x00\n        /* \"#utility.yul\":3373:3391   */\n      0xffffffffffffffff\n        /* \"#utility.yul\":3365:3371   */\n      dup3\n        /* \"#utility.yul\":3362:3392   */\n      gt\n        /* \"#utility.yul\":3359:3415   */\n      iszero\n      tag_99\n      jumpi\n        /* \"#utility.yul\":3395:3413   */\n      tag_100\n      tag_37\n      jump\t// in\n    tag_100:\n        /* \"#utility.yul\":3359:3415   */\n    tag_99:\n        /* \"#utility.yul\":3433:3462   */\n      tag_101\n        /* \"#utility.yul\":3455:3461   */\n      dup3\n        /* \"#utility.yul\":3433:3462   */\n      tag_33\n      jump\t// in\n    tag_101:\n        /* \"#utility.yul\":3425:3462   */\n      swap1\n      pop\n        /* \"#utility.yul\":3517:3521   */\n      0x20\n        /* \"#utility.yul\":3511:3515   */\n      dup2\n        /* \"#utility.yul\":3507:3522   */\n      add\n        /* \"#utility.yul\":3499:3522   */\n      swap1\n      pop\n        /* \"#utility.yul\":3221:3529   */\n      swap2\n      swap1\n      pop\n      jump\t// out\n        /* \"#utility.yul\":3535:3681   */\n    tag_41:\n        /* \"#utility.yul\":3632:3638   */\n      dup3\n        /* \"#utility.yul\":3627:3630   */\n      dup2\n        /* \"#utility.yul\":3622:3625   */\n      dup4\n        /* \"#utility.yul\":3609:3639   */\n      calldatacopy\n        /* \"#utility.yul\":3673:3674   */\n      0x00\n        /* \"#utility.yul\":3664:3670   */\n      dup4\n        /* \"#utility.yul\":3659:3662   */\n      dup4\n        /* \"#utility.yul\":3655:3671   */\n      add\n        /* \"#utility.yul\":3648:3675   */\n      mstore\n        /* \"#utility.yul\":3535:3681   */\n      pop\n      pop\n      pop\n      jump\t// out\n        /* \"#utility.yul\":3687:4112   */\n    tag_42:\n        /* \"#utility.yul\":3765:3770   */\n      0x00\n        /* \"#utility.yul\":3790:3856   */\n      tag_104\n        /* \"#utility.yul\":3806:3855   */\n      tag_105\n        /* \"#utility.yul\":3848:3854   */\n      dup5\n        /* \"#utility.yul\":3806:3855   */\n      tag_40\n      jump\t// in\n    tag_105:\n        /* \"#utility.yul\":3790:3856   */\n      tag_39\n      jump\t// in\n    tag_104:\n        /* \"#utility.yul\":3781:3856   */\n      swap1\n      pop\n        /* \"#utility.yul\":3879:3885   */\n      dup3\n        /* \"#utility.yul\":3872:3877   */\n      dup2\n        /* \"#utility.yul\":3865:3886   */\n      mstore\n        /* \"#utility.yul\":3917:3921   */\n      0x20\n        /* \"#utility.yul\":3910:3915   */\n      dup2\n        /* \"#utility.yul\":3906:3922   */\n      add\n        /* \"#utility.yul\":3955:3958   */\n      dup5\n        /* \"#utility.yul\":3946:3952   */\n      dup5\n        /* \"#utility.yul\":3941:3944   */\n      dup5\n        /* \"#utility.yul\":3937:3953   */\n      add\n        /* \"#utility.yul\":3934:3959   */\n      gt\n        /* \"#utility.yul\":3931:4043   */\n      iszero\n      tag_106\n      jumpi\n        /* \"#utility.yul\":3962:4041   */\n      tag_107\n      tag_36\n      jump\t// in\n    tag_107:\n        /* \"#utility.yul\":3931:4043   */\n    tag_106:\n        /* \"#utility.yul\":4052:4106   */\n      tag_108\n        /* \"#utility.yul\":4099:4105   */\n      dup5\n        /* \"#utility.yul\":4094:4097   */\n      dup3\n        /* \"#utility.yul\":4089:4092   */\n      dup6\n        /* \"#utility.yul\":4052:4106   */\n      tag_41\n      jump\t// in\n    tag_108:\n        /* \"#utility.yul\":3771:4112   */\n      pop\n        /* \"#utility.yul\":3687:4112   */\n      swap4\n      swap3\n      pop\n      pop\n      pop\n      jump\t// out\n        /* \"#utility.yul\":4132:4472   */\n    tag_43:\n        /* \"#utility.yul\":4188:4193   */\n      0x00\n        /* \"#utility.yul\":4237:4240   */\n      dup3\n        /* \"#utility.yul\":4230:4234   */\n      0x1f\n        /* \"#utility.yul\":4222:4228   */\n      dup4\n        /* \"#utility.yul\":4218:4235   */\n      add\n        /* \"#utility.yul\":4214:4241   */\n      slt\n        /* \"#utility.yul\":4204:4326   */\n      tag_110\n      jumpi\n        /* \"#utility.yul\":4245:4324   */\n      tag_111\n      tag_35\n      jump\t// in\n    tag_111:\n        /* \"#utility.yul\":4204:4326   */\n    tag_110:\n        /* \"#utility.yul\":4362:4368   */\n      dup2\n        /* \"#utility.yul\":4349:4369   */\n      calldataload\n        /* \"#utility.yul\":4387:4466   */\n      tag_112\n        /* \"#utility.yul\":4462:4465   */\n      dup5\n        /* \"#utility.yul\":4454:4460   */\n      dup3\n        /* \"#utility.yul\":4447:4451   */\n      0x20\n        /* \"#utility.yul\":4439:4445   */\n      dup7\n        /* \"#utility.yul\":4435:4452   */\n      add\n        /* \"#utility.yul\":4387:4466   */\n      tag_42\n      jump\t// in\n    tag_112:\n        /* \"#utility.yul\":4378:4466   */\n      swap2\n      pop\n        /* \"#utility.yul\":4194:4472   */\n      pop\n        /* \"#utility.yul\":4132:4472   */\n      swap3\n      swap2\n      pop\n      pop\n      jump\t// out\n        /* \"#utility.yul\":4478:5132   */\n    tag_13:\n        /* \"#utility.yul\":4556:4562   */\n      0x00\n        /* \"#utility.yul\":4564:4570   */\n      dup1\n        /* \"#utility.yul\":4613:4615   */\n      0x40\n        /* \"#utility.yul\":4601:4610   */\n      dup4\n        /* \"#utility.yul\":4592:4599   */\n      dup6\n        /* \"#utility.yul\":4588:4611   */\n      sub\n        /* \"#utility.yul\":4584:4616   */\n      slt\n        /* \"#utility.yul\":4581:4700   */\n      iszero\n      tag_114\n      jumpi\n        /* \"#utility.yul\":4619:4698   */\n      tag_115\n      tag_25\n      jump\t// in\n    tag_115:\n        /* \"#utility.yul\":4581:4700   */\n    tag_114:\n        /* \"#utility.yul\":4739:4740   */\n      0x00\n        /* \"#utility.yul\":4764:4817   */\n      tag_116\n        /* \"#utility.yul\":4809:4816   */\n      dup6\n        /* \"#utility.yul\":4800:4806   */\n      dup3\n        /* \"#utility.yul\":4789:4798   */\n      dup7\n        /* \"#utility.yul\":4785:4807   */\n      add\n        /* \"#utility.yul\":4764:4817   */\n      tag_29\n      jump\t// in\n    tag_116:\n        /* \"#utility.yul\":4754:4817   */\n      swap3\n      pop\n        /* \"#utility.yul\":4710:4827   */\n      pop\n        /* \"#utility.yul\":4894:4896   */\n      0x20\n        /* \"#utility.yul\":4883:4892   */\n      dup4\n        /* \"#utility.yul\":4879:4897   */\n      add\n        /* \"#utility.yul\":4866:4898   */\n      calldataload\n        /* \"#utility.yul\":4925:4943   */\n      0xffffffffffffffff\n        /* \"#utility.yul\":4917:4923   */\n      dup2\n        /* \"#utility.yul\":4914:4944   */\n      gt\n        /* \"#utility.yul\":4911:5028   */\n      iszero\n      tag_117\n      jumpi\n        /* \"#utility.yul\":4947:5026   */\n      tag_118\n      tag_26\n      jump\t// in\n    tag_118:\n        /* \"#utility.yul\":4911:5028   */\n    tag_117:\n        /* \"#utility.yul\":5052:5115   */\n      tag_119\n        /* \"#utility.yul\":5107:5114   */\n      dup6\n        /* \"#utility.yul\":5098:5104   */\n      dup3\n        /* \"#utility.yul\":5087:5096   */\n      dup7\n        /* \"#utility.yul\":5083:5105   */\n      add\n        /* \"#utility.yul\":5052:5115   */\n      tag_43\n      jump\t// in\n    tag_119:\n        /* \"#utility.yul\":5042:5115   */\n      swap2\n      pop\n        /* \"#utility.yul\":4837:5125   */\n      pop\n        /* \"#utility.yul\":4478:5132   */\n      swap3\n      pop\n      swap3\n      swap1\n      pop\n      jump\t// out\n        /* \"#utility.yul\":5138:5318   */\n    tag_44:\n        /* \"#utility.yul\":5186:5263   */\n      0x4e487b7100000000000000000000000000000000000000000000000000000000\n        /* \"#utility.yul\":5183:5184   */\n      0x00\n        /* \"#utility.yul\":5176:5264   */\n      mstore\n        /* \"#utility.yul\":5283:5287   */\n      0x22\n        /* \"#utility.yul\":5280:5281   */\n      0x04\n        /* \"#utility.yul\":5273:5288   */\n      mstore\n        /* \"#utility.yul\":5307:5311   */\n      0x24\n        /* \"#utility.yul\":5304:5305   */\n      0x00\n        /* \"#utility.yul\":5297:5312   */\n      revert\n        /* \"#utility.yul\":5324:5644   */\n    tag_16:\n        /* \"#utility.yul\":5368:5374   */\n      0x00\n        /* \"#utility.yul\":5405:5406   */\n      0x02\n        /* \"#utility.yul\":5399:5403   */\n      dup3\n        /* \"#utility.yul\":5395:5407   */\n      div\n        /* \"#utility.yul\":5385:5407   */\n      swap1\n      pop\n        /* \"#utility.yul\":5452:5453   */\n      0x01\n        /* \"#utility.yul\":5446:5450   */\n      dup3\n        /* \"#utility.yul\":5442:5454   */\n      and\n        /* \"#utility.yul\":5473:5491   */\n      dup1\n        /* \"#utility.yul\":5463:5544   */\n      tag_122\n      jumpi\n        /* \"#utility.yul\":5529:5533   */\n      0x7f\n        /* \"#utility.yul\":5521:5527   */\n      dup3\n        /* \"#utility.yul\":5517:5534   */\n      and\n        /* \"#utility.yul\":5507:5534   */\n      swap2\n      pop\n        /* \"#utility.yul\":5463:5544   */\n    tag_122:\n        /* \"#utility.yul\":5591:5593   */\n      0x20\n        /* \"#utility.yul\":5583:5589   */\n      dup3\n        /* \"#utility.yul\":5580:5594   */\n      lt\n        /* \"#utility.yul\":5560:5578   */\n      dup2\n        /* \"#utility.yul\":5557:5595   */\n      sub\n        /* \"#utility.yul\":5554:5638   */\n      tag_123\n      jumpi\n        /* \"#utility.yul\":5610:5628   */\n      tag_124\n      tag_44\n      jump\t// in\n    tag_124:\n        /* \"#utility.yul\":5554:5638   */\n    tag_123:\n        /* \"#utility.yul\":5375:5644   */\n      pop\n        /* \"#utility.yul\":5324:5644   */\n      swap2\n      swap1\n      pop\n      jump\t// out\n        /* \"#utility.yul\":5650:5791   */\n    tag_45:\n        /* \"#utility.yul\":5699:5703   */\n      0x00\n        /* \"#utility.yul\":5722:5725   */\n      dup2\n        /* \"#utility.yul\":5714:5725   */\n      swap1\n      pop\n        /* \"#utility.yul\":5745:5748   */\n      dup2\n        /* \"#utility.yul\":5742:5743   */\n      0x00\n        /* \"#utility.yul\":5735:5749   */\n      mstore\n        /* \"#utility.yul\":5779:5783   */\n      0x20\n        /* \"#utility.yul\":5776:5777   */\n      0x00\n        /* \"#utility.yul\":5766:5784   */\n      keccak256\n        /* \"#utility.yul\":5758:5784   */\n      swap1\n      pop\n        /* \"#utility.yul\":5650:5791   */\n      swap2\n      swap1\n      pop\n      jump\t// out\n        /* \"#utility.yul\":5797:5890   */\n    tag_46:\n        /* \"#utility.yul\":5834:5840   */\n      0x00\n        /* \"#utility.yul\":5881:5883   */\n      0x20\n        /* \"#utility.yul\":5876:5878   */\n      0x1f\n        /* \"#utility.yul\":5869:5874   */\n      dup4\n        /* \"#utility.yul\":5865:5879   */\n      add\n        /* \"#utility.yul\":5861:5884   */\n      div\n        /* \"#utility.yul\":5851:5884   */\n      swap1\n      pop\n        /* \"#utility.yul\":5797:5890   */\n      swap2\n      swap1\n      pop\n      jump\t// out\n        /* \"#utility.yul\":5896:6003   */\n    tag_47:\n        /* \"#utility.yul\":5940:5948   */\n      0x00\n        /* \"#utility.yul\":5990:5995   */\n      dup3\n        /* \"#utility.yul\":5984:5988   */\n      dup3\n        /* \"#utility.yul\":5980:5996   */\n      shl\n        /* \"#utility.yul\":5959:5996   */\n      swap1\n      pop\n        /* \"#utility.yul\":5896:6003   */\n      swap3\n      swap2\n      pop\n      pop\n      jump\t// out\n        /* \"#utility.yul\":6009:6402   */\n    tag_48:\n        /* \"#utility.yul\":6078:6084   */\n      0x00\n        /* \"#utility.yul\":6128:6129   */\n      0x08\n        /* \"#utility.yul\":6116:6126   */\n      dup4\n        /* \"#utility.yul\":6112:6130   */\n      mul\n        /* \"#utility.yul\":6151:6248   */\n      tag_129\n        /* \"#utility.yul\":6181:6247   */\n      0xffffffffffffffffffffffffffffffffffffffffffffffffffffffffffffffff\n        /* \"#utility.yul\":6170:6179   */\n      dup3\n        /* \"#utility.yul\":6151:6248   */\n      tag_47\n      jump\t// in\n    tag_129:\n        /* \"#utility.yul\":6269:6308   */\n      tag_130\n        /* \"#utility.yul\":6299:6307   */\n      dup7\n        /* \"#utility.yul\":6288:6297   */\n      dup4\n        /* \"#utility.yul\":6269:6308   */\n      tag_47\n      jump\t// in\n    tag_130:\n        /* \"#utility.yul\":6257:6308   */\n      swap6\n      pop\n        /* \"#utility.yul\":6341:6345   */\n      dup1\n        /* \"#utility.yul\":6337:6346   */\n      not\n        /* \"#utility.yul\":6330:6335   */\n      dup5\n        /* \"#utility.yul\":6326:6347   */\n      and\n        /* \"#utility.yul\":6317:6347   */\n      swap4\n      pop\n        /* \"#utility.yul\":6390:6394   */\n      dup1\n        /* \"#utility.yul\":6380:6388   */\n      dup7\n        /* \"#utility.yul\":6376:6395   */\n      and\n        /* \"#utility.yul\":6369:6374   */\n      dup5\n        /* \"#utility.yul\":6366:6396   */\n      or\n        /* \"#utility.yul\":6356:6396   */\n      swap3\n      pop\n        /* \"#utility.yul\":6085:6402   */\n      pop\n      pop\n        /* \"#utility.yul\":6009:6402   */\n      swap4\n      swap3\n      pop\n      pop\n      pop\n      jump\t// out\n        /* \"#utility.yul\":6408:6468   */\n    tag_49:\n        /* \"#utility.yul\":6436:6439   */\n      0x00\n        /* \"#utility.yul\":6457:6462   */\n      dup2\n        /* \"#utility.yul\":6450:6462   */\n      swap1\n      pop\n        /* \"#utility.yul\":6408:6468   */\n      swap2\n      swap1\n      pop\n      jump\t// out\n        /* \"#utility.yul\":6474:6616   */\n    tag_50:\n        /* \"#utility.yul\":6524:6533   */\n      0x00\n        /* \"#utility.yul\":6557:6610   */\n      tag_133\n        /* \"#utility.yul\":6575:6609   */\n      tag_134\n        /* \"#utility.yul\":6584:6608   */\n      tag_135\n        /* \"#utility.yul\":6602:6607   */\n      dup5\n        /* \"#utility.yul\":6584:6608   */\n      tag_27\n      jump\t// in\n    tag_135:\n        /* \"#utility.yul\":6575:6609   */\n      tag_49\n      jump\t// in\n    tag_134:\n        /* \"#utility.yul\":6557:6610   */\n      tag_27\n      jump\t// in\n    tag_133:\n        /* \"#utility.yul\":6544:6610   */\n      swap1\n      pop\n        /* \"#utility.yul\":6474:6616   */\n      swap2\n      swap1\n      pop\n      jump\t// out\n        /* \"#utility.yul\":6622:6697   */\n    tag_51:\n        /* \"#utility.yul\":6665:6668   */\n      0x00\n        /* \"#utility.yul\":6686:6691   */\n      dup2\n        /* \"#utility.yul\":6679:6691   */\n      swap1\n      pop\n        /* \"#utility.yul\":6622:6697   */\n      swap2\n      swap1\n      pop\n      jump\t// out\n        /* \"#utility.yul\":6703:6972   */\n    tag_52:\n        /* \"#utility.yul\":6813:6852   */\n      tag_138\n        /* \"#utility.yul\":6844:6851   */\n      dup4\n        /* \"#utility.yul\":6813:6852   */\n      tag_50\n      jump\t// in\n    tag_138:\n        /* \"#utility.yul\":6874:6965   */\n      tag_139\n        /* \"#utility.yul\":6923:6964   */\n      tag_140\n        /* \"#utility.yul\":6947:6963   */\n      dup3\n        /* \"#utility.yul\":6923:6964   */\n      tag_51\n      jump\t// in\n    tag_140:\n        /* \"#utility.yul\":6915:6921   */\n      dup5\n        /* \"#utility.yul\":6908:6912   */\n      dup5\n        /* \"#utility.yul\":6902:6913   */\n      sload\n        /* \"#utility.yul\":6874:6965   */\n      tag_48\n      jump\t// in\n    tag_139:\n        /* \"#utility.yul\":6868:6872   */\n      dup3\n        /* \"#utility.yul\":6861:6966   */\n      sstore\n        /* \"#utility.yul\":6779:6972   */\n      pop\n        /* \"#utility.yul\":6703:6972   */\n      pop\n      pop\n      pop\n      jump\t// out\n        /* \"#utility.yul\":6978:7051   */\n    tag_53:\n        /* \"#utility.yul\":7023:7026   */\n      0x00\n        /* \"#utility.yul\":6978:7051   */\n      swap1\n      jump\t// out\n        /* \"#utility.yul\":7057:7246   */\n    tag_54:\n        /* \"#utility.yul\":7134:7166   */\n      tag_143\n      tag_53\n      jump\t// in\n    tag_143:\n        /* \"#utility.yul\":7175:7240   */\n      tag_144\n        /* \"#utility.yul\":7233:7239   */\n      dup2\n        /* \"#utility.yul\":7225:7231   */\n      dup5\n        /* \"#utility.yul\":7219:7223   */\n      dup5\n        /* \"#utility.yul\":7175:7240   */\n      tag_52\n      jump\t// in\n    tag_144:\n        /* \"#utility.yul\":7110:7246   */\n      pop\n        /* \"#utility.yul\":7057:7246   */\n      pop\n      pop\n      jump\t// out\n        /* \"#utility.yul\":7252:7438   */\n    tag_55:\n        /* \"#utility.yul\":7312:7432   */\n    tag_146:\n        /* \"#utility.yul\":7329:7332   */\n      dup2\n        /* \"#utility.yul\":7322:7327   */\n      dup2\n        /* \"#utility.yul\":7319:7333   */\n      lt\n        /* \"#utility.yul\":7312:7432   */\n      iszero\n      tag_148\n      jumpi\n        /* \"#utility.yul\":7383:7422   */\n      tag_149\n        /* \"#utility.yul\":7420:7421   */\n      0x00\n        /* \"#utility.yul\":7413:7418   */\n      dup3\n        /* \"#utility.yul\":7383:7422   */\n      tag_54\n      jump\t// in\n    tag_149:\n        /* \"#utility.yul\":7356:7357   */\n      0x01\n        /* \"#utility.yul\":7349:7354   */\n      dup2\n        /* \"#utility.yul\":7345:7358   */\n      add\n        /* \"#utility.yul\":7336:7358   */\n      swap1\n      pop\n        /* \"#utility.yul\":7312:7432   */\n      jump(tag_146)\n    tag_148:\n        /* \"#utility.yul\":7252:7438   */\n      pop\n      pop\n      jump\t// out\n        /* \"#utility.yul\":7444:7987   */\n    tag_56:\n        /* \"#utility.yul\":7545:7547   */\n      0x1f\n        /* \"#utility.yul\":7540:7543   */\n      dup3\n        /* \"#utility.yul\":7537:7548   */\n      gt\n        /* \"#utility.yul\":7534:7980   */\n      iszero\n      tag_151\n      jumpi\n        /* \"#utility.yul\":7579:7617   */\n      tag_152\n        /* \"#utility.yul\":7611:7616   */\n      dup2\n        /* \"#utility.yul\":7579:7617   */\n      tag_45\n      jump\t// in\n    tag_152:\n        /* \"#utility.yul\":7663:7692   */\n      tag_153\n        /* \"#utility.yul\":7681:7691   */\n      dup5\n        /* \"#utility.yul\":7663:7692   */\n      tag_46\n      jump\t// in\n    tag_153:\n        /* \"#utility.yul\":7653:7661   */\n      dup2\n        /* \"#utility.yul\":7649:7693   */\n      add\n        /* \"#utility.yul\":7846:7848   */\n      0x20\n        /* \"#utility.yul\":7834:7844   */\n      dup6\n        /* \"#utility.yul\":7831:7849   */\n      lt\n        /* \"#utility.yul\":7828:7877   */\n      iszero\n      tag_154\n      jumpi\n        /* \"#utility.yul\":7867:7875   */\n      dup2\n        /* \"#utility.yul\":7852:7875   */\n      swap1\n      pop\n        /* \"#utility.yul\":7828:7877   */\n    tag_154:\n        /* \"#utility.yul\":7890:7970   */\n      tag_155\n        /* \"#utility.yul\":7946:7968   */\n      tag_156\n        /* \"#utility.yul\":7964:7967   */\n      dup6\n        /* \"#utility.yul\":7946:7968   */\n      tag_46\n      jump\t// in\n    tag_156:\n        /* \"#utility.yul\":7936:7944   */\n      dup4\n        /* \"#utility.yul\":7932:7969   */\n      add\n        /* \"#utility.yul\":7919:7930   */\n      dup3\n        /* \"#utility.yul\":7890:7970   */\n      tag_55\n      jump\t// in\n    tag_155:\n        /* \"#utility.yul\":7549:7980   */\n      pop\n      pop\n        /* \"#utility.yul\":7534:7980   */\n    tag_151:\n        /* \"#utility.yul\":7444:7987   */\n      pop\n      pop\n      pop\n      jump\t// out\n        /* \"#utility.yul\":7993:8110   */\n    tag_57:\n        /* \"#utility.yul\":8047:8055   */\n      0x00\n        /* \"#utility.yul\":8097:8102   */\n      dup3\n        /* \"#utility.yul\":8091:8095   */\n      dup3\n        /* \"#utility.yul\":8087:8103   */\n      shr\n        /* \"#utility.yul\":8066:8103   */\n      swap1\n      pop\n        /* \"#utility.yul\":7993:8110   */\n      swap3\n      swap2\n      pop\n      pop\n      jump\t// out\n        /* \"#utility.yul\":8116:8285   */\n    tag_58:\n        /* \"#utility.yul\":8160:8166   */\n      0x00\n        /* \"#utility.yul\":8193:8244   */\n      tag_159\n        /* \"#utility.yul\":8241:8242   */\n      0x00\n        /* \"#utility.yul\":8237:8243   */\n      not\n        /* \"#utility.yul\":8229:8234   */\n      dup5\n        /* \"#utility.yul\":8226:8227   */\n      0x08\n        /* \"#utility.yul\":8222:8235   */\n      mul\n        /* \"#utility.yul\":8193:8244   */\n      tag_57\n      jump\t// in\n    tag_159:\n        /* \"#utility.yul\":8189:8245   */\n      not\n        /* \"#utility.yul\":8274:8278   */\n      dup1\n        /* \"#utility.yul\":8268:8272   */\n      dup4\n        /* \"#utility.yul\":8264:8279   */\n      and\n        /* \"#utility.yul\":8254:8279   */\n      swap2\n      pop\n        /* \"#utility.yul\":8167:8285   */\n      pop\n        /* \"#utility.yul\":8116:8285   */\n      swap3\n      swap2\n      pop\n      pop\n      jump\t// out\n        /* \"#utility.yul\":8290:8585   */\n    tag_59:\n        /* \"#utility.yul\":8366:8370   */\n      0x00\n        /* \"#utility.yul\":8512:8541   */\n      tag_161\n        /* \"#utility.yul\":8537:8540   */\n      dup4\n        /* \"#utility.yul\":8531:8535   */\n      dup4\n        /* \"#utility.yul\":8512:8541   */\n      tag_58\n      jump\t// in\n    tag_161:\n        /* \"#utility.yul\":8504:8541   */\n      swap2\n      pop\n        /* \"#utility.yul\":8574:8577   */\n      dup3\n        /* \"#utility.yul\":8571:8572   */\n      0x02\n        /* \"#utility.yul\":8567:8578   */\n      mul\n        /* \"#utility.yul\":8561:8565   */\n      dup3\n        /* \"#utility.yul\":8558:8579   */\n      or\n        /* \"#utility.yul\":8550:8579   */\n      swap1\n      pop\n        /* \"#utility.yul\":8290:8585   */\n      swap3\n      swap2\n      pop\n      pop\n      jump\t// out\n        /* \"#utility.yul\":8590:9985   */\n    tag_23:\n        /* \"#utility.yul\":8707:8744   */\n      tag_163\n        /* \"#utility.yul\":8740:8743   */\n      dup3\n        /* \"#utility.yul\":8707:8744   */\n      tag_30\n      jump\t// in\n    tag_163:\n        /* \"#utility.yul\":8809:8827   */\n      0xffffffffffffffff\n        /* \"#utility.yul\":8801:8807   */\n      dup2\n        /* \"#utility.yul\":8798:8828   */\n      gt\n        /* \"#utility.yul\":8795:8851   */\n      iszero\n      tag_164\n      jumpi\n        /* \"#utility.yul\":8831:8849   */\n      tag_165\n      tag_37\n      jump\t// in\n    tag_165:\n        /* \"#utility.yul\":8795:8851   */\n    tag_164:\n        /* \"#utility.yul\":8875:8913   */\n      tag_166\n        /* \"#utility.yul\":8907:8911   */\n      dup3\n        /* \"#utility.yul\":8901:8912   */\n      sload\n        /* \"#utility.yul\":8875:8913   */\n      tag_16\n      jump\t// in\n    tag_166:\n        /* \"#utility.yul\":8960:9027   */\n      tag_167\n        /* \"#utility.yul\":9020:9026   */\n      dup3\n        /* \"#utility.yul\":9012:9018   */\n      dup3\n        /* \"#utility.yul\":9006:9010   */\n      dup6\n        /* \"#utility.yul\":8960:9027   */\n      tag_56\n      jump\t// in\n    tag_167:\n        /* \"#utility.yul\":9054:9055   */\n      0x00\n        /* \"#utility.yul\":9078:9082   */\n      0x20\n        /* \"#utility.yul\":9065:9082   */\n      swap1\n      pop\n        /* \"#utility.yul\":9110:9112   */\n      0x1f\n        /* \"#utility.yul\":9102:9108   */\n      dup4\n        /* \"#utility.yul\":9099:9113   */\n      gt\n        /* \"#utility.yul\":9127:9128   */\n      0x01\n        /* \"#utility.yul\":9122:9740   */\n      dup2\n      eq\n      tag_169\n      jumpi\n        /* \"#utility.yul\":9784:9785   */\n      0x00\n        /* \"#utility.yul\":9801:9807   */\n      dup5\n        /* \"#utility.yul\":9798:9875   */\n      iszero\n      tag_170\n      jumpi\n        /* \"#utility.yul\":9850:9859   */\n      dup3\n        /* \"#utility.yul\":9845:9848   */\n      dup8\n        /* \"#utility.yul\":9841:9860   */\n      add\n        /* \"#utility.yul\":9835:9861   */\n      mload\n        /* \"#utility.yul\":9826:9861   */\n      swap1\n      pop\n        /* \"#utility.yul\":9798:9875   */\n    tag_170:\n        /* \"#utility.yul\":9901:9968   */\n      tag_171\n        /* \"#utility.yul\":9961:9967   */\n      dup6\n        /* \"#utility.yul\":9954:9959   */\n      dup3\n        /* \"#utility.yul\":9901:9968   */\n      tag_59\n      jump\t// in\n    tag_171:\n        /* \"#utility.yul\":9895:9899   */\n      dup7\n        /* \"#utility.yul\":9888:9969   */\n      sstore\n        /* \"#utility.yul\":9757:9979   */\n      pop\n        /* \"#utility.yul\":9092:9979   */\n      jump(tag_168)\n        /* \"#utility.yul\":9122:9740   */\n    tag_169:\n        /* \"#utility.yul\":9174:9178   */\n      0x1f\n        /* \"#utility.yul\":9170:9179   */\n      not\n        /* \"#utility.yul\":9162:9168   */\n      dup5\n        /* \"#utility.yul\":9158:9180   */\n      and\n        /* \"#utility.yul\":9208:9245   */\n      tag_172\n        /* \"#utility.yul\":9240:9244   */\n      dup7\n        /* \"#utility.yul\":9208:9245   */\n      tag_45\n      jump\t// in\n    tag_172:\n        /* \"#utility.yul\":9267:9268   */\n      0x00\n        /* \"#utility.yul\":9281:9489   */\n    tag_173:\n        /* \"#utility.yul\":9295:9302   */\n      dup3\n        /* \"#utility.yul\":9292:9293   */\n      dup2\n        /* \"#utility.yul\":9289:9303   */\n      lt\n        /* \"#utility.yul\":9281:9489   */\n      iszero\n      tag_175\n      jumpi\n        /* \"#utility.yul\":9374:9383   */\n      dup5\n        /* \"#utility.yul\":9369:9372   */\n      dup10\n        /* \"#utility.yul\":9365:9384   */\n      add\n        /* \"#utility.yul\":9359:9385   */\n      mload\n        /* \"#utility.yul\":9351:9357   */\n      dup3\n        /* \"#utility.yul\":9344:9386   */\n      sstore\n        /* \"#utility.yul\":9425:9426   */\n      0x01\n        /* \"#utility.yul\":9417:9423   */\n      dup3\n        /* \"#utility.yul\":9413:9427   */\n      add\n        /* \"#utility.yul\":9403:9427   */\n      swap2\n      pop\n        /* \"#utility.yul\":9472:9474   */\n      0x20\n        /* \"#utility.yul\":9461:9470   */\n      dup6\n        /* \"#utility.yul\":9457:9475   */\n      add\n        /* \"#utility.yul\":9444:9475   */\n      swap5\n      pop\n        /* \"#utility.yul\":9318:9322   */\n      0x20\n        /* \"#utility.yul\":9315:9316   */\n      dup2\n        /* \"#utility.yul\":9311:9323   */\n      add\n        /* \"#utility.yul\":9306:9323   */\n      swap1\n      pop\n        /* \"#utility.yul\":9281:9489   */\n      jump(tag_173)\n    tag_175:\n        /* \"#utility.yul\":9517:9523   */\n      dup7\n        /* \"#utility.yul\":9508:9515   */\n      dup4\n        /* \"#utility.yul\":9505:9524   */\n      lt\n        /* \"#utility.yul\":9502:9681   */\n      iszero\n      tag_176\n      jumpi\n        /* \"#utility.yul\":9575:9584   */\n      dup5\n        /* \"#utility.yul\":9570:9573   */\n      dup10\n        /* \"#utility.yul\":9566:9585   */\n      add\n        /* \"#utility.yul\":9560:9586   */\n      mload\n        /* \"#utility.yul\":9618:9666   */\n      tag_177\n        /* \"#utility.yul\":9660:9664   */\n      0x1f\n        /* \"#utility.yul\":9652:9658   */\n      dup10\n        /* \"#utility.yul\":9648:9665   */\n      and\n        /* \"#utility.yul\":9637:9646   */\n      dup3\n        /* \"#utility.yul\":9618:9666   */\n      tag_58\n      jump\t// in\n    tag_177:\n        /* \"#utility.yul\":9610:9616   */\n      dup4\n        /* \"#utility.yul\":9603:9667   */\n      sstore\n        /* \"#utility.yul\":9525:9681   */\n      pop\n        /* \"#utility.yul\":9502:9681   */\n    tag_176:\n        /* \"#utility.yul\":9727:9728   */\n      0x01\n        /* \"#utility.yul\":9723:9724   */\n      0x02\n        /* \"#utility.yul\":9715:9721   */\n      dup9\n        /* \"#utility.yul\":9711:9725   */\n      mul\n        /* \"#utility.yul\":9707:9729   */\n      add\n        /* \"#utility.yul\":9701:9705   */\n      dup9\n        /* \"#utility.yul\":9694:9730   */\n      sstore\n        /* \"#utility.yul\":9129:9740   */\n      pop\n      pop\n      pop\n        /* \"#utility.yul\":9092:9979   */\n    tag_168:\n      pop\n        /* \"#utility.yul\":8682:9985   */\n      pop\n      pop\n      pop\n        /* \"#utility.yul\":8590:9985   */\n      pop\n      pop\n      jump\t// out\n\n    auxdata: 0xa26469706673582212209dd88e1885d87d6f3bd06899051d7dd00ef3b7bdb8a94361fda12274452c995f64736f6c63430008130033\n}\n",
				"bytecode": {
					"linkReferences": {},
					"object": "608060405234801561001057600080fd5b50610719806100206000396000f3fe608060405234801561001057600080fd5b50600436106100365760003560e01c8063898786ac1461003b578063bcb131c91461006b575b600080fd5b61005560048036038101906100509190610195565b610087565b6040516100629190610252565b60405180910390f35b610085600480360381019061008091906103a9565b610127565b005b600060205280600052604060002060009150905080546100a690610434565b80601f01602080910402602001604051908101604052809291908181526020018280546100d290610434565b801561011f5780601f106100f45761010080835404028352916020019161011f565b820191906000526020600020905b81548152906001019060200180831161010257829003601f168201915b505050505081565b8060008084815260200190815260200160002090816101469190610611565b505050565b6000604051905090565b600080fd5b600080fd5b6000819050919050565b6101728161015f565b811461017d57600080fd5b50565b60008135905061018f81610169565b92915050565b6000602082840312156101ab576101aa610155565b5b60006101b984828501610180565b91505092915050565b600081519050919050565b600082825260208201905092915050565b60005b838110156101fc5780820151818401526020810190506101e1565b60008484015250505050565b6000601f19601f8301169050919050565b6000610224826101c2565b61022e81856101cd565b935061023e8185602086016101de565b61024781610208565b840191505092915050565b6000602082019050818103600083015261026c8184610219565b905092915050565b600080fd5b600080fd5b7f4e487b7100000000000000000000000000000000000000000000000000000000600052604160045260246000fd5b6102b682610208565b810181811067ffffffffffffffff821117156102d5576102d461027e565b5b80604052505050565b60006102e861014b565b90506102f482826102ad565b919050565b600067ffffffffffffffff8211156103145761031361027e565b5b61031d82610208565b9050602081019050919050565b82818337600083830152505050565b600061034c610347846102f9565b6102de565b90508281526020810184848401111561036857610367610279565b5b61037384828561032a565b509392505050565b600082601f8301126103905761038f610274565b5b81356103a0848260208601610339565b91505092915050565b600080604083850312156103c0576103bf610155565b5b60006103ce85828601610180565b925050602083013567ffffffffffffffff8111156103ef576103ee61015a565b5b6103fb8582860161037b565b9150509250929050565b7f4e487b7100000000000000000000000000000000000000000000000000000000600052602260045260246000fd5b6000600282049050600182168061044c57607f821691505b60208210810361045f5761045e610405565b5b50919050565b60008190508160005260206000209050919050565b60006020601f8301049050919050565b600082821b905092915050565b6000600883026104c77fffffffffffffffffffffffffffffffffffffffffffffffffffffffffffffffff8261048a565b6104d1868361048a565b95508019841693508086168417925050509392505050565b6000819050919050565b600061050e6105096105048461015f565b6104e9565b61015f565b9050919050565b6000819050919050565b610528836104f3565b61053c61053482610515565b848454610497565b825550505050565b600090565b610551610544565b61055c81848461051f565b505050565b5b8181101561058057610575600082610549565b600181019050610562565b5050565b601f8211156105c55761059681610465565b61059f8461047a565b810160208510156105ae578190505b6105c26105ba8561047a565b830182610561565b50505b505050565b600082821c905092915050565b60006105e8600019846008026105ca565b1980831691505092915050565b600061060183836105d7565b9150826002028217905092915050565b61061a826101c2565b67ffffffffffffffff8111156106335761063261027e565b5b61063d8254610434565b610648828285610584565b600060209050601f83116001811461067b5760008415610669578287015190505b61067385826105f5565b8655506106db565b601f19841661068986610465565b60005b828110156106b15784890151825560018201915060208501945060208101905061068c565b868310156106ce57848901516106ca601f8916826105d7565b8355505b6001600288020188555050505b50505050505056fea26469706673582212209dd88e1885d87d6f3bd06899051d7dd00ef3b7bdb8a94361fda12274452c995f64736f6c63430008130033",
					"opcodes": "PUSH1 0x80 PUSH1 0x40 MSTORE CALLVALUE DUP1 ISZERO PUSH2 0x10 JUMPI PUSH1 0x0 DUP1 REVERT JUMPDEST POP PUSH2 0x719 DUP1 PUSH2 0x20 PUSH1 0x0 CODECOPY PUSH1 0x0 RETURN INVALID PUSH1 0x80 PUSH1 0x40 MSTORE CALLVALUE DUP1 ISZERO PUSH2 0x10 JUMPI PUSH1 0x0 DUP1 REVERT JUMPDEST POP PUSH1 0x4 CALLDATASIZE LT PUSH2 0x36 JUMPI PUSH1 0x0 CALLDATALOAD PUSH1 0xE0 SHR DUP1 PUSH4 0x898786AC EQ PUSH2 0x3B JUMPI DUP1 PUSH4 0xBCB131C9 EQ PUSH2 0x6B JUMPI JUMPDEST PUSH1 0x0 DUP1 REVERT JUMPDEST PUSH2 0x55 PUSH1 0x4 DUP1 CALLDATASIZE SUB DUP2 ADD SWAP1 PUSH2 0x50 SWAP2 SWAP1 PUSH2 0x195 JUMP JUMPDEST PUSH2 0x87 JUMP JUMPDEST PUSH1 0x40 MLOAD PUSH2 0x62 SWAP2 SWAP1 PUSH2 0x252 JUMP JUMPDEST PUSH1 0x40 MLOAD DUP1 SWAP2 SUB SWAP1 RETURN JUMPDEST PUSH2 0x85 PUSH1 0x4 DUP1 CALLDATASIZE SUB DUP2 ADD SWAP1 PUSH2 0x80 SWAP2 SWAP1 PUSH2 0x3A9 JUMP JUMPDEST PUSH2 0x127 JUMP JUMPDEST STOP JUMPDEST PUSH1 0x0 PUSH1 0x20 MSTORE DUP1 PUSH1 0x0 MSTORE PUSH1 0x40 PUSH1 0x0 KECCAK256 PUSH1 0x0 SWAP2 POP SWAP1 POP DUP1 SLOAD PUSH2 0xA6 SWAP1 PUSH2 0x434 JUMP JUMPDEST DUP1 PUSH1 0x1F ADD PUSH1 0x20 DUP1 SWAP2 DIV MUL PUSH1 0x20 ADD PUSH1 0x40 MLOAD SWAP1 DUP2 ADD PUSH1 0x40 MSTORE DUP1 SWAP3 SWAP2 SWAP1 DUP2 DUP2 MSTORE PUSH1 0x20 ADD DUP3 DUP1 SLOAD PUSH2 0xD2 SWAP1 PUSH2 0x434 JUMP JUMPDEST DUP1 ISZERO PUSH2 0x11F JUMPI DUP1 PUSH1 0x1F LT PUSH2 0xF4 JUMPI PUSH2 0x100 DUP1 DUP4 SLOAD DIV MUL DUP4 MSTORE SWAP2 PUSH1 0x20 ADD SWAP2 PUSH2 0x11F JUMP JUMPDEST DUP3 ADD SWAP2 SWAP1 PUSH1 0x0 MSTORE PUSH1 0x20 PUSH1 0x0 KECCAK256 SWAP1 JUMPDEST DUP2 SLOAD DUP2 MSTORE SWAP1 PUSH1 0x1 ADD SWAP1 PUSH1 0x20 ADD DUP1 DUP4 GT PUSH2 0x102 JUMPI DUP3 SWAP1 SUB PUSH1 0x1F AND DUP3 ADD SWAP2 JUMPDEST POP POP POP POP POP DUP2 JUMP JUMPDEST DUP1 PUSH1 0x0 DUP1 DUP5 DUP2 MSTORE PUSH1 0x20 ADD SWAP1 DUP2 MSTORE PUSH1 0x20 ADD PUSH1 0x0 KECCAK256 SWAP1 DUP2 PUSH2 0x146 SWAP2 SWAP1 PUSH2 0x611 JUMP JUMPDEST POP POP POP JUMP JUMPDEST PUSH1 0x0 PUSH1 0x40 MLOAD SWAP1 POP SWAP1 JUMP JUMPDEST PUSH1 0x0 DUP1 REVERT JUMPDEST PUSH1 0x0 DUP1 REVERT JUMPDEST PUSH1 0x0 DUP2 SWAP1 POP SWAP2 SWAP1 POP JUMP JUMPDEST PUSH2 0x172 DUP2 PUSH2 0x15F JUMP JUMPDEST DUP2 EQ PUSH2 0x17D JUMPI PUSH1 0x0 DUP1 REVERT JUMPDEST POP JUMP JUMPDEST PUSH1 0x0 DUP2 CALLDATALOAD SWAP1 POP PUSH2 0x18F DUP2 PUSH2 0x169 JUMP JUMPDEST SWAP3 SWAP2 POP POP JUMP JUMPDEST PUSH1 0x0 PUSH1 0x20 DUP3 DUP5 SUB SLT ISZERO PUSH2 0x1AB JUMPI PUSH2 0x1AA PUSH2 0x155 JUMP JUMPDEST JUMPDEST PUSH1 0x0 PUSH2 0x1B9 DUP5 DUP3 DUP6 ADD PUSH2 0x180 JUMP JUMPDEST SWAP2 POP POP SWAP3 SWAP2 POP POP JUMP JUMPDEST PUSH1 0x0 DUP2 MLOAD SWAP1 POP SWAP2 SWAP1 POP JUMP JUMPDEST PUSH1 0x0 DUP3 DUP3 MSTORE PUSH1 0x20 DUP3 ADD SWAP1 POP SWAP3 SWAP2 POP POP JUMP JUMPDEST PUSH1 0x0 JUMPDEST DUP4 DUP2 LT ISZERO PUSH2 0x1FC JUMPI DUP1 DUP3 ADD MLOAD DUP2 DUP5 ADD MSTORE PUSH1 0x20 DUP2 ADD SWAP1 POP PUSH2 0x1E1 JUMP JUMPDEST PUSH1 0x0 DUP5 DUP5 ADD MSTORE POP POP POP POP JUMP JUMPDEST PUSH1 0x0 PUSH1 0x1F NOT PUSH1 0x1F DUP4 ADD AND SWAP1 POP SWAP2 SWAP1 POP JUMP JUMPDEST PUSH1 0x0 PUSH2 0x224 DUP3 PUSH2 0x1C2 JUMP JUMPDEST PUSH2 0x22E DUP2 DUP6 PUSH2 0x1CD JUMP JUMPDEST SWAP4 POP PUSH2 0x23E DUP2 DUP6 PUSH1 0x20 DUP7 ADD PUSH2 0x1DE JUMP JUMPDEST PUSH2 0x247 DUP2 PUSH2 0x208 JUMP JUMPDEST DUP5 ADD SWAP2 POP POP SWAP3 SWAP2 POP POP JUMP JUMPDEST PUSH1 0x0 PUSH1 0x20 DUP3 ADD SWAP1 POP DUP2 DUP2 SUB PUSH1 0x0 DUP4 ADD MSTORE PUSH2 0x26C DUP2 DUP5 PUSH2 0x219 JUMP JUMPDEST SWAP1 POP SWAP3 SWAP2 POP POP JUMP JUMPDEST PUSH1 0x0 DUP1 REVERT JUMPDEST PUSH1 0x0 DUP1 REVERT JUMPDEST PUSH32 0x4E487B7100000000000000000000000000000000000000000000000000000000 PUSH1 0x0 MSTORE PUSH1 0x41 PUSH1 0x4 MSTORE PUSH1 0x24 PUSH1 0x0 REVERT JUMPDEST PUSH2 0x2B6 DUP3 PUSH2 0x208 JUMP JUMPDEST DUP2 ADD DUP2 DUP2 LT PUSH8 0xFFFFFFFFFFFFFFFF DUP3 GT OR ISZERO PUSH2 0x2D5 JUMPI PUSH2 0x2D4 PUSH2 0x27E JUMP JUMPDEST JUMPDEST DUP1 PUSH1 0x40 MSTORE POP POP POP JUMP JUMPDEST PUSH1 0x0 PUSH2 0x2E8 PUSH2 0x14B JUMP JUMPDEST SWAP1 POP PUSH2 0x2F4 DUP3 DUP3 PUSH2 0x2AD JUMP JUMPDEST SWAP2 SWAP1 POP JUMP JUMPDEST PUSH1 0x0 PUSH8 0xFFFFFFFFFFFFFFFF DUP3 GT ISZERO PUSH2 0x314 JUMPI PUSH2 0x313 PUSH2 0x27E JUMP JUMPDEST JUMPDEST PUSH2 0x31D DUP3 PUSH2 0x208 JUMP JUMPDEST SWAP1 POP PUSH1 0x20 DUP2 ADD SWAP1 POP SWAP2 SWAP1 POP JUMP JUMPDEST DUP3 DUP2 DUP4 CALLDATACOPY PUSH1 0x0 DUP4 DUP4 ADD MSTORE POP POP POP JUMP JUMPDEST PUSH1 0x0 PUSH2 0x34C PUSH2 0x347 DUP5 PUSH2 0x2F9 JUMP JUMPDEST PUSH2 0x2DE JUMP JUMPDEST SWAP1 POP DUP3 DUP2 MSTORE PUSH1 0x20 DUP2 ADD DUP5 DUP5 DUP5 ADD GT ISZERO PUSH2 0x368 JUMPI PUSH2 0x367 PUSH2 0x279 JUMP JUMPDEST JUMPDEST PUSH2 0x373 DUP5 DUP3 DUP6 PUSH2 0x32A JUMP JUMPDEST POP SWAP4 SWAP3 POP POP POP JUMP JUMPDEST PUSH1 0x0 DUP3 PUSH1 0x1F DUP4 ADD SLT PUSH2 0x390 JUMPI PUSH2 0x38F PUSH2 0x274 JUMP JUMPDEST JUMPDEST DUP2 CALLDATALOAD PUSH2 0x3A0 DUP5 DUP3 PUSH1 0x20 DUP7 ADD PUSH2 0x339 JUMP JUMPDEST SWAP2 POP POP SWAP3 SWAP2 POP POP JUMP JUMPDEST PUSH1 0x0 DUP1 PUSH1 0x40 DUP4 DUP6 SUB SLT ISZERO PUSH2 0x3C0 JUMPI PUSH2 0x3BF PUSH2 0x155 JUMP JUMPDEST JUMPDEST PUSH1 0x0 PUSH2 0x3CE DUP6 DUP3 DUP7 ADD PUSH2 0x180 JUMP JUMPDEST SWAP3 POP POP PUSH1 0x20 DUP4 ADD CALLDATALOAD PUSH8 0xFFFFFFFFFFFFFFFF DUP2 GT ISZERO PUSH2 0x3EF JUMPI PUSH2 0x3EE PUSH2 0x15A JUMP JUMPDEST JUMPDEST PUSH2 0x3FB DUP6 DUP3 DUP7 ADD PUSH2 0x37B JUMP JUMPDEST SWAP2 POP POP SWAP3 POP SWAP3 SWAP1 POP JUMP JUMPDEST PUSH32 0x4E487B7100000000000000000000000000000000000000000000000000000000 PUSH1 0x0 MSTORE PUSH1 0x22 PUSH1 0x4 MSTORE PUSH1 0x24 PUSH1 0x0 REVERT JUMPDEST PUSH1 0x0 PUSH1 0x2 DUP3 DIV SWAP1 POP PUSH1 0x1 DUP3 AND DUP1 PUSH2 0x44C JUMPI PUSH1 0x7F DUP3 AND SWAP2 POP JUMPDEST PUSH1 0x20 DUP3 LT DUP2 SUB PUSH2 0x45F JUMPI PUSH2 0x45E PUSH2 0x405 JUMP JUMPDEST JUMPDEST POP SWAP2 SWAP1 POP JUMP JUMPDEST PUSH1 0x0 DUP2 SWAP1 POP DUP2 PUSH1 0x0 MSTORE PUSH1 0x20 PUSH1 0x0 KECCAK256 SWAP1 POP SWAP2 SWAP1 POP JUMP JUMPDEST PUSH1 0x0 PUSH1 0x20 PUSH1 0x1F DUP4 ADD DIV SWAP1 POP SWAP2 SWAP1 POP JUMP JUMPDEST PUSH1 0x0 DUP3 DUP3 SHL SWAP1 POP SWAP3 SWAP2 POP POP JUMP JUMPDEST PUSH1 0x0 PUSH1 0x8 DUP4 MUL PUSH2 0x4C7 PUSH32 0xFFFFFFFFFFFFFFFFFFFFFFFFFFFFFFFFFFFFFFFFFFFFFFFFFFFFFFFFFFFFFFFF DUP3 PUSH2 0x48A JUMP JUMPDEST PUSH2 0x4D1 DUP7 DUP4 PUSH2 0x48A JUMP JUMPDEST SWAP6 POP DUP1 NOT DUP5 AND SWAP4 POP DUP1 DUP7 AND DUP5 OR SWAP3 POP POP POP SWAP4 SWAP3 POP POP POP JUMP JUMPDEST PUSH1 0x0 DUP2 SWAP1 POP SWAP2 SWAP1 POP JUMP JUMPDEST PUSH1 0x0 PUSH2 0x50E PUSH2 0x509 PUSH2 0x504 DUP5 PUSH2 0x15F JUMP JUMPDEST PUSH2 0x4E9 JUMP JUMPDEST PUSH2 0x15F JUMP JUMPDEST SWAP1 POP SWAP2 SWAP1 POP JUMP JUMPDEST PUSH1 0x0 DUP2 SWAP1 POP SWAP2 SWAP1 POP JUMP JUMPDEST PUSH2 0x528 DUP4 PUSH2 0x4F3 JUMP JUMPDEST PUSH2 0x53C PUSH2 0x534 DUP3 PUSH2 0x515 JUMP JUMPDEST DUP5 DUP5 SLOAD PUSH2 0x497 JUMP JUMPDEST DUP3 SSTORE POP POP POP POP JUMP JUMPDEST PUSH1 0x0 SWAP1 JUMP JUMPDEST PUSH2 0x551 PUSH2 0x544 JUMP JUMPDEST PUSH2 0x55C DUP2 DUP5 DUP5 PUSH2 0x51F JUMP JUMPDEST POP POP POP JUMP JUMPDEST JUMPDEST DUP2 DUP2 LT ISZERO PUSH2 0x580 JUMPI PUSH2 0x575 PUSH1 0x0 DUP3 PUSH2 0x549 JUMP JUMPDEST PUSH1 0x1 DUP2 ADD SWAP1 POP PUSH2 0x562 JUMP JUMPDEST POP POP JUMP JUMPDEST PUSH1 0x1F DUP3 GT ISZERO PUSH2 0x5C5 JUMPI PUSH2 0x596 DUP2 PUSH2 0x465 JUMP JUMPDEST PUSH2 0x59F DUP5 PUSH2 0x47A JUMP JUMPDEST DUP2 ADD PUSH1 0x20 DUP6 LT ISZERO PUSH2 0x5AE JUMPI DUP2 SWAP1 POP JUMPDEST PUSH2 0x5C2 PUSH2 0x5BA DUP6 PUSH2 0x47A JUMP JUMPDEST DUP4 ADD DUP3 PUSH2 0x561 JUMP JUMPDEST POP POP JUMPDEST POP POP POP JUMP JUMPDEST PUSH1 0x0 DUP3 DUP3 SHR SWAP1 POP SWAP3 SWAP2 POP POP JUMP JUMPDEST PUSH1 0x0 PUSH2 0x5E8 PUSH1 0x0 NOT DUP5 PUSH1 0x8 MUL PUSH2 0x5CA JUMP JUMPDEST NOT DUP1 DUP4 AND SWAP2 POP POP SWAP3 SWAP2 POP POP JUMP JUMPDEST PUSH1 0x0 PUSH2 0x601 DUP4 DUP4 PUSH2 0x5D7 JUMP JUMPDEST SWAP2 POP DUP3 PUSH1 0x2 MUL DUP3 OR SWAP1 POP SWAP3 SWAP2 POP POP JUMP JUMPDEST PUSH2 0x61A DUP3 PUSH2 0x1C2 JUMP JUMPDEST PUSH8 0xFFFFFFFFFFFFFFFF DUP2 GT ISZERO PUSH2 0x633 JUMPI PUSH2 0x632 PUSH2 0x27E JUMP JUMPDEST JUMPDEST PUSH2 0x63D DUP3 SLOAD PUSH2 0x434 JUMP JUMPDEST PUSH2 0x648 DUP3 DUP3 DUP6 PUSH2 0x584 JUMP JUMPDEST PUSH1 0x0 PUSH1 0x20 SWAP1 POP PUSH1 0x1F DUP4 GT PUSH1 0x1 DUP2 EQ PUSH2 0x67B JUMPI PUSH1 0x0 DUP5 ISZERO PUSH2 0x669 JUMPI DUP3 DUP8 ADD MLOAD SWAP1 POP JUMPDEST PUSH2 0x673 DUP6 DUP3 PUSH2 0x5F5 JUMP JUMPDEST DUP7 SSTORE POP PUSH2 0x6DB JUMP JUMPDEST PUSH1 0x1F NOT DUP5 AND PUSH2 0x689 DUP7 PUSH2 0x465 JUMP JUMPDEST PUSH1 0x0 JUMPDEST DUP3 DUP2 LT ISZERO PUSH2 0x6B1 JUMPI DUP5 DUP10 ADD MLOAD DUP3 SSTORE PUSH1 0x1 DUP3 ADD SWAP2 POP PUSH1 0x20 DUP6 ADD SWAP5 POP PUSH1 0x20 DUP2 ADD SWAP1 POP PUSH2 0x68C JUMP JUMPDEST DUP7 DUP4 LT ISZERO PUSH2 0x6CE JUMPI DUP5 DUP10 ADD MLOAD PUSH2 0x6CA PUSH1 0x1F DUP10 AND DUP3 PUSH2 0x5D7 JUMP JUMPDEST DUP4 SSTORE POP JUMPDEST PUSH1 0x1 PUSH1 0x2 DUP9 MUL ADD DUP9 SSTORE POP POP POP JUMPDEST POP POP POP POP POP POP JUMP INVALID LOG2 PUSH5 0x6970667358 0x22 SLT KECCAK256 SWAP14 0xD8 DUP15 XOR DUP6 0xD8 PUSH30 0x6F3BD06899051D7DD00EF3B7BDB8A94361FDA12274452C995F64736F6C63 NUMBER STOP ADDMOD SGT STOP CALLER "
				},
				"gasEstimates": {
					"creation": {
						"codeDepositCost": "363400",
						"executionCost": "399",
						"totalCost": "363799"
					},
					"external": {
						"roll_no(uint256)": "infinite",
						"setter(uint256,string)": "infinite"
					}
				},
				"methodIdentifiers": {
					"roll_no(uint256)": "898786ac",
					"setter(uint256,string)": "bcb131c9"
				}
			},
			"storageLayout": {
				"storage": [
					{
						"astId": 65,
						"contract": "contracts/Loop__Array.sol:Mapping",
						"label": "roll_no",
						"offset": 0,
						"slot": "0",
						"type": "t_mapping(t_uint256,t_string_storage)"
					}
				],
				"types": {
					"t_mapping(t_uint256,t_string_storage)": {
						"encoding": "mapping",
						"key": "t_uint256",
						"label": "mapping(uint256 => string)",
						"numberOfBytes": "32",
						"value": "t_string_storage"
					},
					"t_string_storage": {
						"encoding": "bytes",
						"label": "string",
						"numberOfBytes": "32"
					},
					"t_uint256": {
						"encoding": "inplace",
						"label": "uint256",
						"numberOfBytes": "32"
					}
				}
			},
			"userdoc": {
				"kind": "user",
				"methods": {},
				"version": 1
			}
		}
	}
}