{
	"contracts/Complete_To_Do_App.sol": {
		"Todo": {
			"abi": [
				{
					"anonymous": false,
					"inputs": [
						{
							"indexed": false,
							"internalType": "uint256",
							"name": "id",
							"type": "uint256"
						},
						{
							"indexed": false,
							"internalType": "string",
							"name": "work",
							"type": "string"
						},
						{
							"indexed": false,
							"internalType": "bool",
							"name": "status",
							"type": "bool"
						}
					],
					"name": "taskCreated",
					"type": "event"
				},
				{
					"inputs": [
						{
							"internalType": "string",
							"name": "_work",
							"type": "string"
						}
					],
					"name": "createTask",
					"outputs": [],
					"stateMutability": "payable",
					"type": "function"
				},
				{
					"inputs": [],
					"name": "getReward",
					"outputs": [
						{
							"internalType": "uint256",
							"name": "",
							"type": "uint256"
						}
					],
					"stateMutability": "view",
					"type": "function"
				},
				{
					"inputs": [],
					"name": "getTask",
					"outputs": [
						{
							"components": [
								{
									"internalType": "string",
									"name": "work",
									"type": "string"
								},
								{
									"internalType": "bool",
									"name": "status",
									"type": "bool"
								}
							],
							"internalType": "struct Todo.task[]",
							"name": "",
							"type": "tuple[]"
						}
					],
					"stateMutability": "view",
					"type": "function"
				},
				{
					"inputs": [
						{
							"internalType": "uint256",
							"name": "_id",
							"type": "uint256"
						}
					],
					"name": "togalTask",
					"outputs": [],
					"stateMutability": "nonpayable",
					"type": "function"
				}
			],
			"devdoc": {
				"kind": "dev",
				"methods": {},
				"version": 1
			},
			"evm": {
				"assembly": "    /* \"contracts/Complete_To_Do_App.sol\":179:1091  contract Todo {... */\n  mstore(0x40, 0x80)\n  callvalue\n  dup1\n  iszero\n  tag_1\n  jumpi\n  0x00\n  dup1\n  revert\ntag_1:\n  pop\n  dataSize(sub_0)\n  dup1\n  dataOffset(sub_0)\n  0x00\n  codecopy\n  0x00\n  return\nstop\n\nsub_0: assembly {\n        /* \"contracts/Complete_To_Do_App.sol\":179:1091  contract Todo {... */\n      mstore(0x40, 0x80)\n      jumpi(tag_1, lt(calldatasize, 0x04))\n      shr(0xe0, calldataload(0x00))\n      dup1\n      0x111002aa\n      eq\n      tag_2\n      jumpi\n      dup1\n      0x3d18b912\n      eq\n      tag_3\n      jumpi\n      dup1\n      0x54c2ed6d\n      eq\n      tag_4\n      jumpi\n      dup1\n      0xa31662d2\n      eq\n      tag_5\n      jumpi\n    tag_1:\n      0x00\n      dup1\n      revert\n        /* \"contracts/Complete_To_Do_App.sol\":425:732  function createTask(string calldata _work) external payable {... */\n    tag_2:\n      tag_6\n      0x04\n      dup1\n      calldatasize\n      sub\n      dup2\n      add\n      swap1\n      tag_7\n      swap2\n      swap1\n      tag_8\n      jump\t// in\n    tag_7:\n      tag_9\n      jump\t// in\n    tag_6:\n      stop\n        /* \"contracts/Complete_To_Do_App.sol\":987:1088  function getReward() external view returns (uint256) {... */\n    tag_3:\n      callvalue\n      dup1\n      iszero\n      tag_10\n      jumpi\n      0x00\n      dup1\n      revert\n    tag_10:\n      pop\n      tag_11\n      tag_12\n      jump\t// in\n    tag_11:\n      mload(0x40)\n      tag_13\n      swap2\n      swap1\n      tag_14\n      jump\t// in\n    tag_13:\n      mload(0x40)\n      dup1\n      swap2\n      sub\n      swap1\n      return\n        /* \"contracts/Complete_To_Do_App.sol\":851:979  function togalTask(uint256 _id) external {... */\n    tag_4:\n      callvalue\n      dup1\n      iszero\n      tag_15\n      jumpi\n      0x00\n      dup1\n      revert\n    tag_15:\n      pop\n      tag_16\n      0x04\n      dup1\n      calldatasize\n      sub\n      dup2\n      add\n      swap1\n      tag_17\n      swap2\n      swap1\n      tag_18\n      jump\t// in\n    tag_17:\n      tag_19\n      jump\t// in\n    tag_16:\n      stop\n        /* \"contracts/Complete_To_Do_App.sol\":740:843  function getTask() external view returns (task[] memory) {... */\n    tag_5:\n      callvalue\n      dup1\n      iszero\n      tag_20\n      jumpi\n      0x00\n      dup1\n      revert\n    tag_20:\n      pop\n      tag_21\n      tag_22\n      jump\t// in\n    tag_21:\n      mload(0x40)\n      tag_23\n      swap2\n      swap1\n      tag_24\n      jump\t// in\n    tag_23:\n      mload(0x40)\n      dup1\n      swap2\n      sub\n      swap1\n      return\n        /* \"contracts/Complete_To_Do_App.sol\":425:732  function createTask(string calldata _work) external payable {... */\n    tag_9:\n        /* \"contracts/Complete_To_Do_App.sol\":517:526  0.1 ether */\n      0x016345785d8a0000\n        /* \"contracts/Complete_To_Do_App.sol\":504:513  msg.value */\n      callvalue\n        /* \"contracts/Complete_To_Do_App.sol\":504:526  msg.value == 0.1 ether */\n      eq\n        /* \"contracts/Complete_To_Do_App.sol\":496:544  require(msg.value == 0.1 ether, \"pay 0.1 ether\") */\n      tag_26\n      jumpi\n      mload(0x40)\n      0x08c379a000000000000000000000000000000000000000000000000000000000\n      dup2\n      mstore\n      0x04\n      add\n      tag_27\n      swap1\n      tag_28\n      jump\t// in\n    tag_27:\n      mload(0x40)\n      dup1\n      swap2\n      sub\n      swap1\n      revert\n    tag_26:\n        /* \"contracts/Complete_To_Do_App.sol\":557:565  taskList */\n      0x00\n        /* \"contracts/Complete_To_Do_App.sol\":557:577  taskList[msg.sender] */\n      dup1\n        /* \"contracts/Complete_To_Do_App.sol\":566:576  msg.sender */\n      caller\n        /* \"contracts/Complete_To_Do_App.sol\":557:577  taskList[msg.sender] */\n      0xffffffffffffffffffffffffffffffffffffffff\n      and\n      0xffffffffffffffffffffffffffffffffffffffff\n      and\n      dup2\n      mstore\n      0x20\n      add\n      swap1\n      dup2\n      mstore\n      0x20\n      add\n      0x00\n      keccak256\n        /* \"contracts/Complete_To_Do_App.sol\":583:601  task(_work, false) */\n      mload(0x40)\n      dup1\n      0x40\n      add\n      0x40\n      mstore\n      dup1\n        /* \"contracts/Complete_To_Do_App.sol\":588:593  _work */\n      dup5\n      dup5\n        /* \"contracts/Complete_To_Do_App.sol\":583:601  task(_work, false) */\n      dup1\n      dup1\n      0x1f\n      add\n      0x20\n      dup1\n      swap2\n      div\n      mul\n      0x20\n      add\n      mload(0x40)\n      swap1\n      dup2\n      add\n      0x40\n      mstore\n      dup1\n      swap4\n      swap3\n      swap2\n      swap1\n      dup2\n      dup2\n      mstore\n      0x20\n      add\n      dup4\n      dup4\n      dup1\n      dup3\n      dup5\n      calldatacopy\n      0x00\n      dup2\n      dup5\n      add\n      mstore\n      not(0x1f)\n      0x1f\n      dup3\n      add\n      and\n      swap1\n      pop\n      dup1\n      dup4\n      add\n      swap3\n      pop\n      pop\n      pop\n      pop\n      pop\n      pop\n      pop\n      dup2\n      mstore\n      0x20\n      add\n        /* \"contracts/Complete_To_Do_App.sol\":595:600  false */\n      0x00\n        /* \"contracts/Complete_To_Do_App.sol\":583:601  task(_work, false) */\n      iszero\n      iszero\n      dup2\n      mstore\n      pop\n        /* \"contracts/Complete_To_Do_App.sol\":557:602  taskList[msg.sender].push(task(_work, false)) */\n      swap1\n      dup1\n      0x01\n      dup2\n      sload\n      add\n      dup1\n      dup3\n      sstore\n      dup1\n      swap2\n      pop\n      pop\n      0x01\n      swap1\n      sub\n      swap1\n      0x00\n      mstore\n      keccak256(0x00, 0x20)\n      swap1\n      0x02\n      mul\n      add\n      0x00\n      swap1\n      swap2\n      swap1\n      swap2\n      swap1\n      swap2\n      pop\n      0x00\n      dup3\n      add\n      mload\n      dup2\n      0x00\n      add\n      swap1\n      dup2\n      tag_30\n      swap2\n      swap1\n      tag_31\n      jump\t// in\n    tag_30:\n      pop\n      0x20\n      dup3\n      add\n      mload\n      dup2\n      0x01\n      add\n      exp(0x0100, 0x00)\n      dup2\n      sload\n      dup2\n      0xff\n      mul\n      not\n      and\n      swap1\n      dup4\n      iszero\n      iszero\n      mul\n      or\n      swap1\n      sstore\n      pop\n      pop\n      pop\n        /* \"contracts/Complete_To_Do_App.sol\":639:648  msg.value */\n      callvalue\n        /* \"contracts/Complete_To_Do_App.sol\":613:623  rewardList */\n      0x01\n        /* \"contracts/Complete_To_Do_App.sol\":613:635  rewardList[msg.sender] */\n      0x00\n        /* \"contracts/Complete_To_Do_App.sol\":624:634  msg.sender */\n      caller\n        /* \"contracts/Complete_To_Do_App.sol\":613:635  rewardList[msg.sender] */\n      0xffffffffffffffffffffffffffffffffffffffff\n      and\n      0xffffffffffffffffffffffffffffffffffffffff\n      and\n      dup2\n      mstore\n      0x20\n      add\n      swap1\n      dup2\n      mstore\n      0x20\n      add\n      0x00\n      keccak256\n      0x00\n        /* \"contracts/Complete_To_Do_App.sol\":613:648  rewardList[msg.sender] += msg.value */\n      dup3\n      dup3\n      sload\n      tag_32\n      swap2\n      swap1\n      tag_33\n      jump\t// in\n    tag_32:\n      swap3\n      pop\n      pop\n      dup2\n      swap1\n      sstore\n      pop\n        /* \"contracts/Complete_To_Do_App.sol\":666:724  taskCreated(taskList[msg.sender].length - 1, _work, false) */\n      0x7ffc5def84f84c9a24e3f0ad22a6aa1dcf1626b3936280fe2f8e5d38c636b641\n        /* \"contracts/Complete_To_Do_App.sol\":708:709  1 */\n      0x01\n        /* \"contracts/Complete_To_Do_App.sol\":678:686  taskList */\n      0x00\n        /* \"contracts/Complete_To_Do_App.sol\":678:698  taskList[msg.sender] */\n      dup1\n        /* \"contracts/Complete_To_Do_App.sol\":687:697  msg.sender */\n      caller\n        /* \"contracts/Complete_To_Do_App.sol\":678:698  taskList[msg.sender] */\n      0xffffffffffffffffffffffffffffffffffffffff\n      and\n      0xffffffffffffffffffffffffffffffffffffffff\n      and\n      dup2\n      mstore\n      0x20\n      add\n      swap1\n      dup2\n      mstore\n      0x20\n      add\n      0x00\n      keccak256\n        /* \"contracts/Complete_To_Do_App.sol\":678:705  taskList[msg.sender].length */\n      dup1\n      sload\n      swap1\n      pop\n        /* \"contracts/Complete_To_Do_App.sol\":678:709  taskList[msg.sender].length - 1 */\n      tag_34\n      swap2\n      swap1\n      tag_35\n      jump\t// in\n    tag_34:\n        /* \"contracts/Complete_To_Do_App.sol\":711:716  _work */\n      dup4\n      dup4\n        /* \"contracts/Complete_To_Do_App.sol\":718:723  false */\n      0x00\n        /* \"contracts/Complete_To_Do_App.sol\":666:724  taskCreated(taskList[msg.sender].length - 1, _work, false) */\n      mload(0x40)\n      tag_36\n      swap5\n      swap4\n      swap3\n      swap2\n      swap1\n      tag_37\n      jump\t// in\n    tag_36:\n      mload(0x40)\n      dup1\n      swap2\n      sub\n      swap1\n      log1\n        /* \"contracts/Complete_To_Do_App.sol\":425:732  function createTask(string calldata _work) external payable {... */\n      pop\n      pop\n      jump\t// out\n        /* \"contracts/Complete_To_Do_App.sol\":987:1088  function getReward() external view returns (uint256) {... */\n    tag_12:\n        /* \"contracts/Complete_To_Do_App.sol\":1031:1038  uint256 */\n      0x00\n        /* \"contracts/Complete_To_Do_App.sol\":1058:1068  rewardList */\n      0x01\n        /* \"contracts/Complete_To_Do_App.sol\":1058:1080  rewardList[msg.sender] */\n      0x00\n        /* \"contracts/Complete_To_Do_App.sol\":1069:1079  msg.sender */\n      caller\n        /* \"contracts/Complete_To_Do_App.sol\":1058:1080  rewardList[msg.sender] */\n      0xffffffffffffffffffffffffffffffffffffffff\n      and\n      0xffffffffffffffffffffffffffffffffffffffff\n      and\n      dup2\n      mstore\n      0x20\n      add\n      swap1\n      dup2\n      mstore\n      0x20\n      add\n      0x00\n      keccak256\n      sload\n        /* \"contracts/Complete_To_Do_App.sol\":1051:1080  return rewardList[msg.sender] */\n      swap1\n      pop\n        /* \"contracts/Complete_To_Do_App.sol\":987:1088  function getReward() external view returns (uint256) {... */\n      swap1\n      jump\t// out\n        /* \"contracts/Complete_To_Do_App.sol\":851:979  function togalTask(uint256 _id) external {... */\n    tag_19:\n        /* \"contracts/Complete_To_Do_App.sol\":939:947  taskList */\n      0x00\n        /* \"contracts/Complete_To_Do_App.sol\":939:959  taskList[msg.sender] */\n      dup1\n        /* \"contracts/Complete_To_Do_App.sol\":948:958  msg.sender */\n      caller\n        /* \"contracts/Complete_To_Do_App.sol\":939:959  taskList[msg.sender] */\n      0xffffffffffffffffffffffffffffffffffffffff\n      and\n      0xffffffffffffffffffffffffffffffffffffffff\n      and\n      dup2\n      mstore\n      0x20\n      add\n      swap1\n      dup2\n      mstore\n      0x20\n      add\n      0x00\n      keccak256\n        /* \"contracts/Complete_To_Do_App.sol\":960:963  _id */\n      dup2\n        /* \"contracts/Complete_To_Do_App.sol\":939:964  taskList[msg.sender][_id] */\n      dup2\n      sload\n      dup2\n      lt\n      tag_40\n      jumpi\n      tag_41\n      tag_42\n      jump\t// in\n    tag_41:\n    tag_40:\n      swap1\n      0x00\n      mstore\n      keccak256(0x00, 0x20)\n      swap1\n      0x02\n      mul\n      add\n        /* \"contracts/Complete_To_Do_App.sol\":939:971  taskList[msg.sender][_id].status */\n      0x01\n      add\n      0x00\n      swap1\n      sload\n      swap1\n      0x0100\n      exp\n      swap1\n      div\n      0xff\n      and\n        /* \"contracts/Complete_To_Do_App.sol\":938:971  !taskList[msg.sender][_id].status */\n      iszero\n        /* \"contracts/Complete_To_Do_App.sol\":903:911  taskList */\n      0x00\n        /* \"contracts/Complete_To_Do_App.sol\":903:923  taskList[msg.sender] */\n      dup1\n        /* \"contracts/Complete_To_Do_App.sol\":912:922  msg.sender */\n      caller\n        /* \"contracts/Complete_To_Do_App.sol\":903:923  taskList[msg.sender] */\n      0xffffffffffffffffffffffffffffffffffffffff\n      and\n      0xffffffffffffffffffffffffffffffffffffffff\n      and\n      dup2\n      mstore\n      0x20\n      add\n      swap1\n      dup2\n      mstore\n      0x20\n      add\n      0x00\n      keccak256\n        /* \"contracts/Complete_To_Do_App.sol\":924:927  _id */\n      dup3\n        /* \"contracts/Complete_To_Do_App.sol\":903:928  taskList[msg.sender][_id] */\n      dup2\n      sload\n      dup2\n      lt\n      tag_44\n      jumpi\n      tag_45\n      tag_42\n      jump\t// in\n    tag_45:\n    tag_44:\n      swap1\n      0x00\n      mstore\n      keccak256(0x00, 0x20)\n      swap1\n      0x02\n      mul\n      add\n        /* \"contracts/Complete_To_Do_App.sol\":903:935  taskList[msg.sender][_id].status */\n      0x01\n      add\n      0x00\n        /* \"contracts/Complete_To_Do_App.sol\":903:971  taskList[msg.sender][_id].status = !taskList[msg.sender][_id].status */\n      0x0100\n      exp\n      dup2\n      sload\n      dup2\n      0xff\n      mul\n      not\n      and\n      swap1\n      dup4\n      iszero\n      iszero\n      mul\n      or\n      swap1\n      sstore\n      pop\n        /* \"contracts/Complete_To_Do_App.sol\":851:979  function togalTask(uint256 _id) external {... */\n      pop\n      jump\t// out\n        /* \"contracts/Complete_To_Do_App.sol\":740:843  function getTask() external view returns (task[] memory) {... */\n    tag_22:\n        /* \"contracts/Complete_To_Do_App.sol\":782:795  task[] memory */\n      0x60\n        /* \"contracts/Complete_To_Do_App.sol\":815:823  taskList */\n      0x00\n        /* \"contracts/Complete_To_Do_App.sol\":815:835  taskList[msg.sender] */\n      dup1\n        /* \"contracts/Complete_To_Do_App.sol\":824:834  msg.sender */\n      caller\n        /* \"contracts/Complete_To_Do_App.sol\":815:835  taskList[msg.sender] */\n      0xffffffffffffffffffffffffffffffffffffffff\n      and\n      0xffffffffffffffffffffffffffffffffffffffff\n      and\n      dup2\n      mstore\n      0x20\n      add\n      swap1\n      dup2\n      mstore\n      0x20\n      add\n      0x00\n      keccak256\n        /* \"contracts/Complete_To_Do_App.sol\":808:835  return taskList[msg.sender] */\n      dup1\n      sload\n      dup1\n      0x20\n      mul\n      0x20\n      add\n      mload(0x40)\n      swap1\n      dup2\n      add\n      0x40\n      mstore\n      dup1\n      swap3\n      swap2\n      swap1\n      dup2\n      dup2\n      mstore\n      0x20\n      add\n      0x00\n      swap1\n    tag_48:\n      dup3\n      dup3\n      lt\n      iszero\n      tag_49\n      jumpi\n      dup4\n      dup3\n      swap1\n      0x00\n      mstore\n      keccak256(0x00, 0x20)\n      swap1\n      0x02\n      mul\n      add\n      mload(0x40)\n      dup1\n      0x40\n      add\n      0x40\n      mstore\n      swap1\n      dup2\n      0x00\n      dup3\n      add\n      dup1\n      sload\n      tag_51\n      swap1\n      tag_52\n      jump\t// in\n    tag_51:\n      dup1\n      0x1f\n      add\n      0x20\n      dup1\n      swap2\n      div\n      mul\n      0x20\n      add\n      mload(0x40)\n      swap1\n      dup2\n      add\n      0x40\n      mstore\n      dup1\n      swap3\n      swap2\n      swap1\n      dup2\n      dup2\n      mstore\n      0x20\n      add\n      dup3\n      dup1\n      sload\n      tag_53\n      swap1\n      tag_52\n      jump\t// in\n    tag_53:\n      dup1\n      iszero\n      tag_54\n      jumpi\n      dup1\n      0x1f\n      lt\n      tag_55\n      jumpi\n      0x0100\n      dup1\n      dup4\n      sload\n      div\n      mul\n      dup4\n      mstore\n      swap2\n      0x20\n      add\n      swap2\n      jump(tag_54)\n    tag_55:\n      dup3\n      add\n      swap2\n      swap1\n      0x00\n      mstore\n      keccak256(0x00, 0x20)\n      swap1\n    tag_56:\n      dup2\n      sload\n      dup2\n      mstore\n      swap1\n      0x01\n      add\n      swap1\n      0x20\n      add\n      dup1\n      dup4\n      gt\n      tag_56\n      jumpi\n      dup3\n      swap1\n      sub\n      0x1f\n      and\n      dup3\n      add\n      swap2\n    tag_54:\n      pop\n      pop\n      pop\n      pop\n      pop\n      dup2\n      mstore\n      0x20\n      add\n      0x01\n      dup3\n      add\n      0x00\n      swap1\n      sload\n      swap1\n      0x0100\n      exp\n      swap1\n      div\n      0xff\n      and\n      iszero\n      iszero\n      iszero\n      iszero\n      dup2\n      mstore\n      pop\n      pop\n      dup2\n      mstore\n      0x20\n      add\n      swap1\n      0x01\n      add\n      swap1\n      jump(tag_48)\n    tag_49:\n      pop\n      pop\n      pop\n      pop\n      swap1\n      pop\n        /* \"contracts/Complete_To_Do_App.sol\":740:843  function getTask() external view returns (task[] memory) {... */\n      swap1\n      jump\t// out\n        /* \"#utility.yul\":88:205   */\n    tag_58:\n        /* \"#utility.yul\":197:198   */\n      0x00\n        /* \"#utility.yul\":194:195   */\n      dup1\n        /* \"#utility.yul\":187:199   */\n      revert\n        /* \"#utility.yul\":211:328   */\n    tag_59:\n        /* \"#utility.yul\":320:321   */\n      0x00\n        /* \"#utility.yul\":317:318   */\n      dup1\n        /* \"#utility.yul\":310:322   */\n      revert\n        /* \"#utility.yul\":334:451   */\n    tag_60:\n        /* \"#utility.yul\":443:444   */\n      0x00\n        /* \"#utility.yul\":440:441   */\n      dup1\n        /* \"#utility.yul\":433:445   */\n      revert\n        /* \"#utility.yul\":457:574   */\n    tag_61:\n        /* \"#utility.yul\":566:567   */\n      0x00\n        /* \"#utility.yul\":563:564   */\n      dup1\n        /* \"#utility.yul\":556:568   */\n      revert\n        /* \"#utility.yul\":580:697   */\n    tag_62:\n        /* \"#utility.yul\":689:690   */\n      0x00\n        /* \"#utility.yul\":686:687   */\n      dup1\n        /* \"#utility.yul\":679:691   */\n      revert\n        /* \"#utility.yul\":717:1270   */\n    tag_63:\n        /* \"#utility.yul\":775:783   */\n      0x00\n        /* \"#utility.yul\":785:791   */\n      dup1\n        /* \"#utility.yul\":835:838   */\n      dup4\n        /* \"#utility.yul\":828:832   */\n      0x1f\n        /* \"#utility.yul\":820:826   */\n      dup5\n        /* \"#utility.yul\":816:833   */\n      add\n        /* \"#utility.yul\":812:839   */\n      slt\n        /* \"#utility.yul\":802:924   */\n      tag_114\n      jumpi\n        /* \"#utility.yul\":843:922   */\n      tag_115\n      tag_60\n      jump\t// in\n    tag_115:\n        /* \"#utility.yul\":802:924   */\n    tag_114:\n        /* \"#utility.yul\":956:962   */\n      dup3\n        /* \"#utility.yul\":943:963   */\n      calldataload\n        /* \"#utility.yul\":933:963   */\n      swap1\n      pop\n        /* \"#utility.yul\":986:1004   */\n      0xffffffffffffffff\n        /* \"#utility.yul\":978:984   */\n      dup2\n        /* \"#utility.yul\":975:1005   */\n      gt\n        /* \"#utility.yul\":972:1089   */\n      iszero\n      tag_116\n      jumpi\n        /* \"#utility.yul\":1008:1087   */\n      tag_117\n      tag_61\n      jump\t// in\n    tag_117:\n        /* \"#utility.yul\":972:1089   */\n    tag_116:\n        /* \"#utility.yul\":1122:1126   */\n      0x20\n        /* \"#utility.yul\":1114:1120   */\n      dup4\n        /* \"#utility.yul\":1110:1127   */\n      add\n        /* \"#utility.yul\":1098:1127   */\n      swap2\n      pop\n        /* \"#utility.yul\":1176:1179   */\n      dup4\n        /* \"#utility.yul\":1168:1172   */\n      0x01\n        /* \"#utility.yul\":1160:1166   */\n      dup3\n        /* \"#utility.yul\":1156:1173   */\n      mul\n        /* \"#utility.yul\":1146:1154   */\n      dup4\n        /* \"#utility.yul\":1142:1174   */\n      add\n        /* \"#utility.yul\":1139:1180   */\n      gt\n        /* \"#utility.yul\":1136:1264   */\n      iszero\n      tag_118\n      jumpi\n        /* \"#utility.yul\":1183:1262   */\n      tag_119\n      tag_62\n      jump\t// in\n    tag_119:\n        /* \"#utility.yul\":1136:1264   */\n    tag_118:\n        /* \"#utility.yul\":717:1270   */\n      swap3\n      pop\n      swap3\n      swap1\n      pop\n      jump\t// out\n        /* \"#utility.yul\":1276:1805   */\n    tag_8:\n        /* \"#utility.yul\":1347:1353   */\n      0x00\n        /* \"#utility.yul\":1355:1361   */\n      dup1\n        /* \"#utility.yul\":1404:1406   */\n      0x20\n        /* \"#utility.yul\":1392:1401   */\n      dup4\n        /* \"#utility.yul\":1383:1390   */\n      dup6\n        /* \"#utility.yul\":1379:1402   */\n      sub\n        /* \"#utility.yul\":1375:1407   */\n      slt\n        /* \"#utility.yul\":1372:1491   */\n      iszero\n      tag_121\n      jumpi\n        /* \"#utility.yul\":1410:1489   */\n      tag_122\n      tag_58\n      jump\t// in\n    tag_122:\n        /* \"#utility.yul\":1372:1491   */\n    tag_121:\n        /* \"#utility.yul\":1558:1559   */\n      0x00\n        /* \"#utility.yul\":1547:1556   */\n      dup4\n        /* \"#utility.yul\":1543:1560   */\n      add\n        /* \"#utility.yul\":1530:1561   */\n      calldataload\n        /* \"#utility.yul\":1588:1606   */\n      0xffffffffffffffff\n        /* \"#utility.yul\":1580:1586   */\n      dup2\n        /* \"#utility.yul\":1577:1607   */\n      gt\n        /* \"#utility.yul\":1574:1691   */\n      iszero\n      tag_123\n      jumpi\n        /* \"#utility.yul\":1610:1689   */\n      tag_124\n      tag_59\n      jump\t// in\n    tag_124:\n        /* \"#utility.yul\":1574:1691   */\n    tag_123:\n        /* \"#utility.yul\":1723:1788   */\n      tag_125\n        /* \"#utility.yul\":1780:1787   */\n      dup6\n        /* \"#utility.yul\":1771:1777   */\n      dup3\n        /* \"#utility.yul\":1760:1769   */\n      dup7\n        /* \"#utility.yul\":1756:1778   */\n      add\n        /* \"#utility.yul\":1723:1788   */\n      tag_63\n      jump\t// in\n    tag_125:\n        /* \"#utility.yul\":1705:1788   */\n      swap3\n      pop\n      swap3\n      pop\n        /* \"#utility.yul\":1501:1798   */\n      pop\n        /* \"#utility.yul\":1276:1805   */\n      swap3\n      pop\n      swap3\n      swap1\n      pop\n      jump\t// out\n        /* \"#utility.yul\":1811:1888   */\n    tag_64:\n        /* \"#utility.yul\":1848:1855   */\n      0x00\n        /* \"#utility.yul\":1877:1882   */\n      dup2\n        /* \"#utility.yul\":1866:1882   */\n      swap1\n      pop\n        /* \"#utility.yul\":1811:1888   */\n      swap2\n      swap1\n      pop\n      jump\t// out\n        /* \"#utility.yul\":1894:2012   */\n    tag_65:\n        /* \"#utility.yul\":1981:2005   */\n      tag_128\n        /* \"#utility.yul\":1999:2004   */\n      dup2\n        /* \"#utility.yul\":1981:2005   */\n      tag_64\n      jump\t// in\n    tag_128:\n        /* \"#utility.yul\":1976:1979   */\n      dup3\n        /* \"#utility.yul\":1969:2006   */\n      mstore\n        /* \"#utility.yul\":1894:2012   */\n      pop\n      pop\n      jump\t// out\n        /* \"#utility.yul\":2018:2240   */\n    tag_14:\n        /* \"#utility.yul\":2111:2115   */\n      0x00\n        /* \"#utility.yul\":2149:2151   */\n      0x20\n        /* \"#utility.yul\":2138:2147   */\n      dup3\n        /* \"#utility.yul\":2134:2152   */\n      add\n        /* \"#utility.yul\":2126:2152   */\n      swap1\n      pop\n        /* \"#utility.yul\":2162:2233   */\n      tag_130\n        /* \"#utility.yul\":2230:2231   */\n      0x00\n        /* \"#utility.yul\":2219:2228   */\n      dup4\n        /* \"#utility.yul\":2215:2232   */\n      add\n        /* \"#utility.yul\":2206:2212   */\n      dup5\n        /* \"#utility.yul\":2162:2233   */\n      tag_65\n      jump\t// in\n    tag_130:\n        /* \"#utility.yul\":2018:2240   */\n      swap3\n      swap2\n      pop\n      pop\n      jump\t// out\n        /* \"#utility.yul\":2246:2368   */\n    tag_66:\n        /* \"#utility.yul\":2319:2343   */\n      tag_132\n        /* \"#utility.yul\":2337:2342   */\n      dup2\n        /* \"#utility.yul\":2319:2343   */\n      tag_64\n      jump\t// in\n    tag_132:\n        /* \"#utility.yul\":2312:2317   */\n      dup2\n        /* \"#utility.yul\":2309:2344   */\n      eq\n        /* \"#utility.yul\":2299:2362   */\n      tag_133\n      jumpi\n        /* \"#utility.yul\":2358:2359   */\n      0x00\n        /* \"#utility.yul\":2355:2356   */\n      dup1\n        /* \"#utility.yul\":2348:2360   */\n      revert\n        /* \"#utility.yul\":2299:2362   */\n    tag_133:\n        /* \"#utility.yul\":2246:2368   */\n      pop\n      jump\t// out\n        /* \"#utility.yul\":2374:2513   */\n    tag_67:\n        /* \"#utility.yul\":2420:2425   */\n      0x00\n        /* \"#utility.yul\":2458:2464   */\n      dup2\n        /* \"#utility.yul\":2445:2465   */\n      calldataload\n        /* \"#utility.yul\":2436:2465   */\n      swap1\n      pop\n        /* \"#utility.yul\":2474:2507   */\n      tag_135\n        /* \"#utility.yul\":2501:2506   */\n      dup2\n        /* \"#utility.yul\":2474:2507   */\n      tag_66\n      jump\t// in\n    tag_135:\n        /* \"#utility.yul\":2374:2513   */\n      swap3\n      swap2\n      pop\n      pop\n      jump\t// out\n        /* \"#utility.yul\":2519:2848   */\n    tag_18:\n        /* \"#utility.yul\":2578:2584   */\n      0x00\n        /* \"#utility.yul\":2627:2629   */\n      0x20\n        /* \"#utility.yul\":2615:2624   */\n      dup3\n        /* \"#utility.yul\":2606:2613   */\n      dup5\n        /* \"#utility.yul\":2602:2625   */\n      sub\n        /* \"#utility.yul\":2598:2630   */\n      slt\n        /* \"#utility.yul\":2595:2714   */\n      iszero\n      tag_137\n      jumpi\n        /* \"#utility.yul\":2633:2712   */\n      tag_138\n      tag_58\n      jump\t// in\n    tag_138:\n        /* \"#utility.yul\":2595:2714   */\n    tag_137:\n        /* \"#utility.yul\":2753:2754   */\n      0x00\n        /* \"#utility.yul\":2778:2831   */\n      tag_139\n        /* \"#utility.yul\":2823:2830   */\n      dup5\n        /* \"#utility.yul\":2814:2820   */\n      dup3\n        /* \"#utility.yul\":2803:2812   */\n      dup6\n        /* \"#utility.yul\":2799:2821   */\n      add\n        /* \"#utility.yul\":2778:2831   */\n      tag_67\n      jump\t// in\n    tag_139:\n        /* \"#utility.yul\":2768:2831   */\n      swap2\n      pop\n        /* \"#utility.yul\":2724:2841   */\n      pop\n        /* \"#utility.yul\":2519:2848   */\n      swap3\n      swap2\n      pop\n      pop\n      jump\t// out\n        /* \"#utility.yul\":2854:2987   */\n    tag_68:\n        /* \"#utility.yul\":2940:2946   */\n      0x00\n        /* \"#utility.yul\":2974:2979   */\n      dup2\n        /* \"#utility.yul\":2968:2980   */\n      mload\n        /* \"#utility.yul\":2958:2980   */\n      swap1\n      pop\n        /* \"#utility.yul\":2854:2987   */\n      swap2\n      swap1\n      pop\n      jump\t// out\n        /* \"#utility.yul\":2993:3196   */\n    tag_69:\n        /* \"#utility.yul\":3111:3122   */\n      0x00\n        /* \"#utility.yul\":3145:3151   */\n      dup3\n        /* \"#utility.yul\":3140:3143   */\n      dup3\n        /* \"#utility.yul\":3133:3152   */\n      mstore\n        /* \"#utility.yul\":3185:3189   */\n      0x20\n        /* \"#utility.yul\":3180:3183   */\n      dup3\n        /* \"#utility.yul\":3176:3190   */\n      add\n        /* \"#utility.yul\":3161:3190   */\n      swap1\n      pop\n        /* \"#utility.yul\":2993:3196   */\n      swap3\n      swap2\n      pop\n      pop\n      jump\t// out\n        /* \"#utility.yul\":3202:3353   */\n    tag_70:\n        /* \"#utility.yul\":3288:3292   */\n      0x00\n        /* \"#utility.yul\":3311:3314   */\n      dup2\n        /* \"#utility.yul\":3303:3314   */\n      swap1\n      pop\n        /* \"#utility.yul\":3341:3345   */\n      0x20\n        /* \"#utility.yul\":3336:3339   */\n      dup3\n        /* \"#utility.yul\":3332:3346   */\n      add\n        /* \"#utility.yul\":3324:3346   */\n      swap1\n      pop\n        /* \"#utility.yul\":3202:3353   */\n      swap2\n      swap1\n      pop\n      jump\t// out\n        /* \"#utility.yul\":3359:3458   */\n    tag_71:\n        /* \"#utility.yul\":3411:3417   */\n      0x00\n        /* \"#utility.yul\":3445:3450   */\n      dup2\n        /* \"#utility.yul\":3439:3451   */\n      mload\n        /* \"#utility.yul\":3429:3451   */\n      swap1\n      pop\n        /* \"#utility.yul\":3359:3458   */\n      swap2\n      swap1\n      pop\n      jump\t// out\n        /* \"#utility.yul\":3464:3623   */\n    tag_72:\n        /* \"#utility.yul\":3538:3549   */\n      0x00\n        /* \"#utility.yul\":3572:3578   */\n      dup3\n        /* \"#utility.yul\":3567:3570   */\n      dup3\n        /* \"#utility.yul\":3560:3579   */\n      mstore\n        /* \"#utility.yul\":3612:3616   */\n      0x20\n        /* \"#utility.yul\":3607:3610   */\n      dup3\n        /* \"#utility.yul\":3603:3617   */\n      add\n        /* \"#utility.yul\":3588:3617   */\n      swap1\n      pop\n        /* \"#utility.yul\":3464:3623   */\n      swap3\n      swap2\n      pop\n      pop\n      jump\t// out\n        /* \"#utility.yul\":3629:3875   */\n    tag_73:\n        /* \"#utility.yul\":3710:3711   */\n      0x00\n        /* \"#utility.yul\":3720:3833   */\n    tag_146:\n        /* \"#utility.yul\":3734:3740   */\n      dup4\n        /* \"#utility.yul\":3731:3732   */\n      dup2\n        /* \"#utility.yul\":3728:3741   */\n      lt\n        /* \"#utility.yul\":3720:3833   */\n      iszero\n      tag_148\n      jumpi\n        /* \"#utility.yul\":3819:3820   */\n      dup1\n        /* \"#utility.yul\":3814:3817   */\n      dup3\n        /* \"#utility.yul\":3810:3821   */\n      add\n        /* \"#utility.yul\":3804:3822   */\n      mload\n        /* \"#utility.yul\":3800:3801   */\n      dup2\n        /* \"#utility.yul\":3795:3798   */\n      dup5\n        /* \"#utility.yul\":3791:3802   */\n      add\n        /* \"#utility.yul\":3784:3823   */\n      mstore\n        /* \"#utility.yul\":3756:3758   */\n      0x20\n        /* \"#utility.yul\":3753:3754   */\n      dup2\n        /* \"#utility.yul\":3749:3759   */\n      add\n        /* \"#utility.yul\":3744:3759   */\n      swap1\n      pop\n        /* \"#utility.yul\":3720:3833   */\n      jump(tag_146)\n    tag_148:\n        /* \"#utility.yul\":3867:3868   */\n      0x00\n        /* \"#utility.yul\":3858:3864   */\n      dup5\n        /* \"#utility.yul\":3853:3856   */\n      dup5\n        /* \"#utility.yul\":3849:3865   */\n      add\n        /* \"#utility.yul\":3842:3869   */\n      mstore\n        /* \"#utility.yul\":3691:3875   */\n      pop\n        /* \"#utility.yul\":3629:3875   */\n      pop\n      pop\n      pop\n      jump\t// out\n        /* \"#utility.yul\":3881:3983   */\n    tag_74:\n        /* \"#utility.yul\":3922:3928   */\n      0x00\n        /* \"#utility.yul\":3973:3975   */\n      0x1f\n        /* \"#utility.yul\":3969:3976   */\n      not\n        /* \"#utility.yul\":3964:3966   */\n      0x1f\n        /* \"#utility.yul\":3957:3962   */\n      dup4\n        /* \"#utility.yul\":3953:3967   */\n      add\n        /* \"#utility.yul\":3949:3977   */\n      and\n        /* \"#utility.yul\":3939:3977   */\n      swap1\n      pop\n        /* \"#utility.yul\":3881:3983   */\n      swap2\n      swap1\n      pop\n      jump\t// out\n        /* \"#utility.yul\":3989:4346   */\n    tag_75:\n        /* \"#utility.yul\":4067:4070   */\n      0x00\n        /* \"#utility.yul\":4095:4134   */\n      tag_151\n        /* \"#utility.yul\":4128:4133   */\n      dup3\n        /* \"#utility.yul\":4095:4134   */\n      tag_71\n      jump\t// in\n    tag_151:\n        /* \"#utility.yul\":4150:4211   */\n      tag_152\n        /* \"#utility.yul\":4204:4210   */\n      dup2\n        /* \"#utility.yul\":4199:4202   */\n      dup6\n        /* \"#utility.yul\":4150:4211   */\n      tag_72\n      jump\t// in\n    tag_152:\n        /* \"#utility.yul\":4143:4211   */\n      swap4\n      pop\n        /* \"#utility.yul\":4220:4285   */\n      tag_153\n        /* \"#utility.yul\":4278:4284   */\n      dup2\n        /* \"#utility.yul\":4273:4276   */\n      dup6\n        /* \"#utility.yul\":4266:4270   */\n      0x20\n        /* \"#utility.yul\":4259:4264   */\n      dup7\n        /* \"#utility.yul\":4255:4271   */\n      add\n        /* \"#utility.yul\":4220:4285   */\n      tag_73\n      jump\t// in\n    tag_153:\n        /* \"#utility.yul\":4310:4339   */\n      tag_154\n        /* \"#utility.yul\":4332:4338   */\n      dup2\n        /* \"#utility.yul\":4310:4339   */\n      tag_74\n      jump\t// in\n    tag_154:\n        /* \"#utility.yul\":4305:4308   */\n      dup5\n        /* \"#utility.yul\":4301:4340   */\n      add\n        /* \"#utility.yul\":4294:4340   */\n      swap2\n      pop\n        /* \"#utility.yul\":4071:4346   */\n      pop\n        /* \"#utility.yul\":3989:4346   */\n      swap3\n      swap2\n      pop\n      pop\n      jump\t// out\n        /* \"#utility.yul\":4352:4442   */\n    tag_76:\n        /* \"#utility.yul\":4386:4393   */\n      0x00\n        /* \"#utility.yul\":4429:4434   */\n      dup2\n        /* \"#utility.yul\":4422:4435   */\n      iszero\n        /* \"#utility.yul\":4415:4436   */\n      iszero\n        /* \"#utility.yul\":4404:4436   */\n      swap1\n      pop\n        /* \"#utility.yul\":4352:4442   */\n      swap2\n      swap1\n      pop\n      jump\t// out\n        /* \"#utility.yul\":4448:4547   */\n    tag_77:\n        /* \"#utility.yul\":4519:4540   */\n      tag_157\n        /* \"#utility.yul\":4534:4539   */\n      dup2\n        /* \"#utility.yul\":4519:4540   */\n      tag_76\n      jump\t// in\n    tag_157:\n        /* \"#utility.yul\":4514:4517   */\n      dup3\n        /* \"#utility.yul\":4507:4541   */\n      mstore\n        /* \"#utility.yul\":4448:4547   */\n      pop\n      pop\n      jump\t// out\n        /* \"#utility.yul\":4597:5177   */\n    tag_78:\n        /* \"#utility.yul\":4694:4697   */\n      0x00\n        /* \"#utility.yul\":4730:4734   */\n      0x40\n        /* \"#utility.yul\":4725:4728   */\n      dup4\n        /* \"#utility.yul\":4721:4735   */\n      add\n        /* \"#utility.yul\":4817:4821   */\n      0x00\n        /* \"#utility.yul\":4810:4815   */\n      dup4\n        /* \"#utility.yul\":4806:4822   */\n      add\n        /* \"#utility.yul\":4800:4823   */\n      mload\n        /* \"#utility.yul\":4870:4873   */\n      dup5\n        /* \"#utility.yul\":4864:4868   */\n      dup3\n        /* \"#utility.yul\":4860:4874   */\n      sub\n        /* \"#utility.yul\":4853:4857   */\n      0x00\n        /* \"#utility.yul\":4848:4851   */\n      dup7\n        /* \"#utility.yul\":4844:4858   */\n      add\n        /* \"#utility.yul\":4837:4875   */\n      mstore\n        /* \"#utility.yul\":4896:4969   */\n      tag_159\n        /* \"#utility.yul\":4964:4968   */\n      dup3\n        /* \"#utility.yul\":4950:4962   */\n      dup3\n        /* \"#utility.yul\":4896:4969   */\n      tag_75\n      jump\t// in\n    tag_159:\n        /* \"#utility.yul\":4888:4969   */\n      swap2\n      pop\n        /* \"#utility.yul\":4745:4980   */\n      pop\n        /* \"#utility.yul\":5064:5068   */\n      0x20\n        /* \"#utility.yul\":5057:5062   */\n      dup4\n        /* \"#utility.yul\":5053:5069   */\n      add\n        /* \"#utility.yul\":5047:5070   */\n      mload\n        /* \"#utility.yul\":5083:5140   */\n      tag_160\n        /* \"#utility.yul\":5134:5138   */\n      0x20\n        /* \"#utility.yul\":5129:5132   */\n      dup7\n        /* \"#utility.yul\":5125:5139   */\n      add\n        /* \"#utility.yul\":5111:5123   */\n      dup3\n        /* \"#utility.yul\":5083:5140   */\n      tag_77\n      jump\t// in\n    tag_160:\n        /* \"#utility.yul\":4990:5150   */\n      pop\n        /* \"#utility.yul\":5167:5171   */\n      dup1\n        /* \"#utility.yul\":5160:5171   */\n      swap2\n      pop\n        /* \"#utility.yul\":4699:5177   */\n      pop\n        /* \"#utility.yul\":4597:5177   */\n      swap3\n      swap2\n      pop\n      pop\n      jump\t// out\n        /* \"#utility.yul\":5183:5415   */\n    tag_79:\n        /* \"#utility.yul\":5290:5300   */\n      0x00\n        /* \"#utility.yul\":5325:5409   */\n      tag_162\n        /* \"#utility.yul\":5405:5408   */\n      dup4\n        /* \"#utility.yul\":5397:5403   */\n      dup4\n        /* \"#utility.yul\":5325:5409   */\n      tag_78\n      jump\t// in\n    tag_162:\n        /* \"#utility.yul\":5311:5409   */\n      swap1\n      pop\n        /* \"#utility.yul\":5183:5415   */\n      swap3\n      swap2\n      pop\n      pop\n      jump\t// out\n        /* \"#utility.yul\":5421:5553   */\n    tag_80:\n        /* \"#utility.yul\":5510:5514   */\n      0x00\n        /* \"#utility.yul\":5542:5546   */\n      0x20\n        /* \"#utility.yul\":5537:5540   */\n      dup3\n        /* \"#utility.yul\":5533:5547   */\n      add\n        /* \"#utility.yul\":5525:5547   */\n      swap1\n      pop\n        /* \"#utility.yul\":5421:5553   */\n      swap2\n      swap1\n      pop\n      jump\t// out\n        /* \"#utility.yul\":5607:6670   */\n    tag_81:\n        /* \"#utility.yul\":5764:5767   */\n      0x00\n        /* \"#utility.yul\":5793:5866   */\n      tag_165\n        /* \"#utility.yul\":5860:5865   */\n      dup3\n        /* \"#utility.yul\":5793:5866   */\n      tag_68\n      jump\t// in\n    tag_165:\n        /* \"#utility.yul\":5882:5987   */\n      tag_166\n        /* \"#utility.yul\":5980:5986   */\n      dup2\n        /* \"#utility.yul\":5975:5978   */\n      dup6\n        /* \"#utility.yul\":5882:5987   */\n      tag_69\n      jump\t// in\n    tag_166:\n        /* \"#utility.yul\":5875:5987   */\n      swap4\n      pop\n        /* \"#utility.yul\":6013:6016   */\n      dup4\n        /* \"#utility.yul\":6058:6062   */\n      0x20\n        /* \"#utility.yul\":6050:6056   */\n      dup3\n        /* \"#utility.yul\":6046:6063   */\n      mul\n        /* \"#utility.yul\":6041:6044   */\n      dup6\n        /* \"#utility.yul\":6037:6064   */\n      add\n        /* \"#utility.yul\":6088:6163   */\n      tag_167\n        /* \"#utility.yul\":6157:6162   */\n      dup6\n        /* \"#utility.yul\":6088:6163   */\n      tag_70\n      jump\t// in\n    tag_167:\n        /* \"#utility.yul\":6186:6193   */\n      dup1\n        /* \"#utility.yul\":6217:6218   */\n      0x00\n        /* \"#utility.yul\":6202:6625   */\n    tag_168:\n        /* \"#utility.yul\":6227:6233   */\n      dup6\n        /* \"#utility.yul\":6224:6225   */\n      dup2\n        /* \"#utility.yul\":6221:6234   */\n      lt\n        /* \"#utility.yul\":6202:6625   */\n      iszero\n      tag_170\n      jumpi\n        /* \"#utility.yul\":6298:6307   */\n      dup5\n        /* \"#utility.yul\":6292:6296   */\n      dup5\n        /* \"#utility.yul\":6288:6308   */\n      sub\n        /* \"#utility.yul\":6283:6286   */\n      dup10\n        /* \"#utility.yul\":6276:6309   */\n      mstore\n        /* \"#utility.yul\":6349:6355   */\n      dup2\n        /* \"#utility.yul\":6343:6356   */\n      mload\n        /* \"#utility.yul\":6377:6479   */\n      tag_171\n        /* \"#utility.yul\":6474:6478   */\n      dup6\n        /* \"#utility.yul\":6459:6472   */\n      dup3\n        /* \"#utility.yul\":6377:6479   */\n      tag_79\n      jump\t// in\n    tag_171:\n        /* \"#utility.yul\":6369:6479   */\n      swap5\n      pop\n        /* \"#utility.yul\":6502:6581   */\n      tag_172\n        /* \"#utility.yul\":6574:6580   */\n      dup4\n        /* \"#utility.yul\":6502:6581   */\n      tag_80\n      jump\t// in\n    tag_172:\n        /* \"#utility.yul\":6492:6581   */\n      swap3\n      pop\n        /* \"#utility.yul\":6610:6614   */\n      0x20\n        /* \"#utility.yul\":6605:6608   */\n      dup11\n        /* \"#utility.yul\":6601:6615   */\n      add\n        /* \"#utility.yul\":6594:6615   */\n      swap10\n      pop\n        /* \"#utility.yul\":6262:6625   */\n      pop\n        /* \"#utility.yul\":6249:6250   */\n      0x01\n        /* \"#utility.yul\":6246:6247   */\n      dup2\n        /* \"#utility.yul\":6242:6251   */\n      add\n        /* \"#utility.yul\":6237:6251   */\n      swap1\n      pop\n        /* \"#utility.yul\":6202:6625   */\n      jump(tag_168)\n    tag_170:\n        /* \"#utility.yul\":6206:6220   */\n      pop\n        /* \"#utility.yul\":6641:6645   */\n      dup3\n        /* \"#utility.yul\":6634:6645   */\n      swap8\n      pop\n        /* \"#utility.yul\":6661:6664   */\n      dup8\n        /* \"#utility.yul\":6654:6664   */\n      swap6\n      pop\n        /* \"#utility.yul\":5769:6670   */\n      pop\n      pop\n      pop\n      pop\n      pop\n        /* \"#utility.yul\":5607:6670   */\n      swap3\n      swap2\n      pop\n      pop\n      jump\t// out\n        /* \"#utility.yul\":6676:7125   */\n    tag_24:\n        /* \"#utility.yul\":6857:6861   */\n      0x00\n        /* \"#utility.yul\":6895:6897   */\n      0x20\n        /* \"#utility.yul\":6884:6893   */\n      dup3\n        /* \"#utility.yul\":6880:6898   */\n      add\n        /* \"#utility.yul\":6872:6898   */\n      swap1\n      pop\n        /* \"#utility.yul\":6944:6953   */\n      dup2\n        /* \"#utility.yul\":6938:6942   */\n      dup2\n        /* \"#utility.yul\":6934:6954   */\n      sub\n        /* \"#utility.yul\":6930:6931   */\n      0x00\n        /* \"#utility.yul\":6919:6928   */\n      dup4\n        /* \"#utility.yul\":6915:6932   */\n      add\n        /* \"#utility.yul\":6908:6955   */\n      mstore\n        /* \"#utility.yul\":6972:7118   */\n      tag_174\n        /* \"#utility.yul\":7113:7117   */\n      dup2\n        /* \"#utility.yul\":7104:7110   */\n      dup5\n        /* \"#utility.yul\":6972:7118   */\n      tag_81\n      jump\t// in\n    tag_174:\n        /* \"#utility.yul\":6964:7118   */\n      swap1\n      pop\n        /* \"#utility.yul\":6676:7125   */\n      swap3\n      swap2\n      pop\n      pop\n      jump\t// out\n        /* \"#utility.yul\":7131:7300   */\n    tag_82:\n        /* \"#utility.yul\":7215:7226   */\n      0x00\n        /* \"#utility.yul\":7249:7255   */\n      dup3\n        /* \"#utility.yul\":7244:7247   */\n      dup3\n        /* \"#utility.yul\":7237:7256   */\n      mstore\n        /* \"#utility.yul\":7289:7293   */\n      0x20\n        /* \"#utility.yul\":7284:7287   */\n      dup3\n        /* \"#utility.yul\":7280:7294   */\n      add\n        /* \"#utility.yul\":7265:7294   */\n      swap1\n      pop\n        /* \"#utility.yul\":7131:7300   */\n      swap3\n      swap2\n      pop\n      pop\n      jump\t// out\n        /* \"#utility.yul\":7306:7469   */\n    tag_83:\n        /* \"#utility.yul\":7446:7461   */\n      0x70617920302e3120657468657200000000000000000000000000000000000000\n        /* \"#utility.yul\":7442:7443   */\n      0x00\n        /* \"#utility.yul\":7434:7440   */\n      dup3\n        /* \"#utility.yul\":7430:7444   */\n      add\n        /* \"#utility.yul\":7423:7462   */\n      mstore\n        /* \"#utility.yul\":7306:7469   */\n      pop\n      jump\t// out\n        /* \"#utility.yul\":7475:7841   */\n    tag_84:\n        /* \"#utility.yul\":7617:7620   */\n      0x00\n        /* \"#utility.yul\":7638:7705   */\n      tag_178\n        /* \"#utility.yul\":7702:7704   */\n      0x0d\n        /* \"#utility.yul\":7697:7700   */\n      dup4\n        /* \"#utility.yul\":7638:7705   */\n      tag_82\n      jump\t// in\n    tag_178:\n        /* \"#utility.yul\":7631:7705   */\n      swap2\n      pop\n        /* \"#utility.yul\":7714:7807   */\n      tag_179\n        /* \"#utility.yul\":7803:7806   */\n      dup3\n        /* \"#utility.yul\":7714:7807   */\n      tag_83\n      jump\t// in\n    tag_179:\n        /* \"#utility.yul\":7832:7834   */\n      0x20\n        /* \"#utility.yul\":7827:7830   */\n      dup3\n        /* \"#utility.yul\":7823:7835   */\n      add\n        /* \"#utility.yul\":7816:7835   */\n      swap1\n      pop\n        /* \"#utility.yul\":7475:7841   */\n      swap2\n      swap1\n      pop\n      jump\t// out\n        /* \"#utility.yul\":7847:8266   */\n    tag_28:\n        /* \"#utility.yul\":8013:8017   */\n      0x00\n        /* \"#utility.yul\":8051:8053   */\n      0x20\n        /* \"#utility.yul\":8040:8049   */\n      dup3\n        /* \"#utility.yul\":8036:8054   */\n      add\n        /* \"#utility.yul\":8028:8054   */\n      swap1\n      pop\n        /* \"#utility.yul\":8100:8109   */\n      dup2\n        /* \"#utility.yul\":8094:8098   */\n      dup2\n        /* \"#utility.yul\":8090:8110   */\n      sub\n        /* \"#utility.yul\":8086:8087   */\n      0x00\n        /* \"#utility.yul\":8075:8084   */\n      dup4\n        /* \"#utility.yul\":8071:8088   */\n      add\n        /* \"#utility.yul\":8064:8111   */\n      mstore\n        /* \"#utility.yul\":8128:8259   */\n      tag_181\n        /* \"#utility.yul\":8254:8258   */\n      dup2\n        /* \"#utility.yul\":8128:8259   */\n      tag_84\n      jump\t// in\n    tag_181:\n        /* \"#utility.yul\":8120:8259   */\n      swap1\n      pop\n        /* \"#utility.yul\":7847:8266   */\n      swap2\n      swap1\n      pop\n      jump\t// out\n        /* \"#utility.yul\":8272:8452   */\n    tag_85:\n        /* \"#utility.yul\":8320:8397   */\n      0x4e487b7100000000000000000000000000000000000000000000000000000000\n        /* \"#utility.yul\":8317:8318   */\n      0x00\n        /* \"#utility.yul\":8310:8398   */\n      mstore\n        /* \"#utility.yul\":8417:8421   */\n      0x41\n        /* \"#utility.yul\":8414:8415   */\n      0x04\n        /* \"#utility.yul\":8407:8422   */\n      mstore\n        /* \"#utility.yul\":8441:8445   */\n      0x24\n        /* \"#utility.yul\":8438:8439   */\n      0x00\n        /* \"#utility.yul\":8431:8446   */\n      revert\n        /* \"#utility.yul\":8458:8638   */\n    tag_86:\n        /* \"#utility.yul\":8506:8583   */\n      0x4e487b7100000000000000000000000000000000000000000000000000000000\n        /* \"#utility.yul\":8503:8504   */\n      0x00\n        /* \"#utility.yul\":8496:8584   */\n      mstore\n        /* \"#utility.yul\":8603:8607   */\n      0x22\n        /* \"#utility.yul\":8600:8601   */\n      0x04\n        /* \"#utility.yul\":8593:8608   */\n      mstore\n        /* \"#utility.yul\":8627:8631   */\n      0x24\n        /* \"#utility.yul\":8624:8625   */\n      0x00\n        /* \"#utility.yul\":8617:8632   */\n      revert\n        /* \"#utility.yul\":8644:8964   */\n    tag_52:\n        /* \"#utility.yul\":8688:8694   */\n      0x00\n        /* \"#utility.yul\":8725:8726   */\n      0x02\n        /* \"#utility.yul\":8719:8723   */\n      dup3\n        /* \"#utility.yul\":8715:8727   */\n      div\n        /* \"#utility.yul\":8705:8727   */\n      swap1\n      pop\n        /* \"#utility.yul\":8772:8773   */\n      0x01\n        /* \"#utility.yul\":8766:8770   */\n      dup3\n        /* \"#utility.yul\":8762:8774   */\n      and\n        /* \"#utility.yul\":8793:8811   */\n      dup1\n        /* \"#utility.yul\":8783:8864   */\n      tag_185\n      jumpi\n        /* \"#utility.yul\":8849:8853   */\n      0x7f\n        /* \"#utility.yul\":8841:8847   */\n      dup3\n        /* \"#utility.yul\":8837:8854   */\n      and\n        /* \"#utility.yul\":8827:8854   */\n      swap2\n      pop\n        /* \"#utility.yul\":8783:8864   */\n    tag_185:\n        /* \"#utility.yul\":8911:8913   */\n      0x20\n        /* \"#utility.yul\":8903:8909   */\n      dup3\n        /* \"#utility.yul\":8900:8914   */\n      lt\n        /* \"#utility.yul\":8880:8898   */\n      dup2\n        /* \"#utility.yul\":8877:8915   */\n      sub\n        /* \"#utility.yul\":8874:8958   */\n      tag_186\n      jumpi\n        /* \"#utility.yul\":8930:8948   */\n      tag_187\n      tag_86\n      jump\t// in\n    tag_187:\n        /* \"#utility.yul\":8874:8958   */\n    tag_186:\n        /* \"#utility.yul\":8695:8964   */\n      pop\n        /* \"#utility.yul\":8644:8964   */\n      swap2\n      swap1\n      pop\n      jump\t// out\n        /* \"#utility.yul\":8970:9111   */\n    tag_87:\n        /* \"#utility.yul\":9019:9023   */\n      0x00\n        /* \"#utility.yul\":9042:9045   */\n      dup2\n        /* \"#utility.yul\":9034:9045   */\n      swap1\n      pop\n        /* \"#utility.yul\":9065:9068   */\n      dup2\n        /* \"#utility.yul\":9062:9063   */\n      0x00\n        /* \"#utility.yul\":9055:9069   */\n      mstore\n        /* \"#utility.yul\":9099:9103   */\n      0x20\n        /* \"#utility.yul\":9096:9097   */\n      0x00\n        /* \"#utility.yul\":9086:9104   */\n      keccak256\n        /* \"#utility.yul\":9078:9104   */\n      swap1\n      pop\n        /* \"#utility.yul\":8970:9111   */\n      swap2\n      swap1\n      pop\n      jump\t// out\n        /* \"#utility.yul\":9117:9210   */\n    tag_88:\n        /* \"#utility.yul\":9154:9160   */\n      0x00\n        /* \"#utility.yul\":9201:9203   */\n      0x20\n        /* \"#utility.yul\":9196:9198   */\n      0x1f\n        /* \"#utility.yul\":9189:9194   */\n      dup4\n        /* \"#utility.yul\":9185:9199   */\n      add\n        /* \"#utility.yul\":9181:9204   */\n      div\n        /* \"#utility.yul\":9171:9204   */\n      swap1\n      pop\n        /* \"#utility.yul\":9117:9210   */\n      swap2\n      swap1\n      pop\n      jump\t// out\n        /* \"#utility.yul\":9216:9323   */\n    tag_89:\n        /* \"#utility.yul\":9260:9268   */\n      0x00\n        /* \"#utility.yul\":9310:9315   */\n      dup3\n        /* \"#utility.yul\":9304:9308   */\n      dup3\n        /* \"#utility.yul\":9300:9316   */\n      shl\n        /* \"#utility.yul\":9279:9316   */\n      swap1\n      pop\n        /* \"#utility.yul\":9216:9323   */\n      swap3\n      swap2\n      pop\n      pop\n      jump\t// out\n        /* \"#utility.yul\":9329:9722   */\n    tag_90:\n        /* \"#utility.yul\":9398:9404   */\n      0x00\n        /* \"#utility.yul\":9448:9449   */\n      0x08\n        /* \"#utility.yul\":9436:9446   */\n      dup4\n        /* \"#utility.yul\":9432:9450   */\n      mul\n        /* \"#utility.yul\":9471:9568   */\n      tag_192\n        /* \"#utility.yul\":9501:9567   */\n      0xffffffffffffffffffffffffffffffffffffffffffffffffffffffffffffffff\n        /* \"#utility.yul\":9490:9499   */\n      dup3\n        /* \"#utility.yul\":9471:9568   */\n      tag_89\n      jump\t// in\n    tag_192:\n        /* \"#utility.yul\":9589:9628   */\n      tag_193\n        /* \"#utility.yul\":9619:9627   */\n      dup7\n        /* \"#utility.yul\":9608:9617   */\n      dup4\n        /* \"#utility.yul\":9589:9628   */\n      tag_89\n      jump\t// in\n    tag_193:\n        /* \"#utility.yul\":9577:9628   */\n      swap6\n      pop\n        /* \"#utility.yul\":9661:9665   */\n      dup1\n        /* \"#utility.yul\":9657:9666   */\n      not\n        /* \"#utility.yul\":9650:9655   */\n      dup5\n        /* \"#utility.yul\":9646:9667   */\n      and\n        /* \"#utility.yul\":9637:9667   */\n      swap4\n      pop\n        /* \"#utility.yul\":9710:9714   */\n      dup1\n        /* \"#utility.yul\":9700:9708   */\n      dup7\n        /* \"#utility.yul\":9696:9715   */\n      and\n        /* \"#utility.yul\":9689:9694   */\n      dup5\n        /* \"#utility.yul\":9686:9716   */\n      or\n        /* \"#utility.yul\":9676:9716   */\n      swap3\n      pop\n        /* \"#utility.yul\":9405:9722   */\n      pop\n      pop\n        /* \"#utility.yul\":9329:9722   */\n      swap4\n      swap3\n      pop\n      pop\n      pop\n      jump\t// out\n        /* \"#utility.yul\":9728:9788   */\n    tag_91:\n        /* \"#utility.yul\":9756:9759   */\n      0x00\n        /* \"#utility.yul\":9777:9782   */\n      dup2\n        /* \"#utility.yul\":9770:9782   */\n      swap1\n      pop\n        /* \"#utility.yul\":9728:9788   */\n      swap2\n      swap1\n      pop\n      jump\t// out\n        /* \"#utility.yul\":9794:9936   */\n    tag_92:\n        /* \"#utility.yul\":9844:9853   */\n      0x00\n        /* \"#utility.yul\":9877:9930   */\n      tag_196\n        /* \"#utility.yul\":9895:9929   */\n      tag_197\n        /* \"#utility.yul\":9904:9928   */\n      tag_198\n        /* \"#utility.yul\":9922:9927   */\n      dup5\n        /* \"#utility.yul\":9904:9928   */\n      tag_64\n      jump\t// in\n    tag_198:\n        /* \"#utility.yul\":9895:9929   */\n      tag_91\n      jump\t// in\n    tag_197:\n        /* \"#utility.yul\":9877:9930   */\n      tag_64\n      jump\t// in\n    tag_196:\n        /* \"#utility.yul\":9864:9930   */\n      swap1\n      pop\n        /* \"#utility.yul\":9794:9936   */\n      swap2\n      swap1\n      pop\n      jump\t// out\n        /* \"#utility.yul\":9942:10017   */\n    tag_93:\n        /* \"#utility.yul\":9985:9988   */\n      0x00\n        /* \"#utility.yul\":10006:10011   */\n      dup2\n        /* \"#utility.yul\":9999:10011   */\n      swap1\n      pop\n        /* \"#utility.yul\":9942:10017   */\n      swap2\n      swap1\n      pop\n      jump\t// out\n        /* \"#utility.yul\":10023:10292   */\n    tag_94:\n        /* \"#utility.yul\":10133:10172   */\n      tag_201\n        /* \"#utility.yul\":10164:10171   */\n      dup4\n        /* \"#utility.yul\":10133:10172   */\n      tag_92\n      jump\t// in\n    tag_201:\n        /* \"#utility.yul\":10194:10285   */\n      tag_202\n        /* \"#utility.yul\":10243:10284   */\n      tag_203\n        /* \"#utility.yul\":10267:10283   */\n      dup3\n        /* \"#utility.yul\":10243:10284   */\n      tag_93\n      jump\t// in\n    tag_203:\n        /* \"#utility.yul\":10235:10241   */\n      dup5\n        /* \"#utility.yul\":10228:10232   */\n      dup5\n        /* \"#utility.yul\":10222:10233   */\n      sload\n        /* \"#utility.yul\":10194:10285   */\n      tag_90\n      jump\t// in\n    tag_202:\n        /* \"#utility.yul\":10188:10192   */\n      dup3\n        /* \"#utility.yul\":10181:10286   */\n      sstore\n        /* \"#utility.yul\":10099:10292   */\n      pop\n        /* \"#utility.yul\":10023:10292   */\n      pop\n      pop\n      pop\n      jump\t// out\n        /* \"#utility.yul\":10298:10371   */\n    tag_95:\n        /* \"#utility.yul\":10343:10346   */\n      0x00\n        /* \"#utility.yul\":10298:10371   */\n      swap1\n      jump\t// out\n        /* \"#utility.yul\":10377:10566   */\n    tag_96:\n        /* \"#utility.yul\":10454:10486   */\n      tag_206\n      tag_95\n      jump\t// in\n    tag_206:\n        /* \"#utility.yul\":10495:10560   */\n      tag_207\n        /* \"#utility.yul\":10553:10559   */\n      dup2\n        /* \"#utility.yul\":10545:10551   */\n      dup5\n        /* \"#utility.yul\":10539:10543   */\n      dup5\n        /* \"#utility.yul\":10495:10560   */\n      tag_94\n      jump\t// in\n    tag_207:\n        /* \"#utility.yul\":10430:10566   */\n      pop\n        /* \"#utility.yul\":10377:10566   */\n      pop\n      pop\n      jump\t// out\n        /* \"#utility.yul\":10572:10758   */\n    tag_97:\n        /* \"#utility.yul\":10632:10752   */\n    tag_209:\n        /* \"#utility.yul\":10649:10652   */\n      dup2\n        /* \"#utility.yul\":10642:10647   */\n      dup2\n        /* \"#utility.yul\":10639:10653   */\n      lt\n        /* \"#utility.yul\":10632:10752   */\n      iszero\n      tag_211\n      jumpi\n        /* \"#utility.yul\":10703:10742   */\n      tag_212\n        /* \"#utility.yul\":10740:10741   */\n      0x00\n        /* \"#utility.yul\":10733:10738   */\n      dup3\n        /* \"#utility.yul\":10703:10742   */\n      tag_96\n      jump\t// in\n    tag_212:\n        /* \"#utility.yul\":10676:10677   */\n      0x01\n        /* \"#utility.yul\":10669:10674   */\n      dup2\n        /* \"#utility.yul\":10665:10678   */\n      add\n        /* \"#utility.yul\":10656:10678   */\n      swap1\n      pop\n        /* \"#utility.yul\":10632:10752   */\n      jump(tag_209)\n    tag_211:\n        /* \"#utility.yul\":10572:10758   */\n      pop\n      pop\n      jump\t// out\n        /* \"#utility.yul\":10764:11307   */\n    tag_98:\n        /* \"#utility.yul\":10865:10867   */\n      0x1f\n        /* \"#utility.yul\":10860:10863   */\n      dup3\n        /* \"#utility.yul\":10857:10868   */\n      gt\n        /* \"#utility.yul\":10854:11300   */\n      iszero\n      tag_214\n      jumpi\n        /* \"#utility.yul\":10899:10937   */\n      tag_215\n        /* \"#utility.yul\":10931:10936   */\n      dup2\n        /* \"#utility.yul\":10899:10937   */\n      tag_87\n      jump\t// in\n    tag_215:\n        /* \"#utility.yul\":10983:11012   */\n      tag_216\n        /* \"#utility.yul\":11001:11011   */\n      dup5\n        /* \"#utility.yul\":10983:11012   */\n      tag_88\n      jump\t// in\n    tag_216:\n        /* \"#utility.yul\":10973:10981   */\n      dup2\n        /* \"#utility.yul\":10969:11013   */\n      add\n        /* \"#utility.yul\":11166:11168   */\n      0x20\n        /* \"#utility.yul\":11154:11164   */\n      dup6\n        /* \"#utility.yul\":11151:11169   */\n      lt\n        /* \"#utility.yul\":11148:11197   */\n      iszero\n      tag_217\n      jumpi\n        /* \"#utility.yul\":11187:11195   */\n      dup2\n        /* \"#utility.yul\":11172:11195   */\n      swap1\n      pop\n        /* \"#utility.yul\":11148:11197   */\n    tag_217:\n        /* \"#utility.yul\":11210:11290   */\n      tag_218\n        /* \"#utility.yul\":11266:11288   */\n      tag_219\n        /* \"#utility.yul\":11284:11287   */\n      dup6\n        /* \"#utility.yul\":11266:11288   */\n      tag_88\n      jump\t// in\n    tag_219:\n        /* \"#utility.yul\":11256:11264   */\n      dup4\n        /* \"#utility.yul\":11252:11289   */\n      add\n        /* \"#utility.yul\":11239:11250   */\n      dup3\n        /* \"#utility.yul\":11210:11290   */\n      tag_97\n      jump\t// in\n    tag_218:\n        /* \"#utility.yul\":10869:11300   */\n      pop\n      pop\n        /* \"#utility.yul\":10854:11300   */\n    tag_214:\n        /* \"#utility.yul\":10764:11307   */\n      pop\n      pop\n      pop\n      jump\t// out\n        /* \"#utility.yul\":11313:11430   */\n    tag_99:\n        /* \"#utility.yul\":11367:11375   */\n      0x00\n        /* \"#utility.yul\":11417:11422   */\n      dup3\n        /* \"#utility.yul\":11411:11415   */\n      dup3\n        /* \"#utility.yul\":11407:11423   */\n      shr\n        /* \"#utility.yul\":11386:11423   */\n      swap1\n      pop\n        /* \"#utility.yul\":11313:11430   */\n      swap3\n      swap2\n      pop\n      pop\n      jump\t// out\n        /* \"#utility.yul\":11436:11605   */\n    tag_100:\n        /* \"#utility.yul\":11480:11486   */\n      0x00\n        /* \"#utility.yul\":11513:11564   */\n      tag_222\n        /* \"#utility.yul\":11561:11562   */\n      0x00\n        /* \"#utility.yul\":11557:11563   */\n      not\n        /* \"#utility.yul\":11549:11554   */\n      dup5\n        /* \"#utility.yul\":11546:11547   */\n      0x08\n        /* \"#utility.yul\":11542:11555   */\n      mul\n        /* \"#utility.yul\":11513:11564   */\n      tag_99\n      jump\t// in\n    tag_222:\n        /* \"#utility.yul\":11509:11565   */\n      not\n        /* \"#utility.yul\":11594:11598   */\n      dup1\n        /* \"#utility.yul\":11588:11592   */\n      dup4\n        /* \"#utility.yul\":11584:11599   */\n      and\n        /* \"#utility.yul\":11574:11599   */\n      swap2\n      pop\n        /* \"#utility.yul\":11487:11605   */\n      pop\n        /* \"#utility.yul\":11436:11605   */\n      swap3\n      swap2\n      pop\n      pop\n      jump\t// out\n        /* \"#utility.yul\":11610:11905   */\n    tag_101:\n        /* \"#utility.yul\":11686:11690   */\n      0x00\n        /* \"#utility.yul\":11832:11861   */\n      tag_224\n        /* \"#utility.yul\":11857:11860   */\n      dup4\n        /* \"#utility.yul\":11851:11855   */\n      dup4\n        /* \"#utility.yul\":11832:11861   */\n      tag_100\n      jump\t// in\n    tag_224:\n        /* \"#utility.yul\":11824:11861   */\n      swap2\n      pop\n        /* \"#utility.yul\":11894:11897   */\n      dup3\n        /* \"#utility.yul\":11891:11892   */\n      0x02\n        /* \"#utility.yul\":11887:11898   */\n      mul\n        /* \"#utility.yul\":11881:11885   */\n      dup3\n        /* \"#utility.yul\":11878:11899   */\n      or\n        /* \"#utility.yul\":11870:11899   */\n      swap1\n      pop\n        /* \"#utility.yul\":11610:11905   */\n      swap3\n      swap2\n      pop\n      pop\n      jump\t// out\n        /* \"#utility.yul\":11910:13305   */\n    tag_31:\n        /* \"#utility.yul\":12027:12064   */\n      tag_226\n        /* \"#utility.yul\":12060:12063   */\n      dup3\n        /* \"#utility.yul\":12027:12064   */\n      tag_71\n      jump\t// in\n    tag_226:\n        /* \"#utility.yul\":12129:12147   */\n      0xffffffffffffffff\n        /* \"#utility.yul\":12121:12127   */\n      dup2\n        /* \"#utility.yul\":12118:12148   */\n      gt\n        /* \"#utility.yul\":12115:12171   */\n      iszero\n      tag_227\n      jumpi\n        /* \"#utility.yul\":12151:12169   */\n      tag_228\n      tag_85\n      jump\t// in\n    tag_228:\n        /* \"#utility.yul\":12115:12171   */\n    tag_227:\n        /* \"#utility.yul\":12195:12233   */\n      tag_229\n        /* \"#utility.yul\":12227:12231   */\n      dup3\n        /* \"#utility.yul\":12221:12232   */\n      sload\n        /* \"#utility.yul\":12195:12233   */\n      tag_52\n      jump\t// in\n    tag_229:\n        /* \"#utility.yul\":12280:12347   */\n      tag_230\n        /* \"#utility.yul\":12340:12346   */\n      dup3\n        /* \"#utility.yul\":12332:12338   */\n      dup3\n        /* \"#utility.yul\":12326:12330   */\n      dup6\n        /* \"#utility.yul\":12280:12347   */\n      tag_98\n      jump\t// in\n    tag_230:\n        /* \"#utility.yul\":12374:12375   */\n      0x00\n        /* \"#utility.yul\":12398:12402   */\n      0x20\n        /* \"#utility.yul\":12385:12402   */\n      swap1\n      pop\n        /* \"#utility.yul\":12430:12432   */\n      0x1f\n        /* \"#utility.yul\":12422:12428   */\n      dup4\n        /* \"#utility.yul\":12419:12433   */\n      gt\n        /* \"#utility.yul\":12447:12448   */\n      0x01\n        /* \"#utility.yul\":12442:13060   */\n      dup2\n      eq\n      tag_232\n      jumpi\n        /* \"#utility.yul\":13104:13105   */\n      0x00\n        /* \"#utility.yul\":13121:13127   */\n      dup5\n        /* \"#utility.yul\":13118:13195   */\n      iszero\n      tag_233\n      jumpi\n        /* \"#utility.yul\":13170:13179   */\n      dup3\n        /* \"#utility.yul\":13165:13168   */\n      dup8\n        /* \"#utility.yul\":13161:13180   */\n      add\n        /* \"#utility.yul\":13155:13181   */\n      mload\n        /* \"#utility.yul\":13146:13181   */\n      swap1\n      pop\n        /* \"#utility.yul\":13118:13195   */\n    tag_233:\n        /* \"#utility.yul\":13221:13288   */\n      tag_234\n        /* \"#utility.yul\":13281:13287   */\n      dup6\n        /* \"#utility.yul\":13274:13279   */\n      dup3\n        /* \"#utility.yul\":13221:13288   */\n      tag_101\n      jump\t// in\n    tag_234:\n        /* \"#utility.yul\":13215:13219   */\n      dup7\n        /* \"#utility.yul\":13208:13289   */\n      sstore\n        /* \"#utility.yul\":13077:13299   */\n      pop\n        /* \"#utility.yul\":12412:13299   */\n      jump(tag_231)\n        /* \"#utility.yul\":12442:13060   */\n    tag_232:\n        /* \"#utility.yul\":12494:12498   */\n      0x1f\n        /* \"#utility.yul\":12490:12499   */\n      not\n        /* \"#utility.yul\":12482:12488   */\n      dup5\n        /* \"#utility.yul\":12478:12500   */\n      and\n        /* \"#utility.yul\":12528:12565   */\n      tag_235\n        /* \"#utility.yul\":12560:12564   */\n      dup7\n        /* \"#utility.yul\":12528:12565   */\n      tag_87\n      jump\t// in\n    tag_235:\n        /* \"#utility.yul\":12587:12588   */\n      0x00\n        /* \"#utility.yul\":12601:12809   */\n    tag_236:\n        /* \"#utility.yul\":12615:12622   */\n      dup3\n        /* \"#utility.yul\":12612:12613   */\n      dup2\n        /* \"#utility.yul\":12609:12623   */\n      lt\n        /* \"#utility.yul\":12601:12809   */\n      iszero\n      tag_238\n      jumpi\n        /* \"#utility.yul\":12694:12703   */\n      dup5\n        /* \"#utility.yul\":12689:12692   */\n      dup10\n        /* \"#utility.yul\":12685:12704   */\n      add\n        /* \"#utility.yul\":12679:12705   */\n      mload\n        /* \"#utility.yul\":12671:12677   */\n      dup3\n        /* \"#utility.yul\":12664:12706   */\n      sstore\n        /* \"#utility.yul\":12745:12746   */\n      0x01\n        /* \"#utility.yul\":12737:12743   */\n      dup3\n        /* \"#utility.yul\":12733:12747   */\n      add\n        /* \"#utility.yul\":12723:12747   */\n      swap2\n      pop\n        /* \"#utility.yul\":12792:12794   */\n      0x20\n        /* \"#utility.yul\":12781:12790   */\n      dup6\n        /* \"#utility.yul\":12777:12795   */\n      add\n        /* \"#utility.yul\":12764:12795   */\n      swap5\n      pop\n        /* \"#utility.yul\":12638:12642   */\n      0x20\n        /* \"#utility.yul\":12635:12636   */\n      dup2\n        /* \"#utility.yul\":12631:12643   */\n      add\n        /* \"#utility.yul\":12626:12643   */\n      swap1\n      pop\n        /* \"#utility.yul\":12601:12809   */\n      jump(tag_236)\n    tag_238:\n        /* \"#utility.yul\":12837:12843   */\n      dup7\n        /* \"#utility.yul\":12828:12835   */\n      dup4\n        /* \"#utility.yul\":12825:12844   */\n      lt\n        /* \"#utility.yul\":12822:13001   */\n      iszero\n      tag_239\n      jumpi\n        /* \"#utility.yul\":12895:12904   */\n      dup5\n        /* \"#utility.yul\":12890:12893   */\n      dup10\n        /* \"#utility.yul\":12886:12905   */\n      add\n        /* \"#utility.yul\":12880:12906   */\n      mload\n        /* \"#utility.yul\":12938:12986   */\n      tag_240\n        /* \"#utility.yul\":12980:12984   */\n      0x1f\n        /* \"#utility.yul\":12972:12978   */\n      dup10\n        /* \"#utility.yul\":12968:12985   */\n      and\n        /* \"#utility.yul\":12957:12966   */\n      dup3\n        /* \"#utility.yul\":12938:12986   */\n      tag_100\n      jump\t// in\n    tag_240:\n        /* \"#utility.yul\":12930:12936   */\n      dup4\n        /* \"#utility.yul\":12923:12987   */\n      sstore\n        /* \"#utility.yul\":12845:13001   */\n      pop\n        /* \"#utility.yul\":12822:13001   */\n    tag_239:\n        /* \"#utility.yul\":13047:13048   */\n      0x01\n        /* \"#utility.yul\":13043:13044   */\n      0x02\n        /* \"#utility.yul\":13035:13041   */\n      dup9\n        /* \"#utility.yul\":13031:13045   */\n      mul\n        /* \"#utility.yul\":13027:13049   */\n      add\n        /* \"#utility.yul\":13021:13025   */\n      dup9\n        /* \"#utility.yul\":13014:13050   */\n      sstore\n        /* \"#utility.yul\":12449:13060   */\n      pop\n      pop\n      pop\n        /* \"#utility.yul\":12412:13299   */\n    tag_231:\n      pop\n        /* \"#utility.yul\":12002:13305   */\n      pop\n      pop\n      pop\n        /* \"#utility.yul\":11910:13305   */\n      pop\n      pop\n      jump\t// out\n        /* \"#utility.yul\":13311:13491   */\n    tag_102:\n        /* \"#utility.yul\":13359:13436   */\n      0x4e487b7100000000000000000000000000000000000000000000000000000000\n        /* \"#utility.yul\":13356:13357   */\n      0x00\n        /* \"#utility.yul\":13349:13437   */\n      mstore\n        /* \"#utility.yul\":13456:13460   */\n      0x11\n        /* \"#utility.yul\":13453:13454   */\n      0x04\n        /* \"#utility.yul\":13446:13461   */\n      mstore\n        /* \"#utility.yul\":13480:13484   */\n      0x24\n        /* \"#utility.yul\":13477:13478   */\n      0x00\n        /* \"#utility.yul\":13470:13485   */\n      revert\n        /* \"#utility.yul\":13497:13688   */\n    tag_33:\n        /* \"#utility.yul\":13537:13540   */\n      0x00\n        /* \"#utility.yul\":13556:13576   */\n      tag_243\n        /* \"#utility.yul\":13574:13575   */\n      dup3\n        /* \"#utility.yul\":13556:13576   */\n      tag_64\n      jump\t// in\n    tag_243:\n        /* \"#utility.yul\":13551:13576   */\n      swap2\n      pop\n        /* \"#utility.yul\":13590:13610   */\n      tag_244\n        /* \"#utility.yul\":13608:13609   */\n      dup4\n        /* \"#utility.yul\":13590:13610   */\n      tag_64\n      jump\t// in\n    tag_244:\n        /* \"#utility.yul\":13585:13610   */\n      swap3\n      pop\n        /* \"#utility.yul\":13633:13634   */\n      dup3\n        /* \"#utility.yul\":13630:13631   */\n      dup3\n        /* \"#utility.yul\":13626:13635   */\n      add\n        /* \"#utility.yul\":13619:13635   */\n      swap1\n      pop\n        /* \"#utility.yul\":13654:13657   */\n      dup1\n        /* \"#utility.yul\":13651:13652   */\n      dup3\n        /* \"#utility.yul\":13648:13658   */\n      gt\n        /* \"#utility.yul\":13645:13681   */\n      iszero\n      tag_245\n      jumpi\n        /* \"#utility.yul\":13661:13679   */\n      tag_246\n      tag_102\n      jump\t// in\n    tag_246:\n        /* \"#utility.yul\":13645:13681   */\n    tag_245:\n        /* \"#utility.yul\":13497:13688   */\n      swap3\n      swap2\n      pop\n      pop\n      jump\t// out\n        /* \"#utility.yul\":13694:13888   */\n    tag_35:\n        /* \"#utility.yul\":13734:13738   */\n      0x00\n        /* \"#utility.yul\":13754:13774   */\n      tag_248\n        /* \"#utility.yul\":13772:13773   */\n      dup3\n        /* \"#utility.yul\":13754:13774   */\n      tag_64\n      jump\t// in\n    tag_248:\n        /* \"#utility.yul\":13749:13774   */\n      swap2\n      pop\n        /* \"#utility.yul\":13788:13808   */\n      tag_249\n        /* \"#utility.yul\":13806:13807   */\n      dup4\n        /* \"#utility.yul\":13788:13808   */\n      tag_64\n      jump\t// in\n    tag_249:\n        /* \"#utility.yul\":13783:13808   */\n      swap3\n      pop\n        /* \"#utility.yul\":13832:13833   */\n      dup3\n        /* \"#utility.yul\":13829:13830   */\n      dup3\n        /* \"#utility.yul\":13825:13834   */\n      sub\n        /* \"#utility.yul\":13817:13834   */\n      swap1\n      pop\n        /* \"#utility.yul\":13856:13857   */\n      dup2\n        /* \"#utility.yul\":13850:13854   */\n      dup2\n        /* \"#utility.yul\":13847:13858   */\n      gt\n        /* \"#utility.yul\":13844:13881   */\n      iszero\n      tag_250\n      jumpi\n        /* \"#utility.yul\":13861:13879   */\n      tag_251\n      tag_102\n      jump\t// in\n    tag_251:\n        /* \"#utility.yul\":13844:13881   */\n    tag_250:\n        /* \"#utility.yul\":13694:13888   */\n      swap3\n      swap2\n      pop\n      pop\n      jump\t// out\n        /* \"#utility.yul\":13894:14040   */\n    tag_103:\n        /* \"#utility.yul\":13991:13997   */\n      dup3\n        /* \"#utility.yul\":13986:13989   */\n      dup2\n        /* \"#utility.yul\":13981:13984   */\n      dup4\n        /* \"#utility.yul\":13968:13998   */\n      calldatacopy\n        /* \"#utility.yul\":14032:14033   */\n      0x00\n        /* \"#utility.yul\":14023:14029   */\n      dup4\n        /* \"#utility.yul\":14018:14021   */\n      dup4\n        /* \"#utility.yul\":14014:14030   */\n      add\n        /* \"#utility.yul\":14007:14034   */\n      mstore\n        /* \"#utility.yul\":13894:14040   */\n      pop\n      pop\n      pop\n      jump\t// out\n        /* \"#utility.yul\":14070:14387   */\n    tag_104:\n        /* \"#utility.yul\":14168:14171   */\n      0x00\n        /* \"#utility.yul\":14189:14260   */\n      tag_254\n        /* \"#utility.yul\":14253:14259   */\n      dup4\n        /* \"#utility.yul\":14248:14251   */\n      dup6\n        /* \"#utility.yul\":14189:14260   */\n      tag_82\n      jump\t// in\n    tag_254:\n        /* \"#utility.yul\":14182:14260   */\n      swap4\n      pop\n        /* \"#utility.yul\":14270:14326   */\n      tag_255\n        /* \"#utility.yul\":14319:14325   */\n      dup4\n        /* \"#utility.yul\":14314:14317   */\n      dup6\n        /* \"#utility.yul\":14307:14312   */\n      dup5\n        /* \"#utility.yul\":14270:14326   */\n      tag_103\n      jump\t// in\n    tag_255:\n        /* \"#utility.yul\":14351:14380   */\n      tag_256\n        /* \"#utility.yul\":14373:14379   */\n      dup4\n        /* \"#utility.yul\":14351:14380   */\n      tag_74\n      jump\t// in\n    tag_256:\n        /* \"#utility.yul\":14346:14349   */\n      dup5\n        /* \"#utility.yul\":14342:14381   */\n      add\n        /* \"#utility.yul\":14335:14381   */\n      swap1\n      pop\n        /* \"#utility.yul\":14070:14387   */\n      swap4\n      swap3\n      pop\n      pop\n      pop\n      jump\t// out\n        /* \"#utility.yul\":14393:14502   */\n    tag_105:\n        /* \"#utility.yul\":14474:14495   */\n      tag_258\n        /* \"#utility.yul\":14489:14494   */\n      dup2\n        /* \"#utility.yul\":14474:14495   */\n      tag_76\n      jump\t// in\n    tag_258:\n        /* \"#utility.yul\":14469:14472   */\n      dup3\n        /* \"#utility.yul\":14462:14496   */\n      mstore\n        /* \"#utility.yul\":14393:14502   */\n      pop\n      pop\n      jump\t// out\n        /* \"#utility.yul\":14508:15049   */\n    tag_37:\n        /* \"#utility.yul\":14681:14685   */\n      0x00\n        /* \"#utility.yul\":14719:14721   */\n      0x60\n        /* \"#utility.yul\":14708:14717   */\n      dup3\n        /* \"#utility.yul\":14704:14722   */\n      add\n        /* \"#utility.yul\":14696:14722   */\n      swap1\n      pop\n        /* \"#utility.yul\":14732:14803   */\n      tag_260\n        /* \"#utility.yul\":14800:14801   */\n      0x00\n        /* \"#utility.yul\":14789:14798   */\n      dup4\n        /* \"#utility.yul\":14785:14802   */\n      add\n        /* \"#utility.yul\":14776:14782   */\n      dup8\n        /* \"#utility.yul\":14732:14803   */\n      tag_65\n      jump\t// in\n    tag_260:\n        /* \"#utility.yul\":14850:14859   */\n      dup2\n        /* \"#utility.yul\":14844:14848   */\n      dup2\n        /* \"#utility.yul\":14840:14860   */\n      sub\n        /* \"#utility.yul\":14835:14837   */\n      0x20\n        /* \"#utility.yul\":14824:14833   */\n      dup4\n        /* \"#utility.yul\":14820:14838   */\n      add\n        /* \"#utility.yul\":14813:14861   */\n      mstore\n        /* \"#utility.yul\":14878:14966   */\n      tag_261\n        /* \"#utility.yul\":14961:14965   */\n      dup2\n        /* \"#utility.yul\":14952:14958   */\n      dup6\n        /* \"#utility.yul\":14944:14950   */\n      dup8\n        /* \"#utility.yul\":14878:14966   */\n      tag_104\n      jump\t// in\n    tag_261:\n        /* \"#utility.yul\":14870:14966   */\n      swap1\n      pop\n        /* \"#utility.yul\":14976:15042   */\n      tag_262\n        /* \"#utility.yul\":15038:15040   */\n      0x40\n        /* \"#utility.yul\":15027:15036   */\n      dup4\n        /* \"#utility.yul\":15023:15041   */\n      add\n        /* \"#utility.yul\":15014:15020   */\n      dup5\n        /* \"#utility.yul\":14976:15042   */\n      tag_105\n      jump\t// in\n    tag_262:\n        /* \"#utility.yul\":14508:15049   */\n      swap6\n      swap5\n      pop\n      pop\n      pop\n      pop\n      pop\n      jump\t// out\n        /* \"#utility.yul\":15055:15235   */\n    tag_42:\n        /* \"#utility.yul\":15103:15180   */\n      0x4e487b7100000000000000000000000000000000000000000000000000000000\n        /* \"#utility.yul\":15100:15101   */\n      0x00\n        /* \"#utility.yul\":15093:15181   */\n      mstore\n        /* \"#utility.yul\":15200:15204   */\n      0x32\n        /* \"#utility.yul\":15197:15198   */\n      0x04\n        /* \"#utility.yul\":15190:15205   */\n      mstore\n        /* \"#utility.yul\":15224:15228   */\n      0x24\n        /* \"#utility.yul\":15221:15222   */\n      0x00\n        /* \"#utility.yul\":15214:15229   */\n      revert\n\n    auxdata: 0xa26469706673582212208b5f48c123161f0283936566ae407bb8536ebf4fed9cba075f96cdd19aa437e364736f6c63430008120033\n}\n",
				"bytecode": {
					"linkReferences": {},
					"object": "608060405234801561001057600080fd5b50610da9806100206000396000f3fe60806040526004361061003f5760003560e01c8063111002aa146100445780633d18b9121461006057806354c2ed6d1461008b578063a31662d2146100b4575b600080fd5b61005e600480360381019061005991906105f2565b6100df565b005b34801561006c57600080fd5b50610075610309565b6040516100829190610658565b60405180910390f35b34801561009757600080fd5b506100b260048036038101906100ad919061069f565b610350565b005b3480156100c057600080fd5b506100c961043b565b6040516100d69190610876565b60405180910390f35b67016345785d8a00003414610129576040517f08c379a0000000000000000000000000000000000000000000000000000000008152600401610120906108f5565b60405180910390fd5b6000803373ffffffffffffffffffffffffffffffffffffffff1673ffffffffffffffffffffffffffffffffffffffff168152602001908152602001600020604051806040016040528084848080601f016020809104026020016040519081016040528093929190818152602001838380828437600081840152601f19601f82011690508083019250505050505050815260200160001515815250908060018154018082558091505060019003906000526020600020906002020160009091909190915060008201518160000190816102019190610b50565b5060208201518160010160006101000a81548160ff021916908315150217905550505034600160003373ffffffffffffffffffffffffffffffffffffffff1673ffffffffffffffffffffffffffffffffffffffff16815260200190815260200160002060008282546102739190610c51565b925050819055507f7ffc5def84f84c9a24e3f0ad22a6aa1dcf1626b3936280fe2f8e5d38c636b64160016000803373ffffffffffffffffffffffffffffffffffffffff1673ffffffffffffffffffffffffffffffffffffffff168152602001908152602001600020805490506102e99190610c85565b838360006040516102fd9493929190610d04565b60405180910390a15050565b6000600160003373ffffffffffffffffffffffffffffffffffffffff1673ffffffffffffffffffffffffffffffffffffffff16815260200190815260200160002054905090565b6000803373ffffffffffffffffffffffffffffffffffffffff1673ffffffffffffffffffffffffffffffffffffffff16815260200190815260200160002081815481106103a05761039f610d44565b5b906000526020600020906002020160010160009054906101000a900460ff16156000803373ffffffffffffffffffffffffffffffffffffffff1673ffffffffffffffffffffffffffffffffffffffff16815260200190815260200160002082815481106104105761040f610d44565b5b906000526020600020906002020160010160006101000a81548160ff02191690831515021790555050565b60606000803373ffffffffffffffffffffffffffffffffffffffff1673ffffffffffffffffffffffffffffffffffffffff168152602001908152602001600020805480602002602001604051908101604052809291908181526020016000905b8282101561057a57838290600052602060002090600202016040518060400160405290816000820180546104ce90610973565b80601f01602080910402602001604051908101604052809291908181526020018280546104fa90610973565b80156105475780601f1061051c57610100808354040283529160200191610547565b820191906000526020600020905b81548152906001019060200180831161052a57829003601f168201915b505050505081526020016001820160009054906101000a900460ff1615151515815250508152602001906001019061049b565b50505050905090565b600080fd5b600080fd5b600080fd5b600080fd5b600080fd5b60008083601f8401126105b2576105b161058d565b5b8235905067ffffffffffffffff8111156105cf576105ce610592565b5b6020830191508360018202830111156105eb576105ea610597565b5b9250929050565b6000806020838503121561060957610608610583565b5b600083013567ffffffffffffffff81111561062757610626610588565b5b6106338582860161059c565b92509250509250929050565b6000819050919050565b6106528161063f565b82525050565b600060208201905061066d6000830184610649565b92915050565b61067c8161063f565b811461068757600080fd5b50565b60008135905061069981610673565b92915050565b6000602082840312156106b5576106b4610583565b5b60006106c38482850161068a565b91505092915050565b600081519050919050565b600082825260208201905092915050565b6000819050602082019050919050565b600081519050919050565b600082825260208201905092915050565b60005b83811015610732578082015181840152602081019050610717565b60008484015250505050565b6000601f19601f8301169050919050565b600061075a826106f8565b6107648185610703565b9350610774818560208601610714565b61077d8161073e565b840191505092915050565b60008115159050919050565b61079d81610788565b82525050565b600060408301600083015184820360008601526107c0828261074f565b91505060208301516107d56020860182610794565b508091505092915050565b60006107ec83836107a3565b905092915050565b6000602082019050919050565b600061080c826106cc565b61081681856106d7565b935083602082028501610828856106e8565b8060005b85811015610864578484038952815161084585826107e0565b9450610850836107f4565b925060208a0199505060018101905061082c565b50829750879550505050505092915050565b600060208201905081810360008301526108908184610801565b905092915050565b600082825260208201905092915050565b7f70617920302e3120657468657200000000000000000000000000000000000000600082015250565b60006108df600d83610898565b91506108ea826108a9565b602082019050919050565b6000602082019050818103600083015261090e816108d2565b9050919050565b7f4e487b7100000000000000000000000000000000000000000000000000000000600052604160045260246000fd5b7f4e487b7100000000000000000000000000000000000000000000000000000000600052602260045260246000fd5b6000600282049050600182168061098b57607f821691505b60208210810361099e5761099d610944565b5b50919050565b60008190508160005260206000209050919050565b60006020601f8301049050919050565b600082821b905092915050565b600060088302610a067fffffffffffffffffffffffffffffffffffffffffffffffffffffffffffffffff826109c9565b610a1086836109c9565b95508019841693508086168417925050509392505050565b6000819050919050565b6000610a4d610a48610a438461063f565b610a28565b61063f565b9050919050565b6000819050919050565b610a6783610a32565b610a7b610a7382610a54565b8484546109d6565b825550505050565b600090565b610a90610a83565b610a9b818484610a5e565b505050565b5b81811015610abf57610ab4600082610a88565b600181019050610aa1565b5050565b601f821115610b0457610ad5816109a4565b610ade846109b9565b81016020851015610aed578190505b610b01610af9856109b9565b830182610aa0565b50505b505050565b600082821c905092915050565b6000610b2760001984600802610b09565b1980831691505092915050565b6000610b408383610b16565b9150826002028217905092915050565b610b59826106f8565b67ffffffffffffffff811115610b7257610b71610915565b5b610b7c8254610973565b610b87828285610ac3565b600060209050601f831160018114610bba5760008415610ba8578287015190505b610bb28582610b34565b865550610c1a565b601f198416610bc8866109a4565b60005b82811015610bf057848901518255600182019150602085019450602081019050610bcb565b86831015610c0d5784890151610c09601f891682610b16565b8355505b6001600288020188555050505b505050505050565b7f4e487b7100000000000000000000000000000000000000000000000000000000600052601160045260246000fd5b6000610c5c8261063f565b9150610c678361063f565b9250828201905080821115610c7f57610c7e610c22565b5b92915050565b6000610c908261063f565b9150610c9b8361063f565b9250828203905081811115610cb357610cb2610c22565b5b92915050565b82818337600083830152505050565b6000610cd48385610898565b9350610ce1838584610cb9565b610cea8361073e565b840190509392505050565b610cfe81610788565b82525050565b6000606082019050610d196000830187610649565b8181036020830152610d2c818587610cc8565b9050610d3b6040830184610cf5565b95945050505050565b7f4e487b7100000000000000000000000000000000000000000000000000000000600052603260045260246000fdfea26469706673582212208b5f48c123161f0283936566ae407bb8536ebf4fed9cba075f96cdd19aa437e364736f6c63430008120033",
					"opcodes": "PUSH1 0x80 PUSH1 0x40 MSTORE CALLVALUE DUP1 ISZERO PUSH2 0x10 JUMPI PUSH1 0x0 DUP1 REVERT JUMPDEST POP PUSH2 0xDA9 DUP1 PUSH2 0x20 PUSH1 0x0 CODECOPY PUSH1 0x0 RETURN INVALID PUSH1 0x80 PUSH1 0x40 MSTORE PUSH1 0x4 CALLDATASIZE LT PUSH2 0x3F JUMPI PUSH1 0x0 CALLDATALOAD PUSH1 0xE0 SHR DUP1 PUSH4 0x111002AA EQ PUSH2 0x44 JUMPI DUP1 PUSH4 0x3D18B912 EQ PUSH2 0x60 JUMPI DUP1 PUSH4 0x54C2ED6D EQ PUSH2 0x8B JUMPI DUP1 PUSH4 0xA31662D2 EQ PUSH2 0xB4 JUMPI JUMPDEST PUSH1 0x0 DUP1 REVERT JUMPDEST PUSH2 0x5E PUSH1 0x4 DUP1 CALLDATASIZE SUB DUP2 ADD SWAP1 PUSH2 0x59 SWAP2 SWAP1 PUSH2 0x5F2 JUMP JUMPDEST PUSH2 0xDF JUMP JUMPDEST STOP JUMPDEST CALLVALUE DUP1 ISZERO PUSH2 0x6C JUMPI PUSH1 0x0 DUP1 REVERT JUMPDEST POP PUSH2 0x75 PUSH2 0x309 JUMP JUMPDEST PUSH1 0x40 MLOAD PUSH2 0x82 SWAP2 SWAP1 PUSH2 0x658 JUMP JUMPDEST PUSH1 0x40 MLOAD DUP1 SWAP2 SUB SWAP1 RETURN JUMPDEST CALLVALUE DUP1 ISZERO PUSH2 0x97 JUMPI PUSH1 0x0 DUP1 REVERT JUMPDEST POP PUSH2 0xB2 PUSH1 0x4 DUP1 CALLDATASIZE SUB DUP2 ADD SWAP1 PUSH2 0xAD SWAP2 SWAP1 PUSH2 0x69F JUMP JUMPDEST PUSH2 0x350 JUMP JUMPDEST STOP JUMPDEST CALLVALUE DUP1 ISZERO PUSH2 0xC0 JUMPI PUSH1 0x0 DUP1 REVERT JUMPDEST POP PUSH2 0xC9 PUSH2 0x43B JUMP JUMPDEST PUSH1 0x40 MLOAD PUSH2 0xD6 SWAP2 SWAP1 PUSH2 0x876 JUMP JUMPDEST PUSH1 0x40 MLOAD DUP1 SWAP2 SUB SWAP1 RETURN JUMPDEST PUSH8 0x16345785D8A0000 CALLVALUE EQ PUSH2 0x129 JUMPI PUSH1 0x40 MLOAD PUSH32 0x8C379A000000000000000000000000000000000000000000000000000000000 DUP2 MSTORE PUSH1 0x4 ADD PUSH2 0x120 SWAP1 PUSH2 0x8F5 JUMP JUMPDEST PUSH1 0x40 MLOAD DUP1 SWAP2 SUB SWAP1 REVERT JUMPDEST PUSH1 0x0 DUP1 CALLER PUSH20 0xFFFFFFFFFFFFFFFFFFFFFFFFFFFFFFFFFFFFFFFF AND PUSH20 0xFFFFFFFFFFFFFFFFFFFFFFFFFFFFFFFFFFFFFFFF AND DUP2 MSTORE PUSH1 0x20 ADD SWAP1 DUP2 MSTORE PUSH1 0x20 ADD PUSH1 0x0 KECCAK256 PUSH1 0x40 MLOAD DUP1 PUSH1 0x40 ADD PUSH1 0x40 MSTORE DUP1 DUP5 DUP5 DUP1 DUP1 PUSH1 0x1F ADD PUSH1 0x20 DUP1 SWAP2 DIV MUL PUSH1 0x20 ADD PUSH1 0x40 MLOAD SWAP1 DUP2 ADD PUSH1 0x40 MSTORE DUP1 SWAP4 SWAP3 SWAP2 SWAP1 DUP2 DUP2 MSTORE PUSH1 0x20 ADD DUP4 DUP4 DUP1 DUP3 DUP5 CALLDATACOPY PUSH1 0x0 DUP2 DUP5 ADD MSTORE PUSH1 0x1F NOT PUSH1 0x1F DUP3 ADD AND SWAP1 POP DUP1 DUP4 ADD SWAP3 POP POP POP POP POP POP POP DUP2 MSTORE PUSH1 0x20 ADD PUSH1 0x0 ISZERO ISZERO DUP2 MSTORE POP SWAP1 DUP1 PUSH1 0x1 DUP2 SLOAD ADD DUP1 DUP3 SSTORE DUP1 SWAP2 POP POP PUSH1 0x1 SWAP1 SUB SWAP1 PUSH1 0x0 MSTORE PUSH1 0x20 PUSH1 0x0 KECCAK256 SWAP1 PUSH1 0x2 MUL ADD PUSH1 0x0 SWAP1 SWAP2 SWAP1 SWAP2 SWAP1 SWAP2 POP PUSH1 0x0 DUP3 ADD MLOAD DUP2 PUSH1 0x0 ADD SWAP1 DUP2 PUSH2 0x201 SWAP2 SWAP1 PUSH2 0xB50 JUMP JUMPDEST POP PUSH1 0x20 DUP3 ADD MLOAD DUP2 PUSH1 0x1 ADD PUSH1 0x0 PUSH2 0x100 EXP DUP2 SLOAD DUP2 PUSH1 0xFF MUL NOT AND SWAP1 DUP4 ISZERO ISZERO MUL OR SWAP1 SSTORE POP POP POP CALLVALUE PUSH1 0x1 PUSH1 0x0 CALLER PUSH20 0xFFFFFFFFFFFFFFFFFFFFFFFFFFFFFFFFFFFFFFFF AND PUSH20 0xFFFFFFFFFFFFFFFFFFFFFFFFFFFFFFFFFFFFFFFF AND DUP2 MSTORE PUSH1 0x20 ADD SWAP1 DUP2 MSTORE PUSH1 0x20 ADD PUSH1 0x0 KECCAK256 PUSH1 0x0 DUP3 DUP3 SLOAD PUSH2 0x273 SWAP2 SWAP1 PUSH2 0xC51 JUMP JUMPDEST SWAP3 POP POP DUP2 SWAP1 SSTORE POP PUSH32 0x7FFC5DEF84F84C9A24E3F0AD22A6AA1DCF1626B3936280FE2F8E5D38C636B641 PUSH1 0x1 PUSH1 0x0 DUP1 CALLER PUSH20 0xFFFFFFFFFFFFFFFFFFFFFFFFFFFFFFFFFFFFFFFF AND PUSH20 0xFFFFFFFFFFFFFFFFFFFFFFFFFFFFFFFFFFFFFFFF AND DUP2 MSTORE PUSH1 0x20 ADD SWAP1 DUP2 MSTORE PUSH1 0x20 ADD PUSH1 0x0 KECCAK256 DUP1 SLOAD SWAP1 POP PUSH2 0x2E9 SWAP2 SWAP1 PUSH2 0xC85 JUMP JUMPDEST DUP4 DUP4 PUSH1 0x0 PUSH1 0x40 MLOAD PUSH2 0x2FD SWAP5 SWAP4 SWAP3 SWAP2 SWAP1 PUSH2 0xD04 JUMP JUMPDEST PUSH1 0x40 MLOAD DUP1 SWAP2 SUB SWAP1 LOG1 POP POP JUMP JUMPDEST PUSH1 0x0 PUSH1 0x1 PUSH1 0x0 CALLER PUSH20 0xFFFFFFFFFFFFFFFFFFFFFFFFFFFFFFFFFFFFFFFF AND PUSH20 0xFFFFFFFFFFFFFFFFFFFFFFFFFFFFFFFFFFFFFFFF AND DUP2 MSTORE PUSH1 0x20 ADD SWAP1 DUP2 MSTORE PUSH1 0x20 ADD PUSH1 0x0 KECCAK256 SLOAD SWAP1 POP SWAP1 JUMP JUMPDEST PUSH1 0x0 DUP1 CALLER PUSH20 0xFFFFFFFFFFFFFFFFFFFFFFFFFFFFFFFFFFFFFFFF AND PUSH20 0xFFFFFFFFFFFFFFFFFFFFFFFFFFFFFFFFFFFFFFFF AND DUP2 MSTORE PUSH1 0x20 ADD SWAP1 DUP2 MSTORE PUSH1 0x20 ADD PUSH1 0x0 KECCAK256 DUP2 DUP2 SLOAD DUP2 LT PUSH2 0x3A0 JUMPI PUSH2 0x39F PUSH2 0xD44 JUMP JUMPDEST JUMPDEST SWAP1 PUSH1 0x0 MSTORE PUSH1 0x20 PUSH1 0x0 KECCAK256 SWAP1 PUSH1 0x2 MUL ADD PUSH1 0x1 ADD PUSH1 0x0 SWAP1 SLOAD SWAP1 PUSH2 0x100 EXP SWAP1 DIV PUSH1 0xFF AND ISZERO PUSH1 0x0 DUP1 CALLER PUSH20 0xFFFFFFFFFFFFFFFFFFFFFFFFFFFFFFFFFFFFFFFF AND PUSH20 0xFFFFFFFFFFFFFFFFFFFFFFFFFFFFFFFFFFFFFFFF AND DUP2 MSTORE PUSH1 0x20 ADD SWAP1 DUP2 MSTORE PUSH1 0x20 ADD PUSH1 0x0 KECCAK256 DUP3 DUP2 SLOAD DUP2 LT PUSH2 0x410 JUMPI PUSH2 0x40F PUSH2 0xD44 JUMP JUMPDEST JUMPDEST SWAP1 PUSH1 0x0 MSTORE PUSH1 0x20 PUSH1 0x0 KECCAK256 SWAP1 PUSH1 0x2 MUL ADD PUSH1 0x1 ADD PUSH1 0x0 PUSH2 0x100 EXP DUP2 SLOAD DUP2 PUSH1 0xFF MUL NOT AND SWAP1 DUP4 ISZERO ISZERO MUL OR SWAP1 SSTORE POP POP JUMP JUMPDEST PUSH1 0x60 PUSH1 0x0 DUP1 CALLER PUSH20 0xFFFFFFFFFFFFFFFFFFFFFFFFFFFFFFFFFFFFFFFF AND PUSH20 0xFFFFFFFFFFFFFFFFFFFFFFFFFFFFFFFFFFFFFFFF AND DUP2 MSTORE PUSH1 0x20 ADD SWAP1 DUP2 MSTORE PUSH1 0x20 ADD PUSH1 0x0 KECCAK256 DUP1 SLOAD DUP1 PUSH1 0x20 MUL PUSH1 0x20 ADD PUSH1 0x40 MLOAD SWAP1 DUP2 ADD PUSH1 0x40 MSTORE DUP1 SWAP3 SWAP2 SWAP1 DUP2 DUP2 MSTORE PUSH1 0x20 ADD PUSH1 0x0 SWAP1 JUMPDEST DUP3 DUP3 LT ISZERO PUSH2 0x57A JUMPI DUP4 DUP3 SWAP1 PUSH1 0x0 MSTORE PUSH1 0x20 PUSH1 0x0 KECCAK256 SWAP1 PUSH1 0x2 MUL ADD PUSH1 0x40 MLOAD DUP1 PUSH1 0x40 ADD PUSH1 0x40 MSTORE SWAP1 DUP2 PUSH1 0x0 DUP3 ADD DUP1 SLOAD PUSH2 0x4CE SWAP1 PUSH2 0x973 JUMP JUMPDEST DUP1 PUSH1 0x1F ADD PUSH1 0x20 DUP1 SWAP2 DIV MUL PUSH1 0x20 ADD PUSH1 0x40 MLOAD SWAP1 DUP2 ADD PUSH1 0x40 MSTORE DUP1 SWAP3 SWAP2 SWAP1 DUP2 DUP2 MSTORE PUSH1 0x20 ADD DUP3 DUP1 SLOAD PUSH2 0x4FA SWAP1 PUSH2 0x973 JUMP JUMPDEST DUP1 ISZERO PUSH2 0x547 JUMPI DUP1 PUSH1 0x1F LT PUSH2 0x51C JUMPI PUSH2 0x100 DUP1 DUP4 SLOAD DIV MUL DUP4 MSTORE SWAP2 PUSH1 0x20 ADD SWAP2 PUSH2 0x547 JUMP JUMPDEST DUP3 ADD SWAP2 SWAP1 PUSH1 0x0 MSTORE PUSH1 0x20 PUSH1 0x0 KECCAK256 SWAP1 JUMPDEST DUP2 SLOAD DUP2 MSTORE SWAP1 PUSH1 0x1 ADD SWAP1 PUSH1 0x20 ADD DUP1 DUP4 GT PUSH2 0x52A JUMPI DUP3 SWAP1 SUB PUSH1 0x1F AND DUP3 ADD SWAP2 JUMPDEST POP POP POP POP POP DUP2 MSTORE PUSH1 0x20 ADD PUSH1 0x1 DUP3 ADD PUSH1 0x0 SWAP1 SLOAD SWAP1 PUSH2 0x100 EXP SWAP1 DIV PUSH1 0xFF AND ISZERO ISZERO ISZERO ISZERO DUP2 MSTORE POP POP DUP2 MSTORE PUSH1 0x20 ADD SWAP1 PUSH1 0x1 ADD SWAP1 PUSH2 0x49B JUMP JUMPDEST POP POP POP POP SWAP1 POP SWAP1 JUMP JUMPDEST PUSH1 0x0 DUP1 REVERT JUMPDEST PUSH1 0x0 DUP1 REVERT JUMPDEST PUSH1 0x0 DUP1 REVERT JUMPDEST PUSH1 0x0 DUP1 REVERT JUMPDEST PUSH1 0x0 DUP1 REVERT JUMPDEST PUSH1 0x0 DUP1 DUP4 PUSH1 0x1F DUP5 ADD SLT PUSH2 0x5B2 JUMPI PUSH2 0x5B1 PUSH2 0x58D JUMP JUMPDEST JUMPDEST DUP3 CALLDATALOAD SWAP1 POP PUSH8 0xFFFFFFFFFFFFFFFF DUP2 GT ISZERO PUSH2 0x5CF JUMPI PUSH2 0x5CE PUSH2 0x592 JUMP JUMPDEST JUMPDEST PUSH1 0x20 DUP4 ADD SWAP2 POP DUP4 PUSH1 0x1 DUP3 MUL DUP4 ADD GT ISZERO PUSH2 0x5EB JUMPI PUSH2 0x5EA PUSH2 0x597 JUMP JUMPDEST JUMPDEST SWAP3 POP SWAP3 SWAP1 POP JUMP JUMPDEST PUSH1 0x0 DUP1 PUSH1 0x20 DUP4 DUP6 SUB SLT ISZERO PUSH2 0x609 JUMPI PUSH2 0x608 PUSH2 0x583 JUMP JUMPDEST JUMPDEST PUSH1 0x0 DUP4 ADD CALLDATALOAD PUSH8 0xFFFFFFFFFFFFFFFF DUP2 GT ISZERO PUSH2 0x627 JUMPI PUSH2 0x626 PUSH2 0x588 JUMP JUMPDEST JUMPDEST PUSH2 0x633 DUP6 DUP3 DUP7 ADD PUSH2 0x59C JUMP JUMPDEST SWAP3 POP SWAP3 POP POP SWAP3 POP SWAP3 SWAP1 POP JUMP JUMPDEST PUSH1 0x0 DUP2 SWAP1 POP SWAP2 SWAP1 POP JUMP JUMPDEST PUSH2 0x652 DUP2 PUSH2 0x63F JUMP JUMPDEST DUP3 MSTORE POP POP JUMP JUMPDEST PUSH1 0x0 PUSH1 0x20 DUP3 ADD SWAP1 POP PUSH2 0x66D PUSH1 0x0 DUP4 ADD DUP5 PUSH2 0x649 JUMP JUMPDEST SWAP3 SWAP2 POP POP JUMP JUMPDEST PUSH2 0x67C DUP2 PUSH2 0x63F JUMP JUMPDEST DUP2 EQ PUSH2 0x687 JUMPI PUSH1 0x0 DUP1 REVERT JUMPDEST POP JUMP JUMPDEST PUSH1 0x0 DUP2 CALLDATALOAD SWAP1 POP PUSH2 0x699 DUP2 PUSH2 0x673 JUMP JUMPDEST SWAP3 SWAP2 POP POP JUMP JUMPDEST PUSH1 0x0 PUSH1 0x20 DUP3 DUP5 SUB SLT ISZERO PUSH2 0x6B5 JUMPI PUSH2 0x6B4 PUSH2 0x583 JUMP JUMPDEST JUMPDEST PUSH1 0x0 PUSH2 0x6C3 DUP5 DUP3 DUP6 ADD PUSH2 0x68A JUMP JUMPDEST SWAP2 POP POP SWAP3 SWAP2 POP POP JUMP JUMPDEST PUSH1 0x0 DUP2 MLOAD SWAP1 POP SWAP2 SWAP1 POP JUMP JUMPDEST PUSH1 0x0 DUP3 DUP3 MSTORE PUSH1 0x20 DUP3 ADD SWAP1 POP SWAP3 SWAP2 POP POP JUMP JUMPDEST PUSH1 0x0 DUP2 SWAP1 POP PUSH1 0x20 DUP3 ADD SWAP1 POP SWAP2 SWAP1 POP JUMP JUMPDEST PUSH1 0x0 DUP2 MLOAD SWAP1 POP SWAP2 SWAP1 POP JUMP JUMPDEST PUSH1 0x0 DUP3 DUP3 MSTORE PUSH1 0x20 DUP3 ADD SWAP1 POP SWAP3 SWAP2 POP POP JUMP JUMPDEST PUSH1 0x0 JUMPDEST DUP4 DUP2 LT ISZERO PUSH2 0x732 JUMPI DUP1 DUP3 ADD MLOAD DUP2 DUP5 ADD MSTORE PUSH1 0x20 DUP2 ADD SWAP1 POP PUSH2 0x717 JUMP JUMPDEST PUSH1 0x0 DUP5 DUP5 ADD MSTORE POP POP POP POP JUMP JUMPDEST PUSH1 0x0 PUSH1 0x1F NOT PUSH1 0x1F DUP4 ADD AND SWAP1 POP SWAP2 SWAP1 POP JUMP JUMPDEST PUSH1 0x0 PUSH2 0x75A DUP3 PUSH2 0x6F8 JUMP JUMPDEST PUSH2 0x764 DUP2 DUP6 PUSH2 0x703 JUMP JUMPDEST SWAP4 POP PUSH2 0x774 DUP2 DUP6 PUSH1 0x20 DUP7 ADD PUSH2 0x714 JUMP JUMPDEST PUSH2 0x77D DUP2 PUSH2 0x73E JUMP JUMPDEST DUP5 ADD SWAP2 POP POP SWAP3 SWAP2 POP POP JUMP JUMPDEST PUSH1 0x0 DUP2 ISZERO ISZERO SWAP1 POP SWAP2 SWAP1 POP JUMP JUMPDEST PUSH2 0x79D DUP2 PUSH2 0x788 JUMP JUMPDEST DUP3 MSTORE POP POP JUMP JUMPDEST PUSH1 0x0 PUSH1 0x40 DUP4 ADD PUSH1 0x0 DUP4 ADD MLOAD DUP5 DUP3 SUB PUSH1 0x0 DUP7 ADD MSTORE PUSH2 0x7C0 DUP3 DUP3 PUSH2 0x74F JUMP JUMPDEST SWAP2 POP POP PUSH1 0x20 DUP4 ADD MLOAD PUSH2 0x7D5 PUSH1 0x20 DUP7 ADD DUP3 PUSH2 0x794 JUMP JUMPDEST POP DUP1 SWAP2 POP POP SWAP3 SWAP2 POP POP JUMP JUMPDEST PUSH1 0x0 PUSH2 0x7EC DUP4 DUP4 PUSH2 0x7A3 JUMP JUMPDEST SWAP1 POP SWAP3 SWAP2 POP POP JUMP JUMPDEST PUSH1 0x0 PUSH1 0x20 DUP3 ADD SWAP1 POP SWAP2 SWAP1 POP JUMP JUMPDEST PUSH1 0x0 PUSH2 0x80C DUP3 PUSH2 0x6CC JUMP JUMPDEST PUSH2 0x816 DUP2 DUP6 PUSH2 0x6D7 JUMP JUMPDEST SWAP4 POP DUP4 PUSH1 0x20 DUP3 MUL DUP6 ADD PUSH2 0x828 DUP6 PUSH2 0x6E8 JUMP JUMPDEST DUP1 PUSH1 0x0 JUMPDEST DUP6 DUP2 LT ISZERO PUSH2 0x864 JUMPI DUP5 DUP5 SUB DUP10 MSTORE DUP2 MLOAD PUSH2 0x845 DUP6 DUP3 PUSH2 0x7E0 JUMP JUMPDEST SWAP5 POP PUSH2 0x850 DUP4 PUSH2 0x7F4 JUMP JUMPDEST SWAP3 POP PUSH1 0x20 DUP11 ADD SWAP10 POP POP PUSH1 0x1 DUP2 ADD SWAP1 POP PUSH2 0x82C JUMP JUMPDEST POP DUP3 SWAP8 POP DUP8 SWAP6 POP POP POP POP POP POP SWAP3 SWAP2 POP POP JUMP JUMPDEST PUSH1 0x0 PUSH1 0x20 DUP3 ADD SWAP1 POP DUP2 DUP2 SUB PUSH1 0x0 DUP4 ADD MSTORE PUSH2 0x890 DUP2 DUP5 PUSH2 0x801 JUMP JUMPDEST SWAP1 POP SWAP3 SWAP2 POP POP JUMP JUMPDEST PUSH1 0x0 DUP3 DUP3 MSTORE PUSH1 0x20 DUP3 ADD SWAP1 POP SWAP3 SWAP2 POP POP JUMP JUMPDEST PUSH32 0x70617920302E3120657468657200000000000000000000000000000000000000 PUSH1 0x0 DUP3 ADD MSTORE POP JUMP JUMPDEST PUSH1 0x0 PUSH2 0x8DF PUSH1 0xD DUP4 PUSH2 0x898 JUMP JUMPDEST SWAP2 POP PUSH2 0x8EA DUP3 PUSH2 0x8A9 JUMP JUMPDEST PUSH1 0x20 DUP3 ADD SWAP1 POP SWAP2 SWAP1 POP JUMP JUMPDEST PUSH1 0x0 PUSH1 0x20 DUP3 ADD SWAP1 POP DUP2 DUP2 SUB PUSH1 0x0 DUP4 ADD MSTORE PUSH2 0x90E DUP2 PUSH2 0x8D2 JUMP JUMPDEST SWAP1 POP SWAP2 SWAP1 POP JUMP JUMPDEST PUSH32 0x4E487B7100000000000000000000000000000000000000000000000000000000 PUSH1 0x0 MSTORE PUSH1 0x41 PUSH1 0x4 MSTORE PUSH1 0x24 PUSH1 0x0 REVERT JUMPDEST PUSH32 0x4E487B7100000000000000000000000000000000000000000000000000000000 PUSH1 0x0 MSTORE PUSH1 0x22 PUSH1 0x4 MSTORE PUSH1 0x24 PUSH1 0x0 REVERT JUMPDEST PUSH1 0x0 PUSH1 0x2 DUP3 DIV SWAP1 POP PUSH1 0x1 DUP3 AND DUP1 PUSH2 0x98B JUMPI PUSH1 0x7F DUP3 AND SWAP2 POP JUMPDEST PUSH1 0x20 DUP3 LT DUP2 SUB PUSH2 0x99E JUMPI PUSH2 0x99D PUSH2 0x944 JUMP JUMPDEST JUMPDEST POP SWAP2 SWAP1 POP JUMP JUMPDEST PUSH1 0x0 DUP2 SWAP1 POP DUP2 PUSH1 0x0 MSTORE PUSH1 0x20 PUSH1 0x0 KECCAK256 SWAP1 POP SWAP2 SWAP1 POP JUMP JUMPDEST PUSH1 0x0 PUSH1 0x20 PUSH1 0x1F DUP4 ADD DIV SWAP1 POP SWAP2 SWAP1 POP JUMP JUMPDEST PUSH1 0x0 DUP3 DUP3 SHL SWAP1 POP SWAP3 SWAP2 POP POP JUMP JUMPDEST PUSH1 0x0 PUSH1 0x8 DUP4 MUL PUSH2 0xA06 PUSH32 0xFFFFFFFFFFFFFFFFFFFFFFFFFFFFFFFFFFFFFFFFFFFFFFFFFFFFFFFFFFFFFFFF DUP3 PUSH2 0x9C9 JUMP JUMPDEST PUSH2 0xA10 DUP7 DUP4 PUSH2 0x9C9 JUMP JUMPDEST SWAP6 POP DUP1 NOT DUP5 AND SWAP4 POP DUP1 DUP7 AND DUP5 OR SWAP3 POP POP POP SWAP4 SWAP3 POP POP POP JUMP JUMPDEST PUSH1 0x0 DUP2 SWAP1 POP SWAP2 SWAP1 POP JUMP JUMPDEST PUSH1 0x0 PUSH2 0xA4D PUSH2 0xA48 PUSH2 0xA43 DUP5 PUSH2 0x63F JUMP JUMPDEST PUSH2 0xA28 JUMP JUMPDEST PUSH2 0x63F JUMP JUMPDEST SWAP1 POP SWAP2 SWAP1 POP JUMP JUMPDEST PUSH1 0x0 DUP2 SWAP1 POP SWAP2 SWAP1 POP JUMP JUMPDEST PUSH2 0xA67 DUP4 PUSH2 0xA32 JUMP JUMPDEST PUSH2 0xA7B PUSH2 0xA73 DUP3 PUSH2 0xA54 JUMP JUMPDEST DUP5 DUP5 SLOAD PUSH2 0x9D6 JUMP JUMPDEST DUP3 SSTORE POP POP POP POP JUMP JUMPDEST PUSH1 0x0 SWAP1 JUMP JUMPDEST PUSH2 0xA90 PUSH2 0xA83 JUMP JUMPDEST PUSH2 0xA9B DUP2 DUP5 DUP5 PUSH2 0xA5E JUMP JUMPDEST POP POP POP JUMP JUMPDEST JUMPDEST DUP2 DUP2 LT ISZERO PUSH2 0xABF JUMPI PUSH2 0xAB4 PUSH1 0x0 DUP3 PUSH2 0xA88 JUMP JUMPDEST PUSH1 0x1 DUP2 ADD SWAP1 POP PUSH2 0xAA1 JUMP JUMPDEST POP POP JUMP JUMPDEST PUSH1 0x1F DUP3 GT ISZERO PUSH2 0xB04 JUMPI PUSH2 0xAD5 DUP2 PUSH2 0x9A4 JUMP JUMPDEST PUSH2 0xADE DUP5 PUSH2 0x9B9 JUMP JUMPDEST DUP2 ADD PUSH1 0x20 DUP6 LT ISZERO PUSH2 0xAED JUMPI DUP2 SWAP1 POP JUMPDEST PUSH2 0xB01 PUSH2 0xAF9 DUP6 PUSH2 0x9B9 JUMP JUMPDEST DUP4 ADD DUP3 PUSH2 0xAA0 JUMP JUMPDEST POP POP JUMPDEST POP POP POP JUMP JUMPDEST PUSH1 0x0 DUP3 DUP3 SHR SWAP1 POP SWAP3 SWAP2 POP POP JUMP JUMPDEST PUSH1 0x0 PUSH2 0xB27 PUSH1 0x0 NOT DUP5 PUSH1 0x8 MUL PUSH2 0xB09 JUMP JUMPDEST NOT DUP1 DUP4 AND SWAP2 POP POP SWAP3 SWAP2 POP POP JUMP JUMPDEST PUSH1 0x0 PUSH2 0xB40 DUP4 DUP4 PUSH2 0xB16 JUMP JUMPDEST SWAP2 POP DUP3 PUSH1 0x2 MUL DUP3 OR SWAP1 POP SWAP3 SWAP2 POP POP JUMP JUMPDEST PUSH2 0xB59 DUP3 PUSH2 0x6F8 JUMP JUMPDEST PUSH8 0xFFFFFFFFFFFFFFFF DUP2 GT ISZERO PUSH2 0xB72 JUMPI PUSH2 0xB71 PUSH2 0x915 JUMP JUMPDEST JUMPDEST PUSH2 0xB7C DUP3 SLOAD PUSH2 0x973 JUMP JUMPDEST PUSH2 0xB87 DUP3 DUP3 DUP6 PUSH2 0xAC3 JUMP JUMPDEST PUSH1 0x0 PUSH1 0x20 SWAP1 POP PUSH1 0x1F DUP4 GT PUSH1 0x1 DUP2 EQ PUSH2 0xBBA JUMPI PUSH1 0x0 DUP5 ISZERO PUSH2 0xBA8 JUMPI DUP3 DUP8 ADD MLOAD SWAP1 POP JUMPDEST PUSH2 0xBB2 DUP6 DUP3 PUSH2 0xB34 JUMP JUMPDEST DUP7 SSTORE POP PUSH2 0xC1A JUMP JUMPDEST PUSH1 0x1F NOT DUP5 AND PUSH2 0xBC8 DUP7 PUSH2 0x9A4 JUMP JUMPDEST PUSH1 0x0 JUMPDEST DUP3 DUP2 LT ISZERO PUSH2 0xBF0 JUMPI DUP5 DUP10 ADD MLOAD DUP3 SSTORE PUSH1 0x1 DUP3 ADD SWAP2 POP PUSH1 0x20 DUP6 ADD SWAP5 POP PUSH1 0x20 DUP2 ADD SWAP1 POP PUSH2 0xBCB JUMP JUMPDEST DUP7 DUP4 LT ISZERO PUSH2 0xC0D JUMPI DUP5 DUP10 ADD MLOAD PUSH2 0xC09 PUSH1 0x1F DUP10 AND DUP3 PUSH2 0xB16 JUMP JUMPDEST DUP4 SSTORE POP JUMPDEST PUSH1 0x1 PUSH1 0x2 DUP9 MUL ADD DUP9 SSTORE POP POP POP JUMPDEST POP POP POP POP POP POP JUMP JUMPDEST PUSH32 0x4E487B7100000000000000000000000000000000000000000000000000000000 PUSH1 0x0 MSTORE PUSH1 0x11 PUSH1 0x4 MSTORE PUSH1 0x24 PUSH1 0x0 REVERT JUMPDEST PUSH1 0x0 PUSH2 0xC5C DUP3 PUSH2 0x63F JUMP JUMPDEST SWAP2 POP PUSH2 0xC67 DUP4 PUSH2 0x63F JUMP JUMPDEST SWAP3 POP DUP3 DUP3 ADD SWAP1 POP DUP1 DUP3 GT ISZERO PUSH2 0xC7F JUMPI PUSH2 0xC7E PUSH2 0xC22 JUMP JUMPDEST JUMPDEST SWAP3 SWAP2 POP POP JUMP JUMPDEST PUSH1 0x0 PUSH2 0xC90 DUP3 PUSH2 0x63F JUMP JUMPDEST SWAP2 POP PUSH2 0xC9B DUP4 PUSH2 0x63F JUMP JUMPDEST SWAP3 POP DUP3 DUP3 SUB SWAP1 POP DUP2 DUP2 GT ISZERO PUSH2 0xCB3 JUMPI PUSH2 0xCB2 PUSH2 0xC22 JUMP JUMPDEST JUMPDEST SWAP3 SWAP2 POP POP JUMP JUMPDEST DUP3 DUP2 DUP4 CALLDATACOPY PUSH1 0x0 DUP4 DUP4 ADD MSTORE POP POP POP JUMP JUMPDEST PUSH1 0x0 PUSH2 0xCD4 DUP4 DUP6 PUSH2 0x898 JUMP JUMPDEST SWAP4 POP PUSH2 0xCE1 DUP4 DUP6 DUP5 PUSH2 0xCB9 JUMP JUMPDEST PUSH2 0xCEA DUP4 PUSH2 0x73E JUMP JUMPDEST DUP5 ADD SWAP1 POP SWAP4 SWAP3 POP POP POP JUMP JUMPDEST PUSH2 0xCFE DUP2 PUSH2 0x788 JUMP JUMPDEST DUP3 MSTORE POP POP JUMP JUMPDEST PUSH1 0x0 PUSH1 0x60 DUP3 ADD SWAP1 POP PUSH2 0xD19 PUSH1 0x0 DUP4 ADD DUP8 PUSH2 0x649 JUMP JUMPDEST DUP2 DUP2 SUB PUSH1 0x20 DUP4 ADD MSTORE PUSH2 0xD2C DUP2 DUP6 DUP8 PUSH2 0xCC8 JUMP JUMPDEST SWAP1 POP PUSH2 0xD3B PUSH1 0x40 DUP4 ADD DUP5 PUSH2 0xCF5 JUMP JUMPDEST SWAP6 SWAP5 POP POP POP POP POP JUMP JUMPDEST PUSH32 0x4E487B7100000000000000000000000000000000000000000000000000000000 PUSH1 0x0 MSTORE PUSH1 0x32 PUSH1 0x4 MSTORE PUSH1 0x24 PUSH1 0x0 REVERT INVALID LOG2 PUSH5 0x6970667358 0x22 SLT KECCAK256 DUP12 0x5F BASEFEE 0xC1 0x23 AND 0x1F MUL DUP4 SWAP4 PUSH6 0x66AE407BB853 PUSH15 0xBF4FED9CBA075F96CDD19AA437E364 PUSH20 0x6F6C634300081200330000000000000000000000 "
				},
				"gasEstimates": {
					"creation": {
						"codeDepositCost": "699400",
						"executionCost": "734",
						"totalCost": "700134"
					},
					"external": {
						"createTask(string)": "infinite",
						"getReward()": "2526",
						"getTask()": "infinite",
						"togalTask(uint256)": "31406"
					}
				},
				"methodIdentifiers": {
					"createTask(string)": "111002aa",
					"getReward()": "3d18b912",
					"getTask()": "a31662d2",
					"togalTask(uint256)": "54c2ed6d"
				}
			},
			"storageLayout": {
				"storage": [
					{
						"astId": 12,
						"contract": "contracts/Complete_To_Do_App.sol:Todo",
						"label": "taskList",
						"offset": 0,
						"slot": "0",
						"type": "t_mapping(t_address,t_array(t_struct(task)6_storage)dyn_storage)"
					},
					{
						"astId": 16,
						"contract": "contracts/Complete_To_Do_App.sol:Todo",
						"label": "rewardList",
						"offset": 0,
						"slot": "1",
						"type": "t_mapping(t_address,t_uint256)"
					}
				],
				"types": {
					"t_address": {
						"encoding": "inplace",
						"label": "address",
						"numberOfBytes": "20"
					},
					"t_array(t_struct(task)6_storage)dyn_storage": {
						"base": "t_struct(task)6_storage",
						"encoding": "dynamic_array",
						"label": "struct Todo.task[]",
						"numberOfBytes": "32"
					},
					"t_bool": {
						"encoding": "inplace",
						"label": "bool",
						"numberOfBytes": "1"
					},
					"t_mapping(t_address,t_array(t_struct(task)6_storage)dyn_storage)": {
						"encoding": "mapping",
						"key": "t_address",
						"label": "mapping(address => struct Todo.task[])",
						"numberOfBytes": "32",
						"value": "t_array(t_struct(task)6_storage)dyn_storage"
					},
					"t_mapping(t_address,t_uint256)": {
						"encoding": "mapping",
						"key": "t_address",
						"label": "mapping(address => uint256)",
						"numberOfBytes": "32",
						"value": "t_uint256"
					},
					"t_string_storage": {
						"encoding": "bytes",
						"label": "string",
						"numberOfBytes": "32"
					},
					"t_struct(task)6_storage": {
						"encoding": "inplace",
						"label": "struct Todo.task",
						"members": [
							{
								"astId": 3,
								"contract": "contracts/Complete_To_Do_App.sol:Todo",
								"label": "work",
								"offset": 0,
								"slot": "0",
								"type": "t_string_storage"
							},
							{
								"astId": 5,
								"contract": "contracts/Complete_To_Do_App.sol:Todo",
								"label": "status",
								"offset": 0,
								"slot": "1",
								"type": "t_bool"
							}
						],
						"numberOfBytes": "64"
					},
					"t_uint256": {
						"encoding": "inplace",
						"label": "uint256",
						"numberOfBytes": "32"
					}
				}
			},
			"userdoc": {
				"kind": "user",
				"methods": {},
				"version": 1
			}
		}
	}
}