{
	"contracts/Abstruct_Contract.sol": {
		"Call": {
			"abi": [
				{
					"inputs": [],
					"stateMutability": "nonpayable",
					"type": "constructor"
				},
				{
					"inputs": [],
					"name": "getValues",
					"outputs": [
						{
							"internalType": "string",
							"name": "",
							"type": "string"
						},
						{
							"internalType": "uint256",
							"name": "",
							"type": "uint256"
						}
					],
					"stateMutability": "nonpayable",
					"type": "function"
				}
			],
			"devdoc": {
				"kind": "dev",
				"methods": {},
				"version": 1
			},
			"evm": {
				"assembly": "    /* \"contracts/Abstruct_Contract.sol\":1050:1473  contract Call {... */\n  mstore(0x40, 0x80)\n    /* \"contracts/Abstruct_Contract.sol\":1193:1251  constructor() {... */\n  callvalue\n  dup1\n  iszero\n  tag_1\n  jumpi\n  0x00\n  dup1\n  revert\ntag_1:\n  pop\n    /* \"contracts/Abstruct_Contract.sol\":1223:1244  new DerivedContract() */\n  mload(0x40)\n  tag_4\n  swap1\n  tag_5\n  jump\t// in\ntag_4:\n  mload(0x40)\n  dup1\n  swap2\n  sub\n  swap1\n  0x00\n  create\n  dup1\n  iszero\n  dup1\n  iszero\n  tag_6\n  jumpi\n  returndatasize\n  0x00\n  dup1\n  returndatacopy\n  revert(0x00, returndatasize)\ntag_6:\n  pop\n    /* \"contracts/Abstruct_Contract.sol\":1217:1220  abs */\n  0x00\n  dup1\n    /* \"contracts/Abstruct_Contract.sol\":1217:1244  abs = new DerivedContract() */\n  0x0100\n  exp\n  dup2\n  sload\n  dup2\n  0xffffffffffffffffffffffffffffffffffffffff\n  mul\n  not\n  and\n  swap1\n  dup4\n  0xffffffffffffffffffffffffffffffffffffffff\n  and\n  mul\n  or\n  swap1\n  sstore\n  pop\n    /* \"contracts/Abstruct_Contract.sol\":1050:1473  contract Call {... */\n  jump(tag_7)\ntag_5:\n  dataSize(sub_1)\n  dup1\n  dataOffset(sub_1)\n  dup4\n  codecopy\n  add\n  swap1\n  jump\t// out\ntag_7:\n  dataSize(sub_0)\n  dup1\n  dataOffset(sub_0)\n  0x00\n  codecopy\n  0x00\n  return\nstop\n\nsub_0: assembly {\n        /* \"contracts/Abstruct_Contract.sol\":1050:1473  contract Call {... */\n      mstore(0x40, 0x80)\n      callvalue\n      dup1\n      iszero\n      tag_1\n      jumpi\n      0x00\n      dup1\n      revert\n    tag_1:\n      pop\n      jumpi(tag_2, lt(calldatasize, 0x04))\n      shr(0xe0, calldataload(0x00))\n      dup1\n      0x19eb4a90\n      eq\n      tag_3\n      jumpi\n    tag_2:\n      0x00\n      dup1\n      revert\n        /* \"contracts/Abstruct_Contract.sol\":1315:1471  function getValues() public returns (string memory, uint256) {... */\n    tag_3:\n      tag_4\n      tag_5\n      jump\t// in\n    tag_4:\n      mload(0x40)\n      tag_6\n      swap3\n      swap2\n      swap1\n      tag_7\n      jump\t// in\n    tag_6:\n      mload(0x40)\n      dup1\n      swap2\n      sub\n      swap1\n      return\n    tag_5:\n        /* \"contracts/Abstruct_Contract.sol\":1352:1365  string memory */\n      0x60\n        /* \"contracts/Abstruct_Contract.sol\":1367:1374  uint256 */\n      0x00\n        /* \"contracts/Abstruct_Contract.sol\":1386:1389  abs */\n      dup1\n      0x00\n      swap1\n      sload\n      swap1\n      0x0100\n      exp\n      swap1\n      div\n      0xffffffffffffffffffffffffffffffffffffffff\n      and\n        /* \"contracts/Abstruct_Contract.sol\":1386:1398  abs.setValue */\n      0xffffffffffffffffffffffffffffffffffffffff\n      and\n      0x7b8d56e3\n        /* \"contracts/Abstruct_Contract.sol\":1399:1401  10 */\n      0x0a\n        /* \"contracts/Abstruct_Contract.sol\":1403:1405  16 */\n      0x10\n        /* \"contracts/Abstruct_Contract.sol\":1386:1406  abs.setValue(10, 16) */\n      mload(0x40)\n      dup4\n      0xffffffff\n      and\n      0xe0\n      shl\n      dup2\n      mstore\n      0x04\n      add\n      tag_9\n      swap3\n      swap2\n      swap1\n      tag_10\n      jump\t// in\n    tag_9:\n      0x00\n      mload(0x40)\n      dup1\n      dup4\n      sub\n      dup2\n      0x00\n      dup8\n      dup1\n      extcodesize\n      iszero\n      dup1\n      iszero\n      tag_11\n      jumpi\n      0x00\n      dup1\n      revert\n    tag_11:\n      pop\n      gas\n      call\n      iszero\n      dup1\n      iszero\n      tag_13\n      jumpi\n      returndatasize\n      0x00\n      dup1\n      returndatacopy\n      revert(0x00, returndatasize)\n    tag_13:\n      pop\n      pop\n      pop\n      pop\n        /* \"contracts/Abstruct_Contract.sol\":1425:1428  abs */\n      0x00\n      dup1\n      sload\n      swap1\n      0x0100\n      exp\n      swap1\n      div\n      0xffffffffffffffffffffffffffffffffffffffff\n      and\n        /* \"contracts/Abstruct_Contract.sol\":1425:1435  abs.getStr */\n      0xffffffffffffffffffffffffffffffffffffffff\n      and\n      0xe449c52a\n        /* \"contracts/Abstruct_Contract.sol\":1425:1452  abs.getStr(\"GeeksForGeeks\") */\n      mload(0x40)\n      dup2\n      0xffffffff\n      and\n      0xe0\n      shl\n      dup2\n      mstore\n      0x04\n      add\n      tag_14\n      swap1\n      tag_15\n      jump\t// in\n    tag_14:\n      0x00\n      mload(0x40)\n      dup1\n      dup4\n      sub\n      dup2\n      dup7\n      gas\n      staticcall\n      iszero\n      dup1\n      iszero\n      tag_17\n      jumpi\n      returndatasize\n      0x00\n      dup1\n      returndatacopy\n      revert(0x00, returndatasize)\n    tag_17:\n      pop\n      pop\n      pop\n      pop\n      mload(0x40)\n      returndatasize\n      0x00\n      dup3\n      returndatacopy\n      returndatasize\n      not(0x1f)\n      0x1f\n      dup3\n      add\n      and\n      dup3\n      add\n      dup1\n      0x40\n      mstore\n      pop\n      dup2\n      add\n      swap1\n      tag_18\n      swap2\n      swap1\n      tag_19\n      jump\t// in\n    tag_18:\n        /* \"contracts/Abstruct_Contract.sol\":1454:1457  abs */\n      0x00\n      dup1\n      sload\n      swap1\n      0x0100\n      exp\n      swap1\n      div\n      0xffffffffffffffffffffffffffffffffffffffff\n      and\n        /* \"contracts/Abstruct_Contract.sol\":1454:1461  abs.add */\n      0xffffffffffffffffffffffffffffffffffffffff\n      and\n      0x4f2be91f\n        /* \"contracts/Abstruct_Contract.sol\":1454:1463  abs.add() */\n      mload(0x40)\n      dup2\n      0xffffffff\n      and\n      0xe0\n      shl\n      dup2\n      mstore\n      0x04\n      add\n      0x20\n      mload(0x40)\n      dup1\n      dup4\n      sub\n      dup2\n      0x00\n      dup8\n      gas\n      call\n      iszero\n      dup1\n      iszero\n      tag_21\n      jumpi\n      returndatasize\n      0x00\n      dup1\n      returndatacopy\n      revert(0x00, returndatasize)\n    tag_21:\n      pop\n      pop\n      pop\n      pop\n      mload(0x40)\n      returndatasize\n      not(0x1f)\n      0x1f\n      dup3\n      add\n      and\n      dup3\n      add\n      dup1\n      0x40\n      mstore\n      pop\n      dup2\n      add\n      swap1\n      tag_22\n      swap2\n      swap1\n      tag_23\n      jump\t// in\n    tag_22:\n        /* \"contracts/Abstruct_Contract.sol\":1417:1464  return (abs.getStr(\"GeeksForGeeks\"), abs.add()) */\n      swap2\n      pop\n      swap2\n      pop\n        /* \"contracts/Abstruct_Contract.sol\":1315:1471  function getValues() public returns (string memory, uint256) {... */\n      swap1\n      swap2\n      jump\t// out\n        /* \"#utility.yul\":7:106   */\n    tag_24:\n        /* \"#utility.yul\":59:65   */\n      0x00\n        /* \"#utility.yul\":93:98   */\n      dup2\n        /* \"#utility.yul\":87:99   */\n      mload\n        /* \"#utility.yul\":77:99   */\n      swap1\n      pop\n        /* \"#utility.yul\":7:106   */\n      swap2\n      swap1\n      pop\n      jump\t// out\n        /* \"#utility.yul\":112:281   */\n    tag_25:\n        /* \"#utility.yul\":196:207   */\n      0x00\n        /* \"#utility.yul\":230:236   */\n      dup3\n        /* \"#utility.yul\":225:228   */\n      dup3\n        /* \"#utility.yul\":218:237   */\n      mstore\n        /* \"#utility.yul\":270:274   */\n      0x20\n        /* \"#utility.yul\":265:268   */\n      dup3\n        /* \"#utility.yul\":261:275   */\n      add\n        /* \"#utility.yul\":246:275   */\n      swap1\n      pop\n        /* \"#utility.yul\":112:281   */\n      swap3\n      swap2\n      pop\n      pop\n      jump\t// out\n        /* \"#utility.yul\":287:533   */\n    tag_26:\n        /* \"#utility.yul\":368:369   */\n      0x00\n        /* \"#utility.yul\":378:491   */\n    tag_57:\n        /* \"#utility.yul\":392:398   */\n      dup4\n        /* \"#utility.yul\":389:390   */\n      dup2\n        /* \"#utility.yul\":386:399   */\n      lt\n        /* \"#utility.yul\":378:491   */\n      iszero\n      tag_59\n      jumpi\n        /* \"#utility.yul\":477:478   */\n      dup1\n        /* \"#utility.yul\":472:475   */\n      dup3\n        /* \"#utility.yul\":468:479   */\n      add\n        /* \"#utility.yul\":462:480   */\n      mload\n        /* \"#utility.yul\":458:459   */\n      dup2\n        /* \"#utility.yul\":453:456   */\n      dup5\n        /* \"#utility.yul\":449:460   */\n      add\n        /* \"#utility.yul\":442:481   */\n      mstore\n        /* \"#utility.yul\":414:416   */\n      0x20\n        /* \"#utility.yul\":411:412   */\n      dup2\n        /* \"#utility.yul\":407:417   */\n      add\n        /* \"#utility.yul\":402:417   */\n      swap1\n      pop\n        /* \"#utility.yul\":378:491   */\n      jump(tag_57)\n    tag_59:\n        /* \"#utility.yul\":525:526   */\n      0x00\n        /* \"#utility.yul\":516:522   */\n      dup5\n        /* \"#utility.yul\":511:514   */\n      dup5\n        /* \"#utility.yul\":507:523   */\n      add\n        /* \"#utility.yul\":500:527   */\n      mstore\n        /* \"#utility.yul\":349:533   */\n      pop\n        /* \"#utility.yul\":287:533   */\n      pop\n      pop\n      pop\n      jump\t// out\n        /* \"#utility.yul\":539:641   */\n    tag_27:\n        /* \"#utility.yul\":580:586   */\n      0x00\n        /* \"#utility.yul\":631:633   */\n      0x1f\n        /* \"#utility.yul\":627:634   */\n      not\n        /* \"#utility.yul\":622:624   */\n      0x1f\n        /* \"#utility.yul\":615:620   */\n      dup4\n        /* \"#utility.yul\":611:625   */\n      add\n        /* \"#utility.yul\":607:635   */\n      and\n        /* \"#utility.yul\":597:635   */\n      swap1\n      pop\n        /* \"#utility.yul\":539:641   */\n      swap2\n      swap1\n      pop\n      jump\t// out\n        /* \"#utility.yul\":647:1024   */\n    tag_28:\n        /* \"#utility.yul\":735:738   */\n      0x00\n        /* \"#utility.yul\":763:802   */\n      tag_62\n        /* \"#utility.yul\":796:801   */\n      dup3\n        /* \"#utility.yul\":763:802   */\n      tag_24\n      jump\t// in\n    tag_62:\n        /* \"#utility.yul\":818:889   */\n      tag_63\n        /* \"#utility.yul\":882:888   */\n      dup2\n        /* \"#utility.yul\":877:880   */\n      dup6\n        /* \"#utility.yul\":818:889   */\n      tag_25\n      jump\t// in\n    tag_63:\n        /* \"#utility.yul\":811:889   */\n      swap4\n      pop\n        /* \"#utility.yul\":898:963   */\n      tag_64\n        /* \"#utility.yul\":956:962   */\n      dup2\n        /* \"#utility.yul\":951:954   */\n      dup6\n        /* \"#utility.yul\":944:948   */\n      0x20\n        /* \"#utility.yul\":937:942   */\n      dup7\n        /* \"#utility.yul\":933:949   */\n      add\n        /* \"#utility.yul\":898:963   */\n      tag_26\n      jump\t// in\n    tag_64:\n        /* \"#utility.yul\":988:1017   */\n      tag_65\n        /* \"#utility.yul\":1010:1016   */\n      dup2\n        /* \"#utility.yul\":988:1017   */\n      tag_27\n      jump\t// in\n    tag_65:\n        /* \"#utility.yul\":983:986   */\n      dup5\n        /* \"#utility.yul\":979:1018   */\n      add\n        /* \"#utility.yul\":972:1018   */\n      swap2\n      pop\n        /* \"#utility.yul\":739:1024   */\n      pop\n        /* \"#utility.yul\":647:1024   */\n      swap3\n      swap2\n      pop\n      pop\n      jump\t// out\n        /* \"#utility.yul\":1030:1107   */\n    tag_29:\n        /* \"#utility.yul\":1067:1074   */\n      0x00\n        /* \"#utility.yul\":1096:1101   */\n      dup2\n        /* \"#utility.yul\":1085:1101   */\n      swap1\n      pop\n        /* \"#utility.yul\":1030:1107   */\n      swap2\n      swap1\n      pop\n      jump\t// out\n        /* \"#utility.yul\":1113:1231   */\n    tag_30:\n        /* \"#utility.yul\":1200:1224   */\n      tag_68\n        /* \"#utility.yul\":1218:1223   */\n      dup2\n        /* \"#utility.yul\":1200:1224   */\n      tag_29\n      jump\t// in\n    tag_68:\n        /* \"#utility.yul\":1195:1198   */\n      dup3\n        /* \"#utility.yul\":1188:1225   */\n      mstore\n        /* \"#utility.yul\":1113:1231   */\n      pop\n      pop\n      jump\t// out\n        /* \"#utility.yul\":1237:1660   */\n    tag_7:\n        /* \"#utility.yul\":1378:1382   */\n      0x00\n        /* \"#utility.yul\":1416:1418   */\n      0x40\n        /* \"#utility.yul\":1405:1414   */\n      dup3\n        /* \"#utility.yul\":1401:1419   */\n      add\n        /* \"#utility.yul\":1393:1419   */\n      swap1\n      pop\n        /* \"#utility.yul\":1465:1474   */\n      dup2\n        /* \"#utility.yul\":1459:1463   */\n      dup2\n        /* \"#utility.yul\":1455:1475   */\n      sub\n        /* \"#utility.yul\":1451:1452   */\n      0x00\n        /* \"#utility.yul\":1440:1449   */\n      dup4\n        /* \"#utility.yul\":1436:1453   */\n      add\n        /* \"#utility.yul\":1429:1476   */\n      mstore\n        /* \"#utility.yul\":1493:1571   */\n      tag_70\n        /* \"#utility.yul\":1566:1570   */\n      dup2\n        /* \"#utility.yul\":1557:1563   */\n      dup6\n        /* \"#utility.yul\":1493:1571   */\n      tag_28\n      jump\t// in\n    tag_70:\n        /* \"#utility.yul\":1485:1571   */\n      swap1\n      pop\n        /* \"#utility.yul\":1581:1653   */\n      tag_71\n        /* \"#utility.yul\":1649:1651   */\n      0x20\n        /* \"#utility.yul\":1638:1647   */\n      dup4\n        /* \"#utility.yul\":1634:1652   */\n      add\n        /* \"#utility.yul\":1625:1631   */\n      dup5\n        /* \"#utility.yul\":1581:1653   */\n      tag_30\n      jump\t// in\n    tag_71:\n        /* \"#utility.yul\":1237:1660   */\n      swap4\n      swap3\n      pop\n      pop\n      pop\n      jump\t// out\n        /* \"#utility.yul\":1666:1752   */\n    tag_31:\n        /* \"#utility.yul\":1712:1719   */\n      0x00\n        /* \"#utility.yul\":1741:1746   */\n      dup2\n        /* \"#utility.yul\":1730:1746   */\n      swap1\n      pop\n        /* \"#utility.yul\":1666:1752   */\n      swap2\n      swap1\n      pop\n      jump\t// out\n        /* \"#utility.yul\":1758:1818   */\n    tag_32:\n        /* \"#utility.yul\":1786:1789   */\n      0x00\n        /* \"#utility.yul\":1807:1812   */\n      dup2\n        /* \"#utility.yul\":1800:1812   */\n      swap1\n      pop\n        /* \"#utility.yul\":1758:1818   */\n      swap2\n      swap1\n      pop\n      jump\t// out\n        /* \"#utility.yul\":1824:1984   */\n    tag_33:\n        /* \"#utility.yul\":1883:1892   */\n      0x00\n        /* \"#utility.yul\":1916:1978   */\n      tag_75\n        /* \"#utility.yul\":1934:1977   */\n      tag_76\n        /* \"#utility.yul\":1943:1976   */\n      tag_77\n        /* \"#utility.yul\":1970:1975   */\n      dup5\n        /* \"#utility.yul\":1943:1976   */\n      tag_31\n      jump\t// in\n    tag_77:\n        /* \"#utility.yul\":1934:1977   */\n      tag_32\n      jump\t// in\n    tag_76:\n        /* \"#utility.yul\":1916:1978   */\n      tag_29\n      jump\t// in\n    tag_75:\n        /* \"#utility.yul\":1903:1978   */\n      swap1\n      pop\n        /* \"#utility.yul\":1824:1984   */\n      swap2\n      swap1\n      pop\n      jump\t// out\n        /* \"#utility.yul\":1990:2139   */\n    tag_34:\n        /* \"#utility.yul\":2086:2132   */\n      tag_79\n        /* \"#utility.yul\":2126:2131   */\n      dup2\n        /* \"#utility.yul\":2086:2132   */\n      tag_33\n      jump\t// in\n    tag_79:\n        /* \"#utility.yul\":2081:2084   */\n      dup3\n        /* \"#utility.yul\":2074:2133   */\n      mstore\n        /* \"#utility.yul\":1990:2139   */\n      pop\n      pop\n      jump\t// out\n        /* \"#utility.yul\":2145:2231   */\n    tag_35:\n        /* \"#utility.yul\":2191:2198   */\n      0x00\n        /* \"#utility.yul\":2220:2225   */\n      dup2\n        /* \"#utility.yul\":2209:2225   */\n      swap1\n      pop\n        /* \"#utility.yul\":2145:2231   */\n      swap2\n      swap1\n      pop\n      jump\t// out\n        /* \"#utility.yul\":2237:2397   */\n    tag_36:\n        /* \"#utility.yul\":2296:2305   */\n      0x00\n        /* \"#utility.yul\":2329:2391   */\n      tag_82\n        /* \"#utility.yul\":2347:2390   */\n      tag_83\n        /* \"#utility.yul\":2356:2389   */\n      tag_84\n        /* \"#utility.yul\":2383:2388   */\n      dup5\n        /* \"#utility.yul\":2356:2389   */\n      tag_35\n      jump\t// in\n    tag_84:\n        /* \"#utility.yul\":2347:2390   */\n      tag_32\n      jump\t// in\n    tag_83:\n        /* \"#utility.yul\":2329:2391   */\n      tag_29\n      jump\t// in\n    tag_82:\n        /* \"#utility.yul\":2316:2391   */\n      swap1\n      pop\n        /* \"#utility.yul\":2237:2397   */\n      swap2\n      swap1\n      pop\n      jump\t// out\n        /* \"#utility.yul\":2403:2552   */\n    tag_37:\n        /* \"#utility.yul\":2499:2545   */\n      tag_86\n        /* \"#utility.yul\":2539:2544   */\n      dup2\n        /* \"#utility.yul\":2499:2545   */\n      tag_36\n      jump\t// in\n    tag_86:\n        /* \"#utility.yul\":2494:2497   */\n      dup3\n        /* \"#utility.yul\":2487:2546   */\n      mstore\n        /* \"#utility.yul\":2403:2552   */\n      pop\n      pop\n      jump\t// out\n        /* \"#utility.yul\":2558:2926   */\n    tag_10:\n        /* \"#utility.yul\":2697:2701   */\n      0x00\n        /* \"#utility.yul\":2735:2737   */\n      0x40\n        /* \"#utility.yul\":2724:2733   */\n      dup3\n        /* \"#utility.yul\":2720:2738   */\n      add\n        /* \"#utility.yul\":2712:2738   */\n      swap1\n      pop\n        /* \"#utility.yul\":2748:2828   */\n      tag_88\n        /* \"#utility.yul\":2825:2826   */\n      0x00\n        /* \"#utility.yul\":2814:2823   */\n      dup4\n        /* \"#utility.yul\":2810:2827   */\n      add\n        /* \"#utility.yul\":2801:2807   */\n      dup6\n        /* \"#utility.yul\":2748:2828   */\n      tag_34\n      jump\t// in\n    tag_88:\n        /* \"#utility.yul\":2838:2919   */\n      tag_89\n        /* \"#utility.yul\":2915:2917   */\n      0x20\n        /* \"#utility.yul\":2904:2913   */\n      dup4\n        /* \"#utility.yul\":2900:2918   */\n      add\n        /* \"#utility.yul\":2891:2897   */\n      dup5\n        /* \"#utility.yul\":2838:2919   */\n      tag_37\n      jump\t// in\n    tag_89:\n        /* \"#utility.yul\":2558:2926   */\n      swap4\n      swap3\n      pop\n      pop\n      pop\n      jump\t// out\n        /* \"#utility.yul\":2932:3095   */\n    tag_38:\n        /* \"#utility.yul\":3072:3087   */\n      0x4765656b73466f724765656b7300000000000000000000000000000000000000\n        /* \"#utility.yul\":3068:3069   */\n      0x00\n        /* \"#utility.yul\":3060:3066   */\n      dup3\n        /* \"#utility.yul\":3056:3070   */\n      add\n        /* \"#utility.yul\":3049:3088   */\n      mstore\n        /* \"#utility.yul\":2932:3095   */\n      pop\n      jump\t// out\n        /* \"#utility.yul\":3101:3467   */\n    tag_39:\n        /* \"#utility.yul\":3243:3246   */\n      0x00\n        /* \"#utility.yul\":3264:3331   */\n      tag_92\n        /* \"#utility.yul\":3328:3330   */\n      0x0d\n        /* \"#utility.yul\":3323:3326   */\n      dup4\n        /* \"#utility.yul\":3264:3331   */\n      tag_25\n      jump\t// in\n    tag_92:\n        /* \"#utility.yul\":3257:3331   */\n      swap2\n      pop\n        /* \"#utility.yul\":3340:3433   */\n      tag_93\n        /* \"#utility.yul\":3429:3432   */\n      dup3\n        /* \"#utility.yul\":3340:3433   */\n      tag_38\n      jump\t// in\n    tag_93:\n        /* \"#utility.yul\":3458:3460   */\n      0x20\n        /* \"#utility.yul\":3453:3456   */\n      dup3\n        /* \"#utility.yul\":3449:3461   */\n      add\n        /* \"#utility.yul\":3442:3461   */\n      swap1\n      pop\n        /* \"#utility.yul\":3101:3467   */\n      swap2\n      swap1\n      pop\n      jump\t// out\n        /* \"#utility.yul\":3473:3892   */\n    tag_15:\n        /* \"#utility.yul\":3639:3643   */\n      0x00\n        /* \"#utility.yul\":3677:3679   */\n      0x20\n        /* \"#utility.yul\":3666:3675   */\n      dup3\n        /* \"#utility.yul\":3662:3680   */\n      add\n        /* \"#utility.yul\":3654:3680   */\n      swap1\n      pop\n        /* \"#utility.yul\":3726:3735   */\n      dup2\n        /* \"#utility.yul\":3720:3724   */\n      dup2\n        /* \"#utility.yul\":3716:3736   */\n      sub\n        /* \"#utility.yul\":3712:3713   */\n      0x00\n        /* \"#utility.yul\":3701:3710   */\n      dup4\n        /* \"#utility.yul\":3697:3714   */\n      add\n        /* \"#utility.yul\":3690:3737   */\n      mstore\n        /* \"#utility.yul\":3754:3885   */\n      tag_95\n        /* \"#utility.yul\":3880:3884   */\n      dup2\n        /* \"#utility.yul\":3754:3885   */\n      tag_39\n      jump\t// in\n    tag_95:\n        /* \"#utility.yul\":3746:3885   */\n      swap1\n      pop\n        /* \"#utility.yul\":3473:3892   */\n      swap2\n      swap1\n      pop\n      jump\t// out\n        /* \"#utility.yul\":3898:3973   */\n    tag_40:\n        /* \"#utility.yul\":3931:3937   */\n      0x00\n        /* \"#utility.yul\":3964:3966   */\n      0x40\n        /* \"#utility.yul\":3958:3967   */\n      mload\n        /* \"#utility.yul\":3948:3967   */\n      swap1\n      pop\n        /* \"#utility.yul\":3898:3973   */\n      swap1\n      jump\t// out\n        /* \"#utility.yul\":3979:4096   */\n    tag_41:\n        /* \"#utility.yul\":4088:4089   */\n      0x00\n        /* \"#utility.yul\":4085:4086   */\n      dup1\n        /* \"#utility.yul\":4078:4090   */\n      revert\n        /* \"#utility.yul\":4102:4219   */\n    tag_42:\n        /* \"#utility.yul\":4211:4212   */\n      0x00\n        /* \"#utility.yul\":4208:4209   */\n      dup1\n        /* \"#utility.yul\":4201:4213   */\n      revert\n        /* \"#utility.yul\":4225:4342   */\n    tag_43:\n        /* \"#utility.yul\":4334:4335   */\n      0x00\n        /* \"#utility.yul\":4331:4332   */\n      dup1\n        /* \"#utility.yul\":4324:4336   */\n      revert\n        /* \"#utility.yul\":4348:4465   */\n    tag_44:\n        /* \"#utility.yul\":4457:4458   */\n      0x00\n        /* \"#utility.yul\":4454:4455   */\n      dup1\n        /* \"#utility.yul\":4447:4459   */\n      revert\n        /* \"#utility.yul\":4471:4651   */\n    tag_45:\n        /* \"#utility.yul\":4519:4596   */\n      0x4e487b7100000000000000000000000000000000000000000000000000000000\n        /* \"#utility.yul\":4516:4517   */\n      0x00\n        /* \"#utility.yul\":4509:4597   */\n      mstore\n        /* \"#utility.yul\":4616:4620   */\n      0x41\n        /* \"#utility.yul\":4613:4614   */\n      0x04\n        /* \"#utility.yul\":4606:4621   */\n      mstore\n        /* \"#utility.yul\":4640:4644   */\n      0x24\n        /* \"#utility.yul\":4637:4638   */\n      0x00\n        /* \"#utility.yul\":4630:4645   */\n      revert\n        /* \"#utility.yul\":4657:4938   */\n    tag_46:\n        /* \"#utility.yul\":4740:4767   */\n      tag_103\n        /* \"#utility.yul\":4762:4766   */\n      dup3\n        /* \"#utility.yul\":4740:4767   */\n      tag_27\n      jump\t// in\n    tag_103:\n        /* \"#utility.yul\":4732:4738   */\n      dup2\n        /* \"#utility.yul\":4728:4768   */\n      add\n        /* \"#utility.yul\":4870:4876   */\n      dup2\n        /* \"#utility.yul\":4858:4868   */\n      dup2\n        /* \"#utility.yul\":4855:4877   */\n      lt\n        /* \"#utility.yul\":4834:4852   */\n      0xffffffffffffffff\n        /* \"#utility.yul\":4822:4832   */\n      dup3\n        /* \"#utility.yul\":4819:4853   */\n      gt\n        /* \"#utility.yul\":4816:4878   */\n      or\n        /* \"#utility.yul\":4813:4901   */\n      iszero\n      tag_104\n      jumpi\n        /* \"#utility.yul\":4881:4899   */\n      tag_105\n      tag_45\n      jump\t// in\n    tag_105:\n        /* \"#utility.yul\":4813:4901   */\n    tag_104:\n        /* \"#utility.yul\":4921:4931   */\n      dup1\n        /* \"#utility.yul\":4917:4919   */\n      0x40\n        /* \"#utility.yul\":4910:4932   */\n      mstore\n        /* \"#utility.yul\":4700:4938   */\n      pop\n        /* \"#utility.yul\":4657:4938   */\n      pop\n      pop\n      jump\t// out\n        /* \"#utility.yul\":4944:5073   */\n    tag_47:\n        /* \"#utility.yul\":4978:4984   */\n      0x00\n        /* \"#utility.yul\":5005:5025   */\n      tag_107\n      tag_40\n      jump\t// in\n    tag_107:\n        /* \"#utility.yul\":4995:5025   */\n      swap1\n      pop\n        /* \"#utility.yul\":5034:5067   */\n      tag_108\n        /* \"#utility.yul\":5062:5066   */\n      dup3\n        /* \"#utility.yul\":5054:5060   */\n      dup3\n        /* \"#utility.yul\":5034:5067   */\n      tag_46\n      jump\t// in\n    tag_108:\n        /* \"#utility.yul\":4944:5073   */\n      swap2\n      swap1\n      pop\n      jump\t// out\n        /* \"#utility.yul\":5079:5387   */\n    tag_48:\n        /* \"#utility.yul\":5141:5145   */\n      0x00\n        /* \"#utility.yul\":5231:5249   */\n      0xffffffffffffffff\n        /* \"#utility.yul\":5223:5229   */\n      dup3\n        /* \"#utility.yul\":5220:5250   */\n      gt\n        /* \"#utility.yul\":5217:5273   */\n      iszero\n      tag_110\n      jumpi\n        /* \"#utility.yul\":5253:5271   */\n      tag_111\n      tag_45\n      jump\t// in\n    tag_111:\n        /* \"#utility.yul\":5217:5273   */\n    tag_110:\n        /* \"#utility.yul\":5291:5320   */\n      tag_112\n        /* \"#utility.yul\":5313:5319   */\n      dup3\n        /* \"#utility.yul\":5291:5320   */\n      tag_27\n      jump\t// in\n    tag_112:\n        /* \"#utility.yul\":5283:5320   */\n      swap1\n      pop\n        /* \"#utility.yul\":5375:5379   */\n      0x20\n        /* \"#utility.yul\":5369:5373   */\n      dup2\n        /* \"#utility.yul\":5365:5380   */\n      add\n        /* \"#utility.yul\":5357:5380   */\n      swap1\n      pop\n        /* \"#utility.yul\":5079:5387   */\n      swap2\n      swap1\n      pop\n      jump\t// out\n        /* \"#utility.yul\":5393:5827   */\n    tag_49:\n        /* \"#utility.yul\":5482:5487   */\n      0x00\n        /* \"#utility.yul\":5507:5573   */\n      tag_114\n        /* \"#utility.yul\":5523:5572   */\n      tag_115\n        /* \"#utility.yul\":5565:5571   */\n      dup5\n        /* \"#utility.yul\":5523:5572   */\n      tag_48\n      jump\t// in\n    tag_115:\n        /* \"#utility.yul\":5507:5573   */\n      tag_47\n      jump\t// in\n    tag_114:\n        /* \"#utility.yul\":5498:5573   */\n      swap1\n      pop\n        /* \"#utility.yul\":5596:5602   */\n      dup3\n        /* \"#utility.yul\":5589:5594   */\n      dup2\n        /* \"#utility.yul\":5582:5603   */\n      mstore\n        /* \"#utility.yul\":5634:5638   */\n      0x20\n        /* \"#utility.yul\":5627:5632   */\n      dup2\n        /* \"#utility.yul\":5623:5639   */\n      add\n        /* \"#utility.yul\":5672:5675   */\n      dup5\n        /* \"#utility.yul\":5663:5669   */\n      dup5\n        /* \"#utility.yul\":5658:5661   */\n      dup5\n        /* \"#utility.yul\":5654:5670   */\n      add\n        /* \"#utility.yul\":5651:5676   */\n      gt\n        /* \"#utility.yul\":5648:5760   */\n      iszero\n      tag_116\n      jumpi\n        /* \"#utility.yul\":5679:5758   */\n      tag_117\n      tag_44\n      jump\t// in\n    tag_117:\n        /* \"#utility.yul\":5648:5760   */\n    tag_116:\n        /* \"#utility.yul\":5769:5821   */\n      tag_118\n        /* \"#utility.yul\":5814:5820   */\n      dup5\n        /* \"#utility.yul\":5809:5812   */\n      dup3\n        /* \"#utility.yul\":5804:5807   */\n      dup6\n        /* \"#utility.yul\":5769:5821   */\n      tag_26\n      jump\t// in\n    tag_118:\n        /* \"#utility.yul\":5488:5827   */\n      pop\n        /* \"#utility.yul\":5393:5827   */\n      swap4\n      swap3\n      pop\n      pop\n      pop\n      jump\t// out\n        /* \"#utility.yul\":5847:6202   */\n    tag_50:\n        /* \"#utility.yul\":5914:5919   */\n      0x00\n        /* \"#utility.yul\":5963:5966   */\n      dup3\n        /* \"#utility.yul\":5956:5960   */\n      0x1f\n        /* \"#utility.yul\":5948:5954   */\n      dup4\n        /* \"#utility.yul\":5944:5961   */\n      add\n        /* \"#utility.yul\":5940:5967   */\n      slt\n        /* \"#utility.yul\":5930:6052   */\n      tag_120\n      jumpi\n        /* \"#utility.yul\":5971:6050   */\n      tag_121\n      tag_43\n      jump\t// in\n    tag_121:\n        /* \"#utility.yul\":5930:6052   */\n    tag_120:\n        /* \"#utility.yul\":6081:6087   */\n      dup2\n        /* \"#utility.yul\":6075:6088   */\n      mload\n        /* \"#utility.yul\":6106:6196   */\n      tag_122\n        /* \"#utility.yul\":6192:6195   */\n      dup5\n        /* \"#utility.yul\":6184:6190   */\n      dup3\n        /* \"#utility.yul\":6177:6181   */\n      0x20\n        /* \"#utility.yul\":6169:6175   */\n      dup7\n        /* \"#utility.yul\":6165:6182   */\n      add\n        /* \"#utility.yul\":6106:6196   */\n      tag_49\n      jump\t// in\n    tag_122:\n        /* \"#utility.yul\":6097:6196   */\n      swap2\n      pop\n        /* \"#utility.yul\":5920:6202   */\n      pop\n        /* \"#utility.yul\":5847:6202   */\n      swap3\n      swap2\n      pop\n      pop\n      jump\t// out\n        /* \"#utility.yul\":6208:6732   */\n    tag_19:\n        /* \"#utility.yul\":6288:6294   */\n      0x00\n        /* \"#utility.yul\":6337:6339   */\n      0x20\n        /* \"#utility.yul\":6325:6334   */\n      dup3\n        /* \"#utility.yul\":6316:6323   */\n      dup5\n        /* \"#utility.yul\":6312:6335   */\n      sub\n        /* \"#utility.yul\":6308:6340   */\n      slt\n        /* \"#utility.yul\":6305:6424   */\n      iszero\n      tag_124\n      jumpi\n        /* \"#utility.yul\":6343:6422   */\n      tag_125\n      tag_41\n      jump\t// in\n    tag_125:\n        /* \"#utility.yul\":6305:6424   */\n    tag_124:\n        /* \"#utility.yul\":6484:6485   */\n      0x00\n        /* \"#utility.yul\":6473:6482   */\n      dup3\n        /* \"#utility.yul\":6469:6486   */\n      add\n        /* \"#utility.yul\":6463:6487   */\n      mload\n        /* \"#utility.yul\":6514:6532   */\n      0xffffffffffffffff\n        /* \"#utility.yul\":6506:6512   */\n      dup2\n        /* \"#utility.yul\":6503:6533   */\n      gt\n        /* \"#utility.yul\":6500:6617   */\n      iszero\n      tag_126\n      jumpi\n        /* \"#utility.yul\":6536:6615   */\n      tag_127\n      tag_42\n      jump\t// in\n    tag_127:\n        /* \"#utility.yul\":6500:6617   */\n    tag_126:\n        /* \"#utility.yul\":6641:6715   */\n      tag_128\n        /* \"#utility.yul\":6707:6714   */\n      dup5\n        /* \"#utility.yul\":6698:6704   */\n      dup3\n        /* \"#utility.yul\":6687:6696   */\n      dup6\n        /* \"#utility.yul\":6683:6705   */\n      add\n        /* \"#utility.yul\":6641:6715   */\n      tag_50\n      jump\t// in\n    tag_128:\n        /* \"#utility.yul\":6631:6715   */\n      swap2\n      pop\n        /* \"#utility.yul\":6434:6725   */\n      pop\n        /* \"#utility.yul\":6208:6732   */\n      swap3\n      swap2\n      pop\n      pop\n      jump\t// out\n        /* \"#utility.yul\":6738:6860   */\n    tag_51:\n        /* \"#utility.yul\":6811:6835   */\n      tag_130\n        /* \"#utility.yul\":6829:6834   */\n      dup2\n        /* \"#utility.yul\":6811:6835   */\n      tag_29\n      jump\t// in\n    tag_130:\n        /* \"#utility.yul\":6804:6809   */\n      dup2\n        /* \"#utility.yul\":6801:6836   */\n      eq\n        /* \"#utility.yul\":6791:6854   */\n      tag_131\n      jumpi\n        /* \"#utility.yul\":6850:6851   */\n      0x00\n        /* \"#utility.yul\":6847:6848   */\n      dup1\n        /* \"#utility.yul\":6840:6852   */\n      revert\n        /* \"#utility.yul\":6791:6854   */\n    tag_131:\n        /* \"#utility.yul\":6738:6860   */\n      pop\n      jump\t// out\n        /* \"#utility.yul\":6866:7009   */\n    tag_52:\n        /* \"#utility.yul\":6923:6928   */\n      0x00\n        /* \"#utility.yul\":6954:6960   */\n      dup2\n        /* \"#utility.yul\":6948:6961   */\n      mload\n        /* \"#utility.yul\":6939:6961   */\n      swap1\n      pop\n        /* \"#utility.yul\":6970:7003   */\n      tag_133\n        /* \"#utility.yul\":6997:7002   */\n      dup2\n        /* \"#utility.yul\":6970:7003   */\n      tag_51\n      jump\t// in\n    tag_133:\n        /* \"#utility.yul\":6866:7009   */\n      swap3\n      swap2\n      pop\n      pop\n      jump\t// out\n        /* \"#utility.yul\":7015:7366   */\n    tag_23:\n        /* \"#utility.yul\":7085:7091   */\n      0x00\n        /* \"#utility.yul\":7134:7136   */\n      0x20\n        /* \"#utility.yul\":7122:7131   */\n      dup3\n        /* \"#utility.yul\":7113:7120   */\n      dup5\n        /* \"#utility.yul\":7109:7132   */\n      sub\n        /* \"#utility.yul\":7105:7137   */\n      slt\n        /* \"#utility.yul\":7102:7221   */\n      iszero\n      tag_135\n      jumpi\n        /* \"#utility.yul\":7140:7219   */\n      tag_136\n      tag_41\n      jump\t// in\n    tag_136:\n        /* \"#utility.yul\":7102:7221   */\n    tag_135:\n        /* \"#utility.yul\":7260:7261   */\n      0x00\n        /* \"#utility.yul\":7285:7349   */\n      tag_137\n        /* \"#utility.yul\":7341:7348   */\n      dup5\n        /* \"#utility.yul\":7332:7338   */\n      dup3\n        /* \"#utility.yul\":7321:7330   */\n      dup6\n        /* \"#utility.yul\":7317:7339   */\n      add\n        /* \"#utility.yul\":7285:7349   */\n      tag_52\n      jump\t// in\n    tag_137:\n        /* \"#utility.yul\":7275:7349   */\n      swap2\n      pop\n        /* \"#utility.yul\":7231:7359   */\n      pop\n        /* \"#utility.yul\":7015:7366   */\n      swap3\n      swap2\n      pop\n      pop\n      jump\t// out\n\n    auxdata: 0xa26469706673582212205d69c637158e0579a65e1e478c3f0f9328f249c907c210dfad1c41d28441f76264736f6c63430008130033\n}\n\nsub_1: assembly {\n        /* \"contracts/Abstruct_Contract.sol\":459:1029  contract DerivedContract is AbstractContract {... */\n      mstore(0x40, 0x80)\n      callvalue\n      dup1\n      iszero\n      tag_1\n      jumpi\n      0x00\n      dup1\n      revert\n    tag_1:\n      pop\n      dataSize(sub_0)\n      dup1\n      dataOffset(sub_0)\n      0x00\n      codecopy\n      0x00\n      return\n    stop\n\n    sub_0: assembly {\n            /* \"contracts/Abstruct_Contract.sol\":459:1029  contract DerivedContract is AbstractContract {... */\n          mstore(0x40, 0x80)\n          callvalue\n          dup1\n          iszero\n          tag_1\n          jumpi\n          0x00\n          dup1\n          revert\n        tag_1:\n          pop\n          jumpi(tag_2, lt(calldatasize, 0x04))\n          shr(0xe0, calldataload(0x00))\n          dup1\n          0x4f2be91f\n          eq\n          tag_3\n          jumpi\n          dup1\n          0x7b8d56e3\n          eq\n          tag_4\n          jumpi\n          dup1\n          0xe449c52a\n          eq\n          tag_5\n          jumpi\n        tag_2:\n          0x00\n          dup1\n          revert\n            /* \"contracts/Abstruct_Contract.sol\":936:1027  function add() public view override returns (uint256) {... */\n        tag_3:\n          tag_6\n          tag_7\n          jump\t// in\n        tag_6:\n          mload(0x40)\n          tag_8\n          swap2\n          swap1\n          tag_9\n          jump\t// in\n        tag_8:\n          mload(0x40)\n          dup1\n          swap2\n          sub\n          swap1\n          return\n            /* \"contracts/Abstruct_Contract.sol\":819:930  function setValue(uint256 _in1, uint256 _in2) public override {... */\n        tag_4:\n          tag_10\n          0x04\n          dup1\n          calldatasize\n          sub\n          dup2\n          add\n          swap1\n          tag_11\n          swap2\n          swap1\n          tag_12\n          jump\t// in\n        tag_11:\n          tag_13\n          jump\t// in\n        tag_10:\n          stop\n            /* \"contracts/Abstruct_Contract.sol\":664:813  function getStr(string memory _strIn)... */\n        tag_5:\n          tag_14\n          0x04\n          dup1\n          calldatasize\n          sub\n          dup2\n          add\n          swap1\n          tag_15\n          swap2\n          swap1\n          tag_16\n          jump\t// in\n        tag_15:\n          tag_17\n          jump\t// in\n        tag_14:\n          mload(0x40)\n          tag_18\n          swap2\n          swap1\n          tag_19\n          jump\t// in\n        tag_18:\n          mload(0x40)\n          dup1\n          swap2\n          sub\n          swap1\n          return\n            /* \"contracts/Abstruct_Contract.sol\":936:1027  function add() public view override returns (uint256) {... */\n        tag_7:\n            /* \"contracts/Abstruct_Contract.sol\":981:988  uint256 */\n          0x00\n            /* \"contracts/Abstruct_Contract.sol\":1015:1019  num1 */\n          dup1\n          sload\n            /* \"contracts/Abstruct_Contract.sol\":1008:1012  num2 */\n          sload(0x01)\n            /* \"contracts/Abstruct_Contract.sol\":1008:1019  num2 + num1 */\n          tag_21\n          swap2\n          swap1\n          tag_22\n          jump\t// in\n        tag_21:\n            /* \"contracts/Abstruct_Contract.sol\":1000:1020  return (num2 + num1) */\n          swap1\n          pop\n            /* \"contracts/Abstruct_Contract.sol\":936:1027  function add() public view override returns (uint256) {... */\n          swap1\n          jump\t// out\n            /* \"contracts/Abstruct_Contract.sol\":819:930  function setValue(uint256 _in1, uint256 _in2) public override {... */\n        tag_13:\n            /* \"contracts/Abstruct_Contract.sol\":898:902  _in1 */\n          dup2\n            /* \"contracts/Abstruct_Contract.sol\":891:895  num1 */\n          0x00\n            /* \"contracts/Abstruct_Contract.sol\":891:902  num1 = _in1 */\n          dup2\n          swap1\n          sstore\n          pop\n            /* \"contracts/Abstruct_Contract.sol\":919:923  _in2 */\n          dup1\n            /* \"contracts/Abstruct_Contract.sol\":912:916  num2 */\n          0x01\n            /* \"contracts/Abstruct_Contract.sol\":912:923  num2 = _in2 */\n          dup2\n          swap1\n          sstore\n          pop\n            /* \"contracts/Abstruct_Contract.sol\":819:930  function setValue(uint256 _in1, uint256 _in2) public override {... */\n          pop\n          pop\n          jump\t// out\n            /* \"contracts/Abstruct_Contract.sol\":664:813  function getStr(string memory _strIn)... */\n        tag_17:\n            /* \"contracts/Abstruct_Contract.sol\":764:777  string memory */\n          0x60\n            /* \"contracts/Abstruct_Contract.sol\":800:806  _strIn */\n          dup2\n            /* \"contracts/Abstruct_Contract.sol\":793:806  return _strIn */\n          swap1\n          pop\n            /* \"contracts/Abstruct_Contract.sol\":664:813  function getStr(string memory _strIn)... */\n          swap2\n          swap1\n          pop\n          jump\t// out\n            /* \"#utility.yul\":7:84   */\n        tag_25:\n            /* \"#utility.yul\":44:51   */\n          0x00\n            /* \"#utility.yul\":73:78   */\n          dup2\n            /* \"#utility.yul\":62:78   */\n          swap1\n          pop\n            /* \"#utility.yul\":7:84   */\n          swap2\n          swap1\n          pop\n          jump\t// out\n            /* \"#utility.yul\":90:208   */\n        tag_26:\n            /* \"#utility.yul\":177:201   */\n          tag_50\n            /* \"#utility.yul\":195:200   */\n          dup2\n            /* \"#utility.yul\":177:201   */\n          tag_25\n          jump\t// in\n        tag_50:\n            /* \"#utility.yul\":172:175   */\n          dup3\n            /* \"#utility.yul\":165:202   */\n          mstore\n            /* \"#utility.yul\":90:208   */\n          pop\n          pop\n          jump\t// out\n            /* \"#utility.yul\":214:436   */\n        tag_9:\n            /* \"#utility.yul\":307:311   */\n          0x00\n            /* \"#utility.yul\":345:347   */\n          0x20\n            /* \"#utility.yul\":334:343   */\n          dup3\n            /* \"#utility.yul\":330:348   */\n          add\n            /* \"#utility.yul\":322:348   */\n          swap1\n          pop\n            /* \"#utility.yul\":358:429   */\n          tag_52\n            /* \"#utility.yul\":426:427   */\n          0x00\n            /* \"#utility.yul\":415:424   */\n          dup4\n            /* \"#utility.yul\":411:428   */\n          add\n            /* \"#utility.yul\":402:408   */\n          dup5\n            /* \"#utility.yul\":358:429   */\n          tag_26\n          jump\t// in\n        tag_52:\n            /* \"#utility.yul\":214:436   */\n          swap3\n          swap2\n          pop\n          pop\n          jump\t// out\n            /* \"#utility.yul\":442:517   */\n        tag_27:\n            /* \"#utility.yul\":475:481   */\n          0x00\n            /* \"#utility.yul\":508:510   */\n          0x40\n            /* \"#utility.yul\":502:511   */\n          mload\n            /* \"#utility.yul\":492:511   */\n          swap1\n          pop\n            /* \"#utility.yul\":442:517   */\n          swap1\n          jump\t// out\n            /* \"#utility.yul\":523:640   */\n        tag_28:\n            /* \"#utility.yul\":632:633   */\n          0x00\n            /* \"#utility.yul\":629:630   */\n          dup1\n            /* \"#utility.yul\":622:634   */\n          revert\n            /* \"#utility.yul\":646:763   */\n        tag_29:\n            /* \"#utility.yul\":755:756   */\n          0x00\n            /* \"#utility.yul\":752:753   */\n          dup1\n            /* \"#utility.yul\":745:757   */\n          revert\n            /* \"#utility.yul\":769:891   */\n        tag_30:\n            /* \"#utility.yul\":842:866   */\n          tag_57\n            /* \"#utility.yul\":860:865   */\n          dup2\n            /* \"#utility.yul\":842:866   */\n          tag_25\n          jump\t// in\n        tag_57:\n            /* \"#utility.yul\":835:840   */\n          dup2\n            /* \"#utility.yul\":832:867   */\n          eq\n            /* \"#utility.yul\":822:885   */\n          tag_58\n          jumpi\n            /* \"#utility.yul\":881:882   */\n          0x00\n            /* \"#utility.yul\":878:879   */\n          dup1\n            /* \"#utility.yul\":871:883   */\n          revert\n            /* \"#utility.yul\":822:885   */\n        tag_58:\n            /* \"#utility.yul\":769:891   */\n          pop\n          jump\t// out\n            /* \"#utility.yul\":897:1036   */\n        tag_31:\n            /* \"#utility.yul\":943:948   */\n          0x00\n            /* \"#utility.yul\":981:987   */\n          dup2\n            /* \"#utility.yul\":968:988   */\n          calldataload\n            /* \"#utility.yul\":959:988   */\n          swap1\n          pop\n            /* \"#utility.yul\":997:1030   */\n          tag_60\n            /* \"#utility.yul\":1024:1029   */\n          dup2\n            /* \"#utility.yul\":997:1030   */\n          tag_30\n          jump\t// in\n        tag_60:\n            /* \"#utility.yul\":897:1036   */\n          swap3\n          swap2\n          pop\n          pop\n          jump\t// out\n            /* \"#utility.yul\":1042:1516   */\n        tag_12:\n            /* \"#utility.yul\":1110:1116   */\n          0x00\n            /* \"#utility.yul\":1118:1124   */\n          dup1\n            /* \"#utility.yul\":1167:1169   */\n          0x40\n            /* \"#utility.yul\":1155:1164   */\n          dup4\n            /* \"#utility.yul\":1146:1153   */\n          dup6\n            /* \"#utility.yul\":1142:1165   */\n          sub\n            /* \"#utility.yul\":1138:1170   */\n          slt\n            /* \"#utility.yul\":1135:1254   */\n          iszero\n          tag_62\n          jumpi\n            /* \"#utility.yul\":1173:1252   */\n          tag_63\n          tag_28\n          jump\t// in\n        tag_63:\n            /* \"#utility.yul\":1135:1254   */\n        tag_62:\n            /* \"#utility.yul\":1293:1294   */\n          0x00\n            /* \"#utility.yul\":1318:1371   */\n          tag_64\n            /* \"#utility.yul\":1363:1370   */\n          dup6\n            /* \"#utility.yul\":1354:1360   */\n          dup3\n            /* \"#utility.yul\":1343:1352   */\n          dup7\n            /* \"#utility.yul\":1339:1361   */\n          add\n            /* \"#utility.yul\":1318:1371   */\n          tag_31\n          jump\t// in\n        tag_64:\n            /* \"#utility.yul\":1308:1371   */\n          swap3\n          pop\n            /* \"#utility.yul\":1264:1381   */\n          pop\n            /* \"#utility.yul\":1420:1422   */\n          0x20\n            /* \"#utility.yul\":1446:1499   */\n          tag_65\n            /* \"#utility.yul\":1491:1498   */\n          dup6\n            /* \"#utility.yul\":1482:1488   */\n          dup3\n            /* \"#utility.yul\":1471:1480   */\n          dup7\n            /* \"#utility.yul\":1467:1489   */\n          add\n            /* \"#utility.yul\":1446:1499   */\n          tag_31\n          jump\t// in\n        tag_65:\n            /* \"#utility.yul\":1436:1499   */\n          swap2\n          pop\n            /* \"#utility.yul\":1391:1509   */\n          pop\n            /* \"#utility.yul\":1042:1516   */\n          swap3\n          pop\n          swap3\n          swap1\n          pop\n          jump\t// out\n            /* \"#utility.yul\":1522:1639   */\n        tag_32:\n            /* \"#utility.yul\":1631:1632   */\n          0x00\n            /* \"#utility.yul\":1628:1629   */\n          dup1\n            /* \"#utility.yul\":1621:1633   */\n          revert\n            /* \"#utility.yul\":1645:1762   */\n        tag_33:\n            /* \"#utility.yul\":1754:1755   */\n          0x00\n            /* \"#utility.yul\":1751:1752   */\n          dup1\n            /* \"#utility.yul\":1744:1756   */\n          revert\n            /* \"#utility.yul\":1768:1870   */\n        tag_34:\n            /* \"#utility.yul\":1809:1815   */\n          0x00\n            /* \"#utility.yul\":1860:1862   */\n          0x1f\n            /* \"#utility.yul\":1856:1863   */\n          not\n            /* \"#utility.yul\":1851:1853   */\n          0x1f\n            /* \"#utility.yul\":1844:1849   */\n          dup4\n            /* \"#utility.yul\":1840:1854   */\n          add\n            /* \"#utility.yul\":1836:1864   */\n          and\n            /* \"#utility.yul\":1826:1864   */\n          swap1\n          pop\n            /* \"#utility.yul\":1768:1870   */\n          swap2\n          swap1\n          pop\n          jump\t// out\n            /* \"#utility.yul\":1876:2056   */\n        tag_35:\n            /* \"#utility.yul\":1924:2001   */\n          0x4e487b7100000000000000000000000000000000000000000000000000000000\n            /* \"#utility.yul\":1921:1922   */\n          0x00\n            /* \"#utility.yul\":1914:2002   */\n          mstore\n            /* \"#utility.yul\":2021:2025   */\n          0x41\n            /* \"#utility.yul\":2018:2019   */\n          0x04\n            /* \"#utility.yul\":2011:2026   */\n          mstore\n            /* \"#utility.yul\":2045:2049   */\n          0x24\n            /* \"#utility.yul\":2042:2043   */\n          0x00\n            /* \"#utility.yul\":2035:2050   */\n          revert\n            /* \"#utility.yul\":2062:2343   */\n        tag_36:\n            /* \"#utility.yul\":2145:2172   */\n          tag_71\n            /* \"#utility.yul\":2167:2171   */\n          dup3\n            /* \"#utility.yul\":2145:2172   */\n          tag_34\n          jump\t// in\n        tag_71:\n            /* \"#utility.yul\":2137:2143   */\n          dup2\n            /* \"#utility.yul\":2133:2173   */\n          add\n            /* \"#utility.yul\":2275:2281   */\n          dup2\n            /* \"#utility.yul\":2263:2273   */\n          dup2\n            /* \"#utility.yul\":2260:2282   */\n          lt\n            /* \"#utility.yul\":2239:2257   */\n          0xffffffffffffffff\n            /* \"#utility.yul\":2227:2237   */\n          dup3\n            /* \"#utility.yul\":2224:2258   */\n          gt\n            /* \"#utility.yul\":2221:2283   */\n          or\n            /* \"#utility.yul\":2218:2306   */\n          iszero\n          tag_72\n          jumpi\n            /* \"#utility.yul\":2286:2304   */\n          tag_73\n          tag_35\n          jump\t// in\n        tag_73:\n            /* \"#utility.yul\":2218:2306   */\n        tag_72:\n            /* \"#utility.yul\":2326:2336   */\n          dup1\n            /* \"#utility.yul\":2322:2324   */\n          0x40\n            /* \"#utility.yul\":2315:2337   */\n          mstore\n            /* \"#utility.yul\":2105:2343   */\n          pop\n            /* \"#utility.yul\":2062:2343   */\n          pop\n          pop\n          jump\t// out\n            /* \"#utility.yul\":2349:2478   */\n        tag_37:\n            /* \"#utility.yul\":2383:2389   */\n          0x00\n            /* \"#utility.yul\":2410:2430   */\n          tag_75\n          tag_27\n          jump\t// in\n        tag_75:\n            /* \"#utility.yul\":2400:2430   */\n          swap1\n          pop\n            /* \"#utility.yul\":2439:2472   */\n          tag_76\n            /* \"#utility.yul\":2467:2471   */\n          dup3\n            /* \"#utility.yul\":2459:2465   */\n          dup3\n            /* \"#utility.yul\":2439:2472   */\n          tag_36\n          jump\t// in\n        tag_76:\n            /* \"#utility.yul\":2349:2478   */\n          swap2\n          swap1\n          pop\n          jump\t// out\n            /* \"#utility.yul\":2484:2792   */\n        tag_38:\n            /* \"#utility.yul\":2546:2550   */\n          0x00\n            /* \"#utility.yul\":2636:2654   */\n          0xffffffffffffffff\n            /* \"#utility.yul\":2628:2634   */\n          dup3\n            /* \"#utility.yul\":2625:2655   */\n          gt\n            /* \"#utility.yul\":2622:2678   */\n          iszero\n          tag_78\n          jumpi\n            /* \"#utility.yul\":2658:2676   */\n          tag_79\n          tag_35\n          jump\t// in\n        tag_79:\n            /* \"#utility.yul\":2622:2678   */\n        tag_78:\n            /* \"#utility.yul\":2696:2725   */\n          tag_80\n            /* \"#utility.yul\":2718:2724   */\n          dup3\n            /* \"#utility.yul\":2696:2725   */\n          tag_34\n          jump\t// in\n        tag_80:\n            /* \"#utility.yul\":2688:2725   */\n          swap1\n          pop\n            /* \"#utility.yul\":2780:2784   */\n          0x20\n            /* \"#utility.yul\":2774:2778   */\n          dup2\n            /* \"#utility.yul\":2770:2785   */\n          add\n            /* \"#utility.yul\":2762:2785   */\n          swap1\n          pop\n            /* \"#utility.yul\":2484:2792   */\n          swap2\n          swap1\n          pop\n          jump\t// out\n            /* \"#utility.yul\":2798:2944   */\n        tag_39:\n            /* \"#utility.yul\":2895:2901   */\n          dup3\n            /* \"#utility.yul\":2890:2893   */\n          dup2\n            /* \"#utility.yul\":2885:2888   */\n          dup4\n            /* \"#utility.yul\":2872:2902   */\n          calldatacopy\n            /* \"#utility.yul\":2936:2937   */\n          0x00\n            /* \"#utility.yul\":2927:2933   */\n          dup4\n            /* \"#utility.yul\":2922:2925   */\n          dup4\n            /* \"#utility.yul\":2918:2934   */\n          add\n            /* \"#utility.yul\":2911:2938   */\n          mstore\n            /* \"#utility.yul\":2798:2944   */\n          pop\n          pop\n          pop\n          jump\t// out\n            /* \"#utility.yul\":2950:3375   */\n        tag_40:\n            /* \"#utility.yul\":3028:3033   */\n          0x00\n            /* \"#utility.yul\":3053:3119   */\n          tag_83\n            /* \"#utility.yul\":3069:3118   */\n          tag_84\n            /* \"#utility.yul\":3111:3117   */\n          dup5\n            /* \"#utility.yul\":3069:3118   */\n          tag_38\n          jump\t// in\n        tag_84:\n            /* \"#utility.yul\":3053:3119   */\n          tag_37\n          jump\t// in\n        tag_83:\n            /* \"#utility.yul\":3044:3119   */\n          swap1\n          pop\n            /* \"#utility.yul\":3142:3148   */\n          dup3\n            /* \"#utility.yul\":3135:3140   */\n          dup2\n            /* \"#utility.yul\":3128:3149   */\n          mstore\n            /* \"#utility.yul\":3180:3184   */\n          0x20\n            /* \"#utility.yul\":3173:3178   */\n          dup2\n            /* \"#utility.yul\":3169:3185   */\n          add\n            /* \"#utility.yul\":3218:3221   */\n          dup5\n            /* \"#utility.yul\":3209:3215   */\n          dup5\n            /* \"#utility.yul\":3204:3207   */\n          dup5\n            /* \"#utility.yul\":3200:3216   */\n          add\n            /* \"#utility.yul\":3197:3222   */\n          gt\n            /* \"#utility.yul\":3194:3306   */\n          iszero\n          tag_85\n          jumpi\n            /* \"#utility.yul\":3225:3304   */\n          tag_86\n          tag_33\n          jump\t// in\n        tag_86:\n            /* \"#utility.yul\":3194:3306   */\n        tag_85:\n            /* \"#utility.yul\":3315:3369   */\n          tag_87\n            /* \"#utility.yul\":3362:3368   */\n          dup5\n            /* \"#utility.yul\":3357:3360   */\n          dup3\n            /* \"#utility.yul\":3352:3355   */\n          dup6\n            /* \"#utility.yul\":3315:3369   */\n          tag_39\n          jump\t// in\n        tag_87:\n            /* \"#utility.yul\":3034:3375   */\n          pop\n            /* \"#utility.yul\":2950:3375   */\n          swap4\n          swap3\n          pop\n          pop\n          pop\n          jump\t// out\n            /* \"#utility.yul\":3395:3735   */\n        tag_41:\n            /* \"#utility.yul\":3451:3456   */\n          0x00\n            /* \"#utility.yul\":3500:3503   */\n          dup3\n            /* \"#utility.yul\":3493:3497   */\n          0x1f\n            /* \"#utility.yul\":3485:3491   */\n          dup4\n            /* \"#utility.yul\":3481:3498   */\n          add\n            /* \"#utility.yul\":3477:3504   */\n          slt\n            /* \"#utility.yul\":3467:3589   */\n          tag_89\n          jumpi\n            /* \"#utility.yul\":3508:3587   */\n          tag_90\n          tag_32\n          jump\t// in\n        tag_90:\n            /* \"#utility.yul\":3467:3589   */\n        tag_89:\n            /* \"#utility.yul\":3625:3631   */\n          dup2\n            /* \"#utility.yul\":3612:3632   */\n          calldataload\n            /* \"#utility.yul\":3650:3729   */\n          tag_91\n            /* \"#utility.yul\":3725:3728   */\n          dup5\n            /* \"#utility.yul\":3717:3723   */\n          dup3\n            /* \"#utility.yul\":3710:3714   */\n          0x20\n            /* \"#utility.yul\":3702:3708   */\n          dup7\n            /* \"#utility.yul\":3698:3715   */\n          add\n            /* \"#utility.yul\":3650:3729   */\n          tag_40\n          jump\t// in\n        tag_91:\n            /* \"#utility.yul\":3641:3729   */\n          swap2\n          pop\n            /* \"#utility.yul\":3457:3735   */\n          pop\n            /* \"#utility.yul\":3395:3735   */\n          swap3\n          swap2\n          pop\n          pop\n          jump\t// out\n            /* \"#utility.yul\":3741:4250   */\n        tag_16:\n            /* \"#utility.yul\":3810:3816   */\n          0x00\n            /* \"#utility.yul\":3859:3861   */\n          0x20\n            /* \"#utility.yul\":3847:3856   */\n          dup3\n            /* \"#utility.yul\":3838:3845   */\n          dup5\n            /* \"#utility.yul\":3834:3857   */\n          sub\n            /* \"#utility.yul\":3830:3862   */\n          slt\n            /* \"#utility.yul\":3827:3946   */\n          iszero\n          tag_93\n          jumpi\n            /* \"#utility.yul\":3865:3944   */\n          tag_94\n          tag_28\n          jump\t// in\n        tag_94:\n            /* \"#utility.yul\":3827:3946   */\n        tag_93:\n            /* \"#utility.yul\":4013:4014   */\n          0x00\n            /* \"#utility.yul\":4002:4011   */\n          dup3\n            /* \"#utility.yul\":3998:4015   */\n          add\n            /* \"#utility.yul\":3985:4016   */\n          calldataload\n            /* \"#utility.yul\":4043:4061   */\n          0xffffffffffffffff\n            /* \"#utility.yul\":4035:4041   */\n          dup2\n            /* \"#utility.yul\":4032:4062   */\n          gt\n            /* \"#utility.yul\":4029:4146   */\n          iszero\n          tag_95\n          jumpi\n            /* \"#utility.yul\":4065:4144   */\n          tag_96\n          tag_29\n          jump\t// in\n        tag_96:\n            /* \"#utility.yul\":4029:4146   */\n        tag_95:\n            /* \"#utility.yul\":4170:4233   */\n          tag_97\n            /* \"#utility.yul\":4225:4232   */\n          dup5\n            /* \"#utility.yul\":4216:4222   */\n          dup3\n            /* \"#utility.yul\":4205:4214   */\n          dup6\n            /* \"#utility.yul\":4201:4223   */\n          add\n            /* \"#utility.yul\":4170:4233   */\n          tag_41\n          jump\t// in\n        tag_97:\n            /* \"#utility.yul\":4160:4233   */\n          swap2\n          pop\n            /* \"#utility.yul\":3956:4243   */\n          pop\n            /* \"#utility.yul\":3741:4250   */\n          swap3\n          swap2\n          pop\n          pop\n          jump\t// out\n            /* \"#utility.yul\":4256:4355   */\n        tag_42:\n            /* \"#utility.yul\":4308:4314   */\n          0x00\n            /* \"#utility.yul\":4342:4347   */\n          dup2\n            /* \"#utility.yul\":4336:4348   */\n          mload\n            /* \"#utility.yul\":4326:4348   */\n          swap1\n          pop\n            /* \"#utility.yul\":4256:4355   */\n          swap2\n          swap1\n          pop\n          jump\t// out\n            /* \"#utility.yul\":4361:4530   */\n        tag_43:\n            /* \"#utility.yul\":4445:4456   */\n          0x00\n            /* \"#utility.yul\":4479:4485   */\n          dup3\n            /* \"#utility.yul\":4474:4477   */\n          dup3\n            /* \"#utility.yul\":4467:4486   */\n          mstore\n            /* \"#utility.yul\":4519:4523   */\n          0x20\n            /* \"#utility.yul\":4514:4517   */\n          dup3\n            /* \"#utility.yul\":4510:4524   */\n          add\n            /* \"#utility.yul\":4495:4524   */\n          swap1\n          pop\n            /* \"#utility.yul\":4361:4530   */\n          swap3\n          swap2\n          pop\n          pop\n          jump\t// out\n            /* \"#utility.yul\":4536:4782   */\n        tag_44:\n            /* \"#utility.yul\":4617:4618   */\n          0x00\n            /* \"#utility.yul\":4627:4740   */\n        tag_101:\n            /* \"#utility.yul\":4641:4647   */\n          dup4\n            /* \"#utility.yul\":4638:4639   */\n          dup2\n            /* \"#utility.yul\":4635:4648   */\n          lt\n            /* \"#utility.yul\":4627:4740   */\n          iszero\n          tag_103\n          jumpi\n            /* \"#utility.yul\":4726:4727   */\n          dup1\n            /* \"#utility.yul\":4721:4724   */\n          dup3\n            /* \"#utility.yul\":4717:4728   */\n          add\n            /* \"#utility.yul\":4711:4729   */\n          mload\n            /* \"#utility.yul\":4707:4708   */\n          dup2\n            /* \"#utility.yul\":4702:4705   */\n          dup5\n            /* \"#utility.yul\":4698:4709   */\n          add\n            /* \"#utility.yul\":4691:4730   */\n          mstore\n            /* \"#utility.yul\":4663:4665   */\n          0x20\n            /* \"#utility.yul\":4660:4661   */\n          dup2\n            /* \"#utility.yul\":4656:4666   */\n          add\n            /* \"#utility.yul\":4651:4666   */\n          swap1\n          pop\n            /* \"#utility.yul\":4627:4740   */\n          jump(tag_101)\n        tag_103:\n            /* \"#utility.yul\":4774:4775   */\n          0x00\n            /* \"#utility.yul\":4765:4771   */\n          dup5\n            /* \"#utility.yul\":4760:4763   */\n          dup5\n            /* \"#utility.yul\":4756:4772   */\n          add\n            /* \"#utility.yul\":4749:4776   */\n          mstore\n            /* \"#utility.yul\":4598:4782   */\n          pop\n            /* \"#utility.yul\":4536:4782   */\n          pop\n          pop\n          pop\n          jump\t// out\n            /* \"#utility.yul\":4788:5165   */\n        tag_45:\n            /* \"#utility.yul\":4876:4879   */\n          0x00\n            /* \"#utility.yul\":4904:4943   */\n          tag_105\n            /* \"#utility.yul\":4937:4942   */\n          dup3\n            /* \"#utility.yul\":4904:4943   */\n          tag_42\n          jump\t// in\n        tag_105:\n            /* \"#utility.yul\":4959:5030   */\n          tag_106\n            /* \"#utility.yul\":5023:5029   */\n          dup2\n            /* \"#utility.yul\":5018:5021   */\n          dup6\n            /* \"#utility.yul\":4959:5030   */\n          tag_43\n          jump\t// in\n        tag_106:\n            /* \"#utility.yul\":4952:5030   */\n          swap4\n          pop\n            /* \"#utility.yul\":5039:5104   */\n          tag_107\n            /* \"#utility.yul\":5097:5103   */\n          dup2\n            /* \"#utility.yul\":5092:5095   */\n          dup6\n            /* \"#utility.yul\":5085:5089   */\n          0x20\n            /* \"#utility.yul\":5078:5083   */\n          dup7\n            /* \"#utility.yul\":5074:5090   */\n          add\n            /* \"#utility.yul\":5039:5104   */\n          tag_44\n          jump\t// in\n        tag_107:\n            /* \"#utility.yul\":5129:5158   */\n          tag_108\n            /* \"#utility.yul\":5151:5157   */\n          dup2\n            /* \"#utility.yul\":5129:5158   */\n          tag_34\n          jump\t// in\n        tag_108:\n            /* \"#utility.yul\":5124:5127   */\n          dup5\n            /* \"#utility.yul\":5120:5159   */\n          add\n            /* \"#utility.yul\":5113:5159   */\n          swap2\n          pop\n            /* \"#utility.yul\":4880:5165   */\n          pop\n            /* \"#utility.yul\":4788:5165   */\n          swap3\n          swap2\n          pop\n          pop\n          jump\t// out\n            /* \"#utility.yul\":5171:5484   */\n        tag_19:\n            /* \"#utility.yul\":5284:5288   */\n          0x00\n            /* \"#utility.yul\":5322:5324   */\n          0x20\n            /* \"#utility.yul\":5311:5320   */\n          dup3\n            /* \"#utility.yul\":5307:5325   */\n          add\n            /* \"#utility.yul\":5299:5325   */\n          swap1\n          pop\n            /* \"#utility.yul\":5371:5380   */\n          dup2\n            /* \"#utility.yul\":5365:5369   */\n          dup2\n            /* \"#utility.yul\":5361:5381   */\n          sub\n            /* \"#utility.yul\":5357:5358   */\n          0x00\n            /* \"#utility.yul\":5346:5355   */\n          dup4\n            /* \"#utility.yul\":5342:5359   */\n          add\n            /* \"#utility.yul\":5335:5382   */\n          mstore\n            /* \"#utility.yul\":5399:5477   */\n          tag_110\n            /* \"#utility.yul\":5472:5476   */\n          dup2\n            /* \"#utility.yul\":5463:5469   */\n          dup5\n            /* \"#utility.yul\":5399:5477   */\n          tag_45\n          jump\t// in\n        tag_110:\n            /* \"#utility.yul\":5391:5477   */\n          swap1\n          pop\n            /* \"#utility.yul\":5171:5484   */\n          swap3\n          swap2\n          pop\n          pop\n          jump\t// out\n            /* \"#utility.yul\":5490:5670   */\n        tag_46:\n            /* \"#utility.yul\":5538:5615   */\n          0x4e487b7100000000000000000000000000000000000000000000000000000000\n            /* \"#utility.yul\":5535:5536   */\n          0x00\n            /* \"#utility.yul\":5528:5616   */\n          mstore\n            /* \"#utility.yul\":5635:5639   */\n          0x11\n            /* \"#utility.yul\":5632:5633   */\n          0x04\n            /* \"#utility.yul\":5625:5640   */\n          mstore\n            /* \"#utility.yul\":5659:5663   */\n          0x24\n            /* \"#utility.yul\":5656:5657   */\n          0x00\n            /* \"#utility.yul\":5649:5664   */\n          revert\n            /* \"#utility.yul\":5676:5867   */\n        tag_22:\n            /* \"#utility.yul\":5716:5719   */\n          0x00\n            /* \"#utility.yul\":5735:5755   */\n          tag_113\n            /* \"#utility.yul\":5753:5754   */\n          dup3\n            /* \"#utility.yul\":5735:5755   */\n          tag_25\n          jump\t// in\n        tag_113:\n            /* \"#utility.yul\":5730:5755   */\n          swap2\n          pop\n            /* \"#utility.yul\":5769:5789   */\n          tag_114\n            /* \"#utility.yul\":5787:5788   */\n          dup4\n            /* \"#utility.yul\":5769:5789   */\n          tag_25\n          jump\t// in\n        tag_114:\n            /* \"#utility.yul\":5764:5789   */\n          swap3\n          pop\n            /* \"#utility.yul\":5812:5813   */\n          dup3\n            /* \"#utility.yul\":5809:5810   */\n          dup3\n            /* \"#utility.yul\":5805:5814   */\n          add\n            /* \"#utility.yul\":5798:5814   */\n          swap1\n          pop\n            /* \"#utility.yul\":5833:5836   */\n          dup1\n            /* \"#utility.yul\":5830:5831   */\n          dup3\n            /* \"#utility.yul\":5827:5837   */\n          gt\n            /* \"#utility.yul\":5824:5860   */\n          iszero\n          tag_115\n          jumpi\n            /* \"#utility.yul\":5840:5858   */\n          tag_116\n          tag_46\n          jump\t// in\n        tag_116:\n            /* \"#utility.yul\":5824:5860   */\n        tag_115:\n            /* \"#utility.yul\":5676:5867   */\n          swap3\n          swap2\n          pop\n          pop\n          jump\t// out\n\n        auxdata: 0xa2646970667358221220d8566f2b1ce96c754d2e38f735376f5918547297043aed15e2808f9eac14798b64736f6c63430008130033\n    }\n}\n",
				"bytecode": {
					"linkReferences": {},
					"object": "608060405234801561001057600080fd5b5060405161001d9061007e565b604051809103906000f080158015610039573d6000803e3d6000fd5b506000806101000a81548173ffffffffffffffffffffffffffffffffffffffff021916908373ffffffffffffffffffffffffffffffffffffffff16021790555061008b565b61047f806106b383390190565b6106198061009a6000396000f3fe608060405234801561001057600080fd5b506004361061002b5760003560e01c806319eb4a9014610030575b600080fd5b61003861004f565b6040516100469291906102c2565b60405180910390f35b606060008060009054906101000a900473ffffffffffffffffffffffffffffffffffffffff1673ffffffffffffffffffffffffffffffffffffffff16637b8d56e3600a60106040518363ffffffff1660e01b81526004016100b1929190610372565b600060405180830381600087803b1580156100cb57600080fd5b505af11580156100df573d6000803e3d6000fd5b5050505060008054906101000a900473ffffffffffffffffffffffffffffffffffffffff1673ffffffffffffffffffffffffffffffffffffffff1663e449c52a6040518163ffffffff1660e01b815260040161013a906103e7565b600060405180830381865afa158015610157573d6000803e3d6000fd5b505050506040513d6000823e3d601f19601f820116820180604052508101906101809190610541565b60008054906101000a900473ffffffffffffffffffffffffffffffffffffffff1673ffffffffffffffffffffffffffffffffffffffff16634f2be91f6040518163ffffffff1660e01b81526004016020604051808303816000875af11580156101ed573d6000803e3d6000fd5b505050506040513d601f19601f8201168201806040525081019061021191906105b6565b915091509091565b600081519050919050565b600082825260208201905092915050565b60005b83811015610253578082015181840152602081019050610238565b60008484015250505050565b6000601f19601f8301169050919050565b600061027b82610219565b6102858185610224565b9350610295818560208601610235565b61029e8161025f565b840191505092915050565b6000819050919050565b6102bc816102a9565b82525050565b600060408201905081810360008301526102dc8185610270565b90506102eb60208301846102b3565b9392505050565b6000819050919050565b6000819050919050565b600061032161031c610317846102f2565b6102fc565b6102a9565b9050919050565b61033181610306565b82525050565b6000819050919050565b600061035c61035761035284610337565b6102fc565b6102a9565b9050919050565b61036c81610341565b82525050565b60006040820190506103876000830185610328565b6103946020830184610363565b9392505050565b7f4765656b73466f724765656b7300000000000000000000000000000000000000600082015250565b60006103d1600d83610224565b91506103dc8261039b565b602082019050919050565b60006020820190508181036000830152610400816103c4565b9050919050565b6000604051905090565b600080fd5b600080fd5b600080fd5b600080fd5b7f4e487b7100000000000000000000000000000000000000000000000000000000600052604160045260246000fd5b61045d8261025f565b810181811067ffffffffffffffff8211171561047c5761047b610425565b5b80604052505050565b600061048f610407565b905061049b8282610454565b919050565b600067ffffffffffffffff8211156104bb576104ba610425565b5b6104c48261025f565b9050602081019050919050565b60006104e46104df846104a0565b610485565b905082815260208101848484011115610500576104ff610420565b5b61050b848285610235565b509392505050565b600082601f8301126105285761052761041b565b5b81516105388482602086016104d1565b91505092915050565b60006020828403121561055757610556610411565b5b600082015167ffffffffffffffff81111561057557610574610416565b5b61058184828501610513565b91505092915050565b610593816102a9565b811461059e57600080fd5b50565b6000815190506105b08161058a565b92915050565b6000602082840312156105cc576105cb610411565b5b60006105da848285016105a1565b9150509291505056fea26469706673582212205d69c637158e0579a65e1e478c3f0f9328f249c907c210dfad1c41d28441f76264736f6c63430008130033608060405234801561001057600080fd5b5061045f806100206000396000f3fe608060405234801561001057600080fd5b50600436106100415760003560e01c80634f2be91f146100465780637b8d56e314610064578063e449c52a14610080575b600080fd5b61004e6100b0565b60405161005b91906100fb565b60405180910390f35b61007e60048036038101906100799190610156565b6100c6565b005b61009a600480360381019061009591906102dc565b6100d8565b6040516100a791906103a4565b60405180910390f35b600080546001546100c191906103f5565b905090565b81600081905550806001819055505050565b6060819050919050565b6000819050919050565b6100f5816100e2565b82525050565b600060208201905061011060008301846100ec565b92915050565b6000604051905090565b600080fd5b600080fd5b610133816100e2565b811461013e57600080fd5b50565b6000813590506101508161012a565b92915050565b6000806040838503121561016d5761016c610120565b5b600061017b85828601610141565b925050602061018c85828601610141565b9150509250929050565b600080fd5b600080fd5b6000601f19601f8301169050919050565b7f4e487b7100000000000000000000000000000000000000000000000000000000600052604160045260246000fd5b6101e9826101a0565b810181811067ffffffffffffffff82111715610208576102076101b1565b5b80604052505050565b600061021b610116565b905061022782826101e0565b919050565b600067ffffffffffffffff821115610247576102466101b1565b5b610250826101a0565b9050602081019050919050565b82818337600083830152505050565b600061027f61027a8461022c565b610211565b90508281526020810184848401111561029b5761029a61019b565b5b6102a684828561025d565b509392505050565b600082601f8301126102c3576102c2610196565b5b81356102d384826020860161026c565b91505092915050565b6000602082840312156102f2576102f1610120565b5b600082013567ffffffffffffffff8111156103105761030f610125565b5b61031c848285016102ae565b91505092915050565b600081519050919050565b600082825260208201905092915050565b60005b8381101561035f578082015181840152602081019050610344565b60008484015250505050565b600061037682610325565b6103808185610330565b9350610390818560208601610341565b610399816101a0565b840191505092915050565b600060208201905081810360008301526103be818461036b565b905092915050565b7f4e487b7100000000000000000000000000000000000000000000000000000000600052601160045260246000fd5b6000610400826100e2565b915061040b836100e2565b9250828201905080821115610423576104226103c6565b5b9291505056fea2646970667358221220d8566f2b1ce96c754d2e38f735376f5918547297043aed15e2808f9eac14798b64736f6c63430008130033",
					"opcodes": "PUSH1 0x80 PUSH1 0x40 MSTORE CALLVALUE DUP1 ISZERO PUSH2 0x10 JUMPI PUSH1 0x0 DUP1 REVERT JUMPDEST POP PUSH1 0x40 MLOAD PUSH2 0x1D SWAP1 PUSH2 0x7E JUMP JUMPDEST PUSH1 0x40 MLOAD DUP1 SWAP2 SUB SWAP1 PUSH1 0x0 CREATE DUP1 ISZERO DUP1 ISZERO PUSH2 0x39 JUMPI RETURNDATASIZE PUSH1 0x0 DUP1 RETURNDATACOPY RETURNDATASIZE PUSH1 0x0 REVERT JUMPDEST POP PUSH1 0x0 DUP1 PUSH2 0x100 EXP DUP2 SLOAD DUP2 PUSH20 0xFFFFFFFFFFFFFFFFFFFFFFFFFFFFFFFFFFFFFFFF MUL NOT AND SWAP1 DUP4 PUSH20 0xFFFFFFFFFFFFFFFFFFFFFFFFFFFFFFFFFFFFFFFF AND MUL OR SWAP1 SSTORE POP PUSH2 0x8B JUMP JUMPDEST PUSH2 0x47F DUP1 PUSH2 0x6B3 DUP4 CODECOPY ADD SWAP1 JUMP JUMPDEST PUSH2 0x619 DUP1 PUSH2 0x9A PUSH1 0x0 CODECOPY PUSH1 0x0 RETURN INVALID PUSH1 0x80 PUSH1 0x40 MSTORE CALLVALUE DUP1 ISZERO PUSH2 0x10 JUMPI PUSH1 0x0 DUP1 REVERT JUMPDEST POP PUSH1 0x4 CALLDATASIZE LT PUSH2 0x2B JUMPI PUSH1 0x0 CALLDATALOAD PUSH1 0xE0 SHR DUP1 PUSH4 0x19EB4A90 EQ PUSH2 0x30 JUMPI JUMPDEST PUSH1 0x0 DUP1 REVERT JUMPDEST PUSH2 0x38 PUSH2 0x4F JUMP JUMPDEST PUSH1 0x40 MLOAD PUSH2 0x46 SWAP3 SWAP2 SWAP1 PUSH2 0x2C2 JUMP JUMPDEST PUSH1 0x40 MLOAD DUP1 SWAP2 SUB SWAP1 RETURN JUMPDEST PUSH1 0x60 PUSH1 0x0 DUP1 PUSH1 0x0 SWAP1 SLOAD SWAP1 PUSH2 0x100 EXP SWAP1 DIV PUSH20 0xFFFFFFFFFFFFFFFFFFFFFFFFFFFFFFFFFFFFFFFF AND PUSH20 0xFFFFFFFFFFFFFFFFFFFFFFFFFFFFFFFFFFFFFFFF AND PUSH4 0x7B8D56E3 PUSH1 0xA PUSH1 0x10 PUSH1 0x40 MLOAD DUP4 PUSH4 0xFFFFFFFF AND PUSH1 0xE0 SHL DUP2 MSTORE PUSH1 0x4 ADD PUSH2 0xB1 SWAP3 SWAP2 SWAP1 PUSH2 0x372 JUMP JUMPDEST PUSH1 0x0 PUSH1 0x40 MLOAD DUP1 DUP4 SUB DUP2 PUSH1 0x0 DUP8 DUP1 EXTCODESIZE ISZERO DUP1 ISZERO PUSH2 0xCB JUMPI PUSH1 0x0 DUP1 REVERT JUMPDEST POP GAS CALL ISZERO DUP1 ISZERO PUSH2 0xDF JUMPI RETURNDATASIZE PUSH1 0x0 DUP1 RETURNDATACOPY RETURNDATASIZE PUSH1 0x0 REVERT JUMPDEST POP POP POP POP PUSH1 0x0 DUP1 SLOAD SWAP1 PUSH2 0x100 EXP SWAP1 DIV PUSH20 0xFFFFFFFFFFFFFFFFFFFFFFFFFFFFFFFFFFFFFFFF AND PUSH20 0xFFFFFFFFFFFFFFFFFFFFFFFFFFFFFFFFFFFFFFFF AND PUSH4 0xE449C52A PUSH1 0x40 MLOAD DUP2 PUSH4 0xFFFFFFFF AND PUSH1 0xE0 SHL DUP2 MSTORE PUSH1 0x4 ADD PUSH2 0x13A SWAP1 PUSH2 0x3E7 JUMP JUMPDEST PUSH1 0x0 PUSH1 0x40 MLOAD DUP1 DUP4 SUB DUP2 DUP7 GAS STATICCALL ISZERO DUP1 ISZERO PUSH2 0x157 JUMPI RETURNDATASIZE PUSH1 0x0 DUP1 RETURNDATACOPY RETURNDATASIZE PUSH1 0x0 REVERT JUMPDEST POP POP POP POP PUSH1 0x40 MLOAD RETURNDATASIZE PUSH1 0x0 DUP3 RETURNDATACOPY RETURNDATASIZE PUSH1 0x1F NOT PUSH1 0x1F DUP3 ADD AND DUP3 ADD DUP1 PUSH1 0x40 MSTORE POP DUP2 ADD SWAP1 PUSH2 0x180 SWAP2 SWAP1 PUSH2 0x541 JUMP JUMPDEST PUSH1 0x0 DUP1 SLOAD SWAP1 PUSH2 0x100 EXP SWAP1 DIV PUSH20 0xFFFFFFFFFFFFFFFFFFFFFFFFFFFFFFFFFFFFFFFF AND PUSH20 0xFFFFFFFFFFFFFFFFFFFFFFFFFFFFFFFFFFFFFFFF AND PUSH4 0x4F2BE91F PUSH1 0x40 MLOAD DUP2 PUSH4 0xFFFFFFFF AND PUSH1 0xE0 SHL DUP2 MSTORE PUSH1 0x4 ADD PUSH1 0x20 PUSH1 0x40 MLOAD DUP1 DUP4 SUB DUP2 PUSH1 0x0 DUP8 GAS CALL ISZERO DUP1 ISZERO PUSH2 0x1ED JUMPI RETURNDATASIZE PUSH1 0x0 DUP1 RETURNDATACOPY RETURNDATASIZE PUSH1 0x0 REVERT JUMPDEST POP POP POP POP PUSH1 0x40 MLOAD RETURNDATASIZE PUSH1 0x1F NOT PUSH1 0x1F DUP3 ADD AND DUP3 ADD DUP1 PUSH1 0x40 MSTORE POP DUP2 ADD SWAP1 PUSH2 0x211 SWAP2 SWAP1 PUSH2 0x5B6 JUMP JUMPDEST SWAP2 POP SWAP2 POP SWAP1 SWAP2 JUMP JUMPDEST PUSH1 0x0 DUP2 MLOAD SWAP1 POP SWAP2 SWAP1 POP JUMP JUMPDEST PUSH1 0x0 DUP3 DUP3 MSTORE PUSH1 0x20 DUP3 ADD SWAP1 POP SWAP3 SWAP2 POP POP JUMP JUMPDEST PUSH1 0x0 JUMPDEST DUP4 DUP2 LT ISZERO PUSH2 0x253 JUMPI DUP1 DUP3 ADD MLOAD DUP2 DUP5 ADD MSTORE PUSH1 0x20 DUP2 ADD SWAP1 POP PUSH2 0x238 JUMP JUMPDEST PUSH1 0x0 DUP5 DUP5 ADD MSTORE POP POP POP POP JUMP JUMPDEST PUSH1 0x0 PUSH1 0x1F NOT PUSH1 0x1F DUP4 ADD AND SWAP1 POP SWAP2 SWAP1 POP JUMP JUMPDEST PUSH1 0x0 PUSH2 0x27B DUP3 PUSH2 0x219 JUMP JUMPDEST PUSH2 0x285 DUP2 DUP6 PUSH2 0x224 JUMP JUMPDEST SWAP4 POP PUSH2 0x295 DUP2 DUP6 PUSH1 0x20 DUP7 ADD PUSH2 0x235 JUMP JUMPDEST PUSH2 0x29E DUP2 PUSH2 0x25F JUMP JUMPDEST DUP5 ADD SWAP2 POP POP SWAP3 SWAP2 POP POP JUMP JUMPDEST PUSH1 0x0 DUP2 SWAP1 POP SWAP2 SWAP1 POP JUMP JUMPDEST PUSH2 0x2BC DUP2 PUSH2 0x2A9 JUMP JUMPDEST DUP3 MSTORE POP POP JUMP JUMPDEST PUSH1 0x0 PUSH1 0x40 DUP3 ADD SWAP1 POP DUP2 DUP2 SUB PUSH1 0x0 DUP4 ADD MSTORE PUSH2 0x2DC DUP2 DUP6 PUSH2 0x270 JUMP JUMPDEST SWAP1 POP PUSH2 0x2EB PUSH1 0x20 DUP4 ADD DUP5 PUSH2 0x2B3 JUMP JUMPDEST SWAP4 SWAP3 POP POP POP JUMP JUMPDEST PUSH1 0x0 DUP2 SWAP1 POP SWAP2 SWAP1 POP JUMP JUMPDEST PUSH1 0x0 DUP2 SWAP1 POP SWAP2 SWAP1 POP JUMP JUMPDEST PUSH1 0x0 PUSH2 0x321 PUSH2 0x31C PUSH2 0x317 DUP5 PUSH2 0x2F2 JUMP JUMPDEST PUSH2 0x2FC JUMP JUMPDEST PUSH2 0x2A9 JUMP JUMPDEST SWAP1 POP SWAP2 SWAP1 POP JUMP JUMPDEST PUSH2 0x331 DUP2 PUSH2 0x306 JUMP JUMPDEST DUP3 MSTORE POP POP JUMP JUMPDEST PUSH1 0x0 DUP2 SWAP1 POP SWAP2 SWAP1 POP JUMP JUMPDEST PUSH1 0x0 PUSH2 0x35C PUSH2 0x357 PUSH2 0x352 DUP5 PUSH2 0x337 JUMP JUMPDEST PUSH2 0x2FC JUMP JUMPDEST PUSH2 0x2A9 JUMP JUMPDEST SWAP1 POP SWAP2 SWAP1 POP JUMP JUMPDEST PUSH2 0x36C DUP2 PUSH2 0x341 JUMP JUMPDEST DUP3 MSTORE POP POP JUMP JUMPDEST PUSH1 0x0 PUSH1 0x40 DUP3 ADD SWAP1 POP PUSH2 0x387 PUSH1 0x0 DUP4 ADD DUP6 PUSH2 0x328 JUMP JUMPDEST PUSH2 0x394 PUSH1 0x20 DUP4 ADD DUP5 PUSH2 0x363 JUMP JUMPDEST SWAP4 SWAP3 POP POP POP JUMP JUMPDEST PUSH32 0x4765656B73466F724765656B7300000000000000000000000000000000000000 PUSH1 0x0 DUP3 ADD MSTORE POP JUMP JUMPDEST PUSH1 0x0 PUSH2 0x3D1 PUSH1 0xD DUP4 PUSH2 0x224 JUMP JUMPDEST SWAP2 POP PUSH2 0x3DC DUP3 PUSH2 0x39B JUMP JUMPDEST PUSH1 0x20 DUP3 ADD SWAP1 POP SWAP2 SWAP1 POP JUMP JUMPDEST PUSH1 0x0 PUSH1 0x20 DUP3 ADD SWAP1 POP DUP2 DUP2 SUB PUSH1 0x0 DUP4 ADD MSTORE PUSH2 0x400 DUP2 PUSH2 0x3C4 JUMP JUMPDEST SWAP1 POP SWAP2 SWAP1 POP JUMP JUMPDEST PUSH1 0x0 PUSH1 0x40 MLOAD SWAP1 POP SWAP1 JUMP JUMPDEST PUSH1 0x0 DUP1 REVERT JUMPDEST PUSH1 0x0 DUP1 REVERT JUMPDEST PUSH1 0x0 DUP1 REVERT JUMPDEST PUSH1 0x0 DUP1 REVERT JUMPDEST PUSH32 0x4E487B7100000000000000000000000000000000000000000000000000000000 PUSH1 0x0 MSTORE PUSH1 0x41 PUSH1 0x4 MSTORE PUSH1 0x24 PUSH1 0x0 REVERT JUMPDEST PUSH2 0x45D DUP3 PUSH2 0x25F JUMP JUMPDEST DUP2 ADD DUP2 DUP2 LT PUSH8 0xFFFFFFFFFFFFFFFF DUP3 GT OR ISZERO PUSH2 0x47C JUMPI PUSH2 0x47B PUSH2 0x425 JUMP JUMPDEST JUMPDEST DUP1 PUSH1 0x40 MSTORE POP POP POP JUMP JUMPDEST PUSH1 0x0 PUSH2 0x48F PUSH2 0x407 JUMP JUMPDEST SWAP1 POP PUSH2 0x49B DUP3 DUP3 PUSH2 0x454 JUMP JUMPDEST SWAP2 SWAP1 POP JUMP JUMPDEST PUSH1 0x0 PUSH8 0xFFFFFFFFFFFFFFFF DUP3 GT ISZERO PUSH2 0x4BB JUMPI PUSH2 0x4BA PUSH2 0x425 JUMP JUMPDEST JUMPDEST PUSH2 0x4C4 DUP3 PUSH2 0x25F JUMP JUMPDEST SWAP1 POP PUSH1 0x20 DUP2 ADD SWAP1 POP SWAP2 SWAP1 POP JUMP JUMPDEST PUSH1 0x0 PUSH2 0x4E4 PUSH2 0x4DF DUP5 PUSH2 0x4A0 JUMP JUMPDEST PUSH2 0x485 JUMP JUMPDEST SWAP1 POP DUP3 DUP2 MSTORE PUSH1 0x20 DUP2 ADD DUP5 DUP5 DUP5 ADD GT ISZERO PUSH2 0x500 JUMPI PUSH2 0x4FF PUSH2 0x420 JUMP JUMPDEST JUMPDEST PUSH2 0x50B DUP5 DUP3 DUP6 PUSH2 0x235 JUMP JUMPDEST POP SWAP4 SWAP3 POP POP POP JUMP JUMPDEST PUSH1 0x0 DUP3 PUSH1 0x1F DUP4 ADD SLT PUSH2 0x528 JUMPI PUSH2 0x527 PUSH2 0x41B JUMP JUMPDEST JUMPDEST DUP2 MLOAD PUSH2 0x538 DUP5 DUP3 PUSH1 0x20 DUP7 ADD PUSH2 0x4D1 JUMP JUMPDEST SWAP2 POP POP SWAP3 SWAP2 POP POP JUMP JUMPDEST PUSH1 0x0 PUSH1 0x20 DUP3 DUP5 SUB SLT ISZERO PUSH2 0x557 JUMPI PUSH2 0x556 PUSH2 0x411 JUMP JUMPDEST JUMPDEST PUSH1 0x0 DUP3 ADD MLOAD PUSH8 0xFFFFFFFFFFFFFFFF DUP2 GT ISZERO PUSH2 0x575 JUMPI PUSH2 0x574 PUSH2 0x416 JUMP JUMPDEST JUMPDEST PUSH2 0x581 DUP5 DUP3 DUP6 ADD PUSH2 0x513 JUMP JUMPDEST SWAP2 POP POP SWAP3 SWAP2 POP POP JUMP JUMPDEST PUSH2 0x593 DUP2 PUSH2 0x2A9 JUMP JUMPDEST DUP2 EQ PUSH2 0x59E JUMPI PUSH1 0x0 DUP1 REVERT JUMPDEST POP JUMP JUMPDEST PUSH1 0x0 DUP2 MLOAD SWAP1 POP PUSH2 0x5B0 DUP2 PUSH2 0x58A JUMP JUMPDEST SWAP3 SWAP2 POP POP JUMP JUMPDEST PUSH1 0x0 PUSH1 0x20 DUP3 DUP5 SUB SLT ISZERO PUSH2 0x5CC JUMPI PUSH2 0x5CB PUSH2 0x411 JUMP JUMPDEST JUMPDEST PUSH1 0x0 PUSH2 0x5DA DUP5 DUP3 DUP6 ADD PUSH2 0x5A1 JUMP JUMPDEST SWAP2 POP POP SWAP3 SWAP2 POP POP JUMP INVALID LOG2 PUSH5 0x6970667358 0x22 SLT KECCAK256 0x5D PUSH10 0xC637158E0579A65E1E47 DUP13 EXTCODEHASH 0xF SWAP4 0x28 CALLCODE 0x49 0xC9 SMOD 0xC2 LT 0xDF 0xAD SHR COINBASE 0xD2 DUP5 COINBASE 0xF7 PUSH3 0x64736F PUSH13 0x63430008130033608060405234 DUP1 ISZERO PUSH2 0x10 JUMPI PUSH1 0x0 DUP1 REVERT JUMPDEST POP PUSH2 0x45F DUP1 PUSH2 0x20 PUSH1 0x0 CODECOPY PUSH1 0x0 RETURN INVALID PUSH1 0x80 PUSH1 0x40 MSTORE CALLVALUE DUP1 ISZERO PUSH2 0x10 JUMPI PUSH1 0x0 DUP1 REVERT JUMPDEST POP PUSH1 0x4 CALLDATASIZE LT PUSH2 0x41 JUMPI PUSH1 0x0 CALLDATALOAD PUSH1 0xE0 SHR DUP1 PUSH4 0x4F2BE91F EQ PUSH2 0x46 JUMPI DUP1 PUSH4 0x7B8D56E3 EQ PUSH2 0x64 JUMPI DUP1 PUSH4 0xE449C52A EQ PUSH2 0x80 JUMPI JUMPDEST PUSH1 0x0 DUP1 REVERT JUMPDEST PUSH2 0x4E PUSH2 0xB0 JUMP JUMPDEST PUSH1 0x40 MLOAD PUSH2 0x5B SWAP2 SWAP1 PUSH2 0xFB JUMP JUMPDEST PUSH1 0x40 MLOAD DUP1 SWAP2 SUB SWAP1 RETURN JUMPDEST PUSH2 0x7E PUSH1 0x4 DUP1 CALLDATASIZE SUB DUP2 ADD SWAP1 PUSH2 0x79 SWAP2 SWAP1 PUSH2 0x156 JUMP JUMPDEST PUSH2 0xC6 JUMP JUMPDEST STOP JUMPDEST PUSH2 0x9A PUSH1 0x4 DUP1 CALLDATASIZE SUB DUP2 ADD SWAP1 PUSH2 0x95 SWAP2 SWAP1 PUSH2 0x2DC JUMP JUMPDEST PUSH2 0xD8 JUMP JUMPDEST PUSH1 0x40 MLOAD PUSH2 0xA7 SWAP2 SWAP1 PUSH2 0x3A4 JUMP JUMPDEST PUSH1 0x40 MLOAD DUP1 SWAP2 SUB SWAP1 RETURN JUMPDEST PUSH1 0x0 DUP1 SLOAD PUSH1 0x1 SLOAD PUSH2 0xC1 SWAP2 SWAP1 PUSH2 0x3F5 JUMP JUMPDEST SWAP1 POP SWAP1 JUMP JUMPDEST DUP2 PUSH1 0x0 DUP2 SWAP1 SSTORE POP DUP1 PUSH1 0x1 DUP2 SWAP1 SSTORE POP POP POP JUMP JUMPDEST PUSH1 0x60 DUP2 SWAP1 POP SWAP2 SWAP1 POP JUMP JUMPDEST PUSH1 0x0 DUP2 SWAP1 POP SWAP2 SWAP1 POP JUMP JUMPDEST PUSH2 0xF5 DUP2 PUSH2 0xE2 JUMP JUMPDEST DUP3 MSTORE POP POP JUMP JUMPDEST PUSH1 0x0 PUSH1 0x20 DUP3 ADD SWAP1 POP PUSH2 0x110 PUSH1 0x0 DUP4 ADD DUP5 PUSH2 0xEC JUMP JUMPDEST SWAP3 SWAP2 POP POP JUMP JUMPDEST PUSH1 0x0 PUSH1 0x40 MLOAD SWAP1 POP SWAP1 JUMP JUMPDEST PUSH1 0x0 DUP1 REVERT JUMPDEST PUSH1 0x0 DUP1 REVERT JUMPDEST PUSH2 0x133 DUP2 PUSH2 0xE2 JUMP JUMPDEST DUP2 EQ PUSH2 0x13E JUMPI PUSH1 0x0 DUP1 REVERT JUMPDEST POP JUMP JUMPDEST PUSH1 0x0 DUP2 CALLDATALOAD SWAP1 POP PUSH2 0x150 DUP2 PUSH2 0x12A JUMP JUMPDEST SWAP3 SWAP2 POP POP JUMP JUMPDEST PUSH1 0x0 DUP1 PUSH1 0x40 DUP4 DUP6 SUB SLT ISZERO PUSH2 0x16D JUMPI PUSH2 0x16C PUSH2 0x120 JUMP JUMPDEST JUMPDEST PUSH1 0x0 PUSH2 0x17B DUP6 DUP3 DUP7 ADD PUSH2 0x141 JUMP JUMPDEST SWAP3 POP POP PUSH1 0x20 PUSH2 0x18C DUP6 DUP3 DUP7 ADD PUSH2 0x141 JUMP JUMPDEST SWAP2 POP POP SWAP3 POP SWAP3 SWAP1 POP JUMP JUMPDEST PUSH1 0x0 DUP1 REVERT JUMPDEST PUSH1 0x0 DUP1 REVERT JUMPDEST PUSH1 0x0 PUSH1 0x1F NOT PUSH1 0x1F DUP4 ADD AND SWAP1 POP SWAP2 SWAP1 POP JUMP JUMPDEST PUSH32 0x4E487B7100000000000000000000000000000000000000000000000000000000 PUSH1 0x0 MSTORE PUSH1 0x41 PUSH1 0x4 MSTORE PUSH1 0x24 PUSH1 0x0 REVERT JUMPDEST PUSH2 0x1E9 DUP3 PUSH2 0x1A0 JUMP JUMPDEST DUP2 ADD DUP2 DUP2 LT PUSH8 0xFFFFFFFFFFFFFFFF DUP3 GT OR ISZERO PUSH2 0x208 JUMPI PUSH2 0x207 PUSH2 0x1B1 JUMP JUMPDEST JUMPDEST DUP1 PUSH1 0x40 MSTORE POP POP POP JUMP JUMPDEST PUSH1 0x0 PUSH2 0x21B PUSH2 0x116 JUMP JUMPDEST SWAP1 POP PUSH2 0x227 DUP3 DUP3 PUSH2 0x1E0 JUMP JUMPDEST SWAP2 SWAP1 POP JUMP JUMPDEST PUSH1 0x0 PUSH8 0xFFFFFFFFFFFFFFFF DUP3 GT ISZERO PUSH2 0x247 JUMPI PUSH2 0x246 PUSH2 0x1B1 JUMP JUMPDEST JUMPDEST PUSH2 0x250 DUP3 PUSH2 0x1A0 JUMP JUMPDEST SWAP1 POP PUSH1 0x20 DUP2 ADD SWAP1 POP SWAP2 SWAP1 POP JUMP JUMPDEST DUP3 DUP2 DUP4 CALLDATACOPY PUSH1 0x0 DUP4 DUP4 ADD MSTORE POP POP POP JUMP JUMPDEST PUSH1 0x0 PUSH2 0x27F PUSH2 0x27A DUP5 PUSH2 0x22C JUMP JUMPDEST PUSH2 0x211 JUMP JUMPDEST SWAP1 POP DUP3 DUP2 MSTORE PUSH1 0x20 DUP2 ADD DUP5 DUP5 DUP5 ADD GT ISZERO PUSH2 0x29B JUMPI PUSH2 0x29A PUSH2 0x19B JUMP JUMPDEST JUMPDEST PUSH2 0x2A6 DUP5 DUP3 DUP6 PUSH2 0x25D JUMP JUMPDEST POP SWAP4 SWAP3 POP POP POP JUMP JUMPDEST PUSH1 0x0 DUP3 PUSH1 0x1F DUP4 ADD SLT PUSH2 0x2C3 JUMPI PUSH2 0x2C2 PUSH2 0x196 JUMP JUMPDEST JUMPDEST DUP2 CALLDATALOAD PUSH2 0x2D3 DUP5 DUP3 PUSH1 0x20 DUP7 ADD PUSH2 0x26C JUMP JUMPDEST SWAP2 POP POP SWAP3 SWAP2 POP POP JUMP JUMPDEST PUSH1 0x0 PUSH1 0x20 DUP3 DUP5 SUB SLT ISZERO PUSH2 0x2F2 JUMPI PUSH2 0x2F1 PUSH2 0x120 JUMP JUMPDEST JUMPDEST PUSH1 0x0 DUP3 ADD CALLDATALOAD PUSH8 0xFFFFFFFFFFFFFFFF DUP2 GT ISZERO PUSH2 0x310 JUMPI PUSH2 0x30F PUSH2 0x125 JUMP JUMPDEST JUMPDEST PUSH2 0x31C DUP5 DUP3 DUP6 ADD PUSH2 0x2AE JUMP JUMPDEST SWAP2 POP POP SWAP3 SWAP2 POP POP JUMP JUMPDEST PUSH1 0x0 DUP2 MLOAD SWAP1 POP SWAP2 SWAP1 POP JUMP JUMPDEST PUSH1 0x0 DUP3 DUP3 MSTORE PUSH1 0x20 DUP3 ADD SWAP1 POP SWAP3 SWAP2 POP POP JUMP JUMPDEST PUSH1 0x0 JUMPDEST DUP4 DUP2 LT ISZERO PUSH2 0x35F JUMPI DUP1 DUP3 ADD MLOAD DUP2 DUP5 ADD MSTORE PUSH1 0x20 DUP2 ADD SWAP1 POP PUSH2 0x344 JUMP JUMPDEST PUSH1 0x0 DUP5 DUP5 ADD MSTORE POP POP POP POP JUMP JUMPDEST PUSH1 0x0 PUSH2 0x376 DUP3 PUSH2 0x325 JUMP JUMPDEST PUSH2 0x380 DUP2 DUP6 PUSH2 0x330 JUMP JUMPDEST SWAP4 POP PUSH2 0x390 DUP2 DUP6 PUSH1 0x20 DUP7 ADD PUSH2 0x341 JUMP JUMPDEST PUSH2 0x399 DUP2 PUSH2 0x1A0 JUMP JUMPDEST DUP5 ADD SWAP2 POP POP SWAP3 SWAP2 POP POP JUMP JUMPDEST PUSH1 0x0 PUSH1 0x20 DUP3 ADD SWAP1 POP DUP2 DUP2 SUB PUSH1 0x0 DUP4 ADD MSTORE PUSH2 0x3BE DUP2 DUP5 PUSH2 0x36B JUMP JUMPDEST SWAP1 POP SWAP3 SWAP2 POP POP JUMP JUMPDEST PUSH32 0x4E487B7100000000000000000000000000000000000000000000000000000000 PUSH1 0x0 MSTORE PUSH1 0x11 PUSH1 0x4 MSTORE PUSH1 0x24 PUSH1 0x0 REVERT JUMPDEST PUSH1 0x0 PUSH2 0x400 DUP3 PUSH2 0xE2 JUMP JUMPDEST SWAP2 POP PUSH2 0x40B DUP4 PUSH2 0xE2 JUMP JUMPDEST SWAP3 POP DUP3 DUP3 ADD SWAP1 POP DUP1 DUP3 GT ISZERO PUSH2 0x423 JUMPI PUSH2 0x422 PUSH2 0x3C6 JUMP JUMPDEST JUMPDEST SWAP3 SWAP2 POP POP JUMP INVALID LOG2 PUSH5 0x6970667358 0x22 SLT KECCAK256 0xD8 JUMP PUSH16 0x2B1CE96C754D2E38F735376F59185472 SWAP8 DIV GASPRICE 0xED ISZERO 0xE2 DUP1 DUP16 SWAP15 0xAC EQ PUSH26 0x8B64736F6C634300081300330000000000000000000000000000 "
				},
				"gasEstimates": {
					"creation": {
						"codeDepositCost": "312200",
						"executionCost": "infinite",
						"totalCost": "infinite"
					},
					"external": {
						"getValues()": "infinite"
					}
				},
				"methodIdentifiers": {
					"getValues()": "19eb4a90"
				}
			},
			"storageLayout": {
				"storage": [
					{
						"astId": 71,
						"contract": "contracts/Abstruct_Contract.sol:Call",
						"label": "abs",
						"offset": 0,
						"slot": "0",
						"type": "t_contract(AbstractContract)21"
					}
				],
				"types": {
					"t_contract(AbstractContract)21": {
						"encoding": "inplace",
						"label": "contract AbstractContract",
						"numberOfBytes": "20"
					}
				}
			},
			"userdoc": {
				"kind": "user",
				"methods": {},
				"version": 1
			}
		}
	}
}