{
	"contracts/Enums_Struct_&_Modifier.sol": {
		"Modifier": {
			"abi": [
				{
					"inputs": [],
					"name": "updateAge",
					"outputs": [
						{
							"internalType": "uint256",
							"name": "",
							"type": "uint256"
						}
					],
					"stateMutability": "pure",
					"type": "function"
				},
				{
					"inputs": [],
					"name": "updateAge2",
					"outputs": [
						{
							"internalType": "bool",
							"name": "",
							"type": "bool"
						}
					],
					"stateMutability": "pure",
					"type": "function"
				}
			],
			"devdoc": {
				"kind": "dev",
				"methods": {},
				"version": 1
			},
			"evm": {
				"assembly": "    /* \"contracts/Enums_Struct_&_Modifier.sol\":2662:2988  contract Modifier{... */\n  mstore(0x40, 0x80)\n    /* \"contracts/Enums_Struct_&_Modifier.sol\":2697:2699  56 */\n  0x38\n    /* \"contracts/Enums_Struct_&_Modifier.sol\":2686:2699  uint age = 56 */\n  0x00\n  sstore\n    /* \"contracts/Enums_Struct_&_Modifier.sol\":2662:2988  contract Modifier{... */\n  callvalue\n  dup1\n  iszero\n  tag_1\n  jumpi\n  0x00\n  dup1\n  revert\ntag_1:\n  pop\n  dataSize(sub_0)\n  dup1\n  dataOffset(sub_0)\n  0x00\n  codecopy\n  0x00\n  return\nstop\n\nsub_0: assembly {\n        /* \"contracts/Enums_Struct_&_Modifier.sol\":2662:2988  contract Modifier{... */\n      mstore(0x40, 0x80)\n      callvalue\n      dup1\n      iszero\n      tag_1\n      jumpi\n      0x00\n      dup1\n      revert\n    tag_1:\n      pop\n      jumpi(tag_2, lt(calldatasize, 0x04))\n      shr(0xe0, calldataload(0x00))\n      dup1\n      0x31a63323\n      eq\n      tag_3\n      jumpi\n      dup1\n      0xecdb71bf\n      eq\n      tag_4\n      jumpi\n    tag_2:\n      0x00\n      dup1\n      revert\n        /* \"contracts/Enums_Struct_&_Modifier.sol\":2886:2985  function updateAge2() public pure verifyAge(34) returns (bool) {... */\n    tag_3:\n      tag_5\n      tag_6\n      jump\t// in\n    tag_5:\n      mload(0x40)\n      tag_7\n      swap2\n      swap1\n      tag_8\n      jump\t// in\n    tag_7:\n      mload(0x40)\n      dup1\n      swap2\n      sub\n      swap1\n      return\n        /* \"contracts/Enums_Struct_&_Modifier.sol\":2796:2880  function updateAge() public pure verifyAge(67) returns(uint) {... */\n    tag_4:\n      tag_9\n      tag_10\n      jump\t// in\n    tag_9:\n      mload(0x40)\n      tag_11\n      swap2\n      swap1\n      tag_12\n      jump\t// in\n    tag_11:\n      mload(0x40)\n      dup1\n      swap2\n      sub\n      swap1\n      return\n        /* \"contracts/Enums_Struct_&_Modifier.sol\":2886:2985  function updateAge2() public pure verifyAge(34) returns (bool) {... */\n    tag_6:\n        /* \"contracts/Enums_Struct_&_Modifier.sol\":2943:2947  bool */\n      0x00\n        /* \"contracts/Enums_Struct_&_Modifier.sol\":2930:2932  34 */\n      0x22\n        /* \"contracts/Enums_Struct_&_Modifier.sol\":2752:2754  60 */\n      0x3c\n        /* \"contracts/Enums_Struct_&_Modifier.sol\":2748:2749  a */\n      dup2\n        /* \"contracts/Enums_Struct_&_Modifier.sol\":2748:2754  a > 60 */\n      gt\n        /* \"contracts/Enums_Struct_&_Modifier.sol\":2744:2783  if (a > 60){... */\n      iszero\n      tag_14\n      jumpi\n        /* \"contracts/Enums_Struct_&_Modifier.sol\":2973:2977  true */\n      0x01\n        /* \"contracts/Enums_Struct_&_Modifier.sol\":2966:2977  return true */\n      swap2\n      pop\n        /* \"contracts/Enums_Struct_&_Modifier.sol\":2744:2783  if (a > 60){... */\n    tag_14:\n        /* \"contracts/Enums_Struct_&_Modifier.sol\":2886:2985  function updateAge2() public pure verifyAge(34) returns (bool) {... */\n      pop\n      swap1\n      jump\t// out\n        /* \"contracts/Enums_Struct_&_Modifier.sol\":2796:2880  function updateAge() public pure verifyAge(67) returns(uint) {... */\n    tag_10:\n        /* \"contracts/Enums_Struct_&_Modifier.sol\":2851:2855  uint */\n      0x00\n        /* \"contracts/Enums_Struct_&_Modifier.sol\":2839:2841  67 */\n      0x43\n        /* \"contracts/Enums_Struct_&_Modifier.sol\":2752:2754  60 */\n      0x3c\n        /* \"contracts/Enums_Struct_&_Modifier.sol\":2748:2749  a */\n      dup2\n        /* \"contracts/Enums_Struct_&_Modifier.sol\":2748:2754  a > 60 */\n      gt\n        /* \"contracts/Enums_Struct_&_Modifier.sol\":2744:2783  if (a > 60){... */\n      iszero\n      tag_17\n      jumpi\n        /* \"contracts/Enums_Struct_&_Modifier.sol\":2873:2875  45 */\n      0x2d\n        /* \"contracts/Enums_Struct_&_Modifier.sol\":2866:2875  return 45 */\n      swap2\n      pop\n        /* \"contracts/Enums_Struct_&_Modifier.sol\":2744:2783  if (a > 60){... */\n    tag_17:\n        /* \"contracts/Enums_Struct_&_Modifier.sol\":2796:2880  function updateAge() public pure verifyAge(67) returns(uint) {... */\n      pop\n      swap1\n      jump\t// out\n        /* \"#utility.yul\":7:97   */\n    tag_19:\n        /* \"#utility.yul\":41:48   */\n      0x00\n        /* \"#utility.yul\":84:89   */\n      dup2\n        /* \"#utility.yul\":77:90   */\n      iszero\n        /* \"#utility.yul\":70:91   */\n      iszero\n        /* \"#utility.yul\":59:91   */\n      swap1\n      pop\n        /* \"#utility.yul\":7:97   */\n      swap2\n      swap1\n      pop\n      jump\t// out\n        /* \"#utility.yul\":103:212   */\n    tag_20:\n        /* \"#utility.yul\":184:205   */\n      tag_26\n        /* \"#utility.yul\":199:204   */\n      dup2\n        /* \"#utility.yul\":184:205   */\n      tag_19\n      jump\t// in\n    tag_26:\n        /* \"#utility.yul\":179:182   */\n      dup3\n        /* \"#utility.yul\":172:206   */\n      mstore\n        /* \"#utility.yul\":103:212   */\n      pop\n      pop\n      jump\t// out\n        /* \"#utility.yul\":218:428   */\n    tag_8:\n        /* \"#utility.yul\":305:309   */\n      0x00\n        /* \"#utility.yul\":343:345   */\n      0x20\n        /* \"#utility.yul\":332:341   */\n      dup3\n        /* \"#utility.yul\":328:346   */\n      add\n        /* \"#utility.yul\":320:346   */\n      swap1\n      pop\n        /* \"#utility.yul\":356:421   */\n      tag_28\n        /* \"#utility.yul\":418:419   */\n      0x00\n        /* \"#utility.yul\":407:416   */\n      dup4\n        /* \"#utility.yul\":403:420   */\n      add\n        /* \"#utility.yul\":394:400   */\n      dup5\n        /* \"#utility.yul\":356:421   */\n      tag_20\n      jump\t// in\n    tag_28:\n        /* \"#utility.yul\":218:428   */\n      swap3\n      swap2\n      pop\n      pop\n      jump\t// out\n        /* \"#utility.yul\":434:511   */\n    tag_21:\n        /* \"#utility.yul\":471:478   */\n      0x00\n        /* \"#utility.yul\":500:505   */\n      dup2\n        /* \"#utility.yul\":489:505   */\n      swap1\n      pop\n        /* \"#utility.yul\":434:511   */\n      swap2\n      swap1\n      pop\n      jump\t// out\n        /* \"#utility.yul\":517:635   */\n    tag_22:\n        /* \"#utility.yul\":604:628   */\n      tag_31\n        /* \"#utility.yul\":622:627   */\n      dup2\n        /* \"#utility.yul\":604:628   */\n      tag_21\n      jump\t// in\n    tag_31:\n        /* \"#utility.yul\":599:602   */\n      dup3\n        /* \"#utility.yul\":592:629   */\n      mstore\n        /* \"#utility.yul\":517:635   */\n      pop\n      pop\n      jump\t// out\n        /* \"#utility.yul\":641:863   */\n    tag_12:\n        /* \"#utility.yul\":734:738   */\n      0x00\n        /* \"#utility.yul\":772:774   */\n      0x20\n        /* \"#utility.yul\":761:770   */\n      dup3\n        /* \"#utility.yul\":757:775   */\n      add\n        /* \"#utility.yul\":749:775   */\n      swap1\n      pop\n        /* \"#utility.yul\":785:856   */\n      tag_33\n        /* \"#utility.yul\":853:854   */\n      0x00\n        /* \"#utility.yul\":842:851   */\n      dup4\n        /* \"#utility.yul\":838:855   */\n      add\n        /* \"#utility.yul\":829:835   */\n      dup5\n        /* \"#utility.yul\":785:856   */\n      tag_22\n      jump\t// in\n    tag_33:\n        /* \"#utility.yul\":641:863   */\n      swap3\n      swap2\n      pop\n      pop\n      jump\t// out\n\n    auxdata: 0xa2646970667358221220c71ac33b981cbaf47a843b063d0bfbe4b480d15798cf0026be38b91a7dd8e7db64736f6c63430008130033\n}\n",
				"bytecode": {
					"linkReferences": {},
					"object": "6080604052603860005534801561001557600080fd5b5061012d806100256000396000f3fe6080604052348015600f57600080fd5b506004361060325760003560e01c806331a63323146037578063ecdb71bf146051575b600080fd5b603d606b565b6040516048919060ae565b60405180910390f35b60576080565b6040516062919060de565b60405180910390f35b60006022603c811115607c57600191505b5090565b60006043603c811115609157602d91505b5090565b60008115159050919050565b60a8816095565b82525050565b600060208201905060c1600083018460a1565b92915050565b6000819050919050565b60d88160c7565b82525050565b600060208201905060f1600083018460d1565b9291505056fea2646970667358221220c71ac33b981cbaf47a843b063d0bfbe4b480d15798cf0026be38b91a7dd8e7db64736f6c63430008130033",
					"opcodes": "PUSH1 0x80 PUSH1 0x40 MSTORE PUSH1 0x38 PUSH1 0x0 SSTORE CALLVALUE DUP1 ISZERO PUSH2 0x15 JUMPI PUSH1 0x0 DUP1 REVERT JUMPDEST POP PUSH2 0x12D DUP1 PUSH2 0x25 PUSH1 0x0 CODECOPY PUSH1 0x0 RETURN INVALID PUSH1 0x80 PUSH1 0x40 MSTORE CALLVALUE DUP1 ISZERO PUSH1 0xF JUMPI PUSH1 0x0 DUP1 REVERT JUMPDEST POP PUSH1 0x4 CALLDATASIZE LT PUSH1 0x32 JUMPI PUSH1 0x0 CALLDATALOAD PUSH1 0xE0 SHR DUP1 PUSH4 0x31A63323 EQ PUSH1 0x37 JUMPI DUP1 PUSH4 0xECDB71BF EQ PUSH1 0x51 JUMPI JUMPDEST PUSH1 0x0 DUP1 REVERT JUMPDEST PUSH1 0x3D PUSH1 0x6B JUMP JUMPDEST PUSH1 0x40 MLOAD PUSH1 0x48 SWAP2 SWAP1 PUSH1 0xAE JUMP JUMPDEST PUSH1 0x40 MLOAD DUP1 SWAP2 SUB SWAP1 RETURN JUMPDEST PUSH1 0x57 PUSH1 0x80 JUMP JUMPDEST PUSH1 0x40 MLOAD PUSH1 0x62 SWAP2 SWAP1 PUSH1 0xDE JUMP JUMPDEST PUSH1 0x40 MLOAD DUP1 SWAP2 SUB SWAP1 RETURN JUMPDEST PUSH1 0x0 PUSH1 0x22 PUSH1 0x3C DUP2 GT ISZERO PUSH1 0x7C JUMPI PUSH1 0x1 SWAP2 POP JUMPDEST POP SWAP1 JUMP JUMPDEST PUSH1 0x0 PUSH1 0x43 PUSH1 0x3C DUP2 GT ISZERO PUSH1 0x91 JUMPI PUSH1 0x2D SWAP2 POP JUMPDEST POP SWAP1 JUMP JUMPDEST PUSH1 0x0 DUP2 ISZERO ISZERO SWAP1 POP SWAP2 SWAP1 POP JUMP JUMPDEST PUSH1 0xA8 DUP2 PUSH1 0x95 JUMP JUMPDEST DUP3 MSTORE POP POP JUMP JUMPDEST PUSH1 0x0 PUSH1 0x20 DUP3 ADD SWAP1 POP PUSH1 0xC1 PUSH1 0x0 DUP4 ADD DUP5 PUSH1 0xA1 JUMP JUMPDEST SWAP3 SWAP2 POP POP JUMP JUMPDEST PUSH1 0x0 DUP2 SWAP1 POP SWAP2 SWAP1 POP JUMP JUMPDEST PUSH1 0xD8 DUP2 PUSH1 0xC7 JUMP JUMPDEST DUP3 MSTORE POP POP JUMP JUMPDEST PUSH1 0x0 PUSH1 0x20 DUP3 ADD SWAP1 POP PUSH1 0xF1 PUSH1 0x0 DUP4 ADD DUP5 PUSH1 0xD1 JUMP JUMPDEST SWAP3 SWAP2 POP POP JUMP INVALID LOG2 PUSH5 0x6970667358 0x22 SLT KECCAK256 0xC7 BYTE 0xC3 EXTCODESIZE SWAP9 SHR 0xBA DELEGATECALL PUSH27 0x843B063D0BFBE4B480D15798CF0026BE38B91A7DD8E7DB64736F6C PUSH4 0x43000813 STOP CALLER "
				},
				"gasEstimates": {
					"creation": {
						"codeDepositCost": "60200",
						"executionCost": "22217",
						"totalCost": "82417"
					},
					"external": {
						"updateAge()": "368",
						"updateAge2()": "344"
					}
				},
				"methodIdentifiers": {
					"updateAge()": "ecdb71bf",
					"updateAge2()": "31a63323"
				}
			},
			"storageLayout": {
				"storage": [
					{
						"astId": 266,
						"contract": "contracts/Enums_Struct_&_Modifier.sol:Modifier",
						"label": "age",
						"offset": 0,
						"slot": "0",
						"type": "t_uint256"
					}
				],
				"types": {
					"t_uint256": {
						"encoding": "inplace",
						"label": "uint256",
						"numberOfBytes": "32"
					}
				}
			},
			"userdoc": {
				"kind": "user",
				"methods": {},
				"version": 1
			}
		}
	}
}