{
	"contracts/Function_Behaivior_Qualifier.sol": {
		"second": {
			"abi": [
				{
					"inputs": [],
					"name": "doSomeWork",
					"outputs": [
						{
							"internalType": "uint256",
							"name": "a",
							"type": "uint256"
						}
					],
					"stateMutability": "pure",
					"type": "function"
				},
				{
					"inputs": [],
					"name": "doSomeWork1",
					"outputs": [
						{
							"internalType": "string",
							"name": "",
							"type": "string"
						}
					],
					"stateMutability": "pure",
					"type": "function"
				},
				{
					"inputs": [],
					"name": "doSomeWork3",
					"outputs": [
						{
							"internalType": "bool",
							"name": "",
							"type": "bool"
						}
					],
					"stateMutability": "pure",
					"type": "function"
				}
			],
			"devdoc": {
				"kind": "dev",
				"methods": {},
				"version": 1
			},
			"evm": {
				"assembly": "    /* \"contracts/Function_Behaivior_Qualifier.sol\":520:982  contract second{... */\n  mstore(0x40, 0x80)\n  callvalue\n  dup1\n  iszero\n  tag_1\n  jumpi\n  0x00\n  dup1\n  revert\ntag_1:\n  pop\n  dataSize(sub_0)\n  dup1\n  dataOffset(sub_0)\n  0x00\n  codecopy\n  0x00\n  return\nstop\n\nsub_0: assembly {\n        /* \"contracts/Function_Behaivior_Qualifier.sol\":520:982  contract second{... */\n      mstore(0x40, 0x80)\n      callvalue\n      dup1\n      iszero\n      tag_1\n      jumpi\n      0x00\n      dup1\n      revert\n    tag_1:\n      pop\n      jumpi(tag_2, lt(calldatasize, 0x04))\n      shr(0xe0, calldataload(0x00))\n      dup1\n      0x062bb719\n      eq\n      tag_3\n      jumpi\n      dup1\n      0x303b5192\n      eq\n      tag_4\n      jumpi\n      dup1\n      0xfdc741ca\n      eq\n      tag_5\n      jumpi\n    tag_2:\n      0x00\n      dup1\n      revert\n        /* \"contracts/Function_Behaivior_Qualifier.sol\":646:741  function doSomeWork1() public pure returns (string memory) {... */\n    tag_3:\n      tag_6\n      tag_7\n      jump\t// in\n    tag_6:\n      mload(0x40)\n      tag_8\n      swap2\n      swap1\n      tag_9\n      jump\t// in\n    tag_8:\n      mload(0x40)\n      dup1\n      swap2\n      sub\n      swap1\n      return\n        /* \"contracts/Function_Behaivior_Qualifier.sol\":544:637  function doSomeWork() public pure returns (uint a) {... */\n    tag_4:\n      tag_10\n      tag_11\n      jump\t// in\n    tag_10:\n      mload(0x40)\n      tag_12\n      swap2\n      swap1\n      tag_13\n      jump\t// in\n    tag_12:\n      mload(0x40)\n      dup1\n      swap2\n      sub\n      swap1\n      return\n        /* \"contracts/Function_Behaivior_Qualifier.sol\":749:979  function doSomeWork3() public pure returns (bool) {... */\n    tag_5:\n      tag_14\n      tag_15\n      jump\t// in\n    tag_14:\n      mload(0x40)\n      tag_16\n      swap2\n      swap1\n      tag_17\n      jump\t// in\n    tag_16:\n      mload(0x40)\n      dup1\n      swap2\n      sub\n      swap1\n      return\n        /* \"contracts/Function_Behaivior_Qualifier.sol\":646:741  function doSomeWork1() public pure returns (string memory) {... */\n    tag_7:\n        /* \"contracts/Function_Behaivior_Qualifier.sol\":690:703  string memory */\n      0x60\n        /* \"contracts/Function_Behaivior_Qualifier.sol\":715:733  return \"Lets code\" */\n      mload(0x40)\n      dup1\n      0x40\n      add\n      0x40\n      mstore\n      dup1\n      0x09\n      dup2\n      mstore\n      0x20\n      add\n      0x4c65747320636f64650000000000000000000000000000000000000000000000\n      dup2\n      mstore\n      pop\n      swap1\n      pop\n        /* \"contracts/Function_Behaivior_Qualifier.sol\":646:741  function doSomeWork1() public pure returns (string memory) {... */\n      swap1\n      jump\t// out\n        /* \"contracts/Function_Behaivior_Qualifier.sol\":544:637  function doSomeWork() public pure returns (uint a) {... */\n    tag_11:\n        /* \"contracts/Function_Behaivior_Qualifier.sol\":587:593  uint a */\n      0x00\n        /* \"contracts/Function_Behaivior_Qualifier.sol\":609:611  45 */\n      0x2d\n        /* \"contracts/Function_Behaivior_Qualifier.sol\":605:611  a = 45 */\n      swap1\n      pop\n        /* \"contracts/Function_Behaivior_Qualifier.sol\":544:637  function doSomeWork() public pure returns (uint a) {... */\n      swap1\n      jump\t// out\n        /* \"contracts/Function_Behaivior_Qualifier.sol\":749:979  function doSomeWork3() public pure returns (bool) {... */\n    tag_15:\n        /* \"contracts/Function_Behaivior_Qualifier.sol\":793:797  bool */\n      0x00\n        /* \"contracts/Function_Behaivior_Qualifier.sol\":818:828  uint myAge */\n      dup1\n        /* \"contracts/Function_Behaivior_Qualifier.sol\":831:833  26 */\n      0x1a\n        /* \"contracts/Function_Behaivior_Qualifier.sol\":818:833  uint myAge = 26 */\n      swap1\n      pop\n        /* \"contracts/Function_Behaivior_Qualifier.sol\":843:854  uint hisAge */\n      0x00\n        /* \"contracts/Function_Behaivior_Qualifier.sol\":857:859  23 */\n      0x17\n        /* \"contracts/Function_Behaivior_Qualifier.sol\":843:859  uint hisAge = 23 */\n      swap1\n      pop\n        /* \"contracts/Function_Behaivior_Qualifier.sol\":890:896  hisAge */\n      dup1\n        /* \"contracts/Function_Behaivior_Qualifier.sol\":881:886  myAge */\n      dup3\n        /* \"contracts/Function_Behaivior_Qualifier.sol\":881:896  myAge == hisAge */\n      sub\n        /* \"contracts/Function_Behaivior_Qualifier.sol\":878:972  if(myAge == hisAge) {... */\n      tag_21\n      jumpi\n        /* \"contracts/Function_Behaivior_Qualifier.sol\":914:926  bool tellHim */\n      0x00\n        /* \"contracts/Function_Behaivior_Qualifier.sol\":929:933  true */\n      0x01\n        /* \"contracts/Function_Behaivior_Qualifier.sol\":914:933  bool tellHim = true */\n      swap1\n      pop\n        /* \"contracts/Function_Behaivior_Qualifier.sol\":954:961  tellHim */\n      dup1\n        /* \"contracts/Function_Behaivior_Qualifier.sol\":947:961  return tellHim */\n      swap4\n      pop\n      pop\n      pop\n      pop\n      jump(tag_20)\n        /* \"contracts/Function_Behaivior_Qualifier.sol\":878:972  if(myAge == hisAge) {... */\n    tag_21:\n        /* \"contracts/Function_Behaivior_Qualifier.sol\":799:979  {... */\n      pop\n      pop\n        /* \"contracts/Function_Behaivior_Qualifier.sol\":749:979  function doSomeWork3() public pure returns (bool) {... */\n    tag_20:\n      swap1\n      jump\t// out\n        /* \"#utility.yul\":7:106   */\n    tag_22:\n        /* \"#utility.yul\":59:65   */\n      0x00\n        /* \"#utility.yul\":93:98   */\n      dup2\n        /* \"#utility.yul\":87:99   */\n      mload\n        /* \"#utility.yul\":77:99   */\n      swap1\n      pop\n        /* \"#utility.yul\":7:106   */\n      swap2\n      swap1\n      pop\n      jump\t// out\n        /* \"#utility.yul\":112:281   */\n    tag_23:\n        /* \"#utility.yul\":196:207   */\n      0x00\n        /* \"#utility.yul\":230:236   */\n      dup3\n        /* \"#utility.yul\":225:228   */\n      dup3\n        /* \"#utility.yul\":218:237   */\n      mstore\n        /* \"#utility.yul\":270:274   */\n      0x20\n        /* \"#utility.yul\":265:268   */\n      dup3\n        /* \"#utility.yul\":261:275   */\n      add\n        /* \"#utility.yul\":246:275   */\n      swap1\n      pop\n        /* \"#utility.yul\":112:281   */\n      swap3\n      swap2\n      pop\n      pop\n      jump\t// out\n        /* \"#utility.yul\":287:533   */\n    tag_24:\n        /* \"#utility.yul\":368:369   */\n      0x00\n        /* \"#utility.yul\":378:491   */\n    tag_35:\n        /* \"#utility.yul\":392:398   */\n      dup4\n        /* \"#utility.yul\":389:390   */\n      dup2\n        /* \"#utility.yul\":386:399   */\n      lt\n        /* \"#utility.yul\":378:491   */\n      iszero\n      tag_37\n      jumpi\n        /* \"#utility.yul\":477:478   */\n      dup1\n        /* \"#utility.yul\":472:475   */\n      dup3\n        /* \"#utility.yul\":468:479   */\n      add\n        /* \"#utility.yul\":462:480   */\n      mload\n        /* \"#utility.yul\":458:459   */\n      dup2\n        /* \"#utility.yul\":453:456   */\n      dup5\n        /* \"#utility.yul\":449:460   */\n      add\n        /* \"#utility.yul\":442:481   */\n      mstore\n        /* \"#utility.yul\":414:416   */\n      0x20\n        /* \"#utility.yul\":411:412   */\n      dup2\n        /* \"#utility.yul\":407:417   */\n      add\n        /* \"#utility.yul\":402:417   */\n      swap1\n      pop\n        /* \"#utility.yul\":378:491   */\n      jump(tag_35)\n    tag_37:\n        /* \"#utility.yul\":525:526   */\n      0x00\n        /* \"#utility.yul\":516:522   */\n      dup5\n        /* \"#utility.yul\":511:514   */\n      dup5\n        /* \"#utility.yul\":507:523   */\n      add\n        /* \"#utility.yul\":500:527   */\n      mstore\n        /* \"#utility.yul\":349:533   */\n      pop\n        /* \"#utility.yul\":287:533   */\n      pop\n      pop\n      pop\n      jump\t// out\n        /* \"#utility.yul\":539:641   */\n    tag_25:\n        /* \"#utility.yul\":580:586   */\n      0x00\n        /* \"#utility.yul\":631:633   */\n      0x1f\n        /* \"#utility.yul\":627:634   */\n      not\n        /* \"#utility.yul\":622:624   */\n      0x1f\n        /* \"#utility.yul\":615:620   */\n      dup4\n        /* \"#utility.yul\":611:625   */\n      add\n        /* \"#utility.yul\":607:635   */\n      and\n        /* \"#utility.yul\":597:635   */\n      swap1\n      pop\n        /* \"#utility.yul\":539:641   */\n      swap2\n      swap1\n      pop\n      jump\t// out\n        /* \"#utility.yul\":647:1024   */\n    tag_26:\n        /* \"#utility.yul\":735:738   */\n      0x00\n        /* \"#utility.yul\":763:802   */\n      tag_40\n        /* \"#utility.yul\":796:801   */\n      dup3\n        /* \"#utility.yul\":763:802   */\n      tag_22\n      jump\t// in\n    tag_40:\n        /* \"#utility.yul\":818:889   */\n      tag_41\n        /* \"#utility.yul\":882:888   */\n      dup2\n        /* \"#utility.yul\":877:880   */\n      dup6\n        /* \"#utility.yul\":818:889   */\n      tag_23\n      jump\t// in\n    tag_41:\n        /* \"#utility.yul\":811:889   */\n      swap4\n      pop\n        /* \"#utility.yul\":898:963   */\n      tag_42\n        /* \"#utility.yul\":956:962   */\n      dup2\n        /* \"#utility.yul\":951:954   */\n      dup6\n        /* \"#utility.yul\":944:948   */\n      0x20\n        /* \"#utility.yul\":937:942   */\n      dup7\n        /* \"#utility.yul\":933:949   */\n      add\n        /* \"#utility.yul\":898:963   */\n      tag_24\n      jump\t// in\n    tag_42:\n        /* \"#utility.yul\":988:1017   */\n      tag_43\n        /* \"#utility.yul\":1010:1016   */\n      dup2\n        /* \"#utility.yul\":988:1017   */\n      tag_25\n      jump\t// in\n    tag_43:\n        /* \"#utility.yul\":983:986   */\n      dup5\n        /* \"#utility.yul\":979:1018   */\n      add\n        /* \"#utility.yul\":972:1018   */\n      swap2\n      pop\n        /* \"#utility.yul\":739:1024   */\n      pop\n        /* \"#utility.yul\":647:1024   */\n      swap3\n      swap2\n      pop\n      pop\n      jump\t// out\n        /* \"#utility.yul\":1030:1343   */\n    tag_9:\n        /* \"#utility.yul\":1143:1147   */\n      0x00\n        /* \"#utility.yul\":1181:1183   */\n      0x20\n        /* \"#utility.yul\":1170:1179   */\n      dup3\n        /* \"#utility.yul\":1166:1184   */\n      add\n        /* \"#utility.yul\":1158:1184   */\n      swap1\n      pop\n        /* \"#utility.yul\":1230:1239   */\n      dup2\n        /* \"#utility.yul\":1224:1228   */\n      dup2\n        /* \"#utility.yul\":1220:1240   */\n      sub\n        /* \"#utility.yul\":1216:1217   */\n      0x00\n        /* \"#utility.yul\":1205:1214   */\n      dup4\n        /* \"#utility.yul\":1201:1218   */\n      add\n        /* \"#utility.yul\":1194:1241   */\n      mstore\n        /* \"#utility.yul\":1258:1336   */\n      tag_45\n        /* \"#utility.yul\":1331:1335   */\n      dup2\n        /* \"#utility.yul\":1322:1328   */\n      dup5\n        /* \"#utility.yul\":1258:1336   */\n      tag_26\n      jump\t// in\n    tag_45:\n        /* \"#utility.yul\":1250:1336   */\n      swap1\n      pop\n        /* \"#utility.yul\":1030:1343   */\n      swap3\n      swap2\n      pop\n      pop\n      jump\t// out\n        /* \"#utility.yul\":1349:1426   */\n    tag_27:\n        /* \"#utility.yul\":1386:1393   */\n      0x00\n        /* \"#utility.yul\":1415:1420   */\n      dup2\n        /* \"#utility.yul\":1404:1420   */\n      swap1\n      pop\n        /* \"#utility.yul\":1349:1426   */\n      swap2\n      swap1\n      pop\n      jump\t// out\n        /* \"#utility.yul\":1432:1550   */\n    tag_28:\n        /* \"#utility.yul\":1519:1543   */\n      tag_48\n        /* \"#utility.yul\":1537:1542   */\n      dup2\n        /* \"#utility.yul\":1519:1543   */\n      tag_27\n      jump\t// in\n    tag_48:\n        /* \"#utility.yul\":1514:1517   */\n      dup3\n        /* \"#utility.yul\":1507:1544   */\n      mstore\n        /* \"#utility.yul\":1432:1550   */\n      pop\n      pop\n      jump\t// out\n        /* \"#utility.yul\":1556:1778   */\n    tag_13:\n        /* \"#utility.yul\":1649:1653   */\n      0x00\n        /* \"#utility.yul\":1687:1689   */\n      0x20\n        /* \"#utility.yul\":1676:1685   */\n      dup3\n        /* \"#utility.yul\":1672:1690   */\n      add\n        /* \"#utility.yul\":1664:1690   */\n      swap1\n      pop\n        /* \"#utility.yul\":1700:1771   */\n      tag_50\n        /* \"#utility.yul\":1768:1769   */\n      0x00\n        /* \"#utility.yul\":1757:1766   */\n      dup4\n        /* \"#utility.yul\":1753:1770   */\n      add\n        /* \"#utility.yul\":1744:1750   */\n      dup5\n        /* \"#utility.yul\":1700:1771   */\n      tag_28\n      jump\t// in\n    tag_50:\n        /* \"#utility.yul\":1556:1778   */\n      swap3\n      swap2\n      pop\n      pop\n      jump\t// out\n        /* \"#utility.yul\":1784:1874   */\n    tag_29:\n        /* \"#utility.yul\":1818:1825   */\n      0x00\n        /* \"#utility.yul\":1861:1866   */\n      dup2\n        /* \"#utility.yul\":1854:1867   */\n      iszero\n        /* \"#utility.yul\":1847:1868   */\n      iszero\n        /* \"#utility.yul\":1836:1868   */\n      swap1\n      pop\n        /* \"#utility.yul\":1784:1874   */\n      swap2\n      swap1\n      pop\n      jump\t// out\n        /* \"#utility.yul\":1880:1989   */\n    tag_30:\n        /* \"#utility.yul\":1961:1982   */\n      tag_53\n        /* \"#utility.yul\":1976:1981   */\n      dup2\n        /* \"#utility.yul\":1961:1982   */\n      tag_29\n      jump\t// in\n    tag_53:\n        /* \"#utility.yul\":1956:1959   */\n      dup3\n        /* \"#utility.yul\":1949:1983   */\n      mstore\n        /* \"#utility.yul\":1880:1989   */\n      pop\n      pop\n      jump\t// out\n        /* \"#utility.yul\":1995:2205   */\n    tag_17:\n        /* \"#utility.yul\":2082:2086   */\n      0x00\n        /* \"#utility.yul\":2120:2122   */\n      0x20\n        /* \"#utility.yul\":2109:2118   */\n      dup3\n        /* \"#utility.yul\":2105:2123   */\n      add\n        /* \"#utility.yul\":2097:2123   */\n      swap1\n      pop\n        /* \"#utility.yul\":2133:2198   */\n      tag_55\n        /* \"#utility.yul\":2195:2196   */\n      0x00\n        /* \"#utility.yul\":2184:2193   */\n      dup4\n        /* \"#utility.yul\":2180:2197   */\n      add\n        /* \"#utility.yul\":2171:2177   */\n      dup5\n        /* \"#utility.yul\":2133:2198   */\n      tag_30\n      jump\t// in\n    tag_55:\n        /* \"#utility.yul\":1995:2205   */\n      swap3\n      swap2\n      pop\n      pop\n      jump\t// out\n\n    auxdata: 0xa26469706673582212205763741d6244eb6eb7bc968cf937a7733d245d65f6483c3bc9c232975de43b4564736f6c63430008130033\n}\n",
				"bytecode": {
					"linkReferences": {},
					"object": "608060405234801561001057600080fd5b50610263806100206000396000f3fe608060405234801561001057600080fd5b50600436106100415760003560e01c8063062bb71914610046578063303b519214610064578063fdc741ca14610082575b600080fd5b61004e6100a0565b60405161005b91906101a1565b60405180910390f35b61006c6100dd565b60405161007991906101dc565b60405180910390f35b61008a6100e6565b6040516100979190610212565b60405180910390f35b60606040518060400160405280600981526020017f4c65747320636f64650000000000000000000000000000000000000000000000815250905090565b6000602d905090565b600080601a905060006017905080820361010b5760006001905080935050505061010e565b50505b90565b600081519050919050565b600082825260208201905092915050565b60005b8381101561014b578082015181840152602081019050610130565b60008484015250505050565b6000601f19601f8301169050919050565b600061017382610111565b61017d818561011c565b935061018d81856020860161012d565b61019681610157565b840191505092915050565b600060208201905081810360008301526101bb8184610168565b905092915050565b6000819050919050565b6101d6816101c3565b82525050565b60006020820190506101f160008301846101cd565b92915050565b60008115159050919050565b61020c816101f7565b82525050565b60006020820190506102276000830184610203565b9291505056fea26469706673582212205763741d6244eb6eb7bc968cf937a7733d245d65f6483c3bc9c232975de43b4564736f6c63430008130033",
					"opcodes": "PUSH1 0x80 PUSH1 0x40 MSTORE CALLVALUE DUP1 ISZERO PUSH2 0x10 JUMPI PUSH1 0x0 DUP1 REVERT JUMPDEST POP PUSH2 0x263 DUP1 PUSH2 0x20 PUSH1 0x0 CODECOPY PUSH1 0x0 RETURN INVALID PUSH1 0x80 PUSH1 0x40 MSTORE CALLVALUE DUP1 ISZERO PUSH2 0x10 JUMPI PUSH1 0x0 DUP1 REVERT JUMPDEST POP PUSH1 0x4 CALLDATASIZE LT PUSH2 0x41 JUMPI PUSH1 0x0 CALLDATALOAD PUSH1 0xE0 SHR DUP1 PUSH4 0x62BB719 EQ PUSH2 0x46 JUMPI DUP1 PUSH4 0x303B5192 EQ PUSH2 0x64 JUMPI DUP1 PUSH4 0xFDC741CA EQ PUSH2 0x82 JUMPI JUMPDEST PUSH1 0x0 DUP1 REVERT JUMPDEST PUSH2 0x4E PUSH2 0xA0 JUMP JUMPDEST PUSH1 0x40 MLOAD PUSH2 0x5B SWAP2 SWAP1 PUSH2 0x1A1 JUMP JUMPDEST PUSH1 0x40 MLOAD DUP1 SWAP2 SUB SWAP1 RETURN JUMPDEST PUSH2 0x6C PUSH2 0xDD JUMP JUMPDEST PUSH1 0x40 MLOAD PUSH2 0x79 SWAP2 SWAP1 PUSH2 0x1DC JUMP JUMPDEST PUSH1 0x40 MLOAD DUP1 SWAP2 SUB SWAP1 RETURN JUMPDEST PUSH2 0x8A PUSH2 0xE6 JUMP JUMPDEST PUSH1 0x40 MLOAD PUSH2 0x97 SWAP2 SWAP1 PUSH2 0x212 JUMP JUMPDEST PUSH1 0x40 MLOAD DUP1 SWAP2 SUB SWAP1 RETURN JUMPDEST PUSH1 0x60 PUSH1 0x40 MLOAD DUP1 PUSH1 0x40 ADD PUSH1 0x40 MSTORE DUP1 PUSH1 0x9 DUP2 MSTORE PUSH1 0x20 ADD PUSH32 0x4C65747320636F64650000000000000000000000000000000000000000000000 DUP2 MSTORE POP SWAP1 POP SWAP1 JUMP JUMPDEST PUSH1 0x0 PUSH1 0x2D SWAP1 POP SWAP1 JUMP JUMPDEST PUSH1 0x0 DUP1 PUSH1 0x1A SWAP1 POP PUSH1 0x0 PUSH1 0x17 SWAP1 POP DUP1 DUP3 SUB PUSH2 0x10B JUMPI PUSH1 0x0 PUSH1 0x1 SWAP1 POP DUP1 SWAP4 POP POP POP POP PUSH2 0x10E JUMP JUMPDEST POP POP JUMPDEST SWAP1 JUMP JUMPDEST PUSH1 0x0 DUP2 MLOAD SWAP1 POP SWAP2 SWAP1 POP JUMP JUMPDEST PUSH1 0x0 DUP3 DUP3 MSTORE PUSH1 0x20 DUP3 ADD SWAP1 POP SWAP3 SWAP2 POP POP JUMP JUMPDEST PUSH1 0x0 JUMPDEST DUP4 DUP2 LT ISZERO PUSH2 0x14B JUMPI DUP1 DUP3 ADD MLOAD DUP2 DUP5 ADD MSTORE PUSH1 0x20 DUP2 ADD SWAP1 POP PUSH2 0x130 JUMP JUMPDEST PUSH1 0x0 DUP5 DUP5 ADD MSTORE POP POP POP POP JUMP JUMPDEST PUSH1 0x0 PUSH1 0x1F NOT PUSH1 0x1F DUP4 ADD AND SWAP1 POP SWAP2 SWAP1 POP JUMP JUMPDEST PUSH1 0x0 PUSH2 0x173 DUP3 PUSH2 0x111 JUMP JUMPDEST PUSH2 0x17D DUP2 DUP6 PUSH2 0x11C JUMP JUMPDEST SWAP4 POP PUSH2 0x18D DUP2 DUP6 PUSH1 0x20 DUP7 ADD PUSH2 0x12D JUMP JUMPDEST PUSH2 0x196 DUP2 PUSH2 0x157 JUMP JUMPDEST DUP5 ADD SWAP2 POP POP SWAP3 SWAP2 POP POP JUMP JUMPDEST PUSH1 0x0 PUSH1 0x20 DUP3 ADD SWAP1 POP DUP2 DUP2 SUB PUSH1 0x0 DUP4 ADD MSTORE PUSH2 0x1BB DUP2 DUP5 PUSH2 0x168 JUMP JUMPDEST SWAP1 POP SWAP3 SWAP2 POP POP JUMP JUMPDEST PUSH1 0x0 DUP2 SWAP1 POP SWAP2 SWAP1 POP JUMP JUMPDEST PUSH2 0x1D6 DUP2 PUSH2 0x1C3 JUMP JUMPDEST DUP3 MSTORE POP POP JUMP JUMPDEST PUSH1 0x0 PUSH1 0x20 DUP3 ADD SWAP1 POP PUSH2 0x1F1 PUSH1 0x0 DUP4 ADD DUP5 PUSH2 0x1CD JUMP JUMPDEST SWAP3 SWAP2 POP POP JUMP JUMPDEST PUSH1 0x0 DUP2 ISZERO ISZERO SWAP1 POP SWAP2 SWAP1 POP JUMP JUMPDEST PUSH2 0x20C DUP2 PUSH2 0x1F7 JUMP JUMPDEST DUP3 MSTORE POP POP JUMP JUMPDEST PUSH1 0x0 PUSH1 0x20 DUP3 ADD SWAP1 POP PUSH2 0x227 PUSH1 0x0 DUP4 ADD DUP5 PUSH2 0x203 JUMP JUMPDEST SWAP3 SWAP2 POP POP JUMP INVALID LOG2 PUSH5 0x6970667358 0x22 SLT KECCAK256 JUMPI PUSH4 0x741D6244 0xEB PUSH15 0xB7BC968CF937A7733D245D65F6483C EXTCODESIZE 0xC9 0xC2 ORIGIN SWAP8 0x5D 0xE4 EXTCODESIZE GASLIMIT PUSH5 0x736F6C6343 STOP ADDMOD SGT STOP CALLER "
				},
				"gasEstimates": {
					"creation": {
						"codeDepositCost": "122200",
						"executionCost": "171",
						"totalCost": "122371"
					},
					"external": {
						"doSomeWork()": "337",
						"doSomeWork1()": "infinite",
						"doSomeWork3()": "407"
					}
				},
				"methodIdentifiers": {
					"doSomeWork()": "303b5192",
					"doSomeWork1()": "062bb719",
					"doSomeWork3()": "fdc741ca"
				}
			},
			"storageLayout": {
				"storage": [],
				"types": null
			},
			"userdoc": {
				"kind": "user",
				"methods": {},
				"version": 1
			}
		}
	}
}