{
	"contracts/Enums_Struct_Modifier_&_Event.sol": {
		"EnumLottery": {
			"abi": [
				{
					"inputs": [],
					"name": "changeOwner",
					"outputs": [],
					"stateMutability": "nonpayable",
					"type": "function"
				},
				{
					"inputs": [],
					"name": "lottery",
					"outputs": [
						{
							"internalType": "uint256",
							"name": "",
							"type": "uint256"
						}
					],
					"stateMutability": "view",
					"type": "function"
				},
				{
					"inputs": [],
					"name": "owner",
					"outputs": [],
					"stateMutability": "nonpayable",
					"type": "function"
				},
				{
					"inputs": [],
					"name": "u1",
					"outputs": [
						{
							"internalType": "enum EnumLottery.user",
							"name": "",
							"type": "uint8"
						}
					],
					"stateMutability": "view",
					"type": "function"
				}
			],
			"devdoc": {
				"kind": "dev",
				"methods": {},
				"version": 1
			},
			"evm": {
				"assembly": "    /* \"contracts/Enums_Struct_Modifier_&_Event.sol\":303:673  contract EnumLottery {... */\n  mstore(0x40, 0x80)\n    /* \"contracts/Enums_Struct_Modifier_&_Event.sol\":415:424  user.wait */\n  0x02\n    /* \"contracts/Enums_Struct_Modifier_&_Event.sol\":398:424  user public u1 = user.wait */\n  0x00\n  dup1\n  0x0100\n  exp\n  dup2\n  sload\n  dup2\n  0xff\n  mul\n  not\n  and\n  swap1\n  dup4\n  0x02\n  dup2\n  gt\n  iszero\n  tag_1\n  jumpi\n  tag_2\n  tag_3\n  jump\t// in\ntag_2:\ntag_1:\n  mul\n  or\n  swap1\n  sstore\n  pop\n    /* \"contracts/Enums_Struct_Modifier_&_Event.sol\":454:458  1000 */\n  0x03e8\n    /* \"contracts/Enums_Struct_Modifier_&_Event.sol\":432:458  uint public lottery = 1000 */\n  0x01\n  sstore\n    /* \"contracts/Enums_Struct_Modifier_&_Event.sol\":303:673  contract EnumLottery {... */\n  callvalue\n  dup1\n  iszero\n  tag_4\n  jumpi\n  0x00\n  dup1\n  revert\ntag_4:\n  pop\n  jump(tag_5)\n    /* \"#utility.yul\":7:187   */\ntag_3:\n    /* \"#utility.yul\":55:132   */\n  0x4e487b7100000000000000000000000000000000000000000000000000000000\n    /* \"#utility.yul\":52:53   */\n  0x00\n    /* \"#utility.yul\":45:133   */\n  mstore\n    /* \"#utility.yul\":152:156   */\n  0x21\n    /* \"#utility.yul\":149:150   */\n  0x04\n    /* \"#utility.yul\":142:157   */\n  mstore\n    /* \"#utility.yul\":176:180   */\n  0x24\n    /* \"#utility.yul\":173:174   */\n  0x00\n    /* \"#utility.yul\":166:181   */\n  revert\n    /* \"contracts/Enums_Struct_Modifier_&_Event.sol\":303:673  contract EnumLottery {... */\ntag_5:\n  dataSize(sub_0)\n  dup1\n  dataOffset(sub_0)\n  0x00\n  codecopy\n  0x00\n  return\nstop\n\nsub_0: assembly {\n        /* \"contracts/Enums_Struct_Modifier_&_Event.sol\":303:673  contract EnumLottery {... */\n      mstore(0x40, 0x80)\n      callvalue\n      dup1\n      iszero\n      tag_1\n      jumpi\n      0x00\n      dup1\n      revert\n    tag_1:\n      pop\n      jumpi(tag_2, lt(calldatasize, 0x04))\n      shr(0xe0, calldataload(0x00))\n      dup1\n      0x1aa35610\n      eq\n      tag_3\n      jumpi\n      dup1\n      0x62a09477\n      eq\n      tag_4\n      jumpi\n      dup1\n      0x8da5cb5b\n      eq\n      tag_5\n      jumpi\n      dup1\n      0xba13a572\n      eq\n      tag_6\n      jumpi\n    tag_2:\n      0x00\n      dup1\n      revert\n        /* \"contracts/Enums_Struct_Modifier_&_Event.sol\":398:424  user public u1 = user.wait */\n    tag_3:\n      tag_7\n      tag_8\n      jump\t// in\n    tag_7:\n      mload(0x40)\n      tag_9\n      swap2\n      swap1\n      tag_10\n      jump\t// in\n    tag_9:\n      mload(0x40)\n      dup1\n      swap2\n      sub\n      swap1\n      return\n        /* \"contracts/Enums_Struct_Modifier_&_Event.sol\":598:670  function changeOwner() public {... */\n    tag_4:\n      tag_11\n      tag_12\n      jump\t// in\n    tag_11:\n      stop\n        /* \"contracts/Enums_Struct_Modifier_&_Event.sol\":468:590  function owner() public {... */\n    tag_5:\n      tag_13\n      tag_14\n      jump\t// in\n    tag_13:\n      stop\n        /* \"contracts/Enums_Struct_Modifier_&_Event.sol\":432:458  uint public lottery = 1000 */\n    tag_6:\n      tag_15\n      tag_16\n      jump\t// in\n    tag_15:\n      mload(0x40)\n      tag_17\n      swap2\n      swap1\n      tag_18\n      jump\t// in\n    tag_17:\n      mload(0x40)\n      dup1\n      swap2\n      sub\n      swap1\n      return\n        /* \"contracts/Enums_Struct_Modifier_&_Event.sol\":398:424  user public u1 = user.wait */\n    tag_8:\n      0x00\n      dup1\n      sload\n      swap1\n      0x0100\n      exp\n      swap1\n      div\n      0xff\n      and\n      dup2\n      jump\t// out\n        /* \"contracts/Enums_Struct_Modifier_&_Event.sol\":598:670  function changeOwner() public {... */\n    tag_12:\n        /* \"contracts/Enums_Struct_Modifier_&_Event.sol\":646:662  user.not_allowed */\n      0x01\n        /* \"contracts/Enums_Struct_Modifier_&_Event.sol\":641:643  u1 */\n      0x00\n      dup1\n        /* \"contracts/Enums_Struct_Modifier_&_Event.sol\":641:662  u1 = user.not_allowed */\n      0x0100\n      exp\n      dup2\n      sload\n      dup2\n      0xff\n      mul\n      not\n      and\n      swap1\n      dup4\n      0x02\n      dup2\n      gt\n      iszero\n      tag_20\n      jumpi\n      tag_21\n      tag_22\n      jump\t// in\n    tag_21:\n    tag_20:\n      mul\n      or\n      swap1\n      sstore\n      pop\n        /* \"contracts/Enums_Struct_Modifier_&_Event.sol\":598:670  function changeOwner() public {... */\n      jump\t// out\n        /* \"contracts/Enums_Struct_Modifier_&_Event.sol\":468:590  function owner() public {... */\n    tag_14:\n        /* \"contracts/Enums_Struct_Modifier_&_Event.sol\":515:527  user.allowed */\n      0x00\n        /* \"contracts/Enums_Struct_Modifier_&_Event.sol\":509:527  u1 == user.allowed */\n      0x02\n      dup2\n      gt\n      iszero\n      tag_24\n      jumpi\n      tag_25\n      tag_22\n      jump\t// in\n    tag_25:\n    tag_24:\n        /* \"contracts/Enums_Struct_Modifier_&_Event.sol\":509:511  u1 */\n      0x00\n      dup1\n      sload\n      swap1\n      0x0100\n      exp\n      swap1\n      div\n      0xff\n      and\n        /* \"contracts/Enums_Struct_Modifier_&_Event.sol\":509:527  u1 == user.allowed */\n      0x02\n      dup2\n      gt\n      iszero\n      tag_26\n      jumpi\n      tag_27\n      tag_22\n      jump\t// in\n    tag_27:\n    tag_26:\n      sub\n        /* \"contracts/Enums_Struct_Modifier_&_Event.sol\":505:583  if (u1 == user.allowed)... */\n      tag_28\n      jumpi\n        /* \"contracts/Enums_Struct_Modifier_&_Event.sol\":568:569  0 */\n      0x00\n        /* \"contracts/Enums_Struct_Modifier_&_Event.sol\":558:565  lottery */\n      0x01\n        /* \"contracts/Enums_Struct_Modifier_&_Event.sol\":558:569  lottery = 0 */\n      dup2\n      swap1\n      sstore\n      pop\n        /* \"contracts/Enums_Struct_Modifier_&_Event.sol\":505:583  if (u1 == user.allowed)... */\n    tag_28:\n        /* \"contracts/Enums_Struct_Modifier_&_Event.sol\":468:590  function owner() public {... */\n      jump\t// out\n        /* \"contracts/Enums_Struct_Modifier_&_Event.sol\":432:458  uint public lottery = 1000 */\n    tag_16:\n      sload(0x01)\n      dup2\n      jump\t// out\n        /* \"#utility.yul\":7:187   */\n    tag_22:\n        /* \"#utility.yul\":55:132   */\n      0x4e487b7100000000000000000000000000000000000000000000000000000000\n        /* \"#utility.yul\":52:53   */\n      0x00\n        /* \"#utility.yul\":45:133   */\n      mstore\n        /* \"#utility.yul\":152:156   */\n      0x21\n        /* \"#utility.yul\":149:150   */\n      0x04\n        /* \"#utility.yul\":142:157   */\n      mstore\n        /* \"#utility.yul\":176:180   */\n      0x24\n        /* \"#utility.yul\":173:174   */\n      0x00\n        /* \"#utility.yul\":166:181   */\n      revert\n        /* \"#utility.yul\":193:305   */\n    tag_29:\n        /* \"#utility.yul\":273:274   */\n      0x03\n        /* \"#utility.yul\":266:271   */\n      dup2\n        /* \"#utility.yul\":263:275   */\n      lt\n        /* \"#utility.yul\":253:299   */\n      tag_38\n      jumpi\n        /* \"#utility.yul\":279:297   */\n      tag_39\n      tag_22\n      jump\t// in\n    tag_39:\n        /* \"#utility.yul\":253:299   */\n    tag_38:\n        /* \"#utility.yul\":193:305   */\n      pop\n      jump\t// out\n        /* \"#utility.yul\":311:436   */\n    tag_30:\n        /* \"#utility.yul\":355:362   */\n      0x00\n        /* \"#utility.yul\":384:389   */\n      dup2\n        /* \"#utility.yul\":373:389   */\n      swap1\n      pop\n        /* \"#utility.yul\":390:430   */\n      tag_41\n        /* \"#utility.yul\":424:429   */\n      dup3\n        /* \"#utility.yul\":390:430   */\n      tag_29\n      jump\t// in\n    tag_41:\n        /* \"#utility.yul\":311:436   */\n      swap2\n      swap1\n      pop\n      jump\t// out\n        /* \"#utility.yul\":442:567   */\n    tag_31:\n        /* \"#utility.yul\":497:506   */\n      0x00\n        /* \"#utility.yul\":530:561   */\n      tag_43\n        /* \"#utility.yul\":555:560   */\n      dup3\n        /* \"#utility.yul\":530:561   */\n      tag_30\n      jump\t// in\n    tag_43:\n        /* \"#utility.yul\":517:561   */\n      swap1\n      pop\n        /* \"#utility.yul\":442:567   */\n      swap2\n      swap1\n      pop\n      jump\t// out\n        /* \"#utility.yul\":573:714   */\n    tag_32:\n        /* \"#utility.yul\":665:707   */\n      tag_45\n        /* \"#utility.yul\":701:706   */\n      dup2\n        /* \"#utility.yul\":665:707   */\n      tag_31\n      jump\t// in\n    tag_45:\n        /* \"#utility.yul\":660:663   */\n      dup3\n        /* \"#utility.yul\":653:708   */\n      mstore\n        /* \"#utility.yul\":573:714   */\n      pop\n      pop\n      jump\t// out\n        /* \"#utility.yul\":720:952   */\n    tag_10:\n        /* \"#utility.yul\":818:822   */\n      0x00\n        /* \"#utility.yul\":856:858   */\n      0x20\n        /* \"#utility.yul\":845:854   */\n      dup3\n        /* \"#utility.yul\":841:859   */\n      add\n        /* \"#utility.yul\":833:859   */\n      swap1\n      pop\n        /* \"#utility.yul\":869:945   */\n      tag_47\n        /* \"#utility.yul\":942:943   */\n      0x00\n        /* \"#utility.yul\":931:940   */\n      dup4\n        /* \"#utility.yul\":927:944   */\n      add\n        /* \"#utility.yul\":918:924   */\n      dup5\n        /* \"#utility.yul\":869:945   */\n      tag_32\n      jump\t// in\n    tag_47:\n        /* \"#utility.yul\":720:952   */\n      swap3\n      swap2\n      pop\n      pop\n      jump\t// out\n        /* \"#utility.yul\":958:1035   */\n    tag_33:\n        /* \"#utility.yul\":995:1002   */\n      0x00\n        /* \"#utility.yul\":1024:1029   */\n      dup2\n        /* \"#utility.yul\":1013:1029   */\n      swap1\n      pop\n        /* \"#utility.yul\":958:1035   */\n      swap2\n      swap1\n      pop\n      jump\t// out\n        /* \"#utility.yul\":1041:1159   */\n    tag_34:\n        /* \"#utility.yul\":1128:1152   */\n      tag_50\n        /* \"#utility.yul\":1146:1151   */\n      dup2\n        /* \"#utility.yul\":1128:1152   */\n      tag_33\n      jump\t// in\n    tag_50:\n        /* \"#utility.yul\":1123:1126   */\n      dup3\n        /* \"#utility.yul\":1116:1153   */\n      mstore\n        /* \"#utility.yul\":1041:1159   */\n      pop\n      pop\n      jump\t// out\n        /* \"#utility.yul\":1165:1387   */\n    tag_18:\n        /* \"#utility.yul\":1258:1262   */\n      0x00\n        /* \"#utility.yul\":1296:1298   */\n      0x20\n        /* \"#utility.yul\":1285:1294   */\n      dup3\n        /* \"#utility.yul\":1281:1299   */\n      add\n        /* \"#utility.yul\":1273:1299   */\n      swap1\n      pop\n        /* \"#utility.yul\":1309:1380   */\n      tag_52\n        /* \"#utility.yul\":1377:1378   */\n      0x00\n        /* \"#utility.yul\":1366:1375   */\n      dup4\n        /* \"#utility.yul\":1362:1379   */\n      add\n        /* \"#utility.yul\":1353:1359   */\n      dup5\n        /* \"#utility.yul\":1309:1380   */\n      tag_34\n      jump\t// in\n    tag_52:\n        /* \"#utility.yul\":1165:1387   */\n      swap3\n      swap2\n      pop\n      pop\n      jump\t// out\n\n    auxdata: 0xa2646970667358221220c39a9b15fe9f9f0b9e65074506e41eabfcaa60afb057d20103e45fe0b89a56a164736f6c63430008130033\n}\n",
				"bytecode": {
					"linkReferences": {},
					"object": "608060405260026000806101000a81548160ff0219169083600281111561002957610028610046565b5b02179055506103e860015534801561004057600080fd5b50610075565b7f4e487b7100000000000000000000000000000000000000000000000000000000600052602160045260246000fd5b610224806100846000396000f3fe608060405234801561001057600080fd5b506004361061004c5760003560e01c80631aa356101461005157806362a094771461006f5780638da5cb5b14610079578063ba13a57214610083575b600080fd5b6100596100a1565b604051610066919061019f565b60405180910390f35b6100776100b2565b005b6100816100de565b005b61008b610122565b60405161009891906101d3565b60405180910390f35b60008054906101000a900460ff1681565b60016000806101000a81548160ff021916908360028111156100d7576100d6610128565b5b0217905550565b600060028111156100f2576100f1610128565b5b60008054906101000a900460ff16600281111561011257610111610128565b5b036101205760006001819055505b565b60015481565b7f4e487b7100000000000000000000000000000000000000000000000000000000600052602160045260246000fd5b6003811061016857610167610128565b5b50565b600081905061017982610157565b919050565b60006101898261016b565b9050919050565b6101998161017e565b82525050565b60006020820190506101b46000830184610190565b92915050565b6000819050919050565b6101cd816101ba565b82525050565b60006020820190506101e860008301846101c4565b9291505056fea2646970667358221220c39a9b15fe9f9f0b9e65074506e41eabfcaa60afb057d20103e45fe0b89a56a164736f6c63430008130033",
					"opcodes": "PUSH1 0x80 PUSH1 0x40 MSTORE PUSH1 0x2 PUSH1 0x0 DUP1 PUSH2 0x100 EXP DUP2 SLOAD DUP2 PUSH1 0xFF MUL NOT AND SWAP1 DUP4 PUSH1 0x2 DUP2 GT ISZERO PUSH2 0x29 JUMPI PUSH2 0x28 PUSH2 0x46 JUMP JUMPDEST JUMPDEST MUL OR SWAP1 SSTORE POP PUSH2 0x3E8 PUSH1 0x1 SSTORE CALLVALUE DUP1 ISZERO PUSH2 0x40 JUMPI PUSH1 0x0 DUP1 REVERT JUMPDEST POP PUSH2 0x75 JUMP JUMPDEST PUSH32 0x4E487B7100000000000000000000000000000000000000000000000000000000 PUSH1 0x0 MSTORE PUSH1 0x21 PUSH1 0x4 MSTORE PUSH1 0x24 PUSH1 0x0 REVERT JUMPDEST PUSH2 0x224 DUP1 PUSH2 0x84 PUSH1 0x0 CODECOPY PUSH1 0x0 RETURN INVALID PUSH1 0x80 PUSH1 0x40 MSTORE CALLVALUE DUP1 ISZERO PUSH2 0x10 JUMPI PUSH1 0x0 DUP1 REVERT JUMPDEST POP PUSH1 0x4 CALLDATASIZE LT PUSH2 0x4C JUMPI PUSH1 0x0 CALLDATALOAD PUSH1 0xE0 SHR DUP1 PUSH4 0x1AA35610 EQ PUSH2 0x51 JUMPI DUP1 PUSH4 0x62A09477 EQ PUSH2 0x6F JUMPI DUP1 PUSH4 0x8DA5CB5B EQ PUSH2 0x79 JUMPI DUP1 PUSH4 0xBA13A572 EQ PUSH2 0x83 JUMPI JUMPDEST PUSH1 0x0 DUP1 REVERT JUMPDEST PUSH2 0x59 PUSH2 0xA1 JUMP JUMPDEST PUSH1 0x40 MLOAD PUSH2 0x66 SWAP2 SWAP1 PUSH2 0x19F JUMP JUMPDEST PUSH1 0x40 MLOAD DUP1 SWAP2 SUB SWAP1 RETURN JUMPDEST PUSH2 0x77 PUSH2 0xB2 JUMP JUMPDEST STOP JUMPDEST PUSH2 0x81 PUSH2 0xDE JUMP JUMPDEST STOP JUMPDEST PUSH2 0x8B PUSH2 0x122 JUMP JUMPDEST PUSH1 0x40 MLOAD PUSH2 0x98 SWAP2 SWAP1 PUSH2 0x1D3 JUMP JUMPDEST PUSH1 0x40 MLOAD DUP1 SWAP2 SUB SWAP1 RETURN JUMPDEST PUSH1 0x0 DUP1 SLOAD SWAP1 PUSH2 0x100 EXP SWAP1 DIV PUSH1 0xFF AND DUP2 JUMP JUMPDEST PUSH1 0x1 PUSH1 0x0 DUP1 PUSH2 0x100 EXP DUP2 SLOAD DUP2 PUSH1 0xFF MUL NOT AND SWAP1 DUP4 PUSH1 0x2 DUP2 GT ISZERO PUSH2 0xD7 JUMPI PUSH2 0xD6 PUSH2 0x128 JUMP JUMPDEST JUMPDEST MUL OR SWAP1 SSTORE POP JUMP JUMPDEST PUSH1 0x0 PUSH1 0x2 DUP2 GT ISZERO PUSH2 0xF2 JUMPI PUSH2 0xF1 PUSH2 0x128 JUMP JUMPDEST JUMPDEST PUSH1 0x0 DUP1 SLOAD SWAP1 PUSH2 0x100 EXP SWAP1 DIV PUSH1 0xFF AND PUSH1 0x2 DUP2 GT ISZERO PUSH2 0x112 JUMPI PUSH2 0x111 PUSH2 0x128 JUMP JUMPDEST JUMPDEST SUB PUSH2 0x120 JUMPI PUSH1 0x0 PUSH1 0x1 DUP2 SWAP1 SSTORE POP JUMPDEST JUMP JUMPDEST PUSH1 0x1 SLOAD DUP2 JUMP JUMPDEST PUSH32 0x4E487B7100000000000000000000000000000000000000000000000000000000 PUSH1 0x0 MSTORE PUSH1 0x21 PUSH1 0x4 MSTORE PUSH1 0x24 PUSH1 0x0 REVERT JUMPDEST PUSH1 0x3 DUP2 LT PUSH2 0x168 JUMPI PUSH2 0x167 PUSH2 0x128 JUMP JUMPDEST JUMPDEST POP JUMP JUMPDEST PUSH1 0x0 DUP2 SWAP1 POP PUSH2 0x179 DUP3 PUSH2 0x157 JUMP JUMPDEST SWAP2 SWAP1 POP JUMP JUMPDEST PUSH1 0x0 PUSH2 0x189 DUP3 PUSH2 0x16B JUMP JUMPDEST SWAP1 POP SWAP2 SWAP1 POP JUMP JUMPDEST PUSH2 0x199 DUP2 PUSH2 0x17E JUMP JUMPDEST DUP3 MSTORE POP POP JUMP JUMPDEST PUSH1 0x0 PUSH1 0x20 DUP3 ADD SWAP1 POP PUSH2 0x1B4 PUSH1 0x0 DUP4 ADD DUP5 PUSH2 0x190 JUMP JUMPDEST SWAP3 SWAP2 POP POP JUMP JUMPDEST PUSH1 0x0 DUP2 SWAP1 POP SWAP2 SWAP1 POP JUMP JUMPDEST PUSH2 0x1CD DUP2 PUSH2 0x1BA JUMP JUMPDEST DUP3 MSTORE POP POP JUMP JUMPDEST PUSH1 0x0 PUSH1 0x20 DUP3 ADD SWAP1 POP PUSH2 0x1E8 PUSH1 0x0 DUP4 ADD DUP5 PUSH2 0x1C4 JUMP JUMPDEST SWAP3 SWAP2 POP POP JUMP INVALID LOG2 PUSH5 0x6970667358 0x22 SLT KECCAK256 0xC3 SWAP11 SWAP12 ISZERO INVALID SWAP16 SWAP16 SIGNEXTEND SWAP15 PUSH6 0x74506E41EAB 0xFC 0xAA PUSH1 0xAF 0xB0 JUMPI 0xD2 ADD SUB 0xE4 0x5F 0xE0 0xB8 SWAP11 JUMP LOG1 PUSH5 0x736F6C6343 STOP ADDMOD SGT STOP CALLER "
				},
				"gasEstimates": {
					"creation": {
						"codeDepositCost": "109600",
						"executionCost": "46564",
						"totalCost": "156164"
					},
					"external": {
						"changeOwner()": "24431",
						"lottery()": "2473",
						"owner()": "7388",
						"u1()": "2535"
					}
				},
				"methodIdentifiers": {
					"changeOwner()": "62a09477",
					"lottery()": "ba13a572",
					"owner()": "8da5cb5b",
					"u1()": "1aa35610"
				}
			},
			"storageLayout": {
				"storage": [
					{
						"astId": 31,
						"contract": "contracts/Enums_Struct_Modifier_&_Event.sol:EnumLottery",
						"label": "u1",
						"offset": 0,
						"slot": "0",
						"type": "t_enum(user)26"
					},
					{
						"astId": 34,
						"contract": "contracts/Enums_Struct_Modifier_&_Event.sol:EnumLottery",
						"label": "lottery",
						"offset": 0,
						"slot": "1",
						"type": "t_uint256"
					}
				],
				"types": {
					"t_enum(user)26": {
						"encoding": "inplace",
						"label": "enum EnumLottery.user",
						"numberOfBytes": "1"
					},
					"t_uint256": {
						"encoding": "inplace",
						"label": "uint256",
						"numberOfBytes": "32"
					}
				}
			},
			"userdoc": {
				"kind": "user",
				"methods": {},
				"version": 1
			}
		}
	}
}