{
	"contracts/Enums_Struct_Modifier_&_Event.sol": {
		"Enum": {
			"abi": [
				{
					"inputs": [
						{
							"internalType": "enum Enum.Gender",
							"name": "g",
							"type": "uint8"
						}
					],
					"name": "doSomeWork",
					"outputs": [
						{
							"internalType": "enum Enum.Gender",
							"name": "",
							"type": "uint8"
						}
					],
					"stateMutability": "pure",
					"type": "function"
				}
			],
			"devdoc": {
				"kind": "dev",
				"methods": {},
				"version": 1
			},
			"evm": {
				"assembly": "    /* \"contracts/Enums_Struct_Modifier_&_Event.sol\":84:299  contract Enum {... */\n  mstore(0x40, 0x80)\n  callvalue\n  dup1\n  iszero\n  tag_1\n  jumpi\n  0x00\n  dup1\n  revert\ntag_1:\n  pop\n  dataSize(sub_0)\n  dup1\n  dataOffset(sub_0)\n  0x00\n  codecopy\n  0x00\n  return\nstop\n\nsub_0: assembly {\n        /* \"contracts/Enums_Struct_Modifier_&_Event.sol\":84:299  contract Enum {... */\n      mstore(0x40, 0x80)\n      callvalue\n      dup1\n      iszero\n      tag_1\n      jumpi\n      0x00\n      dup1\n      revert\n    tag_1:\n      pop\n      jumpi(tag_2, lt(calldatasize, 0x04))\n      shr(0xe0, calldataload(0x00))\n      dup1\n      0x7e047089\n      eq\n      tag_3\n      jumpi\n    tag_2:\n      0x00\n      dup1\n      revert\n        /* \"contracts/Enums_Struct_Modifier_&_Event.sol\":164:296  function doSomeWork(Gender g) public pure returns (Gender){... */\n    tag_3:\n      tag_4\n      0x04\n      dup1\n      calldatasize\n      sub\n      dup2\n      add\n      swap1\n      tag_5\n      swap2\n      swap1\n      tag_6\n      jump\t// in\n    tag_5:\n      tag_7\n      jump\t// in\n    tag_4:\n      mload(0x40)\n      tag_8\n      swap2\n      swap1\n      tag_9\n      jump\t// in\n    tag_8:\n      mload(0x40)\n      dup1\n      swap2\n      sub\n      swap1\n      return\n    tag_7:\n        /* \"contracts/Enums_Struct_Modifier_&_Event.sol\":215:221  Gender */\n      0x00\n        /* \"contracts/Enums_Struct_Modifier_&_Event.sol\":233:253  Gender studentGender */\n      dup1\n        /* \"contracts/Enums_Struct_Modifier_&_Event.sol\":256:257  g */\n      dup3\n        /* \"contracts/Enums_Struct_Modifier_&_Event.sol\":233:257  Gender studentGender = g */\n      swap1\n      pop\n        /* \"contracts/Enums_Struct_Modifier_&_Event.sol\":275:288  studentGender */\n      dup1\n        /* \"contracts/Enums_Struct_Modifier_&_Event.sol\":268:288  return studentGender */\n      swap2\n      pop\n      pop\n        /* \"contracts/Enums_Struct_Modifier_&_Event.sol\":164:296  function doSomeWork(Gender g) public pure returns (Gender){... */\n      swap2\n      swap1\n      pop\n      jump\t// out\n        /* \"#utility.yul\":88:205   */\n    tag_12:\n        /* \"#utility.yul\":197:198   */\n      0x00\n        /* \"#utility.yul\":194:195   */\n      dup1\n        /* \"#utility.yul\":187:199   */\n      revert\n        /* \"#utility.yul\":334:441   */\n    tag_14:\n        /* \"#utility.yul\":415:416   */\n      0x02\n        /* \"#utility.yul\":408:413   */\n      dup2\n        /* \"#utility.yul\":405:417   */\n      lt\n        /* \"#utility.yul\":395:435   */\n      tag_26\n      jumpi\n        /* \"#utility.yul\":431:432   */\n      0x00\n        /* \"#utility.yul\":428:429   */\n      dup1\n        /* \"#utility.yul\":421:433   */\n      revert\n        /* \"#utility.yul\":395:435   */\n    tag_26:\n        /* \"#utility.yul\":334:441   */\n      pop\n      jump\t// out\n        /* \"#utility.yul\":447:602   */\n    tag_15:\n        /* \"#utility.yul\":501:506   */\n      0x00\n        /* \"#utility.yul\":539:545   */\n      dup2\n        /* \"#utility.yul\":526:546   */\n      calldataload\n        /* \"#utility.yul\":517:546   */\n      swap1\n      pop\n        /* \"#utility.yul\":555:596   */\n      tag_28\n        /* \"#utility.yul\":590:595   */\n      dup2\n        /* \"#utility.yul\":555:596   */\n      tag_14\n      jump\t// in\n    tag_28:\n        /* \"#utility.yul\":447:602   */\n      swap3\n      swap2\n      pop\n      pop\n      jump\t// out\n        /* \"#utility.yul\":608:953   */\n    tag_6:\n        /* \"#utility.yul\":675:681   */\n      0x00\n        /* \"#utility.yul\":724:726   */\n      0x20\n        /* \"#utility.yul\":712:721   */\n      dup3\n        /* \"#utility.yul\":703:710   */\n      dup5\n        /* \"#utility.yul\":699:722   */\n      sub\n        /* \"#utility.yul\":695:727   */\n      slt\n        /* \"#utility.yul\":692:811   */\n      iszero\n      tag_30\n      jumpi\n        /* \"#utility.yul\":730:809   */\n      tag_31\n      tag_12\n      jump\t// in\n    tag_31:\n        /* \"#utility.yul\":692:811   */\n    tag_30:\n        /* \"#utility.yul\":850:851   */\n      0x00\n        /* \"#utility.yul\":875:936   */\n      tag_32\n        /* \"#utility.yul\":928:935   */\n      dup5\n        /* \"#utility.yul\":919:925   */\n      dup3\n        /* \"#utility.yul\":908:917   */\n      dup6\n        /* \"#utility.yul\":904:926   */\n      add\n        /* \"#utility.yul\":875:936   */\n      tag_15\n      jump\t// in\n    tag_32:\n        /* \"#utility.yul\":865:936   */\n      swap2\n      pop\n        /* \"#utility.yul\":821:946   */\n      pop\n        /* \"#utility.yul\":608:953   */\n      swap3\n      swap2\n      pop\n      pop\n      jump\t// out\n        /* \"#utility.yul\":959:1139   */\n    tag_16:\n        /* \"#utility.yul\":1007:1084   */\n      0x4e487b7100000000000000000000000000000000000000000000000000000000\n        /* \"#utility.yul\":1004:1005   */\n      0x00\n        /* \"#utility.yul\":997:1085   */\n      mstore\n        /* \"#utility.yul\":1104:1108   */\n      0x21\n        /* \"#utility.yul\":1101:1102   */\n      0x04\n        /* \"#utility.yul\":1094:1109   */\n      mstore\n        /* \"#utility.yul\":1128:1132   */\n      0x24\n        /* \"#utility.yul\":1125:1126   */\n      0x00\n        /* \"#utility.yul\":1118:1133   */\n      revert\n        /* \"#utility.yul\":1145:1258   */\n    tag_17:\n        /* \"#utility.yul\":1226:1227   */\n      0x02\n        /* \"#utility.yul\":1219:1224   */\n      dup2\n        /* \"#utility.yul\":1216:1228   */\n      lt\n        /* \"#utility.yul\":1206:1252   */\n      tag_35\n      jumpi\n        /* \"#utility.yul\":1232:1250   */\n      tag_36\n      tag_16\n      jump\t// in\n    tag_36:\n        /* \"#utility.yul\":1206:1252   */\n    tag_35:\n        /* \"#utility.yul\":1145:1258   */\n      pop\n      jump\t// out\n        /* \"#utility.yul\":1264:1391   */\n    tag_18:\n        /* \"#utility.yul\":1309:1316   */\n      0x00\n        /* \"#utility.yul\":1338:1343   */\n      dup2\n        /* \"#utility.yul\":1327:1343   */\n      swap1\n      pop\n        /* \"#utility.yul\":1344:1385   */\n      tag_38\n        /* \"#utility.yul\":1379:1384   */\n      dup3\n        /* \"#utility.yul\":1344:1385   */\n      tag_17\n      jump\t// in\n    tag_38:\n        /* \"#utility.yul\":1264:1391   */\n      swap2\n      swap1\n      pop\n      jump\t// out\n        /* \"#utility.yul\":1397:1524   */\n    tag_19:\n        /* \"#utility.yul\":1453:1462   */\n      0x00\n        /* \"#utility.yul\":1486:1518   */\n      tag_40\n        /* \"#utility.yul\":1512:1517   */\n      dup3\n        /* \"#utility.yul\":1486:1518   */\n      tag_18\n      jump\t// in\n    tag_40:\n        /* \"#utility.yul\":1473:1518   */\n      swap1\n      pop\n        /* \"#utility.yul\":1397:1524   */\n      swap2\n      swap1\n      pop\n      jump\t// out\n        /* \"#utility.yul\":1530:1673   */\n    tag_20:\n        /* \"#utility.yul\":1623:1666   */\n      tag_42\n        /* \"#utility.yul\":1660:1665   */\n      dup2\n        /* \"#utility.yul\":1623:1666   */\n      tag_19\n      jump\t// in\n    tag_42:\n        /* \"#utility.yul\":1618:1621   */\n      dup3\n        /* \"#utility.yul\":1611:1667   */\n      mstore\n        /* \"#utility.yul\":1530:1673   */\n      pop\n      pop\n      jump\t// out\n        /* \"#utility.yul\":1679:1913   */\n    tag_9:\n        /* \"#utility.yul\":1778:1782   */\n      0x00\n        /* \"#utility.yul\":1816:1818   */\n      0x20\n        /* \"#utility.yul\":1805:1814   */\n      dup3\n        /* \"#utility.yul\":1801:1819   */\n      add\n        /* \"#utility.yul\":1793:1819   */\n      swap1\n      pop\n        /* \"#utility.yul\":1829:1906   */\n      tag_44\n        /* \"#utility.yul\":1903:1904   */\n      0x00\n        /* \"#utility.yul\":1892:1901   */\n      dup4\n        /* \"#utility.yul\":1888:1905   */\n      add\n        /* \"#utility.yul\":1879:1885   */\n      dup5\n        /* \"#utility.yul\":1829:1906   */\n      tag_20\n      jump\t// in\n    tag_44:\n        /* \"#utility.yul\":1679:1913   */\n      swap3\n      swap2\n      pop\n      pop\n      jump\t// out\n\n    auxdata: 0xa26469706673582212204717093b2095cb73f9e7226244f9ccd982f9baa3bbafc27e46377a44d2f983ca64736f6c63430008130033\n}\n",
				"bytecode": {
					"linkReferences": {},
					"object": "608060405234801561001057600080fd5b5061018e806100206000396000f3fe608060405234801561001057600080fd5b506004361061002b5760003560e01c80637e04708914610030575b600080fd5b61004a60048036038101906100459190610099565b610060565b604051610057919061013d565b60405180910390f35b60008082905080915050919050565b600080fd5b6002811061008157600080fd5b50565b60008135905061009381610074565b92915050565b6000602082840312156100af576100ae61006f565b5b60006100bd84828501610084565b91505092915050565b7f4e487b7100000000000000000000000000000000000000000000000000000000600052602160045260246000fd5b60028110610106576101056100c6565b5b50565b6000819050610117826100f5565b919050565b600061012782610109565b9050919050565b6101378161011c565b82525050565b6000602082019050610152600083018461012e565b9291505056fea26469706673582212204717093b2095cb73f9e7226244f9ccd982f9baa3bbafc27e46377a44d2f983ca64736f6c63430008130033",
					"opcodes": "PUSH1 0x80 PUSH1 0x40 MSTORE CALLVALUE DUP1 ISZERO PUSH2 0x10 JUMPI PUSH1 0x0 DUP1 REVERT JUMPDEST POP PUSH2 0x18E DUP1 PUSH2 0x20 PUSH1 0x0 CODECOPY PUSH1 0x0 RETURN INVALID PUSH1 0x80 PUSH1 0x40 MSTORE CALLVALUE DUP1 ISZERO PUSH2 0x10 JUMPI PUSH1 0x0 DUP1 REVERT JUMPDEST POP PUSH1 0x4 CALLDATASIZE LT PUSH2 0x2B JUMPI PUSH1 0x0 CALLDATALOAD PUSH1 0xE0 SHR DUP1 PUSH4 0x7E047089 EQ PUSH2 0x30 JUMPI JUMPDEST PUSH1 0x0 DUP1 REVERT JUMPDEST PUSH2 0x4A PUSH1 0x4 DUP1 CALLDATASIZE SUB DUP2 ADD SWAP1 PUSH2 0x45 SWAP2 SWAP1 PUSH2 0x99 JUMP JUMPDEST PUSH2 0x60 JUMP JUMPDEST PUSH1 0x40 MLOAD PUSH2 0x57 SWAP2 SWAP1 PUSH2 0x13D JUMP JUMPDEST PUSH1 0x40 MLOAD DUP1 SWAP2 SUB SWAP1 RETURN JUMPDEST PUSH1 0x0 DUP1 DUP3 SWAP1 POP DUP1 SWAP2 POP POP SWAP2 SWAP1 POP JUMP JUMPDEST PUSH1 0x0 DUP1 REVERT JUMPDEST PUSH1 0x2 DUP2 LT PUSH2 0x81 JUMPI PUSH1 0x0 DUP1 REVERT JUMPDEST POP JUMP JUMPDEST PUSH1 0x0 DUP2 CALLDATALOAD SWAP1 POP PUSH2 0x93 DUP2 PUSH2 0x74 JUMP JUMPDEST SWAP3 SWAP2 POP POP JUMP JUMPDEST PUSH1 0x0 PUSH1 0x20 DUP3 DUP5 SUB SLT ISZERO PUSH2 0xAF JUMPI PUSH2 0xAE PUSH2 0x6F JUMP JUMPDEST JUMPDEST PUSH1 0x0 PUSH2 0xBD DUP5 DUP3 DUP6 ADD PUSH2 0x84 JUMP JUMPDEST SWAP2 POP POP SWAP3 SWAP2 POP POP JUMP JUMPDEST PUSH32 0x4E487B7100000000000000000000000000000000000000000000000000000000 PUSH1 0x0 MSTORE PUSH1 0x21 PUSH1 0x4 MSTORE PUSH1 0x24 PUSH1 0x0 REVERT JUMPDEST PUSH1 0x2 DUP2 LT PUSH2 0x106 JUMPI PUSH2 0x105 PUSH2 0xC6 JUMP JUMPDEST JUMPDEST POP JUMP JUMPDEST PUSH1 0x0 DUP2 SWAP1 POP PUSH2 0x117 DUP3 PUSH2 0xF5 JUMP JUMPDEST SWAP2 SWAP1 POP JUMP JUMPDEST PUSH1 0x0 PUSH2 0x127 DUP3 PUSH2 0x109 JUMP JUMPDEST SWAP1 POP SWAP2 SWAP1 POP JUMP JUMPDEST PUSH2 0x137 DUP2 PUSH2 0x11C JUMP JUMPDEST DUP3 MSTORE POP POP JUMP JUMPDEST PUSH1 0x0 PUSH1 0x20 DUP3 ADD SWAP1 POP PUSH2 0x152 PUSH1 0x0 DUP4 ADD DUP5 PUSH2 0x12E JUMP JUMPDEST SWAP3 SWAP2 POP POP JUMP INVALID LOG2 PUSH5 0x6970667358 0x22 SLT KECCAK256 SELFBALANCE OR MULMOD EXTCODESIZE KECCAK256 SWAP6 0xCB PUSH20 0xF9E7226244F9CCD982F9BAA3BBAFC27E46377A44 0xD2 0xF9 DUP4 0xCA PUSH5 0x736F6C6343 STOP ADDMOD SGT STOP CALLER "
				},
				"gasEstimates": {
					"creation": {
						"codeDepositCost": "79600",
						"executionCost": "129",
						"totalCost": "79729"
					},
					"external": {
						"doSomeWork(uint8)": "645"
					}
				},
				"methodIdentifiers": {
					"doSomeWork(uint8)": "7e047089"
				}
			},
			"storageLayout": {
				"storage": [],
				"types": null
			},
			"userdoc": {
				"kind": "user",
				"methods": {},
				"version": 1
			}
		}
	}
}