{
	"contracts/Encapsulation_In_Solidity.sol": {
		"child": {
			"abi": [
				{
					"constant": true,
					"inputs": [],
					"name": "add",
					"outputs": [
						{
							"internalType": "uint256",
							"name": "",
							"type": "uint256"
						}
					],
					"payable": false,
					"stateMutability": "view",
					"type": "function"
				},
				{
					"constant": false,
					"inputs": [],
					"name": "increment",
					"outputs": [
						{
							"internalType": "uint256",
							"name": "",
							"type": "uint256"
						}
					],
					"payable": true,
					"stateMutability": "payable",
					"type": "function"
				},
				{
					"constant": true,
					"inputs": [],
					"name": "num",
					"outputs": [
						{
							"internalType": "uint256",
							"name": "",
							"type": "uint256"
						}
					],
					"payable": false,
					"stateMutability": "view",
					"type": "function"
				},
				{
					"constant": false,
					"inputs": [],
					"name": "sqrt",
					"outputs": [
						{
							"internalType": "uint256",
							"name": "",
							"type": "uint256"
						}
					],
					"payable": false,
					"stateMutability": "nonpayable",
					"type": "function"
				}
			],
			"devdoc": {
				"methods": {}
			},
			"evm": {
				"assembly": "    /* \"contracts/Encapsulation_In_Solidity.sol\":944:1381  contract child is parent {\r... */\n  mstore(0x40, 0x80)\n    /* \"contracts/Encapsulation_In_Solidity.sol\":130:132  30 */\n  0x1e\n    /* \"contracts/Encapsulation_In_Solidity.sol\":112:132  uint public num = 30 */\n  0x00\n  sstore\n    /* \"contracts/Encapsulation_In_Solidity.sol\":207:209  10 */\n  0x0a\n    /* \"contracts/Encapsulation_In_Solidity.sol\":179:209  uint internal internal_num= 10 */\n  0x01\n  sstore\n    /* \"contracts/Encapsulation_In_Solidity.sol\":944:1381  contract child is parent {\r... */\n  callvalue\n    /* \"--CODEGEN--\":8:17   */\n  dup1\n    /* \"--CODEGEN--\":5:7   */\n  iszero\n  tag_1\n  jumpi\n    /* \"--CODEGEN--\":30:31   */\n  0x00\n    /* \"--CODEGEN--\":27:28   */\n  dup1\n    /* \"--CODEGEN--\":20:32   */\n  revert\n    /* \"--CODEGEN--\":5:7   */\ntag_1:\n    /* \"contracts/Encapsulation_In_Solidity.sol\":944:1381  contract child is parent {\r... */\n  pop\n  dataSize(sub_0)\n  dup1\n  dataOffset(sub_0)\n  0x00\n  codecopy\n  0x00\n  return\nstop\n\nsub_0: assembly {\n        /* \"contracts/Encapsulation_In_Solidity.sol\":944:1381  contract child is parent {\r... */\n      mstore(0x40, 0x80)\n      jumpi(tag_1, lt(calldatasize, 0x04))\n      shr(0xe0, calldataload(0x00))\n      dup1\n      0x4e70b1dc\n      eq\n      tag_2\n      jumpi\n      dup1\n      0x4f2be91f\n      eq\n      tag_3\n      jumpi\n      dup1\n      0x9257da0a\n      eq\n      tag_4\n      jumpi\n      dup1\n      0xd09de08a\n      eq\n      tag_5\n      jumpi\n    tag_1:\n      0x00\n      dup1\n      revert\n        /* \"contracts/Encapsulation_In_Solidity.sol\":112:132  uint public num = 30 */\n    tag_2:\n      callvalue\n        /* \"--CODEGEN--\":8:17   */\n      dup1\n        /* \"--CODEGEN--\":5:7   */\n      iszero\n      tag_6\n      jumpi\n        /* \"--CODEGEN--\":30:31   */\n      0x00\n        /* \"--CODEGEN--\":27:28   */\n      dup1\n        /* \"--CODEGEN--\":20:32   */\n      revert\n        /* \"--CODEGEN--\":5:7   */\n    tag_6:\n        /* \"contracts/Encapsulation_In_Solidity.sol\":112:132  uint public num = 30 */\n      pop\n      tag_7\n      tag_8\n      jump\t// in\n    tag_7:\n      mload(0x40)\n      dup1\n      dup3\n      dup2\n      mstore\n      0x20\n      add\n      swap2\n      pop\n      pop\n      mload(0x40)\n      dup1\n      swap2\n      sub\n      swap1\n      return\n        /* \"contracts/Encapsulation_In_Solidity.sol\":1252:1378  function add() public view returns(\r... */\n    tag_3:\n      callvalue\n        /* \"--CODEGEN--\":8:17   */\n      dup1\n        /* \"--CODEGEN--\":5:7   */\n      iszero\n      tag_9\n      jumpi\n        /* \"--CODEGEN--\":30:31   */\n      0x00\n        /* \"--CODEGEN--\":27:28   */\n      dup1\n        /* \"--CODEGEN--\":20:32   */\n      revert\n        /* \"--CODEGEN--\":5:7   */\n    tag_9:\n        /* \"contracts/Encapsulation_In_Solidity.sol\":1252:1378  function add() public view returns(\r... */\n      pop\n      tag_10\n      tag_11\n      jump\t// in\n    tag_10:\n      mload(0x40)\n      dup1\n      dup3\n      dup2\n      mstore\n      0x20\n      add\n      swap2\n      pop\n      pop\n      mload(0x40)\n      dup1\n      swap2\n      sub\n      swap1\n      return\n        /* \"contracts/Encapsulation_In_Solidity.sol\":302:417  function sqrt() external returns (\r... */\n    tag_4:\n      callvalue\n        /* \"--CODEGEN--\":8:17   */\n      dup1\n        /* \"--CODEGEN--\":5:7   */\n      iszero\n      tag_12\n      jumpi\n        /* \"--CODEGEN--\":30:31   */\n      0x00\n        /* \"--CODEGEN--\":27:28   */\n      dup1\n        /* \"--CODEGEN--\":20:32   */\n      revert\n        /* \"--CODEGEN--\":5:7   */\n    tag_12:\n        /* \"contracts/Encapsulation_In_Solidity.sol\":302:417  function sqrt() external returns (\r... */\n      pop\n      tag_13\n      tag_14\n      jump\t// in\n    tag_13:\n      mload(0x40)\n      dup1\n      dup3\n      dup2\n      mstore\n      0x20\n      add\n      swap2\n      pop\n      pop\n      mload(0x40)\n      dup1\n      swap2\n      sub\n      swap1\n      return\n        /* \"contracts/Encapsulation_In_Solidity.sol\":1062:1157  function increment(\r... */\n    tag_5:\n      tag_15\n      tag_16\n      jump\t// in\n    tag_15:\n      mload(0x40)\n      dup1\n      dup3\n      dup2\n      mstore\n      0x20\n      add\n      swap2\n      pop\n      pop\n      mload(0x40)\n      dup1\n      swap2\n      sub\n      swap1\n      return\n        /* \"contracts/Encapsulation_In_Solidity.sol\":112:132  uint public num = 30 */\n    tag_8:\n      sload(0x00)\n      dup2\n      jump\t// out\n        /* \"contracts/Encapsulation_In_Solidity.sol\":1252:1378  function add() public view returns(\r... */\n    tag_11:\n        /* \"contracts/Encapsulation_In_Solidity.sol\":1293:1297  uint */\n      0x00\n        /* \"contracts/Encapsulation_In_Solidity.sol\":1305:1311  uint a */\n      dup1\n        /* \"contracts/Encapsulation_In_Solidity.sol\":1314:1316  10 */\n      0x0a\n        /* \"contracts/Encapsulation_In_Solidity.sol\":1305:1316  uint a = 10 */\n      swap1\n      pop\n        /* \"contracts/Encapsulation_In_Solidity.sol\":1323:1329  uint b */\n      0x00\n        /* \"contracts/Encapsulation_In_Solidity.sol\":1332:1334  20 */\n      0x14\n        /* \"contracts/Encapsulation_In_Solidity.sol\":1323:1334  uint b = 20 */\n      swap1\n      pop\n        /* \"contracts/Encapsulation_In_Solidity.sol\":1341:1349  uint sum */\n      0x00\n        /* \"contracts/Encapsulation_In_Solidity.sol\":1356:1357  b */\n      dup2\n        /* \"contracts/Encapsulation_In_Solidity.sol\":1352:1353  a */\n      dup4\n        /* \"contracts/Encapsulation_In_Solidity.sol\":1352:1357  a + b */\n      add\n        /* \"contracts/Encapsulation_In_Solidity.sol\":1341:1357  uint sum = a + b */\n      swap1\n      pop\n        /* \"contracts/Encapsulation_In_Solidity.sol\":1371:1374  sum */\n      dup1\n        /* \"contracts/Encapsulation_In_Solidity.sol\":1364:1374  return sum */\n      swap4\n      pop\n      pop\n      pop\n      pop\n        /* \"contracts/Encapsulation_In_Solidity.sol\":1252:1378  function add() public view returns(\r... */\n      swap1\n      jump\t// out\n        /* \"contracts/Encapsulation_In_Solidity.sol\":302:417  function sqrt() external returns (\r... */\n    tag_14:\n        /* \"contracts/Encapsulation_In_Solidity.sol\":342:346  uint */\n      0x00\n        /* \"contracts/Encapsulation_In_Solidity.sol\":386:387  2 */\n      0x02\n        /* \"contracts/Encapsulation_In_Solidity.sol\":370:382  internal_num */\n      sload(0x01)\n        /* \"contracts/Encapsulation_In_Solidity.sol\":370:387  internal_num ** 2 */\n      exp\n        /* \"contracts/Encapsulation_In_Solidity.sol\":355:367  internal_num */\n      0x01\n        /* \"contracts/Encapsulation_In_Solidity.sol\":355:387  internal_num = internal_num ** 2 */\n      dup2\n      swap1\n      sstore\n      pop\n        /* \"contracts/Encapsulation_In_Solidity.sol\":401:413  internal_num */\n      sload(0x01)\n        /* \"contracts/Encapsulation_In_Solidity.sol\":394:413  return internal_num */\n      swap1\n      pop\n        /* \"contracts/Encapsulation_In_Solidity.sol\":302:417  function sqrt() external returns (\r... */\n      swap1\n      jump\t// out\n        /* \"contracts/Encapsulation_In_Solidity.sol\":1062:1157  function increment(\r... */\n    tag_16:\n        /* \"contracts/Encapsulation_In_Solidity.sol\":1109:1113  uint */\n      0x00\n        /* \"contracts/Encapsulation_In_Solidity.sol\":1134:1136  20 */\n      0x14\n        /* \"contracts/Encapsulation_In_Solidity.sol\":1128:1131  num */\n      sload(0x00)\n        /* \"contracts/Encapsulation_In_Solidity.sol\":1128:1136  num + 20 */\n      add\n        /* \"contracts/Encapsulation_In_Solidity.sol\":1122:1125  num */\n      0x00\n        /* \"contracts/Encapsulation_In_Solidity.sol\":1122:1136  num = num + 20 */\n      dup2\n      swap1\n      sstore\n      pop\n        /* \"contracts/Encapsulation_In_Solidity.sol\":1150:1153  num */\n      sload(0x00)\n        /* \"contracts/Encapsulation_In_Solidity.sol\":1143:1153  return num */\n      swap1\n      pop\n        /* \"contracts/Encapsulation_In_Solidity.sol\":1062:1157  function increment(\r... */\n      swap1\n      jump\t// out\n\n    auxdata: 0xa265627a7a7231582039228918ff605f10b96a145a76ad282e4d77fe89df59d99803b7fc5f049e398c64736f6c63430005110032\n}\n",
				"bytecode": {
					"linkReferences": {},
					"object": "6080604052601e600055600a60015534801561001a57600080fd5b506101678061002a6000396000f3fe60806040526004361061003f5760003560e01c80634e70b1dc146100445780634f2be91f1461006f5780639257da0a1461009a578063d09de08a146100c5575b600080fd5b34801561005057600080fd5b506100596100e3565b6040518082815260200191505060405180910390f35b34801561007b57600080fd5b506100846100e9565b6040518082815260200191505060405180910390f35b3480156100a657600080fd5b506100af610106565b6040518082815260200191505060405180910390f35b6100cd61011c565b6040518082815260200191505060405180910390f35b60005481565b600080600a90506000601490506000818301905080935050505090565b600060026001540a600181905550600154905090565b600060146000540160008190555060005490509056fea265627a7a7231582039228918ff605f10b96a145a76ad282e4d77fe89df59d99803b7fc5f049e398c64736f6c63430005110032",
					"opcodes": "PUSH1 0x80 PUSH1 0x40 MSTORE PUSH1 0x1E PUSH1 0x0 SSTORE PUSH1 0xA PUSH1 0x1 SSTORE CALLVALUE DUP1 ISZERO PUSH2 0x1A JUMPI PUSH1 0x0 DUP1 REVERT JUMPDEST POP PUSH2 0x167 DUP1 PUSH2 0x2A PUSH1 0x0 CODECOPY PUSH1 0x0 RETURN INVALID PUSH1 0x80 PUSH1 0x40 MSTORE PUSH1 0x4 CALLDATASIZE LT PUSH2 0x3F JUMPI PUSH1 0x0 CALLDATALOAD PUSH1 0xE0 SHR DUP1 PUSH4 0x4E70B1DC EQ PUSH2 0x44 JUMPI DUP1 PUSH4 0x4F2BE91F EQ PUSH2 0x6F JUMPI DUP1 PUSH4 0x9257DA0A EQ PUSH2 0x9A JUMPI DUP1 PUSH4 0xD09DE08A EQ PUSH2 0xC5 JUMPI JUMPDEST PUSH1 0x0 DUP1 REVERT JUMPDEST CALLVALUE DUP1 ISZERO PUSH2 0x50 JUMPI PUSH1 0x0 DUP1 REVERT JUMPDEST POP PUSH2 0x59 PUSH2 0xE3 JUMP JUMPDEST PUSH1 0x40 MLOAD DUP1 DUP3 DUP2 MSTORE PUSH1 0x20 ADD SWAP2 POP POP PUSH1 0x40 MLOAD DUP1 SWAP2 SUB SWAP1 RETURN JUMPDEST CALLVALUE DUP1 ISZERO PUSH2 0x7B JUMPI PUSH1 0x0 DUP1 REVERT JUMPDEST POP PUSH2 0x84 PUSH2 0xE9 JUMP JUMPDEST PUSH1 0x40 MLOAD DUP1 DUP3 DUP2 MSTORE PUSH1 0x20 ADD SWAP2 POP POP PUSH1 0x40 MLOAD DUP1 SWAP2 SUB SWAP1 RETURN JUMPDEST CALLVALUE DUP1 ISZERO PUSH2 0xA6 JUMPI PUSH1 0x0 DUP1 REVERT JUMPDEST POP PUSH2 0xAF PUSH2 0x106 JUMP JUMPDEST PUSH1 0x40 MLOAD DUP1 DUP3 DUP2 MSTORE PUSH1 0x20 ADD SWAP2 POP POP PUSH1 0x40 MLOAD DUP1 SWAP2 SUB SWAP1 RETURN JUMPDEST PUSH2 0xCD PUSH2 0x11C JUMP JUMPDEST PUSH1 0x40 MLOAD DUP1 DUP3 DUP2 MSTORE PUSH1 0x20 ADD SWAP2 POP POP PUSH1 0x40 MLOAD DUP1 SWAP2 SUB SWAP1 RETURN JUMPDEST PUSH1 0x0 SLOAD DUP2 JUMP JUMPDEST PUSH1 0x0 DUP1 PUSH1 0xA SWAP1 POP PUSH1 0x0 PUSH1 0x14 SWAP1 POP PUSH1 0x0 DUP2 DUP4 ADD SWAP1 POP DUP1 SWAP4 POP POP POP POP SWAP1 JUMP JUMPDEST PUSH1 0x0 PUSH1 0x2 PUSH1 0x1 SLOAD EXP PUSH1 0x1 DUP2 SWAP1 SSTORE POP PUSH1 0x1 SLOAD SWAP1 POP SWAP1 JUMP JUMPDEST PUSH1 0x0 PUSH1 0x14 PUSH1 0x0 SLOAD ADD PUSH1 0x0 DUP2 SWAP1 SSTORE POP PUSH1 0x0 SLOAD SWAP1 POP SWAP1 JUMP INVALID LOG2 PUSH6 0x627A7A723158 KECCAK256 CODECOPY 0x22 DUP10 XOR SELFDESTRUCT PUSH1 0x5F LT 0xB9 PUSH11 0x145A76AD282E4D77FE89DF MSIZE 0xD9 SWAP9 SUB 0xB7 0xFC 0x5F DIV SWAP15 CODECOPY DUP13 PUSH5 0x736F6C6343 STOP SDIV GT STOP ORIGIN "
				},
				"gasEstimates": {
					"creation": {
						"codeDepositCost": "71800",
						"executionCost": "40135",
						"totalCost": "111935"
					},
					"external": {
						"add()": "258",
						"increment()": "21853",
						"num()": "983",
						"sqrt()": "21912"
					}
				},
				"methodIdentifiers": {
					"add()": "4f2be91f",
					"increment()": "d09de08a",
					"num()": "4e70b1dc",
					"sqrt()": "9257da0a"
				}
			},
			"storageLayout": {
				"storage": [
					{
						"astId": 4,
						"contract": "contracts/Encapsulation_In_Solidity.sol:child",
						"label": "num",
						"offset": 0,
						"slot": "0",
						"type": "t_uint256"
					},
					{
						"astId": 7,
						"contract": "contracts/Encapsulation_In_Solidity.sol:child",
						"label": "internal_num",
						"offset": 0,
						"slot": "1",
						"type": "t_uint256"
					}
				],
				"types": {
					"t_uint256": {
						"encoding": "inplace",
						"label": "uint256",
						"numberOfBytes": "32"
					}
				}
			},
			"userdoc": {
				"methods": {}
			}
		}
	}
}