{
	"contracts/Encapsulation_In_Solidity.sol": {
		"parent": {
			"abi": [
				{
					"constant": true,
					"inputs": [],
					"name": "num",
					"outputs": [
						{
							"internalType": "uint256",
							"name": "",
							"type": "uint256"
						}
					],
					"payable": false,
					"stateMutability": "view",
					"type": "function"
				},
				{
					"constant": false,
					"inputs": [],
					"name": "sqrt",
					"outputs": [
						{
							"internalType": "uint256",
							"name": "",
							"type": "uint256"
						}
					],
					"payable": false,
					"stateMutability": "nonpayable",
					"type": "function"
				}
			],
			"devdoc": {
				"methods": {}
			},
			"evm": {
				"assembly": "    /* \"contracts/Encapsulation_In_Solidity.sol\":51:418  contract parent {\r... */\n  mstore(0x40, 0x80)\n    /* \"contracts/Encapsulation_In_Solidity.sol\":130:132  30 */\n  0x1e\n    /* \"contracts/Encapsulation_In_Solidity.sol\":112:132  uint public num = 30 */\n  0x00\n  sstore\n    /* \"contracts/Encapsulation_In_Solidity.sol\":207:209  10 */\n  0x0a\n    /* \"contracts/Encapsulation_In_Solidity.sol\":179:209  uint internal internal_num= 10 */\n  0x01\n  sstore\n    /* \"contracts/Encapsulation_In_Solidity.sol\":51:418  contract parent {\r... */\n  callvalue\n    /* \"--CODEGEN--\":8:17   */\n  dup1\n    /* \"--CODEGEN--\":5:7   */\n  iszero\n  tag_1\n  jumpi\n    /* \"--CODEGEN--\":30:31   */\n  0x00\n    /* \"--CODEGEN--\":27:28   */\n  dup1\n    /* \"--CODEGEN--\":20:32   */\n  revert\n    /* \"--CODEGEN--\":5:7   */\ntag_1:\n    /* \"contracts/Encapsulation_In_Solidity.sol\":51:418  contract parent {\r... */\n  pop\n  dataSize(sub_0)\n  dup1\n  dataOffset(sub_0)\n  0x00\n  codecopy\n  0x00\n  return\nstop\n\nsub_0: assembly {\n        /* \"contracts/Encapsulation_In_Solidity.sol\":51:418  contract parent {\r... */\n      mstore(0x40, 0x80)\n      callvalue\n        /* \"--CODEGEN--\":8:17   */\n      dup1\n        /* \"--CODEGEN--\":5:7   */\n      iszero\n      tag_1\n      jumpi\n        /* \"--CODEGEN--\":30:31   */\n      0x00\n        /* \"--CODEGEN--\":27:28   */\n      dup1\n        /* \"--CODEGEN--\":20:32   */\n      revert\n        /* \"--CODEGEN--\":5:7   */\n    tag_1:\n        /* \"contracts/Encapsulation_In_Solidity.sol\":51:418  contract parent {\r... */\n      pop\n      jumpi(tag_2, lt(calldatasize, 0x04))\n      shr(0xe0, calldataload(0x00))\n      dup1\n      0x4e70b1dc\n      eq\n      tag_3\n      jumpi\n      dup1\n      0x9257da0a\n      eq\n      tag_4\n      jumpi\n    tag_2:\n      0x00\n      dup1\n      revert\n        /* \"contracts/Encapsulation_In_Solidity.sol\":112:132  uint public num = 30 */\n    tag_3:\n      tag_5\n      tag_6\n      jump\t// in\n    tag_5:\n      mload(0x40)\n      dup1\n      dup3\n      dup2\n      mstore\n      0x20\n      add\n      swap2\n      pop\n      pop\n      mload(0x40)\n      dup1\n      swap2\n      sub\n      swap1\n      return\n        /* \"contracts/Encapsulation_In_Solidity.sol\":302:417  function sqrt() external returns (\r... */\n    tag_4:\n      tag_7\n      tag_8\n      jump\t// in\n    tag_7:\n      mload(0x40)\n      dup1\n      dup3\n      dup2\n      mstore\n      0x20\n      add\n      swap2\n      pop\n      pop\n      mload(0x40)\n      dup1\n      swap2\n      sub\n      swap1\n      return\n        /* \"contracts/Encapsulation_In_Solidity.sol\":112:132  uint public num = 30 */\n    tag_6:\n      sload(0x00)\n      dup2\n      jump\t// out\n        /* \"contracts/Encapsulation_In_Solidity.sol\":302:417  function sqrt() external returns (\r... */\n    tag_8:\n        /* \"contracts/Encapsulation_In_Solidity.sol\":342:346  uint */\n      0x00\n        /* \"contracts/Encapsulation_In_Solidity.sol\":386:387  2 */\n      0x02\n        /* \"contracts/Encapsulation_In_Solidity.sol\":370:382  internal_num */\n      sload(0x01)\n        /* \"contracts/Encapsulation_In_Solidity.sol\":370:387  internal_num ** 2 */\n      exp\n        /* \"contracts/Encapsulation_In_Solidity.sol\":355:367  internal_num */\n      0x01\n        /* \"contracts/Encapsulation_In_Solidity.sol\":355:387  internal_num = internal_num ** 2 */\n      dup2\n      swap1\n      sstore\n      pop\n        /* \"contracts/Encapsulation_In_Solidity.sol\":401:413  internal_num */\n      sload(0x01)\n        /* \"contracts/Encapsulation_In_Solidity.sol\":394:413  return internal_num */\n      swap1\n      pop\n        /* \"contracts/Encapsulation_In_Solidity.sol\":302:417  function sqrt() external returns (\r... */\n      swap1\n      jump\t// out\n\n    auxdata: 0xa265627a7a72315820f799e839071a39cef8f6b1a11611de865224325672e882b8301e823f67688ae764736f6c63430005110032\n}\n",
				"bytecode": {
					"linkReferences": {},
					"object": "6080604052601e600055600a60015534801561001a57600080fd5b5060c0806100296000396000f3fe6080604052348015600f57600080fd5b506004361060325760003560e01c80634e70b1dc1460375780639257da0a146053575b600080fd5b603d606f565b6040518082815260200191505060405180910390f35b60596075565b6040518082815260200191505060405180910390f35b60005481565b600060026001540a60018190555060015490509056fea265627a7a72315820f799e839071a39cef8f6b1a11611de865224325672e882b8301e823f67688ae764736f6c63430005110032",
					"opcodes": "PUSH1 0x80 PUSH1 0x40 MSTORE PUSH1 0x1E PUSH1 0x0 SSTORE PUSH1 0xA PUSH1 0x1 SSTORE CALLVALUE DUP1 ISZERO PUSH2 0x1A JUMPI PUSH1 0x0 DUP1 REVERT JUMPDEST POP PUSH1 0xC0 DUP1 PUSH2 0x29 PUSH1 0x0 CODECOPY PUSH1 0x0 RETURN INVALID PUSH1 0x80 PUSH1 0x40 MSTORE CALLVALUE DUP1 ISZERO PUSH1 0xF JUMPI PUSH1 0x0 DUP1 REVERT JUMPDEST POP PUSH1 0x4 CALLDATASIZE LT PUSH1 0x32 JUMPI PUSH1 0x0 CALLDATALOAD PUSH1 0xE0 SHR DUP1 PUSH4 0x4E70B1DC EQ PUSH1 0x37 JUMPI DUP1 PUSH4 0x9257DA0A EQ PUSH1 0x53 JUMPI JUMPDEST PUSH1 0x0 DUP1 REVERT JUMPDEST PUSH1 0x3D PUSH1 0x6F JUMP JUMPDEST PUSH1 0x40 MLOAD DUP1 DUP3 DUP2 MSTORE PUSH1 0x20 ADD SWAP2 POP POP PUSH1 0x40 MLOAD DUP1 SWAP2 SUB SWAP1 RETURN JUMPDEST PUSH1 0x59 PUSH1 0x75 JUMP JUMPDEST PUSH1 0x40 MLOAD DUP1 DUP3 DUP2 MSTORE PUSH1 0x20 ADD SWAP2 POP POP PUSH1 0x40 MLOAD DUP1 SWAP2 SUB SWAP1 RETURN JUMPDEST PUSH1 0x0 SLOAD DUP2 JUMP JUMPDEST PUSH1 0x0 PUSH1 0x2 PUSH1 0x1 SLOAD EXP PUSH1 0x1 DUP2 SWAP1 SSTORE POP PUSH1 0x1 SLOAD SWAP1 POP SWAP1 JUMP INVALID LOG2 PUSH6 0x627A7A723158 KECCAK256 0xF7 SWAP10 0xE8 CODECOPY SMOD BYTE CODECOPY 0xCE 0xF8 0xF6 0xB1 LOG1 AND GT 0xDE DUP7 MSTORE 0x24 ORIGIN JUMP PUSH19 0xE882B8301E823F67688AE764736F6C63430005 GT STOP ORIGIN "
				},
				"gasEstimates": {
					"creation": {
						"codeDepositCost": "38400",
						"executionCost": "40099",
						"totalCost": "78499"
					},
					"external": {
						"num()": "983",
						"sqrt()": "21890"
					}
				},
				"methodIdentifiers": {
					"num()": "4e70b1dc",
					"sqrt()": "9257da0a"
				}
			},
			"storageLayout": {
				"storage": [
					{
						"astId": 4,
						"contract": "contracts/Encapsulation_In_Solidity.sol:parent",
						"label": "num",
						"offset": 0,
						"slot": "0",
						"type": "t_uint256"
					},
					{
						"astId": 7,
						"contract": "contracts/Encapsulation_In_Solidity.sol:parent",
						"label": "internal_num",
						"offset": 0,
						"slot": "1",
						"type": "t_uint256"
					}
				],
				"types": {
					"t_uint256": {
						"encoding": "inplace",
						"label": "uint256",
						"numberOfBytes": "32"
					}
				}
			},
			"userdoc": {
				"methods": {}
			}
		}
	}
}