{
	"contracts/Encapsulation_In_Solidity.sol": {
		"Caller": {
			"abi": [
				{
					"constant": false,
					"inputs": [],
					"name": "f",
					"outputs": [
						{
							"internalType": "uint256",
							"name": "",
							"type": "uint256"
						}
					],
					"payable": false,
					"stateMutability": "nonpayable",
					"type": "function"
				},
				{
					"constant": false,
					"inputs": [],
					"name": "f2",
					"outputs": [
						{
							"internalType": "uint256",
							"name": "",
							"type": "uint256"
						},
						{
							"internalType": "uint256",
							"name": "",
							"type": "uint256"
						}
					],
					"payable": false,
					"stateMutability": "nonpayable",
					"type": "function"
				}
			],
			"devdoc": {
				"methods": {}
			},
			"evm": {
				"assembly": "    /* \"contracts/Encapsulation_In_Solidity.sol\":450:881  contract Caller {\r... */\n  mstore(0x40, 0x80)\n    /* \"contracts/Encapsulation_In_Solidity.sol\":522:533  new child() */\n  mload(0x40)\n  tag_1\n  swap1\n  tag_2\n  jump\t// in\ntag_1:\n  mload(0x40)\n  dup1\n  swap2\n  sub\n  swap1\n  0x00\n  create\n  dup1\n  iszero\n    /* \"--CODEGEN--\":8:17   */\n  dup1\n    /* \"--CODEGEN--\":5:7   */\n  iszero\n  tag_3\n  jumpi\n    /* \"--CODEGEN--\":45:61   */\n  returndatasize\n    /* \"--CODEGEN--\":42:43   */\n  0x00\n    /* \"--CODEGEN--\":39:40   */\n  dup1\n    /* \"--CODEGEN--\":24:62   */\n  returndatacopy\n    /* \"--CODEGEN--\":77:93   */\n  returndatasize\n    /* \"--CODEGEN--\":74:75   */\n  0x00\n    /* \"--CODEGEN--\":67:94   */\n  revert\n    /* \"--CODEGEN--\":5:7   */\ntag_3:\n    /* \"contracts/Encapsulation_In_Solidity.sol\":522:533  new child() */\n  pop\n    /* \"contracts/Encapsulation_In_Solidity.sol\":512:533  child c = new child() */\n  0x00\n  dup1\n  0x0100\n  exp\n  dup2\n  sload\n  dup2\n  0xffffffffffffffffffffffffffffffffffffffff\n  mul\n  not\n  and\n  swap1\n  dup4\n  0xffffffffffffffffffffffffffffffffffffffff\n  and\n  mul\n  or\n  swap1\n  sstore\n  pop\n    /* \"contracts/Encapsulation_In_Solidity.sol\":450:881  contract Caller {\r... */\n  callvalue\n    /* \"--CODEGEN--\":8:17   */\n  dup1\n    /* \"--CODEGEN--\":5:7   */\n  iszero\n  tag_4\n  jumpi\n    /* \"--CODEGEN--\":30:31   */\n  0x00\n    /* \"--CODEGEN--\":27:28   */\n  dup1\n    /* \"--CODEGEN--\":20:32   */\n  revert\n    /* \"--CODEGEN--\":5:7   */\ntag_4:\n    /* \"contracts/Encapsulation_In_Solidity.sol\":450:881  contract Caller {\r... */\n  pop\n  jump(tag_5)\ntag_2:\n  dataSize(sub_1)\n  dup1\n  dataOffset(sub_1)\n  dup4\n  codecopy\n  add\n  swap1\n  jump\t// out\ntag_5:\n  dataSize(sub_0)\n  dup1\n  dataOffset(sub_0)\n  0x00\n  codecopy\n  0x00\n  return\nstop\n\nsub_0: assembly {\n        /* \"contracts/Encapsulation_In_Solidity.sol\":450:881  contract Caller {\r... */\n      mstore(0x40, 0x80)\n      callvalue\n        /* \"--CODEGEN--\":8:17   */\n      dup1\n        /* \"--CODEGEN--\":5:7   */\n      iszero\n      tag_1\n      jumpi\n        /* \"--CODEGEN--\":30:31   */\n      0x00\n        /* \"--CODEGEN--\":27:28   */\n      dup1\n        /* \"--CODEGEN--\":20:32   */\n      revert\n        /* \"--CODEGEN--\":5:7   */\n    tag_1:\n        /* \"contracts/Encapsulation_In_Solidity.sol\":450:881  contract Caller {\r... */\n      pop\n      jumpi(tag_2, lt(calldatasize, 0x04))\n      shr(0xe0, calldataload(0x00))\n      dup1\n      0x26121ff0\n      eq\n      tag_3\n      jumpi\n      dup1\n      0x9942ec6f\n      eq\n      tag_4\n      jumpi\n    tag_2:\n      0x00\n      dup1\n      revert\n        /* \"contracts/Encapsulation_In_Solidity.sol\":623:690  function f() public returns (\r... */\n    tag_3:\n      tag_5\n      tag_6\n      jump\t// in\n    tag_5:\n      mload(0x40)\n      dup1\n      dup3\n      dup2\n      mstore\n      0x20\n      add\n      swap2\n      pop\n      pop\n      mload(0x40)\n      dup1\n      swap2\n      sub\n      swap1\n      return\n        /* \"contracts/Encapsulation_In_Solidity.sol\":790:878  function f2() public returns(\r... */\n    tag_4:\n      tag_7\n      tag_8\n      jump\t// in\n    tag_7:\n      mload(0x40)\n      dup1\n      dup4\n      dup2\n      mstore\n      0x20\n      add\n      dup3\n      dup2\n      mstore\n      0x20\n      add\n      swap3\n      pop\n      pop\n      pop\n      mload(0x40)\n      dup1\n      swap2\n      sub\n      swap1\n      return\n        /* \"contracts/Encapsulation_In_Solidity.sol\":623:690  function f() public returns (\r... */\n    tag_6:\n        /* \"contracts/Encapsulation_In_Solidity.sol\":658:662  uint */\n      0x00\n        /* \"contracts/Encapsulation_In_Solidity.sol\":678:679  c */\n      dup1\n      0x00\n      swap1\n      sload\n      swap1\n      0x0100\n      exp\n      swap1\n      div\n      0xffffffffffffffffffffffffffffffffffffffff\n      and\n        /* \"contracts/Encapsulation_In_Solidity.sol\":678:684  c.sqrt */\n      0xffffffffffffffffffffffffffffffffffffffff\n      and\n      0x9257da0a\n        /* \"contracts/Encapsulation_In_Solidity.sol\":678:686  c.sqrt() */\n      mload(0x40)\n      dup2\n      0xffffffff\n      and\n      0xe0\n      shl\n      dup2\n      mstore\n      0x04\n      add\n      0x20\n      mload(0x40)\n      dup1\n      dup4\n      sub\n      dup2\n      0x00\n      dup8\n      dup1\n      extcodesize\n      iszero\n        /* \"--CODEGEN--\":8:17   */\n      dup1\n        /* \"--CODEGEN--\":5:7   */\n      iszero\n      tag_10\n      jumpi\n        /* \"--CODEGEN--\":30:31   */\n      0x00\n        /* \"--CODEGEN--\":27:28   */\n      dup1\n        /* \"--CODEGEN--\":20:32   */\n      revert\n        /* \"--CODEGEN--\":5:7   */\n    tag_10:\n        /* \"contracts/Encapsulation_In_Solidity.sol\":678:686  c.sqrt() */\n      pop\n      gas\n      call\n      iszero\n        /* \"--CODEGEN--\":8:17   */\n      dup1\n        /* \"--CODEGEN--\":5:7   */\n      iszero\n      tag_11\n      jumpi\n        /* \"--CODEGEN--\":45:61   */\n      returndatasize\n        /* \"--CODEGEN--\":42:43   */\n      0x00\n        /* \"--CODEGEN--\":39:40   */\n      dup1\n        /* \"--CODEGEN--\":24:62   */\n      returndatacopy\n        /* \"--CODEGEN--\":77:93   */\n      returndatasize\n        /* \"--CODEGEN--\":74:75   */\n      0x00\n        /* \"--CODEGEN--\":67:94   */\n      revert\n        /* \"--CODEGEN--\":5:7   */\n    tag_11:\n        /* \"contracts/Encapsulation_In_Solidity.sol\":678:686  c.sqrt() */\n      pop\n      pop\n      pop\n      pop\n      mload(0x40)\n      returndatasize\n        /* \"--CODEGEN--\":13:15   */\n      0x20\n        /* \"--CODEGEN--\":8:11   */\n      dup2\n        /* \"--CODEGEN--\":5:16   */\n      lt\n        /* \"--CODEGEN--\":2:4   */\n      iszero\n      tag_12\n      jumpi\n        /* \"--CODEGEN--\":29:30   */\n      0x00\n        /* \"--CODEGEN--\":26:27   */\n      dup1\n        /* \"--CODEGEN--\":19:31   */\n      revert\n        /* \"--CODEGEN--\":2:4   */\n    tag_12:\n        /* \"contracts/Encapsulation_In_Solidity.sol\":678:686  c.sqrt() */\n      dup2\n      add\n      swap1\n      dup1\n      dup1\n      mload\n      swap1\n      0x20\n      add\n      swap1\n      swap3\n      swap2\n      swap1\n      pop\n      pop\n      pop\n        /* \"contracts/Encapsulation_In_Solidity.sol\":671:686  return c.sqrt() */\n      swap1\n      pop\n        /* \"contracts/Encapsulation_In_Solidity.sol\":623:690  function f() public returns (\r... */\n      swap1\n      jump\t// out\n        /* \"contracts/Encapsulation_In_Solidity.sol\":790:878  function f2() public returns(\r... */\n    tag_8:\n        /* \"contracts/Encapsulation_In_Solidity.sol\":825:829  uint */\n      0x00\n        /* \"contracts/Encapsulation_In_Solidity.sol\":831:835  uint */\n      dup1\n        /* \"contracts/Encapsulation_In_Solidity.sol\":851:852  c */\n      0x00\n      dup1\n      swap1\n      sload\n      swap1\n      0x0100\n      exp\n      swap1\n      div\n      0xffffffffffffffffffffffffffffffffffffffff\n      and\n        /* \"contracts/Encapsulation_In_Solidity.sol\":851:862  c.increment */\n      0xffffffffffffffffffffffffffffffffffffffff\n      and\n      0xd09de08a\n        /* \"contracts/Encapsulation_In_Solidity.sol\":851:864  c.increment() */\n      mload(0x40)\n      dup2\n      0xffffffff\n      and\n      0xe0\n      shl\n      dup2\n      mstore\n      0x04\n      add\n      0x20\n      mload(0x40)\n      dup1\n      dup4\n      sub\n      dup2\n      0x00\n      dup8\n      dup1\n      extcodesize\n      iszero\n        /* \"--CODEGEN--\":8:17   */\n      dup1\n        /* \"--CODEGEN--\":5:7   */\n      iszero\n      tag_14\n      jumpi\n        /* \"--CODEGEN--\":30:31   */\n      0x00\n        /* \"--CODEGEN--\":27:28   */\n      dup1\n        /* \"--CODEGEN--\":20:32   */\n      revert\n        /* \"--CODEGEN--\":5:7   */\n    tag_14:\n        /* \"contracts/Encapsulation_In_Solidity.sol\":851:864  c.increment() */\n      pop\n      gas\n      call\n      iszero\n        /* \"--CODEGEN--\":8:17   */\n      dup1\n        /* \"--CODEGEN--\":5:7   */\n      iszero\n      tag_15\n      jumpi\n        /* \"--CODEGEN--\":45:61   */\n      returndatasize\n        /* \"--CODEGEN--\":42:43   */\n      0x00\n        /* \"--CODEGEN--\":39:40   */\n      dup1\n        /* \"--CODEGEN--\":24:62   */\n      returndatacopy\n        /* \"--CODEGEN--\":77:93   */\n      returndatasize\n        /* \"--CODEGEN--\":74:75   */\n      0x00\n        /* \"--CODEGEN--\":67:94   */\n      revert\n        /* \"--CODEGEN--\":5:7   */\n    tag_15:\n        /* \"contracts/Encapsulation_In_Solidity.sol\":851:864  c.increment() */\n      pop\n      pop\n      pop\n      pop\n      mload(0x40)\n      returndatasize\n        /* \"--CODEGEN--\":13:15   */\n      0x20\n        /* \"--CODEGEN--\":8:11   */\n      dup2\n        /* \"--CODEGEN--\":5:16   */\n      lt\n        /* \"--CODEGEN--\":2:4   */\n      iszero\n      tag_16\n      jumpi\n        /* \"--CODEGEN--\":29:30   */\n      0x00\n        /* \"--CODEGEN--\":26:27   */\n      dup1\n        /* \"--CODEGEN--\":19:31   */\n      revert\n        /* \"--CODEGEN--\":2:4   */\n    tag_16:\n        /* \"contracts/Encapsulation_In_Solidity.sol\":851:864  c.increment() */\n      dup2\n      add\n      swap1\n      dup1\n      dup1\n      mload\n      swap1\n      0x20\n      add\n      swap1\n      swap3\n      swap2\n      swap1\n      pop\n      pop\n      pop\n        /* \"contracts/Encapsulation_In_Solidity.sol\":866:867  c */\n      0x00\n      dup1\n      swap1\n      sload\n      swap1\n      0x0100\n      exp\n      swap1\n      div\n      0xffffffffffffffffffffffffffffffffffffffff\n      and\n        /* \"contracts/Encapsulation_In_Solidity.sol\":866:871  c.add */\n      0xffffffffffffffffffffffffffffffffffffffff\n      and\n      0x4f2be91f\n        /* \"contracts/Encapsulation_In_Solidity.sol\":866:873  c.add() */\n      mload(0x40)\n      dup2\n      0xffffffff\n      and\n      0xe0\n      shl\n      dup2\n      mstore\n      0x04\n      add\n      0x20\n      mload(0x40)\n      dup1\n      dup4\n      sub\n      dup2\n      dup7\n      dup1\n      extcodesize\n      iszero\n        /* \"--CODEGEN--\":8:17   */\n      dup1\n        /* \"--CODEGEN--\":5:7   */\n      iszero\n      tag_17\n      jumpi\n        /* \"--CODEGEN--\":30:31   */\n      0x00\n        /* \"--CODEGEN--\":27:28   */\n      dup1\n        /* \"--CODEGEN--\":20:32   */\n      revert\n        /* \"--CODEGEN--\":5:7   */\n    tag_17:\n        /* \"contracts/Encapsulation_In_Solidity.sol\":866:873  c.add() */\n      pop\n      gas\n      staticcall\n      iszero\n        /* \"--CODEGEN--\":8:17   */\n      dup1\n        /* \"--CODEGEN--\":5:7   */\n      iszero\n      tag_18\n      jumpi\n        /* \"--CODEGEN--\":45:61   */\n      returndatasize\n        /* \"--CODEGEN--\":42:43   */\n      0x00\n        /* \"--CODEGEN--\":39:40   */\n      dup1\n        /* \"--CODEGEN--\":24:62   */\n      returndatacopy\n        /* \"--CODEGEN--\":77:93   */\n      returndatasize\n        /* \"--CODEGEN--\":74:75   */\n      0x00\n        /* \"--CODEGEN--\":67:94   */\n      revert\n        /* \"--CODEGEN--\":5:7   */\n    tag_18:\n        /* \"contracts/Encapsulation_In_Solidity.sol\":866:873  c.add() */\n      pop\n      pop\n      pop\n      pop\n      mload(0x40)\n      returndatasize\n        /* \"--CODEGEN--\":13:15   */\n      0x20\n        /* \"--CODEGEN--\":8:11   */\n      dup2\n        /* \"--CODEGEN--\":5:16   */\n      lt\n        /* \"--CODEGEN--\":2:4   */\n      iszero\n      tag_19\n      jumpi\n        /* \"--CODEGEN--\":29:30   */\n      0x00\n        /* \"--CODEGEN--\":26:27   */\n      dup1\n        /* \"--CODEGEN--\":19:31   */\n      revert\n        /* \"--CODEGEN--\":2:4   */\n    tag_19:\n        /* \"contracts/Encapsulation_In_Solidity.sol\":866:873  c.add() */\n      dup2\n      add\n      swap1\n      dup1\n      dup1\n      mload\n      swap1\n      0x20\n      add\n      swap1\n      swap3\n      swap2\n      swap1\n      pop\n      pop\n      pop\n        /* \"contracts/Encapsulation_In_Solidity.sol\":843:874  return (c.increment(), c.add()) */\n      swap2\n      pop\n      swap2\n      pop\n        /* \"contracts/Encapsulation_In_Solidity.sol\":790:878  function f2() public returns(\r... */\n      swap1\n      swap2\n      jump\t// out\n\n    auxdata: 0xa265627a7a72315820465a4de313b88760ae301b68388c5814486e17a59414114b4f6dfa36d1c79b8764736f6c63430005110032\n}\n\nsub_1: assembly {\n        /* \"contracts/Encapsulation_In_Solidity.sol\":944:1381  contract child is parent {\r... */\n      mstore(0x40, 0x80)\n        /* \"contracts/Encapsulation_In_Solidity.sol\":130:132  30 */\n      0x1e\n        /* \"contracts/Encapsulation_In_Solidity.sol\":112:132  uint public num = 30 */\n      0x00\n      sstore\n        /* \"contracts/Encapsulation_In_Solidity.sol\":207:209  10 */\n      0x0a\n        /* \"contracts/Encapsulation_In_Solidity.sol\":179:209  uint internal internal_num= 10 */\n      0x01\n      sstore\n        /* \"contracts/Encapsulation_In_Solidity.sol\":944:1381  contract child is parent {\r... */\n      callvalue\n        /* \"--CODEGEN--\":8:17   */\n      dup1\n        /* \"--CODEGEN--\":5:7   */\n      iszero\n      tag_1\n      jumpi\n        /* \"--CODEGEN--\":30:31   */\n      0x00\n        /* \"--CODEGEN--\":27:28   */\n      dup1\n        /* \"--CODEGEN--\":20:32   */\n      revert\n        /* \"--CODEGEN--\":5:7   */\n    tag_1:\n        /* \"contracts/Encapsulation_In_Solidity.sol\":944:1381  contract child is parent {\r... */\n      pop\n      dataSize(sub_0)\n      dup1\n      dataOffset(sub_0)\n      0x00\n      codecopy\n      0x00\n      return\n    stop\n\n    sub_0: assembly {\n            /* \"contracts/Encapsulation_In_Solidity.sol\":944:1381  contract child is parent {\r... */\n          mstore(0x40, 0x80)\n          jumpi(tag_1, lt(calldatasize, 0x04))\n          shr(0xe0, calldataload(0x00))\n          dup1\n          0x4e70b1dc\n          eq\n          tag_2\n          jumpi\n          dup1\n          0x4f2be91f\n          eq\n          tag_3\n          jumpi\n          dup1\n          0x9257da0a\n          eq\n          tag_4\n          jumpi\n          dup1\n          0xd09de08a\n          eq\n          tag_5\n          jumpi\n        tag_1:\n          0x00\n          dup1\n          revert\n            /* \"contracts/Encapsulation_In_Solidity.sol\":112:132  uint public num = 30 */\n        tag_2:\n          callvalue\n            /* \"--CODEGEN--\":8:17   */\n          dup1\n            /* \"--CODEGEN--\":5:7   */\n          iszero\n          tag_6\n          jumpi\n            /* \"--CODEGEN--\":30:31   */\n          0x00\n            /* \"--CODEGEN--\":27:28   */\n          dup1\n            /* \"--CODEGEN--\":20:32   */\n          revert\n            /* \"--CODEGEN--\":5:7   */\n        tag_6:\n            /* \"contracts/Encapsulation_In_Solidity.sol\":112:132  uint public num = 30 */\n          pop\n          tag_7\n          tag_8\n          jump\t// in\n        tag_7:\n          mload(0x40)\n          dup1\n          dup3\n          dup2\n          mstore\n          0x20\n          add\n          swap2\n          pop\n          pop\n          mload(0x40)\n          dup1\n          swap2\n          sub\n          swap1\n          return\n            /* \"contracts/Encapsulation_In_Solidity.sol\":1252:1378  function add() public view returns(\r... */\n        tag_3:\n          callvalue\n            /* \"--CODEGEN--\":8:17   */\n          dup1\n            /* \"--CODEGEN--\":5:7   */\n          iszero\n          tag_9\n          jumpi\n            /* \"--CODEGEN--\":30:31   */\n          0x00\n            /* \"--CODEGEN--\":27:28   */\n          dup1\n            /* \"--CODEGEN--\":20:32   */\n          revert\n            /* \"--CODEGEN--\":5:7   */\n        tag_9:\n            /* \"contracts/Encapsulation_In_Solidity.sol\":1252:1378  function add() public view returns(\r... */\n          pop\n          tag_10\n          tag_11\n          jump\t// in\n        tag_10:\n          mload(0x40)\n          dup1\n          dup3\n          dup2\n          mstore\n          0x20\n          add\n          swap2\n          pop\n          pop\n          mload(0x40)\n          dup1\n          swap2\n          sub\n          swap1\n          return\n            /* \"contracts/Encapsulation_In_Solidity.sol\":302:417  function sqrt() external returns (\r... */\n        tag_4:\n          callvalue\n            /* \"--CODEGEN--\":8:17   */\n          dup1\n            /* \"--CODEGEN--\":5:7   */\n          iszero\n          tag_12\n          jumpi\n            /* \"--CODEGEN--\":30:31   */\n          0x00\n            /* \"--CODEGEN--\":27:28   */\n          dup1\n            /* \"--CODEGEN--\":20:32   */\n          revert\n            /* \"--CODEGEN--\":5:7   */\n        tag_12:\n            /* \"contracts/Encapsulation_In_Solidity.sol\":302:417  function sqrt() external returns (\r... */\n          pop\n          tag_13\n          tag_14\n          jump\t// in\n        tag_13:\n          mload(0x40)\n          dup1\n          dup3\n          dup2\n          mstore\n          0x20\n          add\n          swap2\n          pop\n          pop\n          mload(0x40)\n          dup1\n          swap2\n          sub\n          swap1\n          return\n            /* \"contracts/Encapsulation_In_Solidity.sol\":1062:1157  function increment(\r... */\n        tag_5:\n          tag_15\n          tag_16\n          jump\t// in\n        tag_15:\n          mload(0x40)\n          dup1\n          dup3\n          dup2\n          mstore\n          0x20\n          add\n          swap2\n          pop\n          pop\n          mload(0x40)\n          dup1\n          swap2\n          sub\n          swap1\n          return\n            /* \"contracts/Encapsulation_In_Solidity.sol\":112:132  uint public num = 30 */\n        tag_8:\n          sload(0x00)\n          dup2\n          jump\t// out\n            /* \"contracts/Encapsulation_In_Solidity.sol\":1252:1378  function add() public view returns(\r... */\n        tag_11:\n            /* \"contracts/Encapsulation_In_Solidity.sol\":1293:1297  uint */\n          0x00\n            /* \"contracts/Encapsulation_In_Solidity.sol\":1305:1311  uint a */\n          dup1\n            /* \"contracts/Encapsulation_In_Solidity.sol\":1314:1316  10 */\n          0x0a\n            /* \"contracts/Encapsulation_In_Solidity.sol\":1305:1316  uint a = 10 */\n          swap1\n          pop\n            /* \"contracts/Encapsulation_In_Solidity.sol\":1323:1329  uint b */\n          0x00\n            /* \"contracts/Encapsulation_In_Solidity.sol\":1332:1334  20 */\n          0x14\n            /* \"contracts/Encapsulation_In_Solidity.sol\":1323:1334  uint b = 20 */\n          swap1\n          pop\n            /* \"contracts/Encapsulation_In_Solidity.sol\":1341:1349  uint sum */\n          0x00\n            /* \"contracts/Encapsulation_In_Solidity.sol\":1356:1357  b */\n          dup2\n            /* \"contracts/Encapsulation_In_Solidity.sol\":1352:1353  a */\n          dup4\n            /* \"contracts/Encapsulation_In_Solidity.sol\":1352:1357  a + b */\n          add\n            /* \"contracts/Encapsulation_In_Solidity.sol\":1341:1357  uint sum = a + b */\n          swap1\n          pop\n            /* \"contracts/Encapsulation_In_Solidity.sol\":1371:1374  sum */\n          dup1\n            /* \"contracts/Encapsulation_In_Solidity.sol\":1364:1374  return sum */\n          swap4\n          pop\n          pop\n          pop\n          pop\n            /* \"contracts/Encapsulation_In_Solidity.sol\":1252:1378  function add() public view returns(\r... */\n          swap1\n          jump\t// out\n            /* \"contracts/Encapsulation_In_Solidity.sol\":302:417  function sqrt() external returns (\r... */\n        tag_14:\n            /* \"contracts/Encapsulation_In_Solidity.sol\":342:346  uint */\n          0x00\n            /* \"contracts/Encapsulation_In_Solidity.sol\":386:387  2 */\n          0x02\n            /* \"contracts/Encapsulation_In_Solidity.sol\":370:382  internal_num */\n          sload(0x01)\n            /* \"contracts/Encapsulation_In_Solidity.sol\":370:387  internal_num ** 2 */\n          exp\n            /* \"contracts/Encapsulation_In_Solidity.sol\":355:367  internal_num */\n          0x01\n            /* \"contracts/Encapsulation_In_Solidity.sol\":355:387  internal_num = internal_num ** 2 */\n          dup2\n          swap1\n          sstore\n          pop\n            /* \"contracts/Encapsulation_In_Solidity.sol\":401:413  internal_num */\n          sload(0x01)\n            /* \"contracts/Encapsulation_In_Solidity.sol\":394:413  return internal_num */\n          swap1\n          pop\n            /* \"contracts/Encapsulation_In_Solidity.sol\":302:417  function sqrt() external returns (\r... */\n          swap1\n          jump\t// out\n            /* \"contracts/Encapsulation_In_Solidity.sol\":1062:1157  function increment(\r... */\n        tag_16:\n            /* \"contracts/Encapsulation_In_Solidity.sol\":1109:1113  uint */\n          0x00\n            /* \"contracts/Encapsulation_In_Solidity.sol\":1134:1136  20 */\n          0x14\n            /* \"contracts/Encapsulation_In_Solidity.sol\":1128:1131  num */\n          sload(0x00)\n            /* \"contracts/Encapsulation_In_Solidity.sol\":1128:1136  num + 20 */\n          add\n            /* \"contracts/Encapsulation_In_Solidity.sol\":1122:1125  num */\n          0x00\n            /* \"contracts/Encapsulation_In_Solidity.sol\":1122:1136  num = num + 20 */\n          dup2\n          swap1\n          sstore\n          pop\n            /* \"contracts/Encapsulation_In_Solidity.sol\":1150:1153  num */\n          sload(0x00)\n            /* \"contracts/Encapsulation_In_Solidity.sol\":1143:1153  return num */\n          swap1\n          pop\n            /* \"contracts/Encapsulation_In_Solidity.sol\":1062:1157  function increment(\r... */\n          swap1\n          jump\t// out\n\n        auxdata: 0xa265627a7a7231582039228918ff605f10b96a145a76ad282e4d77fe89df59d99803b7fc5f049e398c64736f6c63430005110032\n    }\n}\n",
				"bytecode": {
					"linkReferences": {},
					"object": "60806040526040516100109061007e565b604051809103906000f08015801561002c573d6000803e3d6000fd5b506000806101000a81548173ffffffffffffffffffffffffffffffffffffffff021916908373ffffffffffffffffffffffffffffffffffffffff16021790555034801561007857600080fd5b5061008b565b6101918061034983390190565b6102af8061009a6000396000f3fe608060405234801561001057600080fd5b50600436106100365760003560e01c806326121ff01461003b5780639942ec6f14610059575b600080fd5b61004361007e565b6040518082815260200191505060405180910390f35b610061610129565b604051808381526020018281526020019250505060405180910390f35b60008060009054906101000a900473ffffffffffffffffffffffffffffffffffffffff1673ffffffffffffffffffffffffffffffffffffffff16639257da0a6040518163ffffffff1660e01b8152600401602060405180830381600087803b1580156100e957600080fd5b505af11580156100fd573d6000803e3d6000fd5b505050506040513d602081101561011357600080fd5b8101908080519060200190929190505050905090565b6000806000809054906101000a900473ffffffffffffffffffffffffffffffffffffffff1673ffffffffffffffffffffffffffffffffffffffff1663d09de08a6040518163ffffffff1660e01b8152600401602060405180830381600087803b15801561019557600080fd5b505af11580156101a9573d6000803e3d6000fd5b505050506040513d60208110156101bf57600080fd5b81019080805190602001909291905050506000809054906101000a900473ffffffffffffffffffffffffffffffffffffffff1673ffffffffffffffffffffffffffffffffffffffff16634f2be91f6040518163ffffffff1660e01b815260040160206040518083038186803b15801561023757600080fd5b505afa15801561024b573d6000803e3d6000fd5b505050506040513d602081101561026157600080fd5b810190808051906020019092919050505091509150909156fea265627a7a72315820465a4de313b88760ae301b68388c5814486e17a59414114b4f6dfa36d1c79b8764736f6c634300051100326080604052601e600055600a60015534801561001a57600080fd5b506101678061002a6000396000f3fe60806040526004361061003f5760003560e01c80634e70b1dc146100445780634f2be91f1461006f5780639257da0a1461009a578063d09de08a146100c5575b600080fd5b34801561005057600080fd5b506100596100e3565b6040518082815260200191505060405180910390f35b34801561007b57600080fd5b506100846100e9565b6040518082815260200191505060405180910390f35b3480156100a657600080fd5b506100af610106565b6040518082815260200191505060405180910390f35b6100cd61011c565b6040518082815260200191505060405180910390f35b60005481565b600080600a90506000601490506000818301905080935050505090565b600060026001540a600181905550600154905090565b600060146000540160008190555060005490509056fea265627a7a7231582039228918ff605f10b96a145a76ad282e4d77fe89df59d99803b7fc5f049e398c64736f6c63430005110032",
					"opcodes": "PUSH1 0x80 PUSH1 0x40 MSTORE PUSH1 0x40 MLOAD PUSH2 0x10 SWAP1 PUSH2 0x7E JUMP JUMPDEST PUSH1 0x40 MLOAD DUP1 SWAP2 SUB SWAP1 PUSH1 0x0 CREATE DUP1 ISZERO DUP1 ISZERO PUSH2 0x2C JUMPI RETURNDATASIZE PUSH1 0x0 DUP1 RETURNDATACOPY RETURNDATASIZE PUSH1 0x0 REVERT JUMPDEST POP PUSH1 0x0 DUP1 PUSH2 0x100 EXP DUP2 SLOAD DUP2 PUSH20 0xFFFFFFFFFFFFFFFFFFFFFFFFFFFFFFFFFFFFFFFF MUL NOT AND SWAP1 DUP4 PUSH20 0xFFFFFFFFFFFFFFFFFFFFFFFFFFFFFFFFFFFFFFFF AND MUL OR SWAP1 SSTORE POP CALLVALUE DUP1 ISZERO PUSH2 0x78 JUMPI PUSH1 0x0 DUP1 REVERT JUMPDEST POP PUSH2 0x8B JUMP JUMPDEST PUSH2 0x191 DUP1 PUSH2 0x349 DUP4 CODECOPY ADD SWAP1 JUMP JUMPDEST PUSH2 0x2AF DUP1 PUSH2 0x9A PUSH1 0x0 CODECOPY PUSH1 0x0 RETURN INVALID PUSH1 0x80 PUSH1 0x40 MSTORE CALLVALUE DUP1 ISZERO PUSH2 0x10 JUMPI PUSH1 0x0 DUP1 REVERT JUMPDEST POP PUSH1 0x4 CALLDATASIZE LT PUSH2 0x36 JUMPI PUSH1 0x0 CALLDATALOAD PUSH1 0xE0 SHR DUP1 PUSH4 0x26121FF0 EQ PUSH2 0x3B JUMPI DUP1 PUSH4 0x9942EC6F EQ PUSH2 0x59 JUMPI JUMPDEST PUSH1 0x0 DUP1 REVERT JUMPDEST PUSH2 0x43 PUSH2 0x7E JUMP JUMPDEST PUSH1 0x40 MLOAD DUP1 DUP3 DUP2 MSTORE PUSH1 0x20 ADD SWAP2 POP POP PUSH1 0x40 MLOAD DUP1 SWAP2 SUB SWAP1 RETURN JUMPDEST PUSH2 0x61 PUSH2 0x129 JUMP JUMPDEST PUSH1 0x40 MLOAD DUP1 DUP4 DUP2 MSTORE PUSH1 0x20 ADD DUP3 DUP2 MSTORE PUSH1 0x20 ADD SWAP3 POP POP POP PUSH1 0x40 MLOAD DUP1 SWAP2 SUB SWAP1 RETURN JUMPDEST PUSH1 0x0 DUP1 PUSH1 0x0 SWAP1 SLOAD SWAP1 PUSH2 0x100 EXP SWAP1 DIV PUSH20 0xFFFFFFFFFFFFFFFFFFFFFFFFFFFFFFFFFFFFFFFF AND PUSH20 0xFFFFFFFFFFFFFFFFFFFFFFFFFFFFFFFFFFFFFFFF AND PUSH4 0x9257DA0A PUSH1 0x40 MLOAD DUP2 PUSH4 0xFFFFFFFF AND PUSH1 0xE0 SHL DUP2 MSTORE PUSH1 0x4 ADD PUSH1 0x20 PUSH1 0x40 MLOAD DUP1 DUP4 SUB DUP2 PUSH1 0x0 DUP8 DUP1 EXTCODESIZE ISZERO DUP1 ISZERO PUSH2 0xE9 JUMPI PUSH1 0x0 DUP1 REVERT JUMPDEST POP GAS CALL ISZERO DUP1 ISZERO PUSH2 0xFD JUMPI RETURNDATASIZE PUSH1 0x0 DUP1 RETURNDATACOPY RETURNDATASIZE PUSH1 0x0 REVERT JUMPDEST POP POP POP POP PUSH1 0x40 MLOAD RETURNDATASIZE PUSH1 0x20 DUP2 LT ISZERO PUSH2 0x113 JUMPI PUSH1 0x0 DUP1 REVERT JUMPDEST DUP2 ADD SWAP1 DUP1 DUP1 MLOAD SWAP1 PUSH1 0x20 ADD SWAP1 SWAP3 SWAP2 SWAP1 POP POP POP SWAP1 POP SWAP1 JUMP JUMPDEST PUSH1 0x0 DUP1 PUSH1 0x0 DUP1 SWAP1 SLOAD SWAP1 PUSH2 0x100 EXP SWAP1 DIV PUSH20 0xFFFFFFFFFFFFFFFFFFFFFFFFFFFFFFFFFFFFFFFF AND PUSH20 0xFFFFFFFFFFFFFFFFFFFFFFFFFFFFFFFFFFFFFFFF AND PUSH4 0xD09DE08A PUSH1 0x40 MLOAD DUP2 PUSH4 0xFFFFFFFF AND PUSH1 0xE0 SHL DUP2 MSTORE PUSH1 0x4 ADD PUSH1 0x20 PUSH1 0x40 MLOAD DUP1 DUP4 SUB DUP2 PUSH1 0x0 DUP8 DUP1 EXTCODESIZE ISZERO DUP1 ISZERO PUSH2 0x195 JUMPI PUSH1 0x0 DUP1 REVERT JUMPDEST POP GAS CALL ISZERO DUP1 ISZERO PUSH2 0x1A9 JUMPI RETURNDATASIZE PUSH1 0x0 DUP1 RETURNDATACOPY RETURNDATASIZE PUSH1 0x0 REVERT JUMPDEST POP POP POP POP PUSH1 0x40 MLOAD RETURNDATASIZE PUSH1 0x20 DUP2 LT ISZERO PUSH2 0x1BF JUMPI PUSH1 0x0 DUP1 REVERT JUMPDEST DUP2 ADD SWAP1 DUP1 DUP1 MLOAD SWAP1 PUSH1 0x20 ADD SWAP1 SWAP3 SWAP2 SWAP1 POP POP POP PUSH1 0x0 DUP1 SWAP1 SLOAD SWAP1 PUSH2 0x100 EXP SWAP1 DIV PUSH20 0xFFFFFFFFFFFFFFFFFFFFFFFFFFFFFFFFFFFFFFFF AND PUSH20 0xFFFFFFFFFFFFFFFFFFFFFFFFFFFFFFFFFFFFFFFF AND PUSH4 0x4F2BE91F PUSH1 0x40 MLOAD DUP2 PUSH4 0xFFFFFFFF AND PUSH1 0xE0 SHL DUP2 MSTORE PUSH1 0x4 ADD PUSH1 0x20 PUSH1 0x40 MLOAD DUP1 DUP4 SUB DUP2 DUP7 DUP1 EXTCODESIZE ISZERO DUP1 ISZERO PUSH2 0x237 JUMPI PUSH1 0x0 DUP1 REVERT JUMPDEST POP GAS STATICCALL ISZERO DUP1 ISZERO PUSH2 0x24B JUMPI RETURNDATASIZE PUSH1 0x0 DUP1 RETURNDATACOPY RETURNDATASIZE PUSH1 0x0 REVERT JUMPDEST POP POP POP POP PUSH1 0x40 MLOAD RETURNDATASIZE PUSH1 0x20 DUP2 LT ISZERO PUSH2 0x261 JUMPI PUSH1 0x0 DUP1 REVERT JUMPDEST DUP2 ADD SWAP1 DUP1 DUP1 MLOAD SWAP1 PUSH1 0x20 ADD SWAP1 SWAP3 SWAP2 SWAP1 POP POP POP SWAP2 POP SWAP2 POP SWAP1 SWAP2 JUMP INVALID LOG2 PUSH6 0x627A7A723158 KECCAK256 CHAINID GAS 0x4D 0xE3 SGT 0xB8 DUP8 PUSH1 0xAE ADDRESS SHL PUSH9 0x388C5814486E17A594 EQ GT 0x4B 0x4F PUSH14 0xFA36D1C79B8764736F6C63430005 GT STOP ORIGIN PUSH1 0x80 PUSH1 0x40 MSTORE PUSH1 0x1E PUSH1 0x0 SSTORE PUSH1 0xA PUSH1 0x1 SSTORE CALLVALUE DUP1 ISZERO PUSH2 0x1A JUMPI PUSH1 0x0 DUP1 REVERT JUMPDEST POP PUSH2 0x167 DUP1 PUSH2 0x2A PUSH1 0x0 CODECOPY PUSH1 0x0 RETURN INVALID PUSH1 0x80 PUSH1 0x40 MSTORE PUSH1 0x4 CALLDATASIZE LT PUSH2 0x3F JUMPI PUSH1 0x0 CALLDATALOAD PUSH1 0xE0 SHR DUP1 PUSH4 0x4E70B1DC EQ PUSH2 0x44 JUMPI DUP1 PUSH4 0x4F2BE91F EQ PUSH2 0x6F JUMPI DUP1 PUSH4 0x9257DA0A EQ PUSH2 0x9A JUMPI DUP1 PUSH4 0xD09DE08A EQ PUSH2 0xC5 JUMPI JUMPDEST PUSH1 0x0 DUP1 REVERT JUMPDEST CALLVALUE DUP1 ISZERO PUSH2 0x50 JUMPI PUSH1 0x0 DUP1 REVERT JUMPDEST POP PUSH2 0x59 PUSH2 0xE3 JUMP JUMPDEST PUSH1 0x40 MLOAD DUP1 DUP3 DUP2 MSTORE PUSH1 0x20 ADD SWAP2 POP POP PUSH1 0x40 MLOAD DUP1 SWAP2 SUB SWAP1 RETURN JUMPDEST CALLVALUE DUP1 ISZERO PUSH2 0x7B JUMPI PUSH1 0x0 DUP1 REVERT JUMPDEST POP PUSH2 0x84 PUSH2 0xE9 JUMP JUMPDEST PUSH1 0x40 MLOAD DUP1 DUP3 DUP2 MSTORE PUSH1 0x20 ADD SWAP2 POP POP PUSH1 0x40 MLOAD DUP1 SWAP2 SUB SWAP1 RETURN JUMPDEST CALLVALUE DUP1 ISZERO PUSH2 0xA6 JUMPI PUSH1 0x0 DUP1 REVERT JUMPDEST POP PUSH2 0xAF PUSH2 0x106 JUMP JUMPDEST PUSH1 0x40 MLOAD DUP1 DUP3 DUP2 MSTORE PUSH1 0x20 ADD SWAP2 POP POP PUSH1 0x40 MLOAD DUP1 SWAP2 SUB SWAP1 RETURN JUMPDEST PUSH2 0xCD PUSH2 0x11C JUMP JUMPDEST PUSH1 0x40 MLOAD DUP1 DUP3 DUP2 MSTORE PUSH1 0x20 ADD SWAP2 POP POP PUSH1 0x40 MLOAD DUP1 SWAP2 SUB SWAP1 RETURN JUMPDEST PUSH1 0x0 SLOAD DUP2 JUMP JUMPDEST PUSH1 0x0 DUP1 PUSH1 0xA SWAP1 POP PUSH1 0x0 PUSH1 0x14 SWAP1 POP PUSH1 0x0 DUP2 DUP4 ADD SWAP1 POP DUP1 SWAP4 POP POP POP POP SWAP1 JUMP JUMPDEST PUSH1 0x0 PUSH1 0x2 PUSH1 0x1 SLOAD EXP PUSH1 0x1 DUP2 SWAP1 SSTORE POP PUSH1 0x1 SLOAD SWAP1 POP SWAP1 JUMP JUMPDEST PUSH1 0x0 PUSH1 0x14 PUSH1 0x0 SLOAD ADD PUSH1 0x0 DUP2 SWAP1 SSTORE POP PUSH1 0x0 SLOAD SWAP1 POP SWAP1 JUMP INVALID LOG2 PUSH6 0x627A7A723158 KECCAK256 CODECOPY 0x22 DUP10 XOR SELFDESTRUCT PUSH1 0x5F LT 0xB9 PUSH11 0x145A76AD282E4D77FE89DF MSIZE 0xD9 SWAP9 SUB 0xB7 0xFC 0x5F DIV SWAP15 CODECOPY DUP13 PUSH5 0x736F6C6343 STOP SDIV GT STOP ORIGIN "
				},
				"gasEstimates": {
					"creation": {
						"codeDepositCost": "137400",
						"executionCost": "infinite",
						"totalCost": "infinite"
					},
					"external": {
						"f()": "infinite",
						"f2()": "infinite"
					}
				},
				"methodIdentifiers": {
					"f()": "26121ff0",
					"f2()": "9942ec6f"
				}
			},
			"storageLayout": {
				"storage": [
					{
						"astId": 27,
						"contract": "contracts/Encapsulation_In_Solidity.sol:Caller",
						"label": "c",
						"offset": 0,
						"slot": "0",
						"type": "t_contract(child)93"
					}
				],
				"types": {
					"t_contract(child)93": {
						"encoding": "inplace",
						"label": "contract child",
						"numberOfBytes": "20"
					}
				}
			},
			"userdoc": {
				"methods": {}
			}
		}
	}
}